{
  "address": "0x5FbDB2315678afecb367f032d93F642f64180aa3",
  "abi": [
    {
      "inputs": [],
      "stateMutability": "nonpayable",
      "type": "constructor"
    },
    {
      "anonymous": false,
      "inputs": [
        {
          "indexed": true,
          "internalType": "bytes32",
          "name": "role",
          "type": "bytes32"
        },
        {
          "indexed": true,
          "internalType": "bytes32",
          "name": "previousAdminRole",
          "type": "bytes32"
        },
        {
          "indexed": true,
          "internalType": "bytes32",
          "name": "newAdminRole",
          "type": "bytes32"
        }
      ],
      "name": "RoleAdminChanged",
      "type": "event"
    },
    {
      "anonymous": false,
      "inputs": [
        {
          "indexed": true,
          "internalType": "bytes32",
          "name": "role",
          "type": "bytes32"
        },
        {
          "indexed": true,
          "internalType": "address",
          "name": "account",
          "type": "address"
        },
        {
          "indexed": true,
          "internalType": "address",
          "name": "sender",
          "type": "address"
        }
      ],
      "name": "RoleGranted",
      "type": "event"
    },
    {
      "anonymous": false,
      "inputs": [
        {
          "indexed": true,
          "internalType": "bytes32",
          "name": "role",
          "type": "bytes32"
        },
        {
          "indexed": true,
          "internalType": "address",
          "name": "account",
          "type": "address"
        },
        {
          "indexed": true,
          "internalType": "address",
          "name": "sender",
          "type": "address"
        }
      ],
      "name": "RoleRevoked",
      "type": "event"
    },
    {
      "inputs": [],
      "name": "DEFAULT_ADMIN_ROLE",
      "outputs": [
        {
          "internalType": "bytes32",
          "name": "",
          "type": "bytes32"
        }
      ],
      "stateMutability": "view",
      "type": "function"
    },
    {
      "inputs": [
        {
          "internalType": "bytes32",
          "name": "role",
          "type": "bytes32"
        }
      ],
      "name": "getRoleAdmin",
      "outputs": [
        {
          "internalType": "bytes32",
          "name": "",
          "type": "bytes32"
        }
      ],
      "stateMutability": "view",
      "type": "function"
    },
    {
      "inputs": [
        {
          "internalType": "bytes32",
          "name": "permission",
          "type": "bytes32"
        },
        {
          "internalType": "address",
          "name": "account",
          "type": "address"
        }
      ],
      "name": "grantPermission",
      "outputs": [],
      "stateMutability": "nonpayable",
      "type": "function"
    },
    {
      "inputs": [
        {
          "internalType": "bytes32",
          "name": "role",
          "type": "bytes32"
        },
        {
          "internalType": "address",
          "name": "account",
          "type": "address"
        }
      ],
      "name": "grantRole",
      "outputs": [],
      "stateMutability": "nonpayable",
      "type": "function"
    },
    {
      "inputs": [
        {
          "internalType": "bytes32",
          "name": "permission",
          "type": "bytes32"
        },
        {
          "internalType": "address",
          "name": "account",
          "type": "address"
        }
      ],
      "name": "hasPermission",
      "outputs": [
        {
          "internalType": "bool",
          "name": "",
          "type": "bool"
        }
      ],
      "stateMutability": "view",
      "type": "function"
    },
    {
      "inputs": [
        {
          "internalType": "bytes32",
          "name": "role",
          "type": "bytes32"
        },
        {
          "internalType": "address",
          "name": "account",
          "type": "address"
        }
      ],
      "name": "hasRole",
      "outputs": [
        {
          "internalType": "bool",
          "name": "",
          "type": "bool"
        }
      ],
      "stateMutability": "view",
      "type": "function"
    },
    {
      "inputs": [
        {
          "internalType": "bytes32",
          "name": "role",
          "type": "bytes32"
        },
        {
          "internalType": "address",
          "name": "account",
          "type": "address"
        }
      ],
      "name": "isRoleAdmin",
      "outputs": [],
      "stateMutability": "view",
      "type": "function"
    },
    {
      "inputs": [
        {
          "internalType": "bytes32",
          "name": "role",
          "type": "bytes32"
        },
        {
          "internalType": "address",
          "name": "account",
          "type": "address"
        }
      ],
      "name": "renounceRole",
      "outputs": [],
      "stateMutability": "nonpayable",
      "type": "function"
    },
    {
      "inputs": [
        {
          "internalType": "address",
          "name": "account",
          "type": "address"
        }
      ],
      "name": "requireApprovedContractOrEOA",
      "outputs": [],
      "stateMutability": "view",
      "type": "function"
    },
    {
      "inputs": [
        {
          "internalType": "bytes32",
          "name": "permission",
          "type": "bytes32"
        },
        {
          "internalType": "address",
          "name": "account",
          "type": "address"
        }
      ],
      "name": "requirePermission",
      "outputs": [],
      "stateMutability": "view",
      "type": "function"
    },
    {
      "inputs": [
        {
          "internalType": "bytes32",
          "name": "role",
          "type": "bytes32"
        },
        {
          "internalType": "address",
          "name": "account",
          "type": "address"
        }
      ],
      "name": "requireRole",
      "outputs": [],
      "stateMutability": "view",
      "type": "function"
    },
    {
      "inputs": [
        {
          "internalType": "bytes32",
          "name": "permission",
          "type": "bytes32"
        }
      ],
      "name": "revokePermission",
      "outputs": [],
      "stateMutability": "nonpayable",
      "type": "function"
    },
    {
      "inputs": [
        {
          "internalType": "bytes32",
          "name": "role",
          "type": "bytes32"
        },
        {
          "internalType": "address",
          "name": "account",
          "type": "address"
        }
      ],
      "name": "revokeRole",
      "outputs": [],
      "stateMutability": "nonpayable",
      "type": "function"
    },
    {
      "inputs": [
        {
          "internalType": "bytes32",
          "name": "role",
          "type": "bytes32"
        },
        {
          "internalType": "bytes32",
          "name": "adminRole",
          "type": "bytes32"
        }
      ],
      "name": "setRoleAdmin",
      "outputs": [],
      "stateMutability": "nonpayable",
      "type": "function"
    }
  ],
  "transactionHash": "0xc55ff102cd08571d7aa6783ebcffa8311c28d3963919375678e54f41b2f9ed2b",
  "args": [],
  "solcInputHash": "cff9755d675a92b6241a8763a64b5de3",
  "bytecode": "0x608060405234801561001057600080fd5b503360009081527fad3228b676f7d3cd4284a5443f17f1962b36e491b30a40b2405849e597ba5fb560205260409020805460ff191660011790556108e4806100596000396000f3fe608060405234801561001057600080fd5b50600436106100ea5760003560e01c8063bc5864561161008c578063d3e2f7fd11610066578063d3e2f7fd146101c7578063d547741f146101da578063db47d436146101ed578063e89005c714610200576100ea565b8063bc5864561461018e578063ce28a301146101a1578063d09a20c5146101b4576100ea565b80632f2ff15d116100c85780632f2ff15d1461014d57806336568abe1461016057806391d1485414610173578063a217fddf14610186576100ea565b80631e4e0091146100ef578063248a9ca31461010457806328545c0d1461012d575b600080fd5b6101026100fd36600461069d565b610213565b005b61011761011236600461065a565b610269565b60405161012491906106c9565b60405180910390f35b61014061013b366004610672565b610281565b60405161012491906106be565b61010261015b366004610672565b6102a2565b61010261016e366004610672565b6102c4565b610140610181366004610672565b610308565b610117610331565b61010261019c366004610672565b610336565b6101026101af366004610672565b610398565b6101026101c2366004610672565b6103c6565b6101026101d5366004610672565b6103ec565b6101026101e8366004610672565b610412565b6101026101fb366004610639565b61042f565b61010261020e36600461065a565b61048b565b61022561021f83610269565b33610308565b806102365750610236600033610308565b61025b5760405162461bcd60e51b815260040161025290610740565b60405180910390fd5b61026582826104dd565b5050565b6000818152602081905260409020600101545b919050565b600091825260016020526040909120546001600160a01b0391821691161490565b6102ab82610269565b6102b58133610530565b6102bf8383610556565b505050565b6001600160a01b0381163314806102e257506102e261021f83610269565b6102fe5760405162461bcd60e51b815260040161025290610877565b61026582826105bd565b6000918252602082815260408084206001600160a01b0393909316845291905290205460ff1690565b600081565b610341600033610308565b61035d5760405162461bcd60e51b8152600401610252906106d2565b600091825260016020526040909120805473ffffffffffffffffffffffffffffffffffffffff19166001600160a01b03909216919091179055565b6103aa6103a483610269565b82610308565b6102655760405162461bcd60e51b8152600401610252906107ac565b6103d08282610308565b6102655760405162461bcd60e51b815260040161025290610709565b6103f68282610281565b6102655760405162461bcd60e51b81526004016102529061081a565b61041b82610269565b6104258133610530565b6102bf83836105bd565b6104597ffb639edf4b4a4724b8b9fb42a839b712c82108c1edf1beb051bcebce8e689dc482610308565b8061046c57506001600160a01b03811632145b6104885760405162461bcd60e51b815260040161025290610775565b50565b610496600033610308565b6104b25760405162461bcd60e51b8152600401610252906106d2565b6000908152600160205260409020805473ffffffffffffffffffffffffffffffffffffffff19169055565b60006104e883610269565b600084815260208190526040808220600101859055519192508391839186917fbd79b86ffe0ab8e8776151514217cd7cacd52c909f66475c3af44e129f0b00ff9190a4505050565b61053a8282610308565b6102655760405162461bcd60e51b8152600401610252906107e3565b6105608282610308565b610265576000828152602081815260408083206001600160a01b0385168085529252808320805460ff1916600117905551339285917f2f8788117e7eff1d82e926ec794901d17c78024a50270940304540a733656f0d9190a45050565b6105c78282610308565b15610265576000828152602081815260408083206001600160a01b0385168085529252808320805460ff1916905551339285917ff6391f5c32d9c69d2a47ea670b442974b53935d1edc7fd64eb21e047a839171b9190a45050565b80356001600160a01b038116811461027c57600080fd5b60006020828403121561064a578081fd5b61065382610622565b9392505050565b60006020828403121561066b578081fd5b5035919050565b60008060408385031215610684578081fd5b8235915061069460208401610622565b90509250929050565b600080604083850312156106af578182fd5b50508035926020909101359150565b901515815260200190565b90815260200190565b6020808252600e908201527f6f6e6c7920666f722061646d696e000000000000000000000000000000000000604082015260600190565b6020808252601c908201527f796f7520646f6e7420686176652074686520726967687420726f6c6500000000604082015260600190565b6020808252818101527f63616e206f6e6c792072656e6f756e636520726f6c657320666f722073656c66604082015260600190565b60208082526018908201527f4163636573732064656e69656420666f722063616c6c65720000000000000000604082015260600190565b60208082526019908201527f796f75206861766520746f20626520726f6c652061646d696e00000000000000604082015260600190565b6020808252601f908201527f796f7520646f6e7420686176652074686520726571756972656420726f6c6500604082015260600190565b60208082526023908201527f796f7520646f6e74206861766520746865207269676874207065726d6973736960408201527f6f6e730000000000000000000000000000000000000000000000000000000000606082015260800190565b6020808252601b908201527f796f752063616e742072656e6f756e6365207468697320726f6c65000000000060408201526060019056fea26469706673582212209ed7db141362a5f1cd804cda139d8e990ee9a62d7d39cca7e26e1966ed2716ff64736f6c63430008000033",
  "devdoc": {
    "details": "Contract module that allows children to implement role-based access control mechanisms. This is a lightweight version that doesn't allow enumerating role members except through off-chain means by accessing the contract event logs. Some applications may benefit from on-chain enumerability, for those cases see {AccessControlEnumerable}. Roles are referred to by their `bytes32` identifier. These should be exposed in the external API and be unique. The best way to achieve this is by using `public constant` hash digests: ``` bytes32 public constant MY_ROLE = keccak256(\"MY_ROLE\"); ``` Roles can be used to represent a set of permissions. To restrict access to a function call, use {hasRole}: ``` function foo() public {     require(hasRole(MY_ROLE, msg.sender));     ... } ``` Roles can be granted and revoked dynamically via the {grantRole} and {revokeRole} functions. Each role has an associated admin role, and only accounts that have a role's admin role can call {grantRole} and {revokeRole}. By default, the admin role for all roles is `DEFAULT_ADMIN_ROLE`, which means that only accounts with this role will be able to grant or revoke other roles. More complex role relationships can be created by using {_setRoleAdmin}. WARNING: The `DEFAULT_ADMIN_ROLE` is also its own admin: it has permission to grant and revoke this role. Extra precautions should be taken to secure accounts that have been granted it.",
    "kind": "dev",
    "methods": {
      "getRoleAdmin(bytes32)": {
        "details": "Returns the admin role that controls `role`. See {grantRole} and {revokeRole}. To change a role's admin, use {_setRoleAdmin}."
      },
      "grantRole(bytes32,address)": {
        "details": "Grants `role` to `account`. If `account` had not been already granted `role`, emits a {RoleGranted} event. Requirements: - the caller must have ``role``'s admin role."
      },
      "hasPermission(bytes32,address)": {
        "details": "Returns `true` if `account` has been granted `permission`."
      },
      "hasRole(bytes32,address)": {
        "details": "Returns `true` if `account` has been granted `role`."
      },
      "renounceRole(bytes32,address)": {
        "details": "Revokes `role` from the calling account. Roles are often managed via {grantRole} and {revokeRole}: this function's purpose is to provide a mechanism for accounts to lose their privileges if they are compromised (such as when a trusted device is misplaced). If the calling account had been granted `role`, emits a {RoleRevoked} event. Requirements: - the caller must be `account`."
      },
      "revokeRole(bytes32,address)": {
        "details": "Revokes `role` from `account`. If `account` had been granted `role`, emits a {RoleRevoked} event. Requirements: - the caller must have ``role``'s admin role."
      }
    },
    "version": 1
  },
  "userdoc": {
    "kind": "user",
    "methods": {},
    "version": 1
  },
  "storageLayout": {
    "storage": [
      {
        "astId": 156,
        "contract": "contracts/core/utils/ACLRegistry.sol:ACLRegistry",
        "label": "_roles",
        "offset": 0,
        "slot": "0",
        "type": "t_mapping(t_bytes32,t_struct(RoleData)151_storage)"
      },
      {
        "astId": 160,
        "contract": "contracts/core/utils/ACLRegistry.sol:ACLRegistry",
        "label": "_permissions",
        "offset": 0,
        "slot": "1",
        "type": "t_mapping(t_bytes32,t_address)"
      }
    ],
    "types": {
      "t_address": {
        "encoding": "inplace",
        "label": "address",
        "numberOfBytes": "20"
      },
      "t_bool": {
        "encoding": "inplace",
        "label": "bool",
        "numberOfBytes": "1"
      },
      "t_bytes32": {
        "encoding": "inplace",
        "label": "bytes32",
        "numberOfBytes": "32"
      },
      "t_mapping(t_address,t_bool)": {
        "encoding": "mapping",
        "key": "t_address",
        "label": "mapping(address => bool)",
        "numberOfBytes": "32",
        "value": "t_bool"
      },
      "t_mapping(t_bytes32,t_address)": {
        "encoding": "mapping",
        "key": "t_bytes32",
        "label": "mapping(bytes32 => address)",
        "numberOfBytes": "32",
        "value": "t_address"
      },
      "t_mapping(t_bytes32,t_struct(RoleData)151_storage)": {
        "encoding": "mapping",
        "key": "t_bytes32",
        "label": "mapping(bytes32 => struct ACLRegistry.RoleData)",
        "numberOfBytes": "32",
        "value": "t_struct(RoleData)151_storage"
      },
      "t_struct(RoleData)151_storage": {
        "encoding": "inplace",
        "label": "struct ACLRegistry.RoleData",
        "members": [
          {
            "astId": 148,
            "contract": "contracts/core/utils/ACLRegistry.sol:ACLRegistry",
            "label": "members",
            "offset": 0,
            "slot": "0",
            "type": "t_mapping(t_address,t_bool)"
          },
          {
            "astId": 150,
            "contract": "contracts/core/utils/ACLRegistry.sol:ACLRegistry",
            "label": "adminRole",
            "offset": 0,
            "slot": "1",
            "type": "t_bytes32"
          }
        ],
        "numberOfBytes": "64"
      }
    }
  }
}