{
  "address": "0x4b6aB5F819A515382B0dEB6935D793817bB4af28",
  "abi": [
    {
      "inputs": [
        {
          "internalType": "contract IERC20",
          "name": "_rewardsToken",
          "type": "address"
        },
        {
          "internalType": "contract IERC20",
          "name": "_stakingToken",
          "type": "address"
        },
        {
          "internalType": "contract IRewardsEscrow",
          "name": "_rewardsEscrow",
          "type": "address"
        }
      ],
      "stateMutability": "nonpayable",
      "type": "constructor"
    },
    {
      "anonymous": false,
      "inputs": [
        {
          "indexed": true,
          "internalType": "address",
          "name": "previousOwner",
          "type": "address"
        },
        {
          "indexed": true,
          "internalType": "address",
          "name": "newOwner",
          "type": "address"
        }
      ],
      "name": "OwnershipTransferred",
      "type": "event"
    },
    {
      "anonymous": false,
      "inputs": [
        {
          "indexed": false,
          "internalType": "address",
          "name": "account",
          "type": "address"
        }
      ],
      "name": "Paused",
      "type": "event"
    },
    {
      "anonymous": false,
      "inputs": [
        {
          "indexed": false,
          "internalType": "address",
          "name": "token",
          "type": "address"
        },
        {
          "indexed": false,
          "internalType": "uint256",
          "name": "amount",
          "type": "uint256"
        }
      ],
      "name": "Recovered",
      "type": "event"
    },
    {
      "anonymous": false,
      "inputs": [
        {
          "indexed": false,
          "internalType": "uint256",
          "name": "reward",
          "type": "uint256"
        }
      ],
      "name": "RewardAdded",
      "type": "event"
    },
    {
      "anonymous": false,
      "inputs": [
        {
          "indexed": true,
          "internalType": "address",
          "name": "user",
          "type": "address"
        },
        {
          "indexed": false,
          "internalType": "uint256",
          "name": "reward",
          "type": "uint256"
        }
      ],
      "name": "RewardPaid",
      "type": "event"
    },
    {
      "anonymous": false,
      "inputs": [
        {
          "indexed": false,
          "internalType": "uint256",
          "name": "newDuration",
          "type": "uint256"
        }
      ],
      "name": "RewardsDurationUpdated",
      "type": "event"
    },
    {
      "anonymous": false,
      "inputs": [
        {
          "indexed": true,
          "internalType": "address",
          "name": "user",
          "type": "address"
        },
        {
          "indexed": false,
          "internalType": "uint256",
          "name": "amount",
          "type": "uint256"
        }
      ],
      "name": "Staked",
      "type": "event"
    },
    {
      "anonymous": false,
      "inputs": [
        {
          "indexed": false,
          "internalType": "address",
          "name": "account",
          "type": "address"
        }
      ],
      "name": "Unpaused",
      "type": "event"
    },
    {
      "anonymous": false,
      "inputs": [
        {
          "indexed": true,
          "internalType": "address",
          "name": "user",
          "type": "address"
        },
        {
          "indexed": false,
          "internalType": "uint256",
          "name": "amount",
          "type": "uint256"
        }
      ],
      "name": "Withdrawn",
      "type": "event"
    },
    {
      "inputs": [
        {
          "internalType": "address",
          "name": "account",
          "type": "address"
        }
      ],
      "name": "balanceOf",
      "outputs": [
        {
          "internalType": "uint256",
          "name": "",
          "type": "uint256"
        }
      ],
      "stateMutability": "view",
      "type": "function"
    },
    {
      "inputs": [
        {
          "internalType": "address",
          "name": "account",
          "type": "address"
        }
      ],
      "name": "earned",
      "outputs": [
        {
          "internalType": "uint256",
          "name": "",
          "type": "uint256"
        }
      ],
      "stateMutability": "view",
      "type": "function"
    },
    {
      "inputs": [],
      "name": "exit",
      "outputs": [],
      "stateMutability": "nonpayable",
      "type": "function"
    },
    {
      "inputs": [],
      "name": "getReward",
      "outputs": [],
      "stateMutability": "nonpayable",
      "type": "function"
    },
    {
      "inputs": [],
      "name": "getRewardForDuration",
      "outputs": [
        {
          "internalType": "uint256",
          "name": "",
          "type": "uint256"
        }
      ],
      "stateMutability": "view",
      "type": "function"
    },
    {
      "inputs": [],
      "name": "lastTimeRewardApplicable",
      "outputs": [
        {
          "internalType": "uint256",
          "name": "",
          "type": "uint256"
        }
      ],
      "stateMutability": "view",
      "type": "function"
    },
    {
      "inputs": [],
      "name": "lastUpdateTime",
      "outputs": [
        {
          "internalType": "uint256",
          "name": "",
          "type": "uint256"
        }
      ],
      "stateMutability": "view",
      "type": "function"
    },
    {
      "inputs": [
        {
          "internalType": "uint256",
          "name": "reward",
          "type": "uint256"
        }
      ],
      "name": "notifyRewardAmount",
      "outputs": [],
      "stateMutability": "nonpayable",
      "type": "function"
    },
    {
      "inputs": [],
      "name": "owner",
      "outputs": [
        {
          "internalType": "address",
          "name": "",
          "type": "address"
        }
      ],
      "stateMutability": "view",
      "type": "function"
    },
    {
      "inputs": [],
      "name": "paused",
      "outputs": [
        {
          "internalType": "bool",
          "name": "",
          "type": "bool"
        }
      ],
      "stateMutability": "view",
      "type": "function"
    },
    {
      "inputs": [],
      "name": "periodFinish",
      "outputs": [
        {
          "internalType": "uint256",
          "name": "",
          "type": "uint256"
        }
      ],
      "stateMutability": "view",
      "type": "function"
    },
    {
      "inputs": [
        {
          "internalType": "address",
          "name": "tokenAddress",
          "type": "address"
        },
        {
          "internalType": "uint256",
          "name": "tokenAmount",
          "type": "uint256"
        }
      ],
      "name": "recoverERC20",
      "outputs": [],
      "stateMutability": "nonpayable",
      "type": "function"
    },
    {
      "inputs": [],
      "name": "renounceOwnership",
      "outputs": [],
      "stateMutability": "nonpayable",
      "type": "function"
    },
    {
      "inputs": [],
      "name": "rewardPerToken",
      "outputs": [
        {
          "internalType": "uint256",
          "name": "",
          "type": "uint256"
        }
      ],
      "stateMutability": "view",
      "type": "function"
    },
    {
      "inputs": [],
      "name": "rewardPerTokenStored",
      "outputs": [
        {
          "internalType": "uint256",
          "name": "",
          "type": "uint256"
        }
      ],
      "stateMutability": "view",
      "type": "function"
    },
    {
      "inputs": [],
      "name": "rewardRate",
      "outputs": [
        {
          "internalType": "uint256",
          "name": "",
          "type": "uint256"
        }
      ],
      "stateMutability": "view",
      "type": "function"
    },
    {
      "inputs": [
        {
          "internalType": "address",
          "name": "",
          "type": "address"
        }
      ],
      "name": "rewards",
      "outputs": [
        {
          "internalType": "uint256",
          "name": "",
          "type": "uint256"
        }
      ],
      "stateMutability": "view",
      "type": "function"
    },
    {
      "inputs": [],
      "name": "rewardsDuration",
      "outputs": [
        {
          "internalType": "uint256",
          "name": "",
          "type": "uint256"
        }
      ],
      "stateMutability": "view",
      "type": "function"
    },
    {
      "inputs": [],
      "name": "rewardsEscrow",
      "outputs": [
        {
          "internalType": "contract IRewardsEscrow",
          "name": "",
          "type": "address"
        }
      ],
      "stateMutability": "view",
      "type": "function"
    },
    {
      "inputs": [],
      "name": "rewardsToken",
      "outputs": [
        {
          "internalType": "contract IERC20",
          "name": "",
          "type": "address"
        }
      ],
      "stateMutability": "view",
      "type": "function"
    },
    {
      "inputs": [
        {
          "internalType": "uint256",
          "name": "_rewardsDuration",
          "type": "uint256"
        }
      ],
      "name": "setRewardsDuration",
      "outputs": [],
      "stateMutability": "nonpayable",
      "type": "function"
    },
    {
      "inputs": [
        {
          "internalType": "uint256",
          "name": "amount",
          "type": "uint256"
        }
      ],
      "name": "stake",
      "outputs": [],
      "stateMutability": "nonpayable",
      "type": "function"
    },
    {
      "inputs": [],
      "name": "stakingToken",
      "outputs": [
        {
          "internalType": "contract IERC20",
          "name": "",
          "type": "address"
        }
      ],
      "stateMutability": "view",
      "type": "function"
    },
    {
      "inputs": [],
      "name": "totalSupply",
      "outputs": [
        {
          "internalType": "uint256",
          "name": "",
          "type": "uint256"
        }
      ],
      "stateMutability": "view",
      "type": "function"
    },
    {
      "inputs": [
        {
          "internalType": "address",
          "name": "newOwner",
          "type": "address"
        }
      ],
      "name": "transferOwnership",
      "outputs": [],
      "stateMutability": "nonpayable",
      "type": "function"
    },
    {
      "inputs": [
        {
          "internalType": "address",
          "name": "",
          "type": "address"
        }
      ],
      "name": "userRewardPerTokenPaid",
      "outputs": [
        {
          "internalType": "uint256",
          "name": "",
          "type": "uint256"
        }
      ],
      "stateMutability": "view",
      "type": "function"
    },
    {
      "inputs": [
        {
          "internalType": "uint256",
          "name": "amount",
          "type": "uint256"
        }
      ],
      "name": "withdraw",
      "outputs": [],
      "stateMutability": "nonpayable",
      "type": "function"
    }
  ],
  "transactionHash": "0x9a4bdd18d8d77532fd3503c9b7b8b3de9f708da44faebd8ef1f686f085a59a66",
  "args": [
    "0xf953b3A269d80e3eB0F2947630Da976B896A8C5b",
    "0x3b0967B0710a22c1a5CEB6Ae649B5819Cb8bb999",
    "0x720472c8ce72c2A2D711333e064ABD3E6BbEAdd3"
  ],
  "solcInputHash": "31fd7e5d3f14650b4d0b908e90e5bd82",
  "bytecode": "0x60806040526000600555600060065562093a806007553480156200002257600080fd5b5060405162001d5a38038062001d5a833981016040819052620000459162000412565b6200005962000053620000ce565b620000d2565b60018055600280546001600160a81b0319166101006001600160a01b0386811691820292909217909255600380546001600160a01b03199081168684161790915560048054909116918416919091179055620000c5908260001962000122602090811b62000da017901c565b50505062000638565b3390565b600080546001600160a01b038381166001600160a01b0319831681178455604051919092169283917f8be0079c531659141344cd1fd0a4f28419497f9722a3daafe3b4186f6b6457e09190a35050565b600081846001600160a01b031663dd62ed3e30866040518363ffffffff1660e01b8152600401620001559291906200049c565b60206040518083038186803b1580156200016e57600080fd5b505afa15801562000183573d6000803e3d6000fd5b505050506040513d601f19601f82011682018060405250810190620001a9919062000465565b620001b59190620005cb565b9050620002128463095ea7b360e01b8584604051602401620001d9929190620004b6565b60408051808303601f190181529190526020810180516001600160e01b0319939093166001600160e01b03938416179052906200021816565b50505050565b600062000274826040518060400160405280602081526020017f5361666545524332303a206c6f772d6c6576656c2063616c6c206661696c6564815250856001600160a01b0316620002c260201b62000eb6179092919060201c565b805190915015620002bd5780806020019051810190620002959190620003f0565b620002bd5760405162461bcd60e51b8152600401620002b49062000581565b60405180910390fd5b505050565b6060620002d38484600085620002dd565b90505b9392505050565b606082471015620003025760405162461bcd60e51b8152600401620002b49062000504565b6200030d85620003ac565b6200032c5760405162461bcd60e51b8152600401620002b4906200054a565b600080866001600160a01b031685876040516200034a91906200047e565b60006040518083038185875af1925050503d806000811462000389576040519150601f19603f3d011682016040523d82523d6000602084013e6200038e565b606091505b509092509050620003a1828286620003b2565b979650505050505050565b3b151590565b60608315620003c3575081620002d6565b825115620003d45782518084602001fd5b8160405162461bcd60e51b8152600401620002b49190620004cf565b60006020828403121562000402578081fd5b81518015158114620002d6578182fd5b60008060006060848603121562000427578182fd5b835162000434816200061f565b602085015190935062000447816200061f565b60408501519092506200045a816200061f565b809150509250925092565b60006020828403121562000477578081fd5b5051919050565b6000825162000492818460208701620005f0565b9190910192915050565b6001600160a01b0392831681529116602082015260400190565b6001600160a01b03929092168252602082015260400190565b6000602082528251806020840152620004f0816040850160208701620005f0565b601f01601f19169190910160400192915050565b60208082526026908201527f416464726573733a20696e73756666696369656e742062616c616e636520666f6040820152651c8818d85b1b60d21b606082015260800190565b6020808252601d908201527f416464726573733a2063616c6c20746f206e6f6e2d636f6e7472616374000000604082015260600190565b6020808252602a908201527f5361666545524332303a204552433230206f7065726174696f6e20646964206e6040820152691bdd081cdd58d8d9595960b21b606082015260800190565b60008219821115620005eb57634e487b7160e01b81526011600452602481fd5b500190565b60005b838110156200060d578181015183820152602001620005f3565b83811115620002125750506000910152565b6001600160a01b03811681146200063557600080fd5b50565b61171280620006486000396000f3fe608060405234801561001057600080fd5b50600436106101b85760003560e01c806380faa57d116100f9578063cd3daf9d11610097578063e9fad8ee11610071578063e9fad8ee1461030a578063ebe2b12b14610312578063f21579321461031a578063f2fde38b14610322576101b8565b8063cd3daf9d146102f2578063d1af0c7d146102fa578063df136d6514610302576101b8565b80638da5cb5b116100d35780638da5cb5b146102bc578063a694fc3a146102c4578063c8f33c91146102d7578063cc1a378f146102df576101b8565b806380faa57d1461028e5780638980f11f146102965780638b876347146102a9576101b8565b80633c6b16ab1161016657806370a082311161014057806370a0823114610256578063715018a61461026957806372f702f3146102715780637b0a47ee14610286576101b8565b80633c6b16ab146102265780633d18b912146102395780635c975abb14610241576101b8565b80631c1f78eb116101975780631c1f78eb146102015780632e1a7d4d14610209578063386a95251461021e576101b8565b80628cc262146101bd5780630700037d146101e657806318160ddd146101f9575b600080fd5b6101d06101cb366004611155565b610335565b6040516101dd9190611623565b60405180910390f35b6101d06101f4366004611155565b6103b5565b6101d06103c7565b6101d06103ce565b61021c6102173660046111b8565b6103ec565b005b6101d0610537565b61021c6102343660046111b8565b61053d565b61021c610764565b610249610910565b6040516101dd919061126f565b6101d0610264366004611155565b610919565b61021c610934565b61027961097f565b6040516101dd9190611204565b6101d061098e565b6101d0610994565b61021c6102a436600461116f565b6109ac565b6101d06102b7366004611155565b610a72565b610279610a84565b61021c6102d23660046111b8565b610a93565b6101d0610beb565b61021c6102ed3660046111b8565b610bf1565b6101d0610c91565b610279610cdf565b6101d0610cf3565b61021c610cf9565b6101d0610d1a565b610279610d20565b61021c610330366004611155565b610d2f565b6001600160a01b0381166000908152600b6020908152604080832054600a9092528220546103ad91906103a790670de0b6b3a7640000906103a1906103829061037c610c91565b90610ecf565b6001600160a01b0388166000908152600d602052604090205490610edb565b90610ee7565b90610ef3565b90505b919050565b600b6020526000908152604090205481565b600c545b90565b60006103e7600754600654610edb90919063ffffffff16565b905090565b600260015414156104185760405162461bcd60e51b815260040161040f9061158f565b60405180910390fd5b600260015533610426610c91565b600955610431610994565b6008556001600160a01b038116156104785761044c81610335565b6001600160a01b0382166000908152600b6020908152604080832093909355600954600a909152919020555b600082116104985760405162461bcd60e51b815260040161040f90611458565b600c546104a59083610ecf565b600c55336000908152600d60205260409020546104c29083610ecf565b336000818152600d60205260409020919091556003546104ee916001600160a01b039091169084610eff565b336001600160a01b03167f7084f5476618d8e60b11ef0d7d3f06914655adb8793e28ff7f018d4c76d505d5836040516105279190611623565b60405180910390a2505060018055565b60075481565b610545610f23565b6001600160a01b0316610556610a84565b6001600160a01b03161461057c5760405162461bcd60e51b815260040161040f9061148f565b6000610586610c91565b600955610591610994565b6008556001600160a01b038116156105d8576105ac81610335565b6001600160a01b0382166000908152600b6020908152604080832093909355600954600a909152919020555b60055442106105f7576007546105ef908390610ee7565b60065561063a565b6005546000906106079042610ecf565b9050600061062060065483610edb90919063ffffffff16565b600754909150610634906103a18684610ef3565b60065550505b6002546040517f70a0823100000000000000000000000000000000000000000000000000000000815260009161010090046001600160a01b0316906370a0823190610689903090600401611204565b60206040518083038186803b1580156106a157600080fd5b505afa1580156106b5573d6000803e3d6000fd5b505050506040513d601f19601f820116820180604052508101906106d991906111d0565b90506106f060075482610ee790919063ffffffff16565b60065411156107115760405162461bcd60e51b815260040161040f906114c4565b4260088190556007546107249190610ef3565b6005556040517fde88a922e0d3b88b24e9623efeb464919c6bf9f66857a65e2bfcf2ce87a9433d90610757908590611623565b60405180910390a1505050565b600260015414156107875760405162461bcd60e51b815260040161040f9061158f565b600260015533610795610c91565b6009556107a0610994565b6008556001600160a01b038116156107e7576107bb81610335565b6001600160a01b0382166000908152600b6020908152604080832093909355600954600a909152919020555b336000908152600b6020526040902054801561090857336000908152600b6020526040812081905561081a600a83611644565b90506000610829600983611664565b6002549091506108489061010090046001600160a01b03163384610eff565b600480546040517f282d3fdf0000000000000000000000000000000000000000000000000000000081526001600160a01b039091169163282d3fdf91610892913391869101611256565b600060405180830381600087803b1580156108ac57600080fd5b505af11580156108c0573d6000803e3d6000fd5b50505050336001600160a01b03167fe2403640ba68fed3a2f88b7557551d1993f84b99bb10ff833f0cf8db0c5e0486846040516108fd9190611623565b60405180910390a250505b505060018055565b60025460ff1690565b6001600160a01b03166000908152600d602052604090205490565b61093c610f23565b6001600160a01b031661094d610a84565b6001600160a01b0316146109735760405162461bcd60e51b815260040161040f9061148f565b61097d6000610f27565b565b6003546001600160a01b031681565b60065481565b600060055442106109a7576005546103e7565b504290565b6109b4610f23565b6001600160a01b03166109c5610a84565b6001600160a01b0316146109eb5760405162461bcd60e51b815260040161040f9061148f565b6003546001600160a01b0383811691161415610a195760405162461bcd60e51b815260040161040f906115c6565b610a35610a24610a84565b6001600160a01b0384169083610eff565b7f8c1256b8896378cd5044f80c202f9772b9d77dc85c8a6eb51967210b09bfaa288282604051610a66929190611256565b60405180910390a15050565b600a6020526000908152604090205481565b6000546001600160a01b031690565b60026001541415610ab65760405162461bcd60e51b815260040161040f9061158f565b6002600155610ac3610910565b15610ae05760405162461bcd60e51b815260040161040f90611421565b33610ae9610c91565b600955610af4610994565b6008556001600160a01b03811615610b3b57610b0f81610335565b6001600160a01b0382166000908152600b6020908152604080832093909355600954600a909152919020555b60008211610b5b5760405162461bcd60e51b815260040161040f9061138d565b600c54610b689083610ef3565b600c55336000908152600d6020526040902054610b859083610ef3565b336000818152600d6020526040902091909155600354610bb2916001600160a01b03909116903085610f8f565b336001600160a01b03167f9e71bc8eea02a63969f509818f2dafb9254532904319f9dbda79b67bd34a5f3d836040516105279190611623565b60085481565b610bf9610f23565b6001600160a01b0316610c0a610a84565b6001600160a01b031614610c305760405162461bcd60e51b815260040161040f9061148f565b6005544211610c515760405162461bcd60e51b815260040161040f906112ad565b60078190556040517ffb46ca5a5e06d4540d6387b930a7c978bce0db5f449ec6b3f5d07c6e1d44f2d390610c86908390611623565b60405180910390a150565b6000600c5460001415610ca757506009546103cb565b6103e7610cd6600c546103a1670de0b6b3a7640000610cd0600654610cd060085461037c610994565b90610edb565b60095490610ef3565b60025461010090046001600160a01b031681565b60095481565b336000908152600d6020526040902054610d12906103ec565b61097d610764565b60055481565b6004546001600160a01b031681565b610d37610f23565b6001600160a01b0316610d48610a84565b6001600160a01b031614610d6e5760405162461bcd60e51b815260040161040f9061148f565b6001600160a01b038116610d945760405162461bcd60e51b815260040161040f90611330565b610d9d81610f27565b50565b600081846001600160a01b031663dd62ed3e30866040518363ffffffff1660e01b8152600401610dd1929190611218565b60206040518083038186803b158015610de957600080fd5b505afa158015610dfd573d6000803e3d6000fd5b505050506040513d601f19601f82011682018060405250810190610e2191906111d0565b610e2b919061162c565b9050610eb08463095ea7b360e01b8584604051602401610e4c929190611256565b60408051601f198184030181529190526020810180517bffffffffffffffffffffffffffffffffffffffffffffffffffffffff167fffffffff0000000000000000000000000000000000000000000000000000000090931692909217909152610fb0565b50505050565b6060610ec5848460008561103f565b90505b9392505050565b6000610ec88284611683565b6000610ec88284611664565b6000610ec88284611644565b6000610ec8828461162c565b610f1e8363a9059cbb60e01b8484604051602401610e4c929190611256565b505050565b3390565b600080546001600160a01b038381167fffffffffffffffffffffffff0000000000000000000000000000000000000000831681178455604051919092169283917f8be0079c531659141344cd1fd0a4f28419497f9722a3daafe3b4186f6b6457e09190a35050565b610eb0846323b872dd60e01b858585604051602401610e4c93929190611232565b6000611005826040518060400160405280602081526020017f5361666545524332303a206c6f772d6c6576656c2063616c6c206661696c6564815250856001600160a01b0316610eb69092919063ffffffff16565b805190915015610f1e57808060200190518101906110239190611198565b610f1e5760405162461bcd60e51b815260040161040f90611532565b6060824710156110615760405162461bcd60e51b815260040161040f906113c4565b61106a856110ff565b6110865760405162461bcd60e51b815260040161040f906114fb565b600080866001600160a01b031685876040516110a291906111e8565b60006040518083038185875af1925050503d80600081146110df576040519150601f19603f3d011682016040523d82523d6000602084013e6110e4565b606091505b50915091506110f4828286611105565b979650505050505050565b3b151590565b60608315611114575081610ec8565b8251156111245782518084602001fd5b8160405162461bcd60e51b815260040161040f919061127a565b80356001600160a01b03811681146103b057600080fd5b600060208284031215611166578081fd5b610ec88261113e565b60008060408385031215611181578081fd5b61118a8361113e565b946020939093013593505050565b6000602082840312156111a9578081fd5b81518015158114610ec8578182fd5b6000602082840312156111c9578081fd5b5035919050565b6000602082840312156111e1578081fd5b5051919050565b600082516111fa81846020870161169a565b9190910192915050565b6001600160a01b0391909116815260200190565b6001600160a01b0392831681529116602082015260400190565b6001600160a01b039384168152919092166020820152604081019190915260600190565b6001600160a01b03929092168252602082015260400190565b901515815260200190565b600060208252825180602084015261129981604085016020870161169a565b601f01601f19169190910160400192915050565b60208082526058908201527f50726576696f7573207265776172647320706572696f64206d7573742062652060408201527f636f6d706c657465206265666f7265206368616e67696e67207468652064757260608201527f6174696f6e20666f7220746865206e657720706572696f640000000000000000608082015260a00190565b60208082526026908201527f4f776e61626c653a206e6577206f776e657220697320746865207a65726f206160408201527f6464726573730000000000000000000000000000000000000000000000000000606082015260800190565b6020808252600e908201527f43616e6e6f74207374616b652030000000000000000000000000000000000000604082015260600190565b60208082526026908201527f416464726573733a20696e73756666696369656e742062616c616e636520666f60408201527f722063616c6c0000000000000000000000000000000000000000000000000000606082015260800190565b60208082526010908201527f5061757361626c653a2070617573656400000000000000000000000000000000604082015260600190565b60208082526011908201527f43616e6e6f742077697468647261772030000000000000000000000000000000604082015260600190565b6020808252818101527f4f776e61626c653a2063616c6c6572206973206e6f7420746865206f776e6572604082015260600190565b60208082526018908201527f50726f76696465642072657761726420746f6f20686967680000000000000000604082015260600190565b6020808252601d908201527f416464726573733a2063616c6c20746f206e6f6e2d636f6e7472616374000000604082015260600190565b6020808252602a908201527f5361666545524332303a204552433230206f7065726174696f6e20646964206e60408201527f6f74207375636365656400000000000000000000000000000000000000000000606082015260800190565b6020808252601f908201527f5265656e7472616e637947756172643a207265656e7472616e742063616c6c00604082015260600190565b60208082526021908201527f43616e6e6f7420776974686472617720746865207374616b696e6720746f6b6560408201527f6e00000000000000000000000000000000000000000000000000000000000000606082015260800190565b90815260200190565b6000821982111561163f5761163f6116c6565b500190565b60008261165f57634e487b7160e01b81526012600452602481fd5b500490565b600081600019048311821515161561167e5761167e6116c6565b500290565b600082821015611695576116956116c6565b500390565b60005b838110156116b557818101518382015260200161169d565b83811115610eb05750506000910152565b634e487b7160e01b600052601160045260246000fdfea264697066735822122037d06979d1b86f0618d533074281714a753e67e64294a5bf8f1c1a5c163d463d64736f6c63430008000033",
  "devdoc": {
    "kind": "dev",
    "methods": {
      "owner()": {
        "details": "Returns the address of the current owner."
      },
      "paused()": {
        "details": "Returns true if the contract is paused, and false otherwise."
      },
      "renounceOwnership()": {
        "details": "Leaves the contract without owner. It will not be possible to call `onlyOwner` functions anymore. Can only be called by the current owner. NOTE: Renouncing ownership will leave the contract without an owner, thereby removing any functionality that is only available to the owner."
      },
      "transferOwnership(address)": {
        "details": "Transfers ownership of the contract to a new account (`newOwner`). Can only be called by the current owner."
      }
    },
    "version": 1
  },
  "userdoc": {
    "kind": "user",
    "methods": {},
    "version": 1
  },
  "storageLayout": {
    "storage": [
      {
        "astId": 7,
        "contract": "contracts/core/dao/Staking.sol:Staking",
        "label": "_owner",
        "offset": 0,
        "slot": "0",
        "type": "t_address"
      },
      {
        "astId": 207,
        "contract": "contracts/core/dao/Staking.sol:Staking",
        "label": "_status",
        "offset": 0,
        "slot": "1",
        "type": "t_uint256"
      },
      {
        "astId": 122,
        "contract": "contracts/core/dao/Staking.sol:Staking",
        "label": "_paused",
        "offset": 0,
        "slot": "2",
        "type": "t_bool"
      },
      {
        "astId": 4544,
        "contract": "contracts/core/dao/Staking.sol:Staking",
        "label": "rewardsToken",
        "offset": 1,
        "slot": "2",
        "type": "t_contract(IERC20)860"
      },
      {
        "astId": 4547,
        "contract": "contracts/core/dao/Staking.sol:Staking",
        "label": "stakingToken",
        "offset": 0,
        "slot": "3",
        "type": "t_contract(IERC20)860"
      },
      {
        "astId": 4550,
        "contract": "contracts/core/dao/Staking.sol:Staking",
        "label": "rewardsEscrow",
        "offset": 0,
        "slot": "4",
        "type": "t_contract(IRewardsEscrow)7715"
      },
      {
        "astId": 4553,
        "contract": "contracts/core/dao/Staking.sol:Staking",
        "label": "periodFinish",
        "offset": 0,
        "slot": "5",
        "type": "t_uint256"
      },
      {
        "astId": 4556,
        "contract": "contracts/core/dao/Staking.sol:Staking",
        "label": "rewardRate",
        "offset": 0,
        "slot": "6",
        "type": "t_uint256"
      },
      {
        "astId": 4559,
        "contract": "contracts/core/dao/Staking.sol:Staking",
        "label": "rewardsDuration",
        "offset": 0,
        "slot": "7",
        "type": "t_uint256"
      },
      {
        "astId": 4561,
        "contract": "contracts/core/dao/Staking.sol:Staking",
        "label": "lastUpdateTime",
        "offset": 0,
        "slot": "8",
        "type": "t_uint256"
      },
      {
        "astId": 4563,
        "contract": "contracts/core/dao/Staking.sol:Staking",
        "label": "rewardPerTokenStored",
        "offset": 0,
        "slot": "9",
        "type": "t_uint256"
      },
      {
        "astId": 4567,
        "contract": "contracts/core/dao/Staking.sol:Staking",
        "label": "userRewardPerTokenPaid",
        "offset": 0,
        "slot": "10",
        "type": "t_mapping(t_address,t_uint256)"
      },
      {
        "astId": 4571,
        "contract": "contracts/core/dao/Staking.sol:Staking",
        "label": "rewards",
        "offset": 0,
        "slot": "11",
        "type": "t_mapping(t_address,t_uint256)"
      },
      {
        "astId": 4573,
        "contract": "contracts/core/dao/Staking.sol:Staking",
        "label": "_totalSupply",
        "offset": 0,
        "slot": "12",
        "type": "t_uint256"
      },
      {
        "astId": 4577,
        "contract": "contracts/core/dao/Staking.sol:Staking",
        "label": "_balances",
        "offset": 0,
        "slot": "13",
        "type": "t_mapping(t_address,t_uint256)"
      }
    ],
    "types": {
      "t_address": {
        "encoding": "inplace",
        "label": "address",
        "numberOfBytes": "20"
      },
      "t_bool": {
        "encoding": "inplace",
        "label": "bool",
        "numberOfBytes": "1"
      },
      "t_contract(IERC20)860": {
        "encoding": "inplace",
        "label": "contract IERC20",
        "numberOfBytes": "20"
      },
      "t_contract(IRewardsEscrow)7715": {
        "encoding": "inplace",
        "label": "contract IRewardsEscrow",
        "numberOfBytes": "20"
      },
      "t_mapping(t_address,t_uint256)": {
        "encoding": "mapping",
        "key": "t_address",
        "label": "mapping(address => uint256)",
        "numberOfBytes": "32",
        "value": "t_uint256"
      },
      "t_uint256": {
        "encoding": "inplace",
        "label": "uint256",
        "numberOfBytes": "32"
      }
    }
  }
}