{
  "address": "0x610178dA211FEF7D417bC0e6FeD39F05609AD788",
  "abi": [
    {
      "inputs": [
        {
          "internalType": "contract IERC20",
          "name": "_rewardsToken",
          "type": "address"
        },
        {
          "internalType": "contract IERC20",
          "name": "_stakingToken",
          "type": "address"
        }
      ],
      "stateMutability": "nonpayable",
      "type": "constructor"
    },
    {
      "anonymous": false,
      "inputs": [
        {
          "indexed": true,
          "internalType": "address",
          "name": "previousOwner",
          "type": "address"
        },
        {
          "indexed": true,
          "internalType": "address",
          "name": "newOwner",
          "type": "address"
        }
      ],
      "name": "OwnershipTransferred",
      "type": "event"
    },
    {
      "anonymous": false,
      "inputs": [
        {
          "indexed": false,
          "internalType": "address",
          "name": "account",
          "type": "address"
        }
      ],
      "name": "Paused",
      "type": "event"
    },
    {
      "anonymous": false,
      "inputs": [
        {
          "indexed": false,
          "internalType": "address",
          "name": "token",
          "type": "address"
        },
        {
          "indexed": false,
          "internalType": "uint256",
          "name": "amount",
          "type": "uint256"
        }
      ],
      "name": "Recovered",
      "type": "event"
    },
    {
      "anonymous": false,
      "inputs": [
        {
          "indexed": false,
          "internalType": "uint256",
          "name": "reward",
          "type": "uint256"
        }
      ],
      "name": "RewardAdded",
      "type": "event"
    },
    {
      "anonymous": false,
      "inputs": [
        {
          "indexed": true,
          "internalType": "address",
          "name": "user",
          "type": "address"
        },
        {
          "indexed": false,
          "internalType": "uint256",
          "name": "reward",
          "type": "uint256"
        }
      ],
      "name": "RewardPaid",
      "type": "event"
    },
    {
      "anonymous": false,
      "inputs": [
        {
          "indexed": false,
          "internalType": "uint256",
          "name": "newDuration",
          "type": "uint256"
        }
      ],
      "name": "RewardsDurationUpdated",
      "type": "event"
    },
    {
      "anonymous": false,
      "inputs": [
        {
          "indexed": true,
          "internalType": "address",
          "name": "user",
          "type": "address"
        },
        {
          "indexed": false,
          "internalType": "uint256",
          "name": "amount",
          "type": "uint256"
        }
      ],
      "name": "Staked",
      "type": "event"
    },
    {
      "anonymous": false,
      "inputs": [
        {
          "indexed": false,
          "internalType": "address",
          "name": "account",
          "type": "address"
        }
      ],
      "name": "Unpaused",
      "type": "event"
    },
    {
      "anonymous": false,
      "inputs": [
        {
          "indexed": true,
          "internalType": "address",
          "name": "user",
          "type": "address"
        },
        {
          "indexed": false,
          "internalType": "uint256",
          "name": "amount",
          "type": "uint256"
        }
      ],
      "name": "Withdrawn",
      "type": "event"
    },
    {
      "inputs": [
        {
          "internalType": "address",
          "name": "account",
          "type": "address"
        }
      ],
      "name": "balanceOf",
      "outputs": [
        {
          "internalType": "uint256",
          "name": "",
          "type": "uint256"
        }
      ],
      "stateMutability": "view",
      "type": "function"
    },
    {
      "inputs": [
        {
          "internalType": "address",
          "name": "account",
          "type": "address"
        }
      ],
      "name": "earned",
      "outputs": [
        {
          "internalType": "uint256",
          "name": "",
          "type": "uint256"
        }
      ],
      "stateMutability": "view",
      "type": "function"
    },
    {
      "inputs": [],
      "name": "exit",
      "outputs": [],
      "stateMutability": "nonpayable",
      "type": "function"
    },
    {
      "inputs": [],
      "name": "getReward",
      "outputs": [],
      "stateMutability": "nonpayable",
      "type": "function"
    },
    {
      "inputs": [],
      "name": "getRewardForDuration",
      "outputs": [
        {
          "internalType": "uint256",
          "name": "",
          "type": "uint256"
        }
      ],
      "stateMutability": "view",
      "type": "function"
    },
    {
      "inputs": [],
      "name": "lastTimeRewardApplicable",
      "outputs": [
        {
          "internalType": "uint256",
          "name": "",
          "type": "uint256"
        }
      ],
      "stateMutability": "view",
      "type": "function"
    },
    {
      "inputs": [],
      "name": "lastUpdateTime",
      "outputs": [
        {
          "internalType": "uint256",
          "name": "",
          "type": "uint256"
        }
      ],
      "stateMutability": "view",
      "type": "function"
    },
    {
      "inputs": [
        {
          "internalType": "uint256",
          "name": "reward",
          "type": "uint256"
        }
      ],
      "name": "notifyRewardAmount",
      "outputs": [],
      "stateMutability": "nonpayable",
      "type": "function"
    },
    {
      "inputs": [],
      "name": "owner",
      "outputs": [
        {
          "internalType": "address",
          "name": "",
          "type": "address"
        }
      ],
      "stateMutability": "view",
      "type": "function"
    },
    {
      "inputs": [],
      "name": "paused",
      "outputs": [
        {
          "internalType": "bool",
          "name": "",
          "type": "bool"
        }
      ],
      "stateMutability": "view",
      "type": "function"
    },
    {
      "inputs": [],
      "name": "periodFinish",
      "outputs": [
        {
          "internalType": "uint256",
          "name": "",
          "type": "uint256"
        }
      ],
      "stateMutability": "view",
      "type": "function"
    },
    {
      "inputs": [
        {
          "internalType": "address",
          "name": "tokenAddress",
          "type": "address"
        },
        {
          "internalType": "uint256",
          "name": "tokenAmount",
          "type": "uint256"
        }
      ],
      "name": "recoverERC20",
      "outputs": [],
      "stateMutability": "nonpayable",
      "type": "function"
    },
    {
      "inputs": [],
      "name": "renounceOwnership",
      "outputs": [],
      "stateMutability": "nonpayable",
      "type": "function"
    },
    {
      "inputs": [],
      "name": "rewardPerToken",
      "outputs": [
        {
          "internalType": "uint256",
          "name": "",
          "type": "uint256"
        }
      ],
      "stateMutability": "view",
      "type": "function"
    },
    {
      "inputs": [],
      "name": "rewardPerTokenStored",
      "outputs": [
        {
          "internalType": "uint256",
          "name": "",
          "type": "uint256"
        }
      ],
      "stateMutability": "view",
      "type": "function"
    },
    {
      "inputs": [],
      "name": "rewardRate",
      "outputs": [
        {
          "internalType": "uint256",
          "name": "",
          "type": "uint256"
        }
      ],
      "stateMutability": "view",
      "type": "function"
    },
    {
      "inputs": [
        {
          "internalType": "address",
          "name": "",
          "type": "address"
        }
      ],
      "name": "rewards",
      "outputs": [
        {
          "internalType": "uint256",
          "name": "",
          "type": "uint256"
        }
      ],
      "stateMutability": "view",
      "type": "function"
    },
    {
      "inputs": [],
      "name": "rewardsDuration",
      "outputs": [
        {
          "internalType": "uint256",
          "name": "",
          "type": "uint256"
        }
      ],
      "stateMutability": "view",
      "type": "function"
    },
    {
      "inputs": [],
      "name": "rewardsToken",
      "outputs": [
        {
          "internalType": "contract IERC20",
          "name": "",
          "type": "address"
        }
      ],
      "stateMutability": "view",
      "type": "function"
    },
    {
      "inputs": [
        {
          "internalType": "uint256",
          "name": "_rewardsDuration",
          "type": "uint256"
        }
      ],
      "name": "setRewardsDuration",
      "outputs": [],
      "stateMutability": "nonpayable",
      "type": "function"
    },
    {
      "inputs": [
        {
          "internalType": "uint256",
          "name": "amount",
          "type": "uint256"
        }
      ],
      "name": "stake",
      "outputs": [],
      "stateMutability": "nonpayable",
      "type": "function"
    },
    {
      "inputs": [],
      "name": "stakingToken",
      "outputs": [
        {
          "internalType": "contract IERC20",
          "name": "",
          "type": "address"
        }
      ],
      "stateMutability": "view",
      "type": "function"
    },
    {
      "inputs": [],
      "name": "totalSupply",
      "outputs": [
        {
          "internalType": "uint256",
          "name": "",
          "type": "uint256"
        }
      ],
      "stateMutability": "view",
      "type": "function"
    },
    {
      "inputs": [
        {
          "internalType": "address",
          "name": "newOwner",
          "type": "address"
        }
      ],
      "name": "transferOwnership",
      "outputs": [],
      "stateMutability": "nonpayable",
      "type": "function"
    },
    {
      "inputs": [
        {
          "internalType": "address",
          "name": "",
          "type": "address"
        }
      ],
      "name": "userRewardPerTokenPaid",
      "outputs": [
        {
          "internalType": "uint256",
          "name": "",
          "type": "uint256"
        }
      ],
      "stateMutability": "view",
      "type": "function"
    },
    {
      "inputs": [
        {
          "internalType": "uint256",
          "name": "amount",
          "type": "uint256"
        }
      ],
      "name": "withdraw",
      "outputs": [],
      "stateMutability": "nonpayable",
      "type": "function"
    }
  ],
  "transactionHash": "0x3e1a6fcf25d42f5325a7bcbe39a035d9ba8cf3d571501ecb4290820222af58a0",
  "args": [
    "0xe7f1725E7734CE288F8367e1Bb143E90bb3F0512",
    "0xa513E6E4b8f2a923D98304ec87F64353C4D5C853"
  ],
  "solcInputHash": "fbc8f301178d314c1e39335f83dcafbe",
  "bytecode": "0x60806040526000600455600060055562093a806006553480156200002257600080fd5b50604051620016da380380620016da833981016040819052620000459162000109565b620000596200005362000098565b6200009c565b60018055600280546001600160a81b0319166101006001600160a01b0394851602179055600380546001600160a01b0319169190921617905562000140565b3390565b600080546001600160a01b038381166001600160a01b0319831681178455604051919092169283917f8be0079c531659141344cd1fd0a4f28419497f9722a3daafe3b4186f6b6457e09190a35050565b80516001600160a01b03811681146200010457600080fd5b919050565b600080604083850312156200011c578182fd5b6200012783620000ec565b91506200013760208401620000ec565b90509250929050565b61158a80620001506000396000f3fe608060405234801561001057600080fd5b50600436106101ad5760003560e01c806380faa57d116100ee578063cc1a378f11610097578063df136d6511610071578063df136d65146102f7578063e9fad8ee146102ff578063ebe2b12b14610307578063f2fde38b1461030f576101ad565b8063cc1a378f146102d4578063cd3daf9d146102e7578063d1af0c7d146102ef576101ad565b80638da5cb5b116100c85780638da5cb5b146102b1578063a694fc3a146102b9578063c8f33c91146102cc576101ad565b806380faa57d146102835780638980f11f1461028b5780638b8763471461029e576101ad565b80633c6b16ab1161015b57806370a082311161013557806370a082311461024b578063715018a61461025e57806372f702f3146102665780637b0a47ee1461027b576101ad565b80633c6b16ab1461021b5780633d18b9121461022e5780635c975abb14610236576101ad565b80631c1f78eb1161018c5780631c1f78eb146101f65780632e1a7d4d146101fe578063386a952514610213576101ad565b80628cc262146101b25780630700037d146101db57806318160ddd146101ee575b600080fd5b6101c56101c0366004610fe7565b610322565b6040516101d2919061149b565b60405180910390f35b6101c56101e9366004610fe7565b6103a2565b6101c56103b4565b6101c56103bb565b61021161020c36600461104a565b6103d9565b005b6101c5610524565b61021161022936600461104a565b61052a565b610211610751565b61023e610858565b6040516101d291906110e7565b6101c5610259366004610fe7565b610861565b61021161087c565b61026e6108c7565b6040516101d29190611096565b6101c56108d6565b6101c56108dc565b610211610299366004611001565b6108f4565b6101c56102ac366004610fe7565b6109ba565b61026e6109cc565b6102116102c736600461104a565b6109db565b6101c5610b33565b6102116102e236600461104a565b610b39565b6101c5610bd9565b61026e610c27565b6101c5610c3b565b610211610c41565b6101c5610c62565b61021161031d366004610fe7565b610c68565b6001600160a01b0381166000908152600a6020908152604080832054600990925282205461039a919061039490670de0b6b3a76400009061038e9061036f90610369610bd9565b90610cd9565b6001600160a01b0388166000908152600c602052604090205490610cec565b90610cf8565b90610d04565b90505b919050565b600a6020526000908152604090205481565b600b545b90565b60006103d4600654600554610cec90919063ffffffff16565b905090565b600260015414156104055760405162461bcd60e51b81526004016103fc90611407565b60405180910390fd5b600260015533610413610bd9565b60085561041e6108dc565b6007556001600160a01b038116156104655761043981610322565b6001600160a01b0382166000908152600a60209081526040808320939093556008546009909152919020555b600082116104855760405162461bcd60e51b81526004016103fc906112d0565b600b546104929083610cd9565b600b55336000908152600c60205260409020546104af9083610cd9565b336000818152600c60205260409020919091556003546104db916001600160a01b039091169084610d10565b336001600160a01b03167f7084f5476618d8e60b11ef0d7d3f06914655adb8793e28ff7f018d4c76d505d583604051610514919061149b565b60405180910390a2505060018055565b60065481565b610532610d98565b6001600160a01b03166105436109cc565b6001600160a01b0316146105695760405162461bcd60e51b81526004016103fc90611307565b6000610573610bd9565b60085561057e6108dc565b6007556001600160a01b038116156105c55761059981610322565b6001600160a01b0382166000908152600a60209081526040808320939093556008546009909152919020555b60045442106105e4576006546105dc908390610cf8565b600555610627565b6004546000906105f49042610cd9565b9050600061060d60055483610cec90919063ffffffff16565b6006549091506106219061038e8684610d04565b60055550505b6002546040517f70a0823100000000000000000000000000000000000000000000000000000000815260009161010090046001600160a01b0316906370a0823190610676903090600401611096565b60206040518083038186803b15801561068e57600080fd5b505afa1580156106a2573d6000803e3d6000fd5b505050506040513d601f19601f820116820180604052508101906106c69190611062565b90506106dd60065482610cf890919063ffffffff16565b60055411156106fe5760405162461bcd60e51b81526004016103fc9061133c565b4260078190556006546107119190610d04565b6004556040517fde88a922e0d3b88b24e9623efeb464919c6bf9f66857a65e2bfcf2ce87a9433d9061074490859061149b565b60405180910390a1505050565b600260015414156107745760405162461bcd60e51b81526004016103fc90611407565b600260015533610782610bd9565b60085561078d6108dc565b6007556001600160a01b038116156107d4576107a881610322565b6001600160a01b0382166000908152600a60209081526040808320939093556008546009909152919020555b336000908152600a6020526040902054801561085057336000818152600a6020526040812055600254610817916101009091046001600160a01b03169083610d10565b336001600160a01b03167fe2403640ba68fed3a2f88b7557551d1993f84b99bb10ff833f0cf8db0c5e048682604051610514919061149b565b505060018055565b60025460ff1690565b6001600160a01b03166000908152600c602052604090205490565b610884610d98565b6001600160a01b03166108956109cc565b6001600160a01b0316146108bb5760405162461bcd60e51b81526004016103fc90611307565b6108c56000610d9c565b565b6003546001600160a01b031681565b60055481565b600060045442106108ef576004546103d4565b504290565b6108fc610d98565b6001600160a01b031661090d6109cc565b6001600160a01b0316146109335760405162461bcd60e51b81526004016103fc90611307565b6003546001600160a01b03838116911614156109615760405162461bcd60e51b81526004016103fc9061143e565b61097d61096c6109cc565b6001600160a01b0384169083610d10565b7f8c1256b8896378cd5044f80c202f9772b9d77dc85c8a6eb51967210b09bfaa2882826040516109ae9291906110ce565b60405180910390a15050565b60096020526000908152604090205481565b6000546001600160a01b031690565b600260015414156109fe5760405162461bcd60e51b81526004016103fc90611407565b6002600155610a0b610858565b15610a285760405162461bcd60e51b81526004016103fc90611299565b33610a31610bd9565b600855610a3c6108dc565b6007556001600160a01b03811615610a8357610a5781610322565b6001600160a01b0382166000908152600a60209081526040808320939093556008546009909152919020555b60008211610aa35760405162461bcd60e51b81526004016103fc90611205565b600b54610ab09083610d04565b600b55336000908152600c6020526040902054610acd9083610d04565b336000818152600c6020526040902091909155600354610afa916001600160a01b03909116903085610e04565b336001600160a01b03167f9e71bc8eea02a63969f509818f2dafb9254532904319f9dbda79b67bd34a5f3d83604051610514919061149b565b60075481565b610b41610d98565b6001600160a01b0316610b526109cc565b6001600160a01b031614610b785760405162461bcd60e51b81526004016103fc90611307565b6004544211610b995760405162461bcd60e51b81526004016103fc90611125565b60068190556040517ffb46ca5a5e06d4540d6387b930a7c978bce0db5f449ec6b3f5d07c6e1d44f2d390610bce90839061149b565b60405180910390a150565b6000600b5460001415610bef57506008546103b8565b6103d4610c1e600b5461038e670de0b6b3a7640000610c18600554610c186007546103696108dc565b90610cec565b60085490610d04565b60025461010090046001600160a01b031681565b60085481565b336000908152600c6020526040902054610c5a906103d9565b6108c5610751565b60045481565b610c70610d98565b6001600160a01b0316610c816109cc565b6001600160a01b031614610ca75760405162461bcd60e51b81526004016103fc90611307565b6001600160a01b038116610ccd5760405162461bcd60e51b81526004016103fc906111a8565b610cd681610d9c565b50565b6000610ce582846114fb565b9392505050565b6000610ce582846114dc565b6000610ce582846114bc565b6000610ce582846114a4565b610d938363a9059cbb60e01b8484604051602401610d2f9291906110ce565b60408051601f198184030181529190526020810180517bffffffffffffffffffffffffffffffffffffffffffffffffffffffff167fffffffff0000000000000000000000000000000000000000000000000000000090931692909217909152610e2b565b505050565b3390565b600080546001600160a01b038381167fffffffffffffffffffffffff0000000000000000000000000000000000000000831681178455604051919092169283917f8be0079c531659141344cd1fd0a4f28419497f9722a3daafe3b4186f6b6457e09190a35050565b610e25846323b872dd60e01b858585604051602401610d2f939291906110aa565b50505050565b6000610e80826040518060400160405280602081526020017f5361666545524332303a206c6f772d6c6576656c2063616c6c206661696c6564815250856001600160a01b0316610eba9092919063ffffffff16565b805190915015610d935780806020019051810190610e9e919061102a565b610d935760405162461bcd60e51b81526004016103fc906113aa565b6060610ec98484600085610ed1565b949350505050565b606082471015610ef35760405162461bcd60e51b81526004016103fc9061123c565b610efc85610f91565b610f185760405162461bcd60e51b81526004016103fc90611373565b600080866001600160a01b03168587604051610f34919061107a565b60006040518083038185875af1925050503d8060008114610f71576040519150601f19603f3d011682016040523d82523d6000602084013e610f76565b606091505b5091509150610f86828286610f97565b979650505050505050565b3b151590565b60608315610fa6575081610ce5565b825115610fb65782518084602001fd5b8160405162461bcd60e51b81526004016103fc91906110f2565b80356001600160a01b038116811461039d57600080fd5b600060208284031215610ff8578081fd5b610ce582610fd0565b60008060408385031215611013578081fd5b61101c83610fd0565b946020939093013593505050565b60006020828403121561103b578081fd5b81518015158114610ce5578182fd5b60006020828403121561105b578081fd5b5035919050565b600060208284031215611073578081fd5b5051919050565b6000825161108c818460208701611512565b9190910192915050565b6001600160a01b0391909116815260200190565b6001600160a01b039384168152919092166020820152604081019190915260600190565b6001600160a01b03929092168252602082015260400190565b901515815260200190565b6000602082528251806020840152611111816040850160208701611512565b601f01601f19169190910160400192915050565b60208082526058908201527f50726576696f7573207265776172647320706572696f64206d7573742062652060408201527f636f6d706c657465206265666f7265206368616e67696e67207468652064757260608201527f6174696f6e20666f7220746865206e657720706572696f640000000000000000608082015260a00190565b60208082526026908201527f4f776e61626c653a206e6577206f776e657220697320746865207a65726f206160408201527f6464726573730000000000000000000000000000000000000000000000000000606082015260800190565b6020808252600e908201527f43616e6e6f74207374616b652030000000000000000000000000000000000000604082015260600190565b60208082526026908201527f416464726573733a20696e73756666696369656e742062616c616e636520666f60408201527f722063616c6c0000000000000000000000000000000000000000000000000000606082015260800190565b60208082526010908201527f5061757361626c653a2070617573656400000000000000000000000000000000604082015260600190565b60208082526011908201527f43616e6e6f742077697468647261772030000000000000000000000000000000604082015260600190565b6020808252818101527f4f776e61626c653a2063616c6c6572206973206e6f7420746865206f776e6572604082015260600190565b60208082526018908201527f50726f76696465642072657761726420746f6f20686967680000000000000000604082015260600190565b6020808252601d908201527f416464726573733a2063616c6c20746f206e6f6e2d636f6e7472616374000000604082015260600190565b6020808252602a908201527f5361666545524332303a204552433230206f7065726174696f6e20646964206e60408201527f6f74207375636365656400000000000000000000000000000000000000000000606082015260800190565b6020808252601f908201527f5265656e7472616e637947756172643a207265656e7472616e742063616c6c00604082015260600190565b60208082526021908201527f43616e6e6f7420776974686472617720746865207374616b696e6720746f6b6560408201527f6e00000000000000000000000000000000000000000000000000000000000000606082015260800190565b90815260200190565b600082198211156114b7576114b761153e565b500190565b6000826114d757634e487b7160e01b81526012600452602481fd5b500490565b60008160001904831182151516156114f6576114f661153e565b500290565b60008282101561150d5761150d61153e565b500390565b60005b8381101561152d578181015183820152602001611515565b83811115610e255750506000910152565b634e487b7160e01b600052601160045260246000fdfea264697066735822122024514ffbbea37ab62ec37df7251b63441e7a3cdde353f9b433840ea2cd1d379064736f6c63430008000033",
  "devdoc": {
    "kind": "dev",
    "methods": {
      "owner()": {
        "details": "Returns the address of the current owner."
      },
      "paused()": {
        "details": "Returns true if the contract is paused, and false otherwise."
      },
      "renounceOwnership()": {
        "details": "Leaves the contract without owner. It will not be possible to call `onlyOwner` functions anymore. Can only be called by the current owner. NOTE: Renouncing ownership will leave the contract without an owner, thereby removing any functionality that is only available to the owner."
      },
      "transferOwnership(address)": {
        "details": "Transfers ownership of the contract to a new account (`newOwner`). Can only be called by the current owner."
      }
    },
    "version": 1
  },
  "userdoc": {
    "kind": "user",
    "methods": {},
    "version": 1
  },
  "storageLayout": {
    "storage": [
      {
        "astId": 7,
        "contract": "contracts/core/utils/StakingRewards.sol:StakingRewards",
        "label": "_owner",
        "offset": 0,
        "slot": "0",
        "type": "t_address"
      },
      {
        "astId": 206,
        "contract": "contracts/core/utils/StakingRewards.sol:StakingRewards",
        "label": "_status",
        "offset": 0,
        "slot": "1",
        "type": "t_uint256"
      },
      {
        "astId": 121,
        "contract": "contracts/core/utils/StakingRewards.sol:StakingRewards",
        "label": "_paused",
        "offset": 0,
        "slot": "2",
        "type": "t_bool"
      },
      {
        "astId": 1846,
        "contract": "contracts/core/utils/StakingRewards.sol:StakingRewards",
        "label": "rewardsToken",
        "offset": 1,
        "slot": "2",
        "type": "t_contract(IERC20)859"
      },
      {
        "astId": 1849,
        "contract": "contracts/core/utils/StakingRewards.sol:StakingRewards",
        "label": "stakingToken",
        "offset": 0,
        "slot": "3",
        "type": "t_contract(IERC20)859"
      },
      {
        "astId": 1852,
        "contract": "contracts/core/utils/StakingRewards.sol:StakingRewards",
        "label": "periodFinish",
        "offset": 0,
        "slot": "4",
        "type": "t_uint256"
      },
      {
        "astId": 1855,
        "contract": "contracts/core/utils/StakingRewards.sol:StakingRewards",
        "label": "rewardRate",
        "offset": 0,
        "slot": "5",
        "type": "t_uint256"
      },
      {
        "astId": 1858,
        "contract": "contracts/core/utils/StakingRewards.sol:StakingRewards",
        "label": "rewardsDuration",
        "offset": 0,
        "slot": "6",
        "type": "t_uint256"
      },
      {
        "astId": 1860,
        "contract": "contracts/core/utils/StakingRewards.sol:StakingRewards",
        "label": "lastUpdateTime",
        "offset": 0,
        "slot": "7",
        "type": "t_uint256"
      },
      {
        "astId": 1862,
        "contract": "contracts/core/utils/StakingRewards.sol:StakingRewards",
        "label": "rewardPerTokenStored",
        "offset": 0,
        "slot": "8",
        "type": "t_uint256"
      },
      {
        "astId": 1866,
        "contract": "contracts/core/utils/StakingRewards.sol:StakingRewards",
        "label": "userRewardPerTokenPaid",
        "offset": 0,
        "slot": "9",
        "type": "t_mapping(t_address,t_uint256)"
      },
      {
        "astId": 1870,
        "contract": "contracts/core/utils/StakingRewards.sol:StakingRewards",
        "label": "rewards",
        "offset": 0,
        "slot": "10",
        "type": "t_mapping(t_address,t_uint256)"
      },
      {
        "astId": 1872,
        "contract": "contracts/core/utils/StakingRewards.sol:StakingRewards",
        "label": "_totalSupply",
        "offset": 0,
        "slot": "11",
        "type": "t_uint256"
      },
      {
        "astId": 1876,
        "contract": "contracts/core/utils/StakingRewards.sol:StakingRewards",
        "label": "_balances",
        "offset": 0,
        "slot": "12",
        "type": "t_mapping(t_address,t_uint256)"
      }
    ],
    "types": {
      "t_address": {
        "encoding": "inplace",
        "label": "address",
        "numberOfBytes": "20"
      },
      "t_bool": {
        "encoding": "inplace",
        "label": "bool",
        "numberOfBytes": "1"
      },
      "t_contract(IERC20)859": {
        "encoding": "inplace",
        "label": "contract IERC20",
        "numberOfBytes": "20"
      },
      "t_mapping(t_address,t_uint256)": {
        "encoding": "mapping",
        "key": "t_address",
        "label": "mapping(address => uint256)",
        "numberOfBytes": "32",
        "value": "t_uint256"
      },
      "t_uint256": {
        "encoding": "inplace",
        "label": "uint256",
        "numberOfBytes": "32"
      }
    }
  }
}