{
  "address": "0x8198f5d8F8CfFE8f9C413d98a0A55aEB8ab9FbB7",
  "abi": [
    {
      "inputs": [
        {
          "internalType": "contract IContractRegistry",
          "name": "_contractRegistry",
          "type": "address"
        },
        {
          "internalType": "contract ISetToken",
          "name": "_setToken",
          "type": "address"
        },
        {
          "internalType": "contract IERC20",
          "name": "_threeCrv",
          "type": "address"
        },
        {
          "internalType": "contract BasicIssuanceModule",
          "name": "_basicIssuanceModule",
          "type": "address"
        },
        {
          "internalType": "address[]",
          "name": "_yTokenAddresses",
          "type": "address[]"
        },
        {
          "components": [
            {
              "internalType": "contract CurveMetapool",
              "name": "curveMetaPool",
              "type": "address"
            },
            {
              "internalType": "contract IERC20",
              "name": "crvLPToken",
              "type": "address"
            }
          ],
          "internalType": "struct HysiBatchInteraction.CurvePoolTokenPair[]",
          "name": "_curvePoolTokenPairs",
          "type": "tuple[]"
        },
        {
          "internalType": "uint256",
          "name": "_batchCooldown",
          "type": "uint256"
        },
        {
          "internalType": "uint256",
          "name": "_mintThreshold",
          "type": "uint256"
        },
        {
          "internalType": "uint256",
          "name": "_redeemThreshold",
          "type": "uint256"
        }
      ],
      "stateMutability": "nonpayable",
      "type": "constructor"
    },
    {
      "anonymous": false,
      "inputs": [
        {
          "indexed": true,
          "internalType": "bytes32",
          "name": "batchId",
          "type": "bytes32"
        },
        {
          "indexed": false,
          "internalType": "uint256",
          "name": "suppliedTokenAmount",
          "type": "uint256"
        },
        {
          "indexed": false,
          "internalType": "uint256",
          "name": "hysiAmount",
          "type": "uint256"
        }
      ],
      "name": "BatchMinted",
      "type": "event"
    },
    {
      "anonymous": false,
      "inputs": [
        {
          "indexed": true,
          "internalType": "bytes32",
          "name": "batchId",
          "type": "bytes32"
        },
        {
          "indexed": false,
          "internalType": "uint256",
          "name": "suppliedTokenAmount",
          "type": "uint256"
        },
        {
          "indexed": false,
          "internalType": "uint256",
          "name": "threeCrvAmount",
          "type": "uint256"
        }
      ],
      "name": "BatchRedeemed",
      "type": "event"
    },
    {
      "anonymous": false,
      "inputs": [
        {
          "indexed": true,
          "internalType": "address",
          "name": "account",
          "type": "address"
        },
        {
          "indexed": false,
          "internalType": "enum HysiBatchInteraction.BatchType",
          "name": "batchType",
          "type": "uint8"
        },
        {
          "indexed": false,
          "internalType": "uint256",
          "name": "shares",
          "type": "uint256"
        },
        {
          "indexed": false,
          "internalType": "uint256",
          "name": "claimedToken",
          "type": "uint256"
        }
      ],
      "name": "Claimed",
      "type": "event"
    },
    {
      "anonymous": false,
      "inputs": [
        {
          "indexed": true,
          "internalType": "address",
          "name": "from",
          "type": "address"
        },
        {
          "indexed": false,
          "internalType": "uint256",
          "name": "deposit",
          "type": "uint256"
        }
      ],
      "name": "Deposit",
      "type": "event"
    },
    {
      "anonymous": false,
      "inputs": [
        {
          "indexed": false,
          "internalType": "uint256",
          "name": "amount",
          "type": "uint256"
        },
        {
          "indexed": false,
          "internalType": "enum HysiBatchInteraction.BatchType",
          "name": "batchType",
          "type": "uint8"
        },
        {
          "indexed": false,
          "internalType": "address",
          "name": "account",
          "type": "address"
        }
      ],
      "name": "MovedUnclaimedDepositsIntoCurrentBatch",
      "type": "event"
    },
    {
      "anonymous": false,
      "inputs": [
        {
          "indexed": false,
          "internalType": "contract ISetToken",
          "name": "setToken",
          "type": "address"
        }
      ],
      "name": "TokenSetAdded",
      "type": "event"
    },
    {
      "anonymous": false,
      "inputs": [
        {
          "indexed": true,
          "internalType": "address",
          "name": "to",
          "type": "address"
        },
        {
          "indexed": false,
          "internalType": "uint256",
          "name": "amount",
          "type": "uint256"
        }
      ],
      "name": "Withdrawal",
      "type": "event"
    },
    {
      "anonymous": false,
      "inputs": [
        {
          "indexed": false,
          "internalType": "bytes32",
          "name": "batchId",
          "type": "bytes32"
        },
        {
          "indexed": false,
          "internalType": "uint256",
          "name": "amount",
          "type": "uint256"
        },
        {
          "indexed": false,
          "internalType": "address",
          "name": "to",
          "type": "address"
        }
      ],
      "name": "WithdrawnFromBatch",
      "type": "event"
    },
    {
      "inputs": [
        {
          "internalType": "bytes32",
          "name": "",
          "type": "bytes32"
        },
        {
          "internalType": "address",
          "name": "",
          "type": "address"
        }
      ],
      "name": "accountBalances",
      "outputs": [
        {
          "internalType": "uint256",
          "name": "",
          "type": "uint256"
        }
      ],
      "stateMutability": "view",
      "type": "function"
    },
    {
      "inputs": [
        {
          "internalType": "address",
          "name": "",
          "type": "address"
        },
        {
          "internalType": "uint256",
          "name": "",
          "type": "uint256"
        }
      ],
      "name": "accountBatches",
      "outputs": [
        {
          "internalType": "bytes32",
          "name": "",
          "type": "bytes32"
        }
      ],
      "stateMutability": "view",
      "type": "function"
    },
    {
      "inputs": [],
      "name": "batchCooldown",
      "outputs": [
        {
          "internalType": "uint256",
          "name": "",
          "type": "uint256"
        }
      ],
      "stateMutability": "view",
      "type": "function"
    },
    {
      "inputs": [
        {
          "internalType": "uint256",
          "name": "",
          "type": "uint256"
        }
      ],
      "name": "batchIds",
      "outputs": [
        {
          "internalType": "bytes32",
          "name": "",
          "type": "bytes32"
        }
      ],
      "stateMutability": "view",
      "type": "function"
    },
    {
      "inputs": [
        {
          "internalType": "uint256",
          "name": "_minAmountToMint",
          "type": "uint256"
        }
      ],
      "name": "batchMint",
      "outputs": [],
      "stateMutability": "nonpayable",
      "type": "function"
    },
    {
      "inputs": [
        {
          "internalType": "uint256",
          "name": "_min3crvToReceive",
          "type": "uint256"
        }
      ],
      "name": "batchRedeem",
      "outputs": [],
      "stateMutability": "nonpayable",
      "type": "function"
    },
    {
      "inputs": [
        {
          "internalType": "bytes32",
          "name": "",
          "type": "bytes32"
        }
      ],
      "name": "batches",
      "outputs": [
        {
          "internalType": "enum HysiBatchInteraction.BatchType",
          "name": "batchType",
          "type": "uint8"
        },
        {
          "internalType": "bytes32",
          "name": "batchId",
          "type": "bytes32"
        },
        {
          "internalType": "bool",
          "name": "claimable",
          "type": "bool"
        },
        {
          "internalType": "uint256",
          "name": "unclaimedShares",
          "type": "uint256"
        },
        {
          "internalType": "uint256",
          "name": "suppliedTokenBalance",
          "type": "uint256"
        },
        {
          "internalType": "uint256",
          "name": "claimableTokenBalance",
          "type": "uint256"
        },
        {
          "internalType": "address",
          "name": "suppliedTokenAddress",
          "type": "address"
        },
        {
          "internalType": "address",
          "name": "claimableTokenAddress",
          "type": "address"
        }
      ],
      "stateMutability": "view",
      "type": "function"
    },
    {
      "inputs": [
        {
          "internalType": "bytes32",
          "name": "_batchId",
          "type": "bytes32"
        },
        {
          "internalType": "address",
          "name": "_claimFor",
          "type": "address"
        }
      ],
      "name": "claim",
      "outputs": [
        {
          "internalType": "uint256",
          "name": "",
          "type": "uint256"
        }
      ],
      "stateMutability": "nonpayable",
      "type": "function"
    },
    {
      "inputs": [],
      "name": "contractName",
      "outputs": [
        {
          "internalType": "bytes32",
          "name": "",
          "type": "bytes32"
        }
      ],
      "stateMutability": "view",
      "type": "function"
    },
    {
      "inputs": [],
      "name": "contractRegistry",
      "outputs": [
        {
          "internalType": "contract IContractRegistry",
          "name": "",
          "type": "address"
        }
      ],
      "stateMutability": "view",
      "type": "function"
    },
    {
      "inputs": [],
      "name": "currentMintBatchId",
      "outputs": [
        {
          "internalType": "bytes32",
          "name": "",
          "type": "bytes32"
        }
      ],
      "stateMutability": "view",
      "type": "function"
    },
    {
      "inputs": [],
      "name": "currentRedeemBatchId",
      "outputs": [
        {
          "internalType": "bytes32",
          "name": "",
          "type": "bytes32"
        }
      ],
      "stateMutability": "view",
      "type": "function"
    },
    {
      "inputs": [
        {
          "internalType": "address",
          "name": "",
          "type": "address"
        }
      ],
      "name": "curvePoolTokenPairs",
      "outputs": [
        {
          "internalType": "contract CurveMetapool",
          "name": "curveMetaPool",
          "type": "address"
        },
        {
          "internalType": "contract IERC20",
          "name": "crvLPToken",
          "type": "address"
        }
      ],
      "stateMutability": "view",
      "type": "function"
    },
    {
      "inputs": [
        {
          "internalType": "uint256",
          "name": "_amount",
          "type": "uint256"
        },
        {
          "internalType": "address",
          "name": "_depositFor",
          "type": "address"
        }
      ],
      "name": "depositForMint",
      "outputs": [],
      "stateMutability": "nonpayable",
      "type": "function"
    },
    {
      "inputs": [
        {
          "internalType": "uint256",
          "name": "_amount",
          "type": "uint256"
        }
      ],
      "name": "depositForRedeem",
      "outputs": [],
      "stateMutability": "nonpayable",
      "type": "function"
    },
    {
      "inputs": [
        {
          "internalType": "address",
          "name": "_account",
          "type": "address"
        }
      ],
      "name": "getAccountBatches",
      "outputs": [
        {
          "internalType": "bytes32[]",
          "name": "",
          "type": "bytes32[]"
        }
      ],
      "stateMutability": "view",
      "type": "function"
    },
    {
      "inputs": [],
      "name": "lastMintedAt",
      "outputs": [
        {
          "internalType": "uint256",
          "name": "",
          "type": "uint256"
        }
      ],
      "stateMutability": "view",
      "type": "function"
    },
    {
      "inputs": [],
      "name": "lastRedeemedAt",
      "outputs": [
        {
          "internalType": "uint256",
          "name": "",
          "type": "uint256"
        }
      ],
      "stateMutability": "view",
      "type": "function"
    },
    {
      "inputs": [],
      "name": "mintThreshold",
      "outputs": [
        {
          "internalType": "uint256",
          "name": "",
          "type": "uint256"
        }
      ],
      "stateMutability": "view",
      "type": "function"
    },
    {
      "inputs": [
        {
          "internalType": "bytes32[]",
          "name": "_batchIds",
          "type": "bytes32[]"
        },
        {
          "internalType": "uint256[]",
          "name": "_shares",
          "type": "uint256[]"
        },
        {
          "internalType": "enum HysiBatchInteraction.BatchType",
          "name": "_batchType",
          "type": "uint8"
        }
      ],
      "name": "moveUnclaimedDepositsIntoCurrentBatch",
      "outputs": [],
      "stateMutability": "nonpayable",
      "type": "function"
    },
    {
      "inputs": [],
      "name": "redeemThreshold",
      "outputs": [
        {
          "internalType": "uint256",
          "name": "",
          "type": "uint256"
        }
      ],
      "stateMutability": "view",
      "type": "function"
    },
    {
      "inputs": [],
      "name": "setBasicIssuanceModule",
      "outputs": [
        {
          "internalType": "contract BasicIssuanceModule",
          "name": "",
          "type": "address"
        }
      ],
      "stateMutability": "view",
      "type": "function"
    },
    {
      "inputs": [
        {
          "internalType": "uint256",
          "name": "_cooldown",
          "type": "uint256"
        }
      ],
      "name": "setBatchCooldown",
      "outputs": [],
      "stateMutability": "nonpayable",
      "type": "function"
    },
    {
      "inputs": [
        {
          "internalType": "address[]",
          "name": "_yTokenAddresses",
          "type": "address[]"
        },
        {
          "components": [
            {
              "internalType": "contract CurveMetapool",
              "name": "curveMetaPool",
              "type": "address"
            },
            {
              "internalType": "contract IERC20",
              "name": "crvLPToken",
              "type": "address"
            }
          ],
          "internalType": "struct HysiBatchInteraction.CurvePoolTokenPair[]",
          "name": "_curvePoolTokenPairs",
          "type": "tuple[]"
        }
      ],
      "name": "setCurvePoolTokenPairs",
      "outputs": [],
      "stateMutability": "nonpayable",
      "type": "function"
    },
    {
      "inputs": [
        {
          "internalType": "uint256",
          "name": "_threshold",
          "type": "uint256"
        }
      ],
      "name": "setMintThreshold",
      "outputs": [],
      "stateMutability": "nonpayable",
      "type": "function"
    },
    {
      "inputs": [
        {
          "internalType": "uint256",
          "name": "_threshold",
          "type": "uint256"
        }
      ],
      "name": "setRedeemThreshold",
      "outputs": [],
      "stateMutability": "nonpayable",
      "type": "function"
    },
    {
      "inputs": [],
      "name": "setToken",
      "outputs": [
        {
          "internalType": "contract ISetToken",
          "name": "",
          "type": "address"
        }
      ],
      "stateMutability": "view",
      "type": "function"
    },
    {
      "inputs": [],
      "name": "threeCrv",
      "outputs": [
        {
          "internalType": "contract IERC20",
          "name": "",
          "type": "address"
        }
      ],
      "stateMutability": "view",
      "type": "function"
    },
    {
      "inputs": [
        {
          "internalType": "bytes32",
          "name": "_batchId",
          "type": "bytes32"
        },
        {
          "internalType": "uint256",
          "name": "_amountToWithdraw",
          "type": "uint256"
        },
        {
          "internalType": "address",
          "name": "_withdrawFor",
          "type": "address"
        }
      ],
      "name": "withdrawFromBatch",
      "outputs": [],
      "stateMutability": "nonpayable",
      "type": "function"
    }
  ],
  "transactionHash": "0xfa2a184c7392ee7f03bc7f2cb6c899306217aa02defd77e54a91a97dd7b389b5",
  "args": [
    "0xB0D4afd8879eD9F52b28595d31B441D079B2Ca07",
    "0x8d1621A27BB8c84e59ca339Cf9B21e15b907e408",
    "0x6c3F90f043a72FA612cbac8115EE7e52BDe6E490",
    "0xd8EF3cACe8b4907117a45B0b125c68560532F94D",
    [
      "0x30FCf7c6cDfC46eC237783D94Fc78553E79d4E9C",
      "0xB4AdA607B9d6b2c9Ee07A275e9616B84AC560139",
      "0x3B96d491f067912D18563d56858Ba7d6EC67a6fa",
      "0x1C6a9783F812b3Af3aBbf7de64c3cD7CC7D1af44"
    ],
    [
      {
        "curveMetaPool": "0x8038C01A0390a8c547446a0b2c18fc9aEFEcc10c",
        "crvLPToken": "0x3a664Ab939FD8482048609f652f9a0B0677337B9"
      },
      {
        "curveMetaPool": "0xd632f22692FaC7611d2AA1C0D552930D43CAEd3B",
        "crvLPToken": "0xd632f22692FaC7611d2AA1C0D552930D43CAEd3B"
      },
      {
        "curveMetaPool": "0x0f9cb53Ebe405d49A0bbdBD291A65Ff571bC83e1",
        "crvLPToken": "0x4f3E8F405CF5aFC05D68142F3783bDfE13811522"
      },
      {
        "curveMetaPool": "0x890f4e345B1dAED0367A877a1612f86A1f86985f",
        "crvLPToken": "0x94e131324b6054c0D789b190b2dAC504e4361b53"
      }
    ],
    1,
    "1000000000000000000",
    "100000000000000000"
  ],
  "solcInputHash": "0e2d243efd06c5832267e40ce916613e",
  "bytecode": "0x60a06040527f487973694261746368496e746572616374696f6e0000000000000000000000006080523480156200003557600080fd5b5060405162004bc638038062004bc68339810160408190526200005891620004a9565b600080546001600160a01b03808c166001600160a01b031992831617909255600180548b8416908316179055600280548a84169083161790556003805492891692909116919091179055620000ae858562000101565b600d839055600e829055600f819055426009819055600a55620000da631b5a5b9d60e21b6000620001cb565b50620000f16572656465656d60d01b6001620001cb565b5050505050505050505062000635565b60005b8251811015620001c6578181815181106200012f57634e487b7160e01b600052603260045260246000fd5b6020026020010151600460008584815181106200015c57634e487b7160e01b600052603260045260246000fd5b6020908102919091018101516001600160a01b039081168352828201939093526040909101600020835181546001600160a01b0319908116918516919091178255939091015160019091018054909316911617905580620001bd81620005de565b91505062000104565b505050565b600080620001d98462000323565b6008805460018181019092557ff3f7a9fe364faab93b216da50a3214154f22a0a2b415b23a84c8169e8b636ee30182905560008281526007602052604090208054929350918591839160ff19169083818111156200024757634e487b7160e01b600052602160045260246000fd5b0217905550600180820183905584908111156200027457634e487b7160e01b600052602160045260246000fd5b620002b557600b8290556002546006820180546001600160a01b039283166001600160a01b0319918216179091556001546007840180549190931691161790555b836001811115620002d657634e487b7160e01b600052602160045260246000fd5b600114156200031b57600c8290556001546006820180546001600160a01b039283166001600160a01b0319918216179091556002546007840180549190931691161790555b509392505050565b600042826040516020016200033a9291906200057e565b6040516020818303038152906040528051906020012090505b919050565b600082601f83011262000369578081fd5b81516020620003826200037c83620005b8565b6200058c565b82815281810190858301838502870184018810156200039f578586fd5b855b85811015620003ca578151620003b7816200061c565b84529284019290840190600101620003a1565b5090979650505050505050565b600082601f830112620003e8578081fd5b81516020620003fb6200037c83620005b8565b828152818101908583016040808602880185018910156200041a578687fd5b865b868110156200048e5781838b03121562000434578788fd5b81518083016001600160401b038111828210171562000457576200045762000606565b8352835162000466816200061c565b81528387015162000477816200061c565b81880152855293850193918101916001016200041c565b509198975050505050505050565b805162000353816200061c565b60008060008060008060008060006101208a8c031215620004c8578485fd5b8951620004d5816200061c565b60208b0151909950620004e8816200061c565b9750620004f860408b016200049c565b96506200050860608b016200049c565b60808b01519096506001600160401b038082111562000525578687fd5b620005338d838e0162000358565b965060a08c015191508082111562000549578586fd5b50620005588c828d01620003d7565b94505060c08a0151925060e08a015191506101008a015190509295985092959850929598565b918252602082015260400190565b6040518181016001600160401b0381118282101715620005b057620005b062000606565b604052919050565b60006001600160401b03821115620005d457620005d462000606565b5060209081020190565b6000600019821415620005ff57634e487b7160e01b81526011600452602481fd5b5060010190565b634e487b7160e01b600052604160045260246000fd5b6001600160a01b03811681146200063257600080fd5b50565b6080516145676200065f60003960008181610ce501528181610db70152611e7001526145676000f3fe608060405234801561001057600080fd5b50600436106101cf5760003560e01c806390f2ca8711610104578063b3d346b9116100a2578063d75e952711610071578063d75e952714610395578063ed09e19d146103a8578063ed9cf58c146103bb578063eddcb7d1146103c3576101cf565b8063b3d346b914610335578063c81e25ab14610348578063cd02bd7f1461036f578063d030d2b314610382576101cf565b8063976874cc116100de578063976874cc146102f15780639c8dead214610312578063ab6a55391461031a578063abf410e51461032d576101cf565b806390f2ca87146102c3578063961b7d86146102cb57806396c144f0146102de576101cf565b80633af3bfb5116101715780637190bc291161014b5780637190bc291461028d57806375d0c0dc146102a05780638467be0d146102a857806390d1f245146102bb576101cf565b80633af3bfb51461025f5780633eea44fe146102725780635a3f0ca014610285576101cf565b806328d3ef0b116101ad57806328d3ef0b1461021a5780632a9ca9961461023a5780632da9a6941461024f5780633739158014610257576101cf565b806307da06a5146101d4578063264c7984146101e957806327360d6914610207575b600080fd5b6101e76101e2366004613a67565b6103cb565b005b6101f1610706565b6040516101fe9190613d33565b60405180910390f35b6101e7610215366004613b0b565b61070c565b61022d61022836600461387c565b610841565b6040516101fe9190613cb7565b6102426108ad565b6040516101fe9190613c4c565b6102426108bc565b6101f16108cb565b6101e761026d366004613b52565b6108d1565b6101e7610280366004613b0b565b610a3a565b6101f1610b5f565b6101e761029b3660046138df565b610b65565b6101f1610ce3565b6101e76102b6366004613b0b565b610d07565b6101f161193a565b6101f1611940565b6101e76102d9366004613b23565b611946565b6101f16102ec366004613b23565b611be8565b6103046102ff36600461387c565b611d94565b6040516101fe929190613c60565b6101f1611dba565b6101e7610328366004613b0b565b611dc0565b61024261255a565b6101f1610343366004613b0b565b612569565b61035b610356366004613b0b565b61258a565b6040516101fe989796959493929190613db7565b6101e761037d366004613b0b565b6125e3565b6101f16103903660046138b4565b612708565b6101e76103a3366004613b0b565b612739565b6101f16103b6366004613b23565b61285e565b61024261287b565b6101f161288a565b8382146103f35760405162461bcd60e51b81526004016103ea90613fa3565b60405180910390fd5b6000805b8581101561063c5760006007600089898581811061042557634e487b7160e01b600052603260045260246000fd5b6020908102929092013583525081810192909252604090810160009081206001808201548352600585528383203384529094529190205460028201549193509160ff9091161515146104895760405162461bcd60e51b81526004016103ea90613ed8565b8460018111156104a957634e487b7160e01b600052602160045260246000fd5b825460ff1660018111156104cd57634e487b7160e01b600052602160045260246000fd5b146104ea5760405162461bcd60e51b81526004016103ea9061406e565b86868481811061050a57634e487b7160e01b600052603260045260246000fd5b905060200201358110156105305760405162461bcd60e51b81526004016103ea9061433b565b6000826003015488888681811061055757634e487b7160e01b600052603260045260246000fd5b90506020020135846005015461056d9190614473565b6105779190614453565b90508083600501546105899190614492565b60058401558787858181106105ae57634e487b7160e01b600052603260045260246000fd5b9050602002013583600301546105c49190614492565b60038401558787858181106105e957634e487b7160e01b600052603260045260246000fd5b90506020020135826105fb9190614492565b60018401546000908152600560209081526040808320338452909152902055610624818661443b565b94505050508080610634906144d5565b9150506103f7565b506000811161065d5760405162461bcd60e51b81526004016103ea90613e6a565b81600181111561067d57634e487b7160e01b600052602160045260246000fd5b61068e5761068e81600c5433612890565b8160018111156106ae57634e487b7160e01b600052602160045260246000fd5b600114156106c3576106c381600b5433612890565b7ffacb7348a2212313d980cebc23550b0462adb394310473ee7758995398765c708183336040516106f6939291906143a9565b60405180910390a1505050505050565b60095481565b6001546040516370a0823160e01b815282916001600160a01b0316906370a082319061073c903390600401613c4c565b60206040518083038186803b15801561075457600080fd5b505afa158015610768573d6000803e3d6000fd5b505050506040513d601f19601f8201168201806040525081019061078c9190613be8565b10156107aa5760405162461bcd60e51b81526004016103ea906141cd565b6001546040516323b872dd60e01b81526001600160a01b03909116906323b872dd906107de90339030908690600401613c7a565b602060405180830381600087803b1580156107f857600080fd5b505af115801561080c573d6000803e3d6000fd5b505050506040513d601f19601f820116820180604052508101906108309190613aeb565b5061083e81600c5433612890565b50565b6001600160a01b0381166000908152600660209081526040918290208054835181840281018401909452808452606093928301828280156108a157602002820191906000526020600020905b81548152602001906001019080831161088d575b50505050509050919050565b6003546001600160a01b031681565b6002546001600160a01b031681565b600d5481565b60006108dc82612974565b6000858152600760209081526040808320600583528184206001600160a01b0388168552909252909120546002820154929350909160ff16156109315760405162461bcd60e51b81526004016103ea90614196565b848110156109515760405162461bcd60e51b81526004016103ea9061433b565b61095b8582614492565b60008781526005602090815260408083206001600160a01b0389168452909152902055600482015461098e908690614492565b600483015560038201546109a3908690614492565b60038301556000825460ff1660018111156109ce57634e487b7160e01b600052602160045260246000fd5b14156109f0576002546109eb906001600160a01b03168487612c2c565b610a07565b600154610a07906001600160a01b03168487612c2c565b7f08afc380d5171e1371c567cd7562cc8ff4e9c38c66d5e479c613fdf38106d8458686866040516106f693929190613d75565b600054604051631c2d8fb360e31b81526001600160a01b039091169063e16c7d9890610a8a907f15fa0125f52e5705da1148bfcf00974823c4381bee4314203ede255f9477b73e90600401613d33565b60206040518083038186803b158015610aa257600080fd5b505afa158015610ab6573d6000803e3d6000fd5b505050506040513d601f19601f82011682018060405250810190610ada9190613898565b6001600160a01b031663d09a20c57fd0a4ad96d49edb1c33461cebc6fb2609190f32c904e3c3f5877edb4488dee91e336040518363ffffffff1660e01b8152600401610b27929190613d3c565b60006040518083038186803b158015610b3f57600080fd5b505afa158015610b53573d6000803e3d6000fd5b505050600d9190915550565b600a5481565b600054604051631c2d8fb360e31b81526001600160a01b039091169063e16c7d9890610bb5907f15fa0125f52e5705da1148bfcf00974823c4381bee4314203ede255f9477b73e90600401613d33565b60206040518083038186803b158015610bcd57600080fd5b505afa158015610be1573d6000803e3d6000fd5b505050506040513d601f19601f82011682018060405250810190610c059190613898565b6001600160a01b031663d09a20c57fd0a4ad96d49edb1c33461cebc6fb2609190f32c904e3c3f5877edb4488dee91e336040518363ffffffff1660e01b8152600401610c52929190613d3c565b60006040518083038186803b158015610c6a57600080fd5b505afa158015610c7e573d6000803e3d6000fd5b50505050610cde838383808060200260200160405190810160405280939291908181526020016000905b82821015610cd457610cc560408302860136819003810190613b8a565b81526020019060010190610ca8565b5050505050612caf565b505050565b7f000000000000000000000000000000000000000000000000000000000000000081565b600054604051631c2d8fb360e31b81526001600160a01b039091169063e16c7d9890610d57907f35ed2e1befd3b2dcf1ec7a6834437fa3212881ed81fd3a13dc97c3438896e1ba90600401613d33565b60206040518083038186803b158015610d6f57600080fd5b505afa158015610d83573d6000803e3d6000fd5b505050506040513d601f19601f82011682018060405250810190610da79190613898565b6001600160a01b03166355b8efcc7f00000000000000000000000000000000000000000000000000000000000000006000336040518463ffffffff1660e01b8152600401610df793929190613d53565b600060405180830381600087803b158015610e1157600080fd5b505af1158015610e25573d6000803e3d6000fd5b5050600b546000908152600760205260409020600d546009549193509150610e4d9042614492565b101580610e605750600e54816004015410155b610e7c5760405162461bcd60e51b81526004016103ea90614204565b600281015460ff1615610ea15760405162461bcd60e51b81526004016103ea90614372565b6004808201546002546040516370a0823160e01b815291926001600160a01b03909116916370a0823191610ed791309101613c4c565b60206040518083038186803b158015610eef57600080fd5b505afa158015610f03573d6000803e3d6000fd5b505050506040513d601f19601f82011682018060405250810190610f279190613be8565b1015610f455760405162461bcd60e51b81526004016103ea906140a5565b600354600154604051637a4ffd0360e01b815260009283926001600160a01b0391821692637a4ffd0392610f87921690670de0b6b3a764000090600401613c9e565b60006040518083038186803b158015610f9f57600080fd5b505afa158015610fb3573d6000803e3d6000fd5b505050506040513d6000823e601f3d908101601f19168201604052610fdb91908101906139a4565b91509150600080825167ffffffffffffffff81111561100a57634e487b7160e01b600052604160045260246000fd5b604051908082528060200260200182016040528015611033578160200160208202803683370190505b50905060005b845181101561130d57600085828151811061106457634e487b7160e01b600052603260045260246000fd5b60200260200101516001600160a01b03166399530b066040518163ffffffff1660e01b815260040160206040518083038186803b1580156110a457600080fd5b505afa1580156110b8573d6000803e3d6000fd5b505050506040513d601f19601f820116820180604052508101906110dc9190613be8565b905060006004600088858151811061110457634e487b7160e01b600052603260045260246000fd5b6020908102919091018101516001600160a01b0390811683529082019290925260409081016000205490517fcc2b27d700000000000000000000000000000000000000000000000000000000815291169063cc2b27d79061117490670de0b6b3a764000090600190600401613e26565b60206040518083038186803b15801561118c57600080fd5b505afa1580156111a0573d6000803e3d6000fd5b505050506040513d601f19601f820116820180604052508101906111c49190613be8565b6111d690671bc16d674ec80000614492565b90506000670de0b6b3a76400006111ed8385614473565b6111f79190614453565b90506000670de0b6b3a7640000828a878151811061122557634e487b7160e01b600052603260045260246000fd5b60200260200101516001600160a01b03166370a08231306040518263ffffffff1660e01b81526004016112589190613c4c565b60206040518083038186803b15801561127057600080fd5b505afa158015611284573d6000803e3d6000fd5b505050506040513d601f19601f820116820180604052508101906112a89190613be8565b6112b29190614473565b6112bc9190614453565b9050808686815181106112df57634e487b7160e01b600052603260045260246000fd5b60209081029190910101526112f4818861443b565b9650505050508080611305906144d5565b915050611039565b506000828660040154611320919061443b565b905060005b855181101561162657600083828151811061135057634e487b7160e01b600052603260045260246000fd5b60200260200101516004846113659190614453565b61136f9190614492565b90506113c681600460008a868151811061139957634e487b7160e01b600052603260045260246000fd5b6020908102919091018101516001600160a01b039081168352908201929092526040016000205416612d7b565b5061151d600460008985815181106113ee57634e487b7160e01b600052603260045260246000fd5b6020908102919091018101516001600160a01b0390811683529082019290925260409081016000206001015490516370a0823160e01b81529116906370a082319061143d903090600401613c4c565b60206040518083038186803b15801561145557600080fd5b505afa158015611469573d6000803e3d6000fd5b505050506040513d601f19601f8201168201806040525081019061148d9190613be8565b600460008a86815181106114b157634e487b7160e01b600052603260045260246000fd5b60200260200101516001600160a01b03166001600160a01b0316815260200190815260200160002060010160009054906101000a90046001600160a01b031689858151811061151057634e487b7160e01b600052603260045260246000fd5b6020026020010151612ee9565b6003548751611613916001600160a01b03169089908590811061155057634e487b7160e01b600052603260045260246000fd5b60200260200101516001600160a01b03166370a08231306040518263ffffffff1660e01b81526004016115839190613c4c565b60206040518083038186803b15801561159b57600080fd5b505afa1580156115af573d6000803e3d6000fd5b505050506040513d601f19601f820116820180604052508101906115d39190613be8565b8985815181106115f357634e487b7160e01b600052603260045260246000fd5b60200260200101516001600160a01b03166130139092919063ffffffff16565b508061161e816144d5565b915050611325565b5060008460008151811061164a57634e487b7160e01b600052603260045260246000fd5b60200260200101518660008151811061167357634e487b7160e01b600052603260045260246000fd5b60200260200101516001600160a01b03166370a08231306040518263ffffffff1660e01b81526004016116a69190613c4c565b60206040518083038186803b1580156116be57600080fd5b505afa1580156116d2573d6000803e3d6000fd5b505050506040513d601f19601f820116820180604052508101906116f69190613be8565b61170890670de0b6b3a7640000614473565b6117129190614453565b905060015b8651811015611824576118108287838151811061174457634e487b7160e01b600052603260045260246000fd5b602002602001015189848151811061176c57634e487b7160e01b600052603260045260246000fd5b60200260200101516001600160a01b03166370a08231306040518263ffffffff1660e01b815260040161179f9190613c4c565b60206040518083038186803b1580156117b757600080fd5b505afa1580156117cb573d6000803e3d6000fd5b505050506040513d601f19601f820116820180604052508101906117ef9190613be8565b61180190670de0b6b3a7640000614473565b61180b9190614453565b6130c5565b91508061181c816144d5565b915050611717565b50878110156118455760405162461bcd60e51b81526004016103ea906142a7565b6003546001546040517f6d78f47a0000000000000000000000000000000000000000000000000000000081526001600160a01b0392831692636d78f47a926118969291169085903090600401613d94565b600060405180830381600087803b1580156118b057600080fd5b505af11580156118c4573d6000803e3d6000fd5b505050506005870181905560028701805460ff1916600117905542600955600b5460048801546040517fa018ec75c77c2e90d17863c91c2f7440710e48d57f99510358116fb0e34bdf6d9161191a918590613c3e565b60405180910390a261192f600b5460006130dd565b505050505050505050565b600c5481565b600f5481565b600054604051631c2d8fb360e31b81526001600160a01b039091169063e16c7d9890611996907f15fa0125f52e5705da1148bfcf00974823c4381bee4314203ede255f9477b73e90600401613d33565b60206040518083038186803b1580156119ae57600080fd5b505afa1580156119c2573d6000803e3d6000fd5b505050506040513d601f19601f820116820180604052508101906119e69190613898565b6001600160a01b03166391d148547fde3f120e60938f665f938e828e860a96c02a4ce6b71b26b4001ac807f65ae33f336040518363ffffffff1660e01b8152600401611a33929190613d3c565b60206040518083038186803b158015611a4b57600080fd5b505afa158015611a5f573d6000803e3d6000fd5b505050506040513d601f19601f82011682018060405250810190611a839190613aeb565b80611a965750336001600160a01b038216145b611ab25760405162461bcd60e51b81526004016103ea90613fda565b6002546040516370a0823160e01b815283916001600160a01b0316906370a0823190611ae2903390600401613c4c565b60206040518083038186803b158015611afa57600080fd5b505afa158015611b0e573d6000803e3d6000fd5b505050506040513d601f19601f82011682018060405250810190611b329190613be8565b1015611b505760405162461bcd60e51b81526004016103ea90613f6c565b6002546040516323b872dd60e01b81526001600160a01b03909116906323b872dd90611b8490339030908790600401613c7a565b602060405180830381600087803b158015611b9e57600080fd5b505af1158015611bb2573d6000803e3d6000fd5b505050506040513d601f19601f82011682018060405250810190611bd69190613aeb565b50611be482600b5483612890565b5050565b6000828152600760205260408120600281015460ff16611c1a5760405162461bcd60e51b81526004016103ea90613ea1565b6000611c2584612974565b60008681526005602090815260408083206001600160a01b0389168452909152902054600384015491925090811115611c705760405162461bcd60e51b81526004016103ea90614102565b60008360030154828560050154611c879190614473565b611c919190614453565b9050808460050154611ca39190614492565b60058501556003840154611cb8908390614492565b600385015560008781526005602090815260408083206001600160a01b038a1684529091528120819055845460ff166001811115611d0657634e487b7160e01b600052602160045260246000fd5b1415611d2857600154611d23906001600160a01b03168483612c2c565b611d3f565b600254611d3f906001600160a01b03168483612c2c565b83546040516001600160a01b038816917f8d2dd554e7207f2edcec3f94a370536aa5b74554b28e814f77ec34780a18552491611d829160ff169086908690613e07565b60405180910390a29695505050505050565b600460205260009081526040902080546001909101546001600160a01b03918216911682565b600e5481565b600054604051631c2d8fb360e31b81526001600160a01b039091169063e16c7d9890611e10907f35ed2e1befd3b2dcf1ec7a6834437fa3212881ed81fd3a13dc97c3438896e1ba90600401613d33565b60206040518083038186803b158015611e2857600080fd5b505afa158015611e3c573d6000803e3d6000fd5b505050506040513d601f19601f82011682018060405250810190611e609190613898565b6001600160a01b03166355b8efcc7f00000000000000000000000000000000000000000000000000000000000000006001336040518463ffffffff1660e01b8152600401611eb093929190613d53565b600060405180830381600087803b158015611eca57600080fd5b505af1158015611ede573d6000803e3d6000fd5b5050600c546000908152600760205260409020600d54600a549193509150611f069042614492565b101580611f195750600f54816004015410155b611f355760405162461bcd60e51b81526004016103ea90614204565b600281015460ff1615611f5a5760405162461bcd60e51b81526004016103ea90614239565b6004808201546001546040516370a0823160e01b815291926001600160a01b03909116916370a0823191611f9091309101613c4c565b60206040518083038186803b158015611fa857600080fd5b505afa158015611fbc573d6000803e3d6000fd5b505050506040513d601f19601f82011682018060405250810190611fe09190613be8565b1015611ffe5760405162461bcd60e51b81526004016103ea90614139565b600354600154604051637a4ffd0360e01b815260009283926001600160a01b0391821692637a4ffd0392612040921690670de0b6b3a764000090600401613c9e565b60006040518083038186803b15801561205857600080fd5b505afa15801561206c573d6000803e3d6000fd5b505050506040513d6000823e601f3d908101601f1916820160405261209491908101906139a4565b60035460048601546001549395509193506120bd926001600160a01b0390811692911690613013565b6003546001546004808601546040517f5c833bfd0000000000000000000000000000000000000000000000000000000081526001600160a01b0394851694635c833bfd946121119491169291309101613d94565b600060405180830381600087803b15801561212b57600080fd5b505af115801561213f573d6000803e3d6000fd5b50506002546040516370a0823160e01b8152600093506001600160a01b0390911691506370a0823190612176903090600401613c4c565b60206040518083038186803b15801561218e57600080fd5b505afa1580156121a2573d6000803e3d6000fd5b505050506040513d601f19601f820116820180604052508101906121c69190613be8565b905060005b835181101561243b576122a78482815181106121f757634e487b7160e01b600052603260045260246000fd5b60200260200101516001600160a01b03166370a08231306040518263ffffffff1660e01b815260040161222a9190613c4c565b60206040518083038186803b15801561224257600080fd5b505afa158015612256573d6000803e3d6000fd5b505050506040513d601f19601f8201168201806040525081019061227a9190613be8565b85838151811061229a57634e487b7160e01b600052603260045260246000fd5b6020026020010151613248565b6000600460008684815181106122cd57634e487b7160e01b600052603260045260246000fd5b6020908102919091018101516001600160a01b0390811683529082019290925260409081016000206001015490516370a0823160e01b81529116906370a082319061231c903090600401613c4c565b60206040518083038186803b15801561233457600080fd5b505afa158015612348573d6000803e3d6000fd5b505050506040513d601f19601f8201168201806040525081019061236c9190613be8565b9050612426816004600088868151811061239657634e487b7160e01b600052603260045260246000fd5b60200260200101516001600160a01b03166001600160a01b0316815260200190815260200160002060010160009054906101000a90046001600160a01b0316600460008987815181106123f957634e487b7160e01b600052603260045260246000fd5b6020908102919091018101516001600160a01b039081168352908201929092526040016000205416613371565b50508080612433906144d5565b9150506121cb565b506002546040516370a0823160e01b815282916001600160a01b0316906370a082319061246c903090600401613c4c565b60206040518083038186803b15801561248457600080fd5b505afa158015612498573d6000803e3d6000fd5b505050506040513d601f19601f820116820180604052508101906124bc9190613be8565b6124c69190614492565b600585018190558511156124ec5760405162461bcd60e51b81526004016103ea906142a7565b600c547ffe5f8735d3a150c5afdab27148da5543b04feb55f87613477a9a65621c910ddf85600401548660050154604051612528929190613c3e565b60405180910390a260028401805460ff1916600190811790915542600a55600c54612552916130dd565b505050505050565b6000546001600160a01b031681565b6008818154811061257957600080fd5b600091825260209091200154905081565b60076020819052600091825260409091208054600182015460028301546003840154600485015460058601546006870154969097015460ff95861697949693909516949193909290916001600160a01b03918216911688565b600054604051631c2d8fb360e31b81526001600160a01b039091169063e16c7d9890612633907f15fa0125f52e5705da1148bfcf00974823c4381bee4314203ede255f9477b73e90600401613d33565b60206040518083038186803b15801561264b57600080fd5b505afa15801561265f573d6000803e3d6000fd5b505050506040513d601f19601f820116820180604052508101906126839190613898565b6001600160a01b031663d09a20c57fd0a4ad96d49edb1c33461cebc6fb2609190f32c904e3c3f5877edb4488dee91e336040518363ffffffff1660e01b81526004016126d0929190613d3c565b60006040518083038186803b1580156126e857600080fd5b505afa1580156126fc573d6000803e3d6000fd5b505050600e9190915550565b6006602052816000526040600020818154811061272457600080fd5b90600052602060002001600091509150505481565b600054604051631c2d8fb360e31b81526001600160a01b039091169063e16c7d9890612789907f15fa0125f52e5705da1148bfcf00974823c4381bee4314203ede255f9477b73e90600401613d33565b60206040518083038186803b1580156127a157600080fd5b505afa1580156127b5573d6000803e3d6000fd5b505050506040513d601f19601f820116820180604052508101906127d99190613898565b6001600160a01b031663d09a20c57fd0a4ad96d49edb1c33461cebc6fb2609190f32c904e3c3f5877edb4488dee91e336040518363ffffffff1660e01b8152600401612826929190613d3c565b60006040518083038186803b15801561283e57600080fd5b505afa158015612852573d6000803e3d6000fd5b505050600f9190915550565b600560209081526000928352604080842090915290825290205481565b6001546001600160a01b031681565b600b5481565b600082815260076020526040902060048101546128ae90859061443b565b600482015560038101546128c390859061443b565b600382015560008381526005602090815260408083206001600160a01b03861684529091529020546128f690859061443b565b60008481526005602090815260408083206001600160a01b038716808552908352818420949094556006825280832080546001810182559084529190922001859055517fe1fffcc4923d04b559f4d29a8bfc6cda04eb5b0d3c460751c2402c5c5cc9109c90612966908790613d33565b60405180910390a250505050565b60008054604051631c2d8fb360e31b81526001600160a01b039091169063e16c7d98906129c5907f15fa0125f52e5705da1148bfcf00974823c4381bee4314203ede255f9477b73e90600401613d33565b60206040518083038186803b1580156129dd57600080fd5b505afa1580156129f1573d6000803e3d6000fd5b505050506040513d601f19601f82011682018060405250810190612a159190613898565b6001600160a01b03166391d148547fde3f120e60938f665f938e828e860a96c02a4ce6b71b26b4001ac807f65ae33f336040518363ffffffff1660e01b8152600401612a62929190613d3c565b60206040518083038186803b158015612a7a57600080fd5b505afa158015612a8e573d6000803e3d6000fd5b505050506040513d601f19601f82011682018060405250810190612ab29190613aeb565b80612ac55750336001600160a01b038316145b612ae15760405162461bcd60e51b81526004016103ea90613fda565b600054604051631c2d8fb360e31b815283916001600160a01b03169063e16c7d9890612b31907f15fa0125f52e5705da1148bfcf00974823c4381bee4314203ede255f9477b73e90600401613d33565b60206040518083038186803b158015612b4957600080fd5b505afa158015612b5d573d6000803e3d6000fd5b505050506040513d601f19601f82011682018060405250810190612b819190613898565b6001600160a01b03166391d148547fde3f120e60938f665f938e828e860a96c02a4ce6b71b26b4001ac807f65ae33f336040518363ffffffff1660e01b8152600401612bce929190613d3c565b60206040518083038186803b158015612be657600080fd5b505afa158015612bfa573d6000803e3d6000fd5b505050506040513d601f19601f82011682018060405250810190612c1e9190613aeb565b15612c265750335b92915050565b610cde8363a9059cbb60e01b8484604051602401612c4b929190613c9e565b60408051601f198184030181529190526020810180517bffffffffffffffffffffffffffffffffffffffffffffffffffffffff167fffffffff00000000000000000000000000000000000000000000000000000000909316929092179091526134c4565b60005b8251811015610cde57818181518110612cdb57634e487b7160e01b600052603260045260246000fd5b602002602001015160046000858481518110612d0757634e487b7160e01b600052603260045260246000fd5b6020908102919091018101516001600160a01b0390811683528282019390935260409091016000208351815473ffffffffffffffffffffffffffffffffffffffff19908116918516919091178255939091015160019091018054909316911617905580612d73816144d5565b915050612cb2565b600254604051636eb1769f60e11b815260009182916001600160a01b039091169063dd62ed3e90612db29030908790600401613c60565b60206040518083038186803b158015612dca57600080fd5b505afa158015612dde573d6000803e3d6000fd5b505050506040513d601f19601f82011682018060405250810190612e029190613be8565b600254909150612e1c906001600160a01b03168483613553565b600254612e35906001600160a01b031684600019613013565b60408051808201825260008082526020820187905291517f0b4c7e4d0000000000000000000000000000000000000000000000000000000081526001600160a01b03861692630b4c7e4d92612e8f92909190600401613cfb565b602060405180830381600087803b158015612ea957600080fd5b505af1158015612ebd573d6000803e3d6000fd5b505050506040513d601f19601f82011682018060405250810190612ee19190613be8565b505092915050565b604051636eb1769f60e11b81526000906001600160a01b0384169063dd62ed3e90612f1a9030908690600401613c60565b60206040518083038186803b158015612f3257600080fd5b505afa158015612f46573d6000803e3d6000fd5b505050506040513d601f19601f82011682018060405250810190612f6a9190613be8565b9050612f806001600160a01b0384168383613553565b612f966001600160a01b03841683600019613013565b6040517fb6b55f250000000000000000000000000000000000000000000000000000000081526001600160a01b0383169063b6b55f2590612fdb908790600401613d33565b600060405180830381600087803b158015612ff557600080fd5b505af1158015613009573d6000803e3d6000fd5b5050505050505050565b600081846001600160a01b031663dd62ed3e30866040518363ffffffff1660e01b8152600401613044929190613c60565b60206040518083038186803b15801561305c57600080fd5b505afa158015613070573d6000803e3d6000fd5b505050506040513d601f19601f820116820180604052508101906130949190613be8565b61309e919061443b565b90506130bf8463095ea7b360e01b8584604051602401612c4b929190613c9e565b50505050565b60008183106130d457816130d6565b825b9392505050565b6000806130e98461363c565b6008805460018181019092557ff3f7a9fe364faab93b216da50a3214154f22a0a2b415b23a84c8169e8b636ee30182905560008281526007602052604090208054929350918591839160ff191690838181111561315657634e487b7160e01b600052602160045260246000fd5b02179055506001808201839055849081111561318257634e487b7160e01b600052602160045260246000fd5b6131cf57600b8290556002546006820180546001600160a01b0392831673ffffffffffffffffffffffffffffffffffffffff19918216179091556001546007840180549190931691161790555b8360018111156131ef57634e487b7160e01b600052602160045260246000fd5b6001141561324057600c8290556001546006820180546001600160a01b0392831673ffffffffffffffffffffffffffffffffffffffff19918216179091556002546007840180549190931691161790555b509392505050565b604051636eb1769f60e11b81526000906001600160a01b0383169063dd62ed3e906132799030908690600401613c60565b60206040518083038186803b15801561329157600080fd5b505afa1580156132a5573d6000803e3d6000fd5b505050506040513d601f19601f820116820180604052508101906132c99190613be8565b90506132df6001600160a01b0383168383613553565b6132f56001600160a01b03831683600019613013565b6040517f2e1a7d4d0000000000000000000000000000000000000000000000000000000081526001600160a01b03831690632e1a7d4d9061333a908690600401613d33565b600060405180830381600087803b15801561335457600080fd5b505af1158015613368573d6000803e3d6000fd5b50505050505050565b600080836001600160a01b031663dd62ed3e30856040518363ffffffff1660e01b81526004016133a2929190613c60565b60206040518083038186803b1580156133ba57600080fd5b505afa1580156133ce573d6000803e3d6000fd5b505050506040513d601f19601f820116820180604052508101906133f29190613be8565b90506134086001600160a01b0385168483613553565b61341e6001600160a01b03851684600019613013565b6040517f1a4d01d20000000000000000000000000000000000000000000000000000000081526001600160a01b03841690631a4d01d2906134699088906001906000906004016143d4565b602060405180830381600087803b15801561348357600080fd5b505af1158015613497573d6000803e3d6000fd5b505050506040513d601f19601f820116820180604052508101906134bb9190613be8565b50509392505050565b6000613519826040518060400160405280602081526020017f5361666545524332303a206c6f772d6c6576656c2063616c6c206661696c6564815250856001600160a01b031661366e9092919063ffffffff16565b805190915015610cde57808060200190518101906135379190613aeb565b610cde5760405162461bcd60e51b81526004016103ea906142de565b604051636eb1769f60e11b81526000906001600160a01b0385169063dd62ed3e906135849030908790600401613c60565b60206040518083038186803b15801561359c57600080fd5b505afa1580156135b0573d6000803e3d6000fd5b505050506040513d601f19601f820116820180604052508101906135d49190613be8565b9050818110156135f65760405162461bcd60e51b81526004016103ea90613f0f565b604051828203906136359086907f095ea7b30000000000000000000000000000000000000000000000000000000090612c4b9088908690602401613c9e565b5050505050565b60004282604051602001613651929190613c3e565b604051602081830303815290604052805190602001209050919050565b606061367d8484600085613685565b949350505050565b6060824710156136a75760405162461bcd60e51b81526004016103ea90614011565b6136b085613745565b6136cc5760405162461bcd60e51b81526004016103ea90614270565b600080866001600160a01b031685876040516136e89190613c22565b60006040518083038185875af1925050503d8060008114613725576040519150601f19603f3d011682016040523d82523d6000602084013e61372a565b606091505b509150915061373a82828661374b565b979650505050505050565b3b151590565b6060831561375a5750816130d6565b82511561376a5782518084602001fd5b8160405162461bcd60e51b81526004016103ea9190613e37565b60008083601f840112613795578182fd5b50813567ffffffffffffffff8111156137ac578182fd5b60208301915083602080830285010111156137c657600080fd5b9250929050565b60008083601f8401126137de578182fd5b50813567ffffffffffffffff8111156137f5578182fd5b6020830191508360206040830285010111156137c657600080fd5b600082601f830112613820578081fd5b8151602061383561383083614417565b6143ed565b8281528181019085830183850287018401881015613851578586fd5b855b8581101561386f57815184529284019290840190600101613853565b5090979650505050505050565b60006020828403121561388d578081fd5b81356130d68161451c565b6000602082840312156138a9578081fd5b81516130d68161451c565b600080604083850312156138c6578081fd5b82356138d18161451c565b946020939093013593505050565b6000806000604084860312156138f3578081fd5b833567ffffffffffffffff8082111561390a578283fd5b818601915086601f83011261391d578283fd5b8135602061392d61383083614417565b82815281810190858301838502870184018c1015613949578788fd5b8796505b848710156139745780356139608161451c565b83526001969096019591830191830161394d565b509750508701359250508082111561398a578283fd5b50613997868287016137cd565b9497909650939450505050565b600080604083850312156139b6578182fd5b825167ffffffffffffffff808211156139cd578384fd5b818501915085601f8301126139e0578384fd5b815160206139f061383083614417565b82815281810190858301838502870184018b1015613a0c578889fd5b8896505b84871015613a37578051613a238161451c565b835260019690960195918301918301613a10565b5091880151919650909350505080821115613a50578283fd5b50613a5d85828601613810565b9150509250929050565b600080600080600060608688031215613a7e578081fd5b853567ffffffffffffffff80821115613a95578283fd5b613aa189838a01613784565b90975095506020880135915080821115613ab9578283fd5b50613ac688828901613784565b909450925050604086013560028110613add578182fd5b809150509295509295909350565b600060208284031215613afc578081fd5b815180151581146130d6578182fd5b600060208284031215613b1c578081fd5b5035919050565b60008060408385031215613b35578182fd5b823591506020830135613b478161451c565b809150509250929050565b600080600060608486031215613b66578081fd5b83359250602084013591506040840135613b7f8161451c565b809150509250925092565b600060408284031215613b9b578081fd5b6040516040810181811067ffffffffffffffff82111715613bbe57613bbe614506565b6040528235613bcc8161451c565b81526020830135613bdc8161451c565b60208201529392505050565b600060208284031215613bf9578081fd5b5051919050565b60028110613c1e57634e487b7160e01b600052602160045260246000fd5b9052565b60008251613c348184602087016144a9565b9190910192915050565b918252602082015260400190565b6001600160a01b0391909116815260200190565b6001600160a01b0392831681529116602082015260400190565b6001600160a01b039384168152919092166020820152604081019190915260600190565b6001600160a01b03929092168252602082015260400190565b6020808252825182820181905260009190848201906040850190845b81811015613cef57835183529284019291840191600101613cd3565b50909695505050505050565b60608101818460005b6002811015613d23578151835260209283019290910190600101613d04565b5050508260408301529392505050565b90815260200190565b9182526001600160a01b0316602082015260400190565b92835260ff9190911660208301526001600160a01b0316604082015260600190565b92835260208301919091526001600160a01b0316604082015260600190565b6001600160a01b0393841681526020810192909252909116604082015260600190565b6101008101613dc6828b613c00565b602082019890985295151560408701526060860194909452608085019290925260a08401526001600160a01b0390811660c08401521660e090910152919050565b60608101613e158286613c00565b602082019390935260400152919050565b918252600f0b602082015260400190565b6000602082528251806020840152613e568160408501602087016144a9565b601f01601f19169190910160400192915050565b6020808252601c908201527f746f74616c416d6f756e74206d757374206265206c6172676572203000000000604082015260600190565b60208082526011908201527f6e6f742079657420636c61696d61626c65000000000000000000000000000000604082015260600190565b6020808252601a908201527f686173206e6f7420796574206265656e2070726f636573736564000000000000604082015260600190565b60208082526029908201527f5361666545524332303a2064656372656173656420616c6c6f77616e6365206260408201527f656c6f77207a65726f0000000000000000000000000000000000000000000000606082015260800190565b60208082526013908201527f696e737566666963656e742062616c616e636500000000000000000000000000604082015260600190565b60208082526018908201527f6172726179206c656e67746873206d757374206d617463680000000000000000604082015260600190565b6020808252601d908201527f796f752063616e74207472616e73666572206f746865722066756e6473000000604082015260600190565b60208082526026908201527f416464726573733a20696e73756666696369656e742062616c616e636520666f60408201527f722063616c6c0000000000000000000000000000000000000000000000000000606082015260800190565b60208082526013908201527f696e636f72726563742062617463685479706500000000000000000000000000604082015260600190565b60208082526031908201527f6163636f756e742068617320696e73756666696369656e742062616c616e636560408201527f206f6620746f6b656e20746f206d696e74000000000000000000000000000000606082015260800190565b60208082526018908201527f636c61696d696e6720746f6f206d616e79207368617265730000000000000000604082015260600190565b60208082526034908201527f636f6e74726163742068617320696e73756666696369656e742062616c616e6360408201527f65206f6620746f6b656e20746f2072656465656d000000000000000000000000606082015260800190565b60208082526011908201527f616c72656164792070726f636573736564000000000000000000000000000000604082015260600190565b60208082526014908201527f696e73756666696369656e742062616c616e6365000000000000000000000000604082015260600190565b6020808252818101527f63616e206e6f74206578656375746520626174636820616374696f6e20796574604082015260600190565b60208082526010908201527f616c72656164792072656465656d656400000000000000000000000000000000604082015260600190565b6020808252601d908201527f416464726573733a2063616c6c20746f206e6f6e2d636f6e7472616374000000604082015260600190565b60208082526011908201527f736c69707061676520746f6f2068696768000000000000000000000000000000604082015260600190565b6020808252602a908201527f5361666545524332303a204552433230206f7065726174696f6e20646964206e60408201527f6f74207375636365656400000000000000000000000000000000000000000000606082015260800190565b6020808252601e908201527f6163636f756e742068617320696e73756666696369656e742066756e64730000604082015260600190565b6020808252600e908201527f616c7265616479206d696e746564000000000000000000000000000000000000604082015260600190565b838152606081016143bd6020830185613c00565b6001600160a01b0383166040830152949350505050565b928352600f9190910b6020830152604082015260600190565b60405181810167ffffffffffffffff8111828210171561440f5761440f614506565b604052919050565b600067ffffffffffffffff82111561443157614431614506565b5060209081020190565b6000821982111561444e5761444e6144f0565b500190565b60008261446e57634e487b7160e01b81526012600452602481fd5b500490565b600081600019048311821515161561448d5761448d6144f0565b500290565b6000828210156144a4576144a46144f0565b500390565b60005b838110156144c45781810151838201526020016144ac565b838111156130bf5750506000910152565b60006000198214156144e9576144e96144f0565b5060010190565b634e487b7160e01b600052601160045260246000fd5b634e487b7160e01b600052604160045260246000fd5b6001600160a01b038116811461083e57600080fdfea2646970667358221220a8fe38a1db651760e99279d644abc3d295823f41b03f6594c29741546794963364736f6c63430008000033",
  "devdoc": {
    "kind": "dev",
    "methods": {
      "batchMint(uint256)": {
        "details": "This function deposits 3CRV in the underlying Metapool and deposits these LP token to get yToken which in turn are used to mint HYSIThis process leaves some leftovers which are partially used in the next mint batches.In order to get 3CRV we can implement a zap to move stables into the curve tri-poolhandleKeeperIncentive checks if the msg.sender is a permissioned keeper and pays them a reward for calling this function (see KeeperIncentive.sol)",
        "params": {
          "_minAmountToMint": "The expected min amount of hysi to mint. If hysiAmount is lower than minAmountToMint_ the transaction will revert."
        }
      },
      "batchRedeem(uint256)": {
        "details": "This function reedeems HYSI for the underlying yToken and deposits these yToken in curve Metapools for 3CRVIn order to get stablecoins from 3CRV we can use a zap to redeem 3CRV for stables in the curve tri-poolhandleKeeperIncentive checks if the msg.sender is a permissioned keeper and pays them a reward for calling this function (see KeeperIncentive.sol)",
        "params": {
          "_min3crvToReceive": "sets minimum amount of 3crv to redeem HYSI for, otherwise the transaction will revert"
        }
      },
      "claim(bytes32,address)": {
        "params": {
          "_batchId": "Id of batch to claim from",
          "_claimFor": "User that gets the shares attributed to (for use in zapper contract)"
        }
      },
      "depositForMint(uint256,address)": {
        "details": "Should this be secured we nonReentrant?",
        "params": {
          "_amount": "Amount of 3cr3CRV to use for minting",
          "_depositFor": "User that gets the shares attributed to (for use in zapper contract)"
        }
      },
      "depositForRedeem(uint256)": {
        "details": "Should this be secured we nonReentrant?",
        "params": {
          "_amount": "amount of HYSI to be redeemed"
        }
      },
      "getAccountBatches(address)": {
        "params": {
          "_account": "The address for whom we want to retrieve batches"
        }
      },
      "moveUnclaimedDepositsIntoCurrentBatch(bytes32[],uint256[],uint8)": {
        "details": "the indices of batchIds must match the amountsInHysi to work properly (This will be done by the frontend)",
        "params": {
          "_batchIds": "the ids of each batch where hysi should be moved from",
          "_batchType": "the batchType where funds should be taken from (Mint -> Take Hysi and redeem then, Redeem -> Take 3Crv and Mint HYSI)",
          "_shares": "how many shares should redeemed in each of the batches"
        }
      },
      "setBatchCooldown(uint256)": {
        "details": "The cooldown is the same for redeem and mint batches",
        "params": {
          "_cooldown": "Cooldown in seconds"
        }
      },
      "setCurvePoolTokenPairs(address[],(address,address)[])": {
        "params": {
          "_curvePoolTokenPairs": "An array structs describing underlying yToken, crvToken and curve metapool",
          "_yTokenAddresses": "An array of addresses for the yToken needed to mint HYSI"
        }
      },
      "setMintThreshold(uint256)": {
        "params": {
          "_threshold": "Amount of 3CRV necessary to mint immediately"
        }
      },
      "setRedeemThreshold(uint256)": {
        "params": {
          "_threshold": "Amount of HYSI necessary to mint immediately"
        }
      },
      "withdrawFromBatch(bytes32,uint256,address)": {
        "params": {
          "_amountToWithdraw": "Amount of HYSI or 3CRV to be withdrawn from the queue (depending on mintBatch / redeemBatch)",
          "_batchId": "From which batch should funds be withdrawn from",
          "_withdrawFor": "User that gets the shares attributed to (for use in zapper contract)"
        }
      }
    },
    "version": 1
  },
  "userdoc": {
    "kind": "user",
    "methods": {
      "accountBalances(bytes32,address)": {
        "notice": "This maps batch ids to addresses with share balances"
      },
      "batchMint(uint256)": {
        "notice": "Mint HYSI token with deposited 3CRV. This function goes through all the steps necessary to mint an optimal amount of HYSI"
      },
      "batchRedeem(uint256)": {
        "notice": "Redeems HYSI for 3CRV. This function goes through all the steps necessary to get 3CRV"
      },
      "claim(bytes32,address)": {
        "notice": "Claims funds after the batch has been processed (get HYSI from a mint batch and 3CRV from a redeem batch)"
      },
      "depositForMint(uint256,address)": {
        "notice": "Deposits funds in the current mint batch"
      },
      "depositForRedeem(uint256)": {
        "notice": "deposits funds in the current redeem batch"
      },
      "getAccountBatches(address)": {
        "notice": "Get ids for all batches that a user has interacted with"
      },
      "moveUnclaimedDepositsIntoCurrentBatch(bytes32[],uint256[],uint8)": {
        "notice": "Moves unclaimed token (3crv or Hysi) from their respective Batches into a new redeemBatch / mintBatch without needing to claim them first. This will typically be used when hysi has already been minted and a user has never claimed / transfered the token to their address and they would like to convert it to stablecoin."
      },
      "setBatchCooldown(uint256)": {
        "notice": "Changes the current batch cooldown"
      },
      "setCurvePoolTokenPairs(address[],(address,address)[])": {
        "notice": "This function allows the owner to change the composition of underlying token of the HYSI"
      },
      "setMintThreshold(uint256)": {
        "notice": "Changes the Threshold of 3CRV which need to be deposited to be able to mint immediately"
      },
      "setRedeemThreshold(uint256)": {
        "notice": "Changes the Threshold of HYSI which need to be deposited to be able to redeem immediately"
      },
      "withdrawFromBatch(bytes32,uint256,address)": {
        "notice": "This function allows a user to withdraw their funds from a batch before that batch has been processed"
      }
    },
    "version": 1
  },
  "storageLayout": {
    "storage": [
      {
        "astId": 2976,
        "contract": "contracts/core/defi/butter/HysiBatchInteraction.sol:HysiBatchInteraction",
        "label": "contractRegistry",
        "offset": 0,
        "slot": "0",
        "type": "t_contract(IContractRegistry)5395"
      },
      {
        "astId": 2979,
        "contract": "contracts/core/defi/butter/HysiBatchInteraction.sol:HysiBatchInteraction",
        "label": "setToken",
        "offset": 0,
        "slot": "1",
        "type": "t_contract(ISetToken)8009"
      },
      {
        "astId": 2982,
        "contract": "contracts/core/defi/butter/HysiBatchInteraction.sol:HysiBatchInteraction",
        "label": "threeCrv",
        "offset": 0,
        "slot": "2",
        "type": "t_contract(IERC20)860"
      },
      {
        "astId": 2985,
        "contract": "contracts/core/defi/butter/HysiBatchInteraction.sol:HysiBatchInteraction",
        "label": "setBasicIssuanceModule",
        "offset": 0,
        "slot": "3",
        "type": "t_contract(BasicIssuanceModule)7629"
      },
      {
        "astId": 2990,
        "contract": "contracts/core/defi/butter/HysiBatchInteraction.sol:HysiBatchInteraction",
        "label": "curvePoolTokenPairs",
        "offset": 0,
        "slot": "4",
        "type": "t_mapping(t_address,t_struct(CurvePoolTokenPair)2952_storage)"
      },
      {
        "astId": 2997,
        "contract": "contracts/core/defi/butter/HysiBatchInteraction.sol:HysiBatchInteraction",
        "label": "accountBalances",
        "offset": 0,
        "slot": "5",
        "type": "t_mapping(t_bytes32,t_mapping(t_address,t_uint256))"
      },
      {
        "astId": 3002,
        "contract": "contracts/core/defi/butter/HysiBatchInteraction.sol:HysiBatchInteraction",
        "label": "accountBatches",
        "offset": 0,
        "slot": "6",
        "type": "t_mapping(t_address,t_array(t_bytes32)dyn_storage)"
      },
      {
        "astId": 3007,
        "contract": "contracts/core/defi/butter/HysiBatchInteraction.sol:HysiBatchInteraction",
        "label": "batches",
        "offset": 0,
        "slot": "7",
        "type": "t_mapping(t_bytes32,t_struct(Batch)2970_storage)"
      },
      {
        "astId": 3010,
        "contract": "contracts/core/defi/butter/HysiBatchInteraction.sol:HysiBatchInteraction",
        "label": "batchIds",
        "offset": 0,
        "slot": "8",
        "type": "t_array(t_bytes32)dyn_storage"
      },
      {
        "astId": 3012,
        "contract": "contracts/core/defi/butter/HysiBatchInteraction.sol:HysiBatchInteraction",
        "label": "lastMintedAt",
        "offset": 0,
        "slot": "9",
        "type": "t_uint256"
      },
      {
        "astId": 3014,
        "contract": "contracts/core/defi/butter/HysiBatchInteraction.sol:HysiBatchInteraction",
        "label": "lastRedeemedAt",
        "offset": 0,
        "slot": "10",
        "type": "t_uint256"
      },
      {
        "astId": 3016,
        "contract": "contracts/core/defi/butter/HysiBatchInteraction.sol:HysiBatchInteraction",
        "label": "currentMintBatchId",
        "offset": 0,
        "slot": "11",
        "type": "t_bytes32"
      },
      {
        "astId": 3018,
        "contract": "contracts/core/defi/butter/HysiBatchInteraction.sol:HysiBatchInteraction",
        "label": "currentRedeemBatchId",
        "offset": 0,
        "slot": "12",
        "type": "t_bytes32"
      },
      {
        "astId": 3020,
        "contract": "contracts/core/defi/butter/HysiBatchInteraction.sol:HysiBatchInteraction",
        "label": "batchCooldown",
        "offset": 0,
        "slot": "13",
        "type": "t_uint256"
      },
      {
        "astId": 3022,
        "contract": "contracts/core/defi/butter/HysiBatchInteraction.sol:HysiBatchInteraction",
        "label": "mintThreshold",
        "offset": 0,
        "slot": "14",
        "type": "t_uint256"
      },
      {
        "astId": 3024,
        "contract": "contracts/core/defi/butter/HysiBatchInteraction.sol:HysiBatchInteraction",
        "label": "redeemThreshold",
        "offset": 0,
        "slot": "15",
        "type": "t_uint256"
      }
    ],
    "types": {
      "t_address": {
        "encoding": "inplace",
        "label": "address",
        "numberOfBytes": "20"
      },
      "t_array(t_bytes32)dyn_storage": {
        "base": "t_bytes32",
        "encoding": "dynamic_array",
        "label": "bytes32[]",
        "numberOfBytes": "32"
      },
      "t_bool": {
        "encoding": "inplace",
        "label": "bool",
        "numberOfBytes": "1"
      },
      "t_bytes32": {
        "encoding": "inplace",
        "label": "bytes32",
        "numberOfBytes": "32"
      },
      "t_contract(BasicIssuanceModule)7629": {
        "encoding": "inplace",
        "label": "contract BasicIssuanceModule",
        "numberOfBytes": "20"
      },
      "t_contract(CurveMetapool)7749": {
        "encoding": "inplace",
        "label": "contract CurveMetapool",
        "numberOfBytes": "20"
      },
      "t_contract(IContractRegistry)5395": {
        "encoding": "inplace",
        "label": "contract IContractRegistry",
        "numberOfBytes": "20"
      },
      "t_contract(IERC20)860": {
        "encoding": "inplace",
        "label": "contract IERC20",
        "numberOfBytes": "20"
      },
      "t_contract(ISetToken)8009": {
        "encoding": "inplace",
        "label": "contract ISetToken",
        "numberOfBytes": "20"
      },
      "t_enum(BatchType)2945": {
        "encoding": "inplace",
        "label": "enum HysiBatchInteraction.BatchType",
        "numberOfBytes": "1"
      },
      "t_mapping(t_address,t_array(t_bytes32)dyn_storage)": {
        "encoding": "mapping",
        "key": "t_address",
        "label": "mapping(address => bytes32[])",
        "numberOfBytes": "32",
        "value": "t_array(t_bytes32)dyn_storage"
      },
      "t_mapping(t_address,t_struct(CurvePoolTokenPair)2952_storage)": {
        "encoding": "mapping",
        "key": "t_address",
        "label": "mapping(address => struct HysiBatchInteraction.CurvePoolTokenPair)",
        "numberOfBytes": "32",
        "value": "t_struct(CurvePoolTokenPair)2952_storage"
      },
      "t_mapping(t_address,t_uint256)": {
        "encoding": "mapping",
        "key": "t_address",
        "label": "mapping(address => uint256)",
        "numberOfBytes": "32",
        "value": "t_uint256"
      },
      "t_mapping(t_bytes32,t_mapping(t_address,t_uint256))": {
        "encoding": "mapping",
        "key": "t_bytes32",
        "label": "mapping(bytes32 => mapping(address => uint256))",
        "numberOfBytes": "32",
        "value": "t_mapping(t_address,t_uint256)"
      },
      "t_mapping(t_bytes32,t_struct(Batch)2970_storage)": {
        "encoding": "mapping",
        "key": "t_bytes32",
        "label": "mapping(bytes32 => struct HysiBatchInteraction.Batch)",
        "numberOfBytes": "32",
        "value": "t_struct(Batch)2970_storage"
      },
      "t_struct(Batch)2970_storage": {
        "encoding": "inplace",
        "label": "struct HysiBatchInteraction.Batch",
        "members": [
          {
            "astId": 2955,
            "contract": "contracts/core/defi/butter/HysiBatchInteraction.sol:HysiBatchInteraction",
            "label": "batchType",
            "offset": 0,
            "slot": "0",
            "type": "t_enum(BatchType)2945"
          },
          {
            "astId": 2957,
            "contract": "contracts/core/defi/butter/HysiBatchInteraction.sol:HysiBatchInteraction",
            "label": "batchId",
            "offset": 0,
            "slot": "1",
            "type": "t_bytes32"
          },
          {
            "astId": 2959,
            "contract": "contracts/core/defi/butter/HysiBatchInteraction.sol:HysiBatchInteraction",
            "label": "claimable",
            "offset": 0,
            "slot": "2",
            "type": "t_bool"
          },
          {
            "astId": 2961,
            "contract": "contracts/core/defi/butter/HysiBatchInteraction.sol:HysiBatchInteraction",
            "label": "unclaimedShares",
            "offset": 0,
            "slot": "3",
            "type": "t_uint256"
          },
          {
            "astId": 2963,
            "contract": "contracts/core/defi/butter/HysiBatchInteraction.sol:HysiBatchInteraction",
            "label": "suppliedTokenBalance",
            "offset": 0,
            "slot": "4",
            "type": "t_uint256"
          },
          {
            "astId": 2965,
            "contract": "contracts/core/defi/butter/HysiBatchInteraction.sol:HysiBatchInteraction",
            "label": "claimableTokenBalance",
            "offset": 0,
            "slot": "5",
            "type": "t_uint256"
          },
          {
            "astId": 2967,
            "contract": "contracts/core/defi/butter/HysiBatchInteraction.sol:HysiBatchInteraction",
            "label": "suppliedTokenAddress",
            "offset": 0,
            "slot": "6",
            "type": "t_address"
          },
          {
            "astId": 2969,
            "contract": "contracts/core/defi/butter/HysiBatchInteraction.sol:HysiBatchInteraction",
            "label": "claimableTokenAddress",
            "offset": 0,
            "slot": "7",
            "type": "t_address"
          }
        ],
        "numberOfBytes": "256"
      },
      "t_struct(CurvePoolTokenPair)2952_storage": {
        "encoding": "inplace",
        "label": "struct HysiBatchInteraction.CurvePoolTokenPair",
        "members": [
          {
            "astId": 2948,
            "contract": "contracts/core/defi/butter/HysiBatchInteraction.sol:HysiBatchInteraction",
            "label": "curveMetaPool",
            "offset": 0,
            "slot": "0",
            "type": "t_contract(CurveMetapool)7749"
          },
          {
            "astId": 2951,
            "contract": "contracts/core/defi/butter/HysiBatchInteraction.sol:HysiBatchInteraction",
            "label": "crvLPToken",
            "offset": 0,
            "slot": "1",
            "type": "t_contract(IERC20)860"
          }
        ],
        "numberOfBytes": "64"
      },
      "t_uint256": {
        "encoding": "inplace",
        "label": "uint256",
        "numberOfBytes": "32"
      }
    }
  }
}