{
  "address": "0x07882Ae1ecB7429a84f1D53048d35c4bB2056877",
  "abi": [
    {
      "inputs": [
        {
          "internalType": "contract IContractRegistry",
          "name": "_contractRegistry",
          "type": "address"
        },
        {
          "internalType": "contract ISetToken",
          "name": "_setToken",
          "type": "address"
        },
        {
          "internalType": "contract IERC20",
          "name": "_threeCrv",
          "type": "address"
        },
        {
          "internalType": "contract BasicIssuanceModule",
          "name": "_basicIssuanceModule",
          "type": "address"
        },
        {
          "internalType": "address[]",
          "name": "_yTokenAddresses",
          "type": "address[]"
        },
        {
          "components": [
            {
              "internalType": "contract CurveMetapool",
              "name": "curveMetaPool",
              "type": "address"
            },
            {
              "internalType": "contract IERC20",
              "name": "crvLPToken",
              "type": "address"
            }
          ],
          "internalType": "struct ButterBatchProcessing.CurvePoolTokenPair[]",
          "name": "_curvePoolTokenPairs",
          "type": "tuple[]"
        },
        {
          "internalType": "uint256",
          "name": "_batchCooldown",
          "type": "uint256"
        },
        {
          "internalType": "uint256",
          "name": "_mintThreshold",
          "type": "uint256"
        },
        {
          "internalType": "uint256",
          "name": "_redeemThreshold",
          "type": "uint256"
        }
      ],
      "stateMutability": "nonpayable",
      "type": "constructor"
    },
    {
      "anonymous": false,
      "inputs": [
        {
          "indexed": true,
          "internalType": "bytes32",
          "name": "batchId",
          "type": "bytes32"
        },
        {
          "indexed": false,
          "internalType": "uint256",
          "name": "suppliedTokenAmount",
          "type": "uint256"
        },
        {
          "indexed": false,
          "internalType": "uint256",
          "name": "hysiAmount",
          "type": "uint256"
        }
      ],
      "name": "BatchMinted",
      "type": "event"
    },
    {
      "anonymous": false,
      "inputs": [
        {
          "indexed": true,
          "internalType": "bytes32",
          "name": "batchId",
          "type": "bytes32"
        },
        {
          "indexed": false,
          "internalType": "uint256",
          "name": "suppliedTokenAmount",
          "type": "uint256"
        },
        {
          "indexed": false,
          "internalType": "uint256",
          "name": "threeCrvAmount",
          "type": "uint256"
        }
      ],
      "name": "BatchRedeemed",
      "type": "event"
    },
    {
      "anonymous": false,
      "inputs": [
        {
          "indexed": true,
          "internalType": "address",
          "name": "account",
          "type": "address"
        },
        {
          "indexed": false,
          "internalType": "enum ButterBatchProcessing.BatchType",
          "name": "batchType",
          "type": "uint8"
        },
        {
          "indexed": false,
          "internalType": "uint256",
          "name": "shares",
          "type": "uint256"
        },
        {
          "indexed": false,
          "internalType": "uint256",
          "name": "claimedToken",
          "type": "uint256"
        }
      ],
      "name": "Claimed",
      "type": "event"
    },
    {
      "anonymous": false,
      "inputs": [
        {
          "indexed": true,
          "internalType": "address",
          "name": "from",
          "type": "address"
        },
        {
          "indexed": false,
          "internalType": "uint256",
          "name": "deposit",
          "type": "uint256"
        }
      ],
      "name": "Deposit",
      "type": "event"
    },
    {
      "anonymous": false,
      "inputs": [
        {
          "indexed": false,
          "internalType": "uint256",
          "name": "amount",
          "type": "uint256"
        },
        {
          "indexed": false,
          "internalType": "enum ButterBatchProcessing.BatchType",
          "name": "batchType",
          "type": "uint8"
        },
        {
          "indexed": false,
          "internalType": "address",
          "name": "account",
          "type": "address"
        }
      ],
      "name": "MovedUnclaimedDepositsIntoCurrentBatch",
      "type": "event"
    },
    {
      "anonymous": false,
      "inputs": [
        {
          "indexed": false,
          "internalType": "address",
          "name": "account",
          "type": "address"
        }
      ],
      "name": "Paused",
      "type": "event"
    },
    {
      "anonymous": false,
      "inputs": [
        {
          "indexed": false,
          "internalType": "contract ISetToken",
          "name": "setToken",
          "type": "address"
        }
      ],
      "name": "TokenSetAdded",
      "type": "event"
    },
    {
      "anonymous": false,
      "inputs": [
        {
          "indexed": false,
          "internalType": "address",
          "name": "account",
          "type": "address"
        }
      ],
      "name": "Unpaused",
      "type": "event"
    },
    {
      "anonymous": false,
      "inputs": [
        {
          "indexed": true,
          "internalType": "address",
          "name": "to",
          "type": "address"
        },
        {
          "indexed": false,
          "internalType": "uint256",
          "name": "amount",
          "type": "uint256"
        }
      ],
      "name": "Withdrawal",
      "type": "event"
    },
    {
      "anonymous": false,
      "inputs": [
        {
          "indexed": false,
          "internalType": "bytes32",
          "name": "batchId",
          "type": "bytes32"
        },
        {
          "indexed": false,
          "internalType": "uint256",
          "name": "amount",
          "type": "uint256"
        },
        {
          "indexed": false,
          "internalType": "address",
          "name": "to",
          "type": "address"
        }
      ],
      "name": "WithdrawnFromBatch",
      "type": "event"
    },
    {
      "inputs": [
        {
          "internalType": "bytes32",
          "name": "",
          "type": "bytes32"
        },
        {
          "internalType": "address",
          "name": "",
          "type": "address"
        }
      ],
      "name": "accountBalances",
      "outputs": [
        {
          "internalType": "uint256",
          "name": "",
          "type": "uint256"
        }
      ],
      "stateMutability": "view",
      "type": "function"
    },
    {
      "inputs": [
        {
          "internalType": "address",
          "name": "",
          "type": "address"
        },
        {
          "internalType": "uint256",
          "name": "",
          "type": "uint256"
        }
      ],
      "name": "accountBatches",
      "outputs": [
        {
          "internalType": "bytes32",
          "name": "",
          "type": "bytes32"
        }
      ],
      "stateMutability": "view",
      "type": "function"
    },
    {
      "inputs": [],
      "name": "batchCooldown",
      "outputs": [
        {
          "internalType": "uint256",
          "name": "",
          "type": "uint256"
        }
      ],
      "stateMutability": "view",
      "type": "function"
    },
    {
      "inputs": [
        {
          "internalType": "uint256",
          "name": "",
          "type": "uint256"
        }
      ],
      "name": "batchIds",
      "outputs": [
        {
          "internalType": "bytes32",
          "name": "",
          "type": "bytes32"
        }
      ],
      "stateMutability": "view",
      "type": "function"
    },
    {
      "inputs": [
        {
          "internalType": "uint256",
          "name": "_minAmountToMint",
          "type": "uint256"
        }
      ],
      "name": "batchMint",
      "outputs": [],
      "stateMutability": "nonpayable",
      "type": "function"
    },
    {
      "inputs": [
        {
          "internalType": "uint256",
          "name": "_min3crvToReceive",
          "type": "uint256"
        }
      ],
      "name": "batchRedeem",
      "outputs": [],
      "stateMutability": "nonpayable",
      "type": "function"
    },
    {
      "inputs": [
        {
          "internalType": "bytes32",
          "name": "",
          "type": "bytes32"
        }
      ],
      "name": "batches",
      "outputs": [
        {
          "internalType": "enum ButterBatchProcessing.BatchType",
          "name": "batchType",
          "type": "uint8"
        },
        {
          "internalType": "bytes32",
          "name": "batchId",
          "type": "bytes32"
        },
        {
          "internalType": "bool",
          "name": "claimable",
          "type": "bool"
        },
        {
          "internalType": "uint256",
          "name": "unclaimedShares",
          "type": "uint256"
        },
        {
          "internalType": "uint256",
          "name": "suppliedTokenBalance",
          "type": "uint256"
        },
        {
          "internalType": "uint256",
          "name": "claimableTokenBalance",
          "type": "uint256"
        },
        {
          "internalType": "address",
          "name": "suppliedTokenAddress",
          "type": "address"
        },
        {
          "internalType": "address",
          "name": "claimableTokenAddress",
          "type": "address"
        }
      ],
      "stateMutability": "view",
      "type": "function"
    },
    {
      "inputs": [
        {
          "internalType": "bytes32",
          "name": "_batchId",
          "type": "bytes32"
        },
        {
          "internalType": "address",
          "name": "_claimFor",
          "type": "address"
        }
      ],
      "name": "claim",
      "outputs": [
        {
          "internalType": "uint256",
          "name": "",
          "type": "uint256"
        }
      ],
      "stateMutability": "nonpayable",
      "type": "function"
    },
    {
      "inputs": [],
      "name": "contractName",
      "outputs": [
        {
          "internalType": "bytes32",
          "name": "",
          "type": "bytes32"
        }
      ],
      "stateMutability": "view",
      "type": "function"
    },
    {
      "inputs": [],
      "name": "contractRegistry",
      "outputs": [
        {
          "internalType": "contract IContractRegistry",
          "name": "",
          "type": "address"
        }
      ],
      "stateMutability": "view",
      "type": "function"
    },
    {
      "inputs": [],
      "name": "currentMintBatchId",
      "outputs": [
        {
          "internalType": "bytes32",
          "name": "",
          "type": "bytes32"
        }
      ],
      "stateMutability": "view",
      "type": "function"
    },
    {
      "inputs": [],
      "name": "currentRedeemBatchId",
      "outputs": [
        {
          "internalType": "bytes32",
          "name": "",
          "type": "bytes32"
        }
      ],
      "stateMutability": "view",
      "type": "function"
    },
    {
      "inputs": [
        {
          "internalType": "address",
          "name": "",
          "type": "address"
        }
      ],
      "name": "curvePoolTokenPairs",
      "outputs": [
        {
          "internalType": "contract CurveMetapool",
          "name": "curveMetaPool",
          "type": "address"
        },
        {
          "internalType": "contract IERC20",
          "name": "crvLPToken",
          "type": "address"
        }
      ],
      "stateMutability": "view",
      "type": "function"
    },
    {
      "inputs": [
        {
          "internalType": "uint256",
          "name": "_amount",
          "type": "uint256"
        },
        {
          "internalType": "address",
          "name": "_depositFor",
          "type": "address"
        }
      ],
      "name": "depositForMint",
      "outputs": [],
      "stateMutability": "nonpayable",
      "type": "function"
    },
    {
      "inputs": [
        {
          "internalType": "uint256",
          "name": "_amount",
          "type": "uint256"
        }
      ],
      "name": "depositForRedeem",
      "outputs": [],
      "stateMutability": "nonpayable",
      "type": "function"
    },
    {
      "inputs": [
        {
          "internalType": "address",
          "name": "_account",
          "type": "address"
        }
      ],
      "name": "getAccountBatches",
      "outputs": [
        {
          "internalType": "bytes32[]",
          "name": "",
          "type": "bytes32[]"
        }
      ],
      "stateMutability": "view",
      "type": "function"
    },
    {
      "inputs": [],
      "name": "lastMintedAt",
      "outputs": [
        {
          "internalType": "uint256",
          "name": "",
          "type": "uint256"
        }
      ],
      "stateMutability": "view",
      "type": "function"
    },
    {
      "inputs": [],
      "name": "lastRedeemedAt",
      "outputs": [
        {
          "internalType": "uint256",
          "name": "",
          "type": "uint256"
        }
      ],
      "stateMutability": "view",
      "type": "function"
    },
    {
      "inputs": [],
      "name": "mintThreshold",
      "outputs": [
        {
          "internalType": "uint256",
          "name": "",
          "type": "uint256"
        }
      ],
      "stateMutability": "view",
      "type": "function"
    },
    {
      "inputs": [
        {
          "internalType": "bytes32[]",
          "name": "_batchIds",
          "type": "bytes32[]"
        },
        {
          "internalType": "uint256[]",
          "name": "_shares",
          "type": "uint256[]"
        },
        {
          "internalType": "enum ButterBatchProcessing.BatchType",
          "name": "_batchType",
          "type": "uint8"
        }
      ],
      "name": "moveUnclaimedDepositsIntoCurrentBatch",
      "outputs": [],
      "stateMutability": "nonpayable",
      "type": "function"
    },
    {
      "inputs": [],
      "name": "pause",
      "outputs": [],
      "stateMutability": "nonpayable",
      "type": "function"
    },
    {
      "inputs": [],
      "name": "paused",
      "outputs": [
        {
          "internalType": "bool",
          "name": "",
          "type": "bool"
        }
      ],
      "stateMutability": "view",
      "type": "function"
    },
    {
      "inputs": [],
      "name": "redeemThreshold",
      "outputs": [
        {
          "internalType": "uint256",
          "name": "",
          "type": "uint256"
        }
      ],
      "stateMutability": "view",
      "type": "function"
    },
    {
      "inputs": [],
      "name": "setBasicIssuanceModule",
      "outputs": [
        {
          "internalType": "contract BasicIssuanceModule",
          "name": "",
          "type": "address"
        }
      ],
      "stateMutability": "view",
      "type": "function"
    },
    {
      "inputs": [
        {
          "internalType": "uint256",
          "name": "_cooldown",
          "type": "uint256"
        }
      ],
      "name": "setBatchCooldown",
      "outputs": [],
      "stateMutability": "nonpayable",
      "type": "function"
    },
    {
      "inputs": [
        {
          "internalType": "address[]",
          "name": "_yTokenAddresses",
          "type": "address[]"
        },
        {
          "components": [
            {
              "internalType": "contract CurveMetapool",
              "name": "curveMetaPool",
              "type": "address"
            },
            {
              "internalType": "contract IERC20",
              "name": "crvLPToken",
              "type": "address"
            }
          ],
          "internalType": "struct ButterBatchProcessing.CurvePoolTokenPair[]",
          "name": "_curvePoolTokenPairs",
          "type": "tuple[]"
        }
      ],
      "name": "setCurvePoolTokenPairs",
      "outputs": [],
      "stateMutability": "nonpayable",
      "type": "function"
    },
    {
      "inputs": [
        {
          "internalType": "uint256",
          "name": "_threshold",
          "type": "uint256"
        }
      ],
      "name": "setMintThreshold",
      "outputs": [],
      "stateMutability": "nonpayable",
      "type": "function"
    },
    {
      "inputs": [
        {
          "internalType": "uint256",
          "name": "_threshold",
          "type": "uint256"
        }
      ],
      "name": "setRedeemThreshold",
      "outputs": [],
      "stateMutability": "nonpayable",
      "type": "function"
    },
    {
      "inputs": [],
      "name": "setToken",
      "outputs": [
        {
          "internalType": "contract ISetToken",
          "name": "",
          "type": "address"
        }
      ],
      "stateMutability": "view",
      "type": "function"
    },
    {
      "inputs": [],
      "name": "threeCrv",
      "outputs": [
        {
          "internalType": "contract IERC20",
          "name": "",
          "type": "address"
        }
      ],
      "stateMutability": "view",
      "type": "function"
    },
    {
      "inputs": [
        {
          "internalType": "bytes32",
          "name": "_batchId",
          "type": "bytes32"
        },
        {
          "internalType": "uint256",
          "name": "_amountToWithdraw",
          "type": "uint256"
        },
        {
          "internalType": "address",
          "name": "_withdrawFor",
          "type": "address"
        }
      ],
      "name": "withdrawFromBatch",
      "outputs": [],
      "stateMutability": "nonpayable",
      "type": "function"
    }
  ],
  "transactionHash": "0xdad11ec2e205b6931d7af532caeffef300801c5fc18891a5a789d3324d2eb548",
  "args": [
    "0x49fd2BE640DB2910c2fAb69bB8531Ab6E76127ff",
    "0x3b0967B0710a22c1a5CEB6Ae649B5819Cb8bb999",
    "0x6c3F90f043a72FA612cbac8115EE7e52BDe6E490",
    "0xd8EF3cACe8b4907117a45B0b125c68560532F94D",
    [
      "0xB4AdA607B9d6b2c9Ee07A275e9616B84AC560139",
      "0x2DfB14E32e2F8156ec15a2c21c3A6c053af52Be8"
    ],
    [
      {
        "curveMetaPool": "0xd632f22692FaC7611d2AA1C0D552930D43CAEd3B",
        "crvLPToken": "0xd632f22692FaC7611d2AA1C0D552930D43CAEd3B"
      },
      {
        "curveMetaPool": "0x5a6A4D54456819380173272A5E8E9B9904BdF41B",
        "crvLPToken": "0x5a6A4D54456819380173272A5E8E9B9904BdF41B"
      }
    ],
    1,
    "1000000000000000000",
    "100000000000000000"
  ],
  "solcInputHash": "7e2febe42e31b5c8a1426c36d61634ad",
  "bytecode": "0x60a06040527f427574746572426174636850726f63657373696e6700000000000000000000006080523480156200003557600080fd5b5060405162004f5a38038062004f5a8339810160408190526200005891620004b9565b600080546001600160a81b0319166101006001600160a01b038c81169190910291909117909155600180546001600160a01b03199081168b8416179091556002805482168a841617905560038054909116918816919091179055620000be858562000111565b600d839055600e829055600f819055426009819055600a55620000ea631b5a5b9d60e21b6000620001db565b50620001016572656465656d60d01b6001620001db565b5050505050505050505062000645565b60005b8251811015620001d6578181815181106200013f57634e487b7160e01b600052603260045260246000fd5b6020026020010151600460008584815181106200016c57634e487b7160e01b600052603260045260246000fd5b6020908102919091018101516001600160a01b039081168352828201939093526040909101600020835181546001600160a01b0319908116918516919091178255939091015160019091018054909316911617905580620001cd81620005ee565b91505062000114565b505050565b600080620001e98462000333565b6008805460018181019092557ff3f7a9fe364faab93b216da50a3214154f22a0a2b415b23a84c8169e8b636ee30182905560008281526007602052604090208054929350918591839160ff19169083818111156200025757634e487b7160e01b600052602160045260246000fd5b0217905550600180820183905584908111156200028457634e487b7160e01b600052602160045260246000fd5b620002c557600b8290556002546006820180546001600160a01b039283166001600160a01b0319918216179091556001546007840180549190931691161790555b836001811115620002e657634e487b7160e01b600052602160045260246000fd5b600114156200032b57600c8290556001546006820180546001600160a01b039283166001600160a01b0319918216179091556002546007840180549190931691161790555b509392505050565b600042826040516020016200034a9291906200058e565b6040516020818303038152906040528051906020012090505b919050565b600082601f83011262000379578081fd5b81516020620003926200038c83620005c8565b6200059c565b8281528181019085830183850287018401881015620003af578586fd5b855b85811015620003da578151620003c7816200062c565b84529284019290840190600101620003b1565b5090979650505050505050565b600082601f830112620003f8578081fd5b815160206200040b6200038c83620005c8565b828152818101908583016040808602880185018910156200042a578687fd5b865b868110156200049e5781838b03121562000444578788fd5b81518083016001600160401b038111828210171562000467576200046762000616565b8352835162000476816200062c565b81528387015162000487816200062c565b81880152855293850193918101916001016200042c565b509198975050505050505050565b805162000363816200062c565b60008060008060008060008060006101208a8c031215620004d8578485fd5b8951620004e5816200062c565b60208b0151909950620004f8816200062c565b97506200050860408b01620004ac565b96506200051860608b01620004ac565b60808b01519096506001600160401b038082111562000535578687fd5b620005438d838e0162000368565b965060a08c015191508082111562000559578586fd5b50620005688c828d01620003e7565b94505060c08a0151925060e08a015191506101008a015190509295985092959850929598565b918252602082015260400190565b6040518181016001600160401b0381118282101715620005c057620005c062000616565b604052919050565b60006001600160401b03821115620005e457620005e462000616565b5060209081020190565b60006000198214156200060f57634e487b7160e01b81526011600452602481fd5b5060010190565b634e487b7160e01b600052604160045260246000fd5b6001600160a01b03811681146200064257600080fd5b50565b6080516148eb6200066f60003960008181610d7301528181610f9901526120a401526148eb6000f3fe608060405234801561001057600080fd5b50600436106101e55760003560e01c806390d1f2451161010f578063b3d346b9116100a2578063d75e952711610071578063d75e9527146103c8578063ed09e19d146103db578063ed9cf58c146103ee578063eddcb7d1146103f6576101e5565b8063b3d346b914610368578063c81e25ab1461037b578063cd02bd7f146103a2578063d030d2b3146103b5576101e5565b8063976874cc116100de578063976874cc146103245780639c8dead214610345578063ab6a55391461034d578063abf410e514610360576101e5565b806390d1f245146102ee57806390f2ca87146102f6578063961b7d86146102fe57806396c144f014610311576101e5565b80633af3bfb5116101875780637190bc29116101565780637190bc29146102b857806375d0c0dc146102cb5780638456cb59146102d35780638467be0d146102db576101e5565b80633af3bfb5146102755780633eea44fe146102885780635a3f0ca01461029b5780635c975abb146102a3576101e5565b806328d3ef0b116101c357806328d3ef0b146102305780632a9ca996146102505780632da9a69414610265578063373915801461026d576101e5565b806307da06a5146101ea578063264c7984146101ff57806327360d691461021d575b600080fd5b6101fd6101f8366004613da9565b6103fe565b005b61020761075e565b6040516102149190614080565b60405180910390f35b6101fd61022b366004613e4d565b610764565b61024361023e366004613bbe565b6108be565b6040516102149190613ff9565b61025861092a565b6040516102149190613f8e565b610258610939565b610207610948565b6101fd610283366004613e94565b61094e565b6101fd610296366004613e4d565b610ab7565b610207610be0565b6102ab610be6565b6040516102149190614075565b6101fd6102c6366004613c21565b610bef565b610207610d71565b6101fd610d95565b6101fd6102e9366004613e4d565b610ec0565b610207611b1c565b610207611b22565b6101fd61030c366004613e65565b611b28565b61020761031f366004613e65565b611df3565b610337610332366004613bbe565b611f9f565b604051610214929190613fa2565b610207611fc5565b6101fd61035b366004613e4d565b611fcb565b61025861278e565b610207610376366004613e4d565b6127a2565b61038e610389366004613e4d565b6127c3565b604051610214989796959493929190614104565b6101fd6103b0366004613e4d565b61281c565b6102076103c3366004613bf6565b612945565b6101fd6103d6366004613e4d565b612976565b6102076103e9366004613e65565b612a9f565b610258612abc565b610207612acb565b610406610be6565b1561042c5760405162461bcd60e51b8152600401610423906143bb565b60405180910390fd5b83821461044b5760405162461bcd60e51b8152600401610423906142f0565b6000805b858110156106945760006007600089898581811061047d57634e487b7160e01b600052603260045260246000fd5b6020908102929092013583525081810192909252604090810160009081206001808201548352600585528383203384529094529190205460028201549193509160ff9091161515146104e15760405162461bcd60e51b815260040161042390614225565b84600181111561050157634e487b7160e01b600052602160045260246000fd5b825460ff16600181111561052557634e487b7160e01b600052602160045260246000fd5b146105425760405162461bcd60e51b8152600401610423906143f2565b86868481811061056257634e487b7160e01b600052603260045260246000fd5b905060200201358110156105885760405162461bcd60e51b8152600401610423906146bf565b600082600301548888868181106105af57634e487b7160e01b600052603260045260246000fd5b9050602002013584600501546105c591906147f7565b6105cf91906147d7565b90508083600501546105e19190614816565b600584015587878581811061060657634e487b7160e01b600052603260045260246000fd5b90506020020135836003015461061c9190614816565b600384015587878581811061064157634e487b7160e01b600052603260045260246000fd5b90506020020135826106539190614816565b6001840154600090815260056020908152604080832033845290915290205561067c81866147bf565b9450505050808061068c90614859565b91505061044f565b50600081116106b55760405162461bcd60e51b8152600401610423906141b7565b8160018111156106d557634e487b7160e01b600052602160045260246000fd5b6106e6576106e681600c5433612ad1565b81600181111561070657634e487b7160e01b600052602160045260246000fd5b6001141561071b5761071b81600b5433612ad1565b7ffacb7348a2212313d980cebc23550b0462adb394310473ee7758995398765c7081833360405161074e9392919061472d565b60405180910390a1505050505050565b60095481565b61076c610be6565b156107895760405162461bcd60e51b8152600401610423906143bb565b6001546040516370a0823160e01b815282916001600160a01b0316906370a08231906107b9903390600401613f8e565b60206040518083038186803b1580156107d157600080fd5b505afa1580156107e5573d6000803e3d6000fd5b505050506040513d601f19601f820116820180604052508101906108099190613f2a565b10156108275760405162461bcd60e51b815260040161042390614551565b6001546040516323b872dd60e01b81526001600160a01b03909116906323b872dd9061085b90339030908690600401613fbc565b602060405180830381600087803b15801561087557600080fd5b505af1158015610889573d6000803e3d6000fd5b505050506040513d601f19601f820116820180604052508101906108ad9190613e2d565b506108bb81600c5433612ad1565b50565b6001600160a01b03811660009081526006602090815260409182902080548351818402810184019094528084526060939283018282801561091e57602002820191906000526020600020905b81548152602001906001019080831161090a575b50505050509050919050565b6003546001600160a01b031681565b6002546001600160a01b031681565b600d5481565b600061095982612c37565b6000858152600760209081526040808320600583528184206001600160a01b0388168552909252909120546002820154929350909160ff16156109ae5760405162461bcd60e51b81526004016104239061451a565b848110156109ce5760405162461bcd60e51b8152600401610423906146bf565b6109d88582614816565b60008781526005602090815260408083206001600160a01b03891684529091529020556004820154610a0b908690614816565b60048301556003820154610a20908690614816565b60038301556000825460ff166001811115610a4b57634e487b7160e01b600052602160045260246000fd5b1415610a6d57600254610a68906001600160a01b03168487612ef8565b610a84565b600154610a84906001600160a01b03168487612ef8565b7f08afc380d5171e1371c567cd7562cc8ff4e9c38c66d5e479c613fdf38106d84586868660405161074e939291906140c2565b600054604051631c2d8fb360e31b81526101009091046001600160a01b03169063e16c7d9890610b0b907f15fa0125f52e5705da1148bfcf00974823c4381bee4314203ede255f9477b73e90600401614080565b60206040518083038186803b158015610b2357600080fd5b505afa158015610b37573d6000803e3d6000fd5b505050506040513d601f19601f82011682018060405250810190610b5b9190613bda565b6001600160a01b031663d09a20c57fd0a4ad96d49edb1c33461cebc6fb2609190f32c904e3c3f5877edb4488dee91e336040518363ffffffff1660e01b8152600401610ba8929190614089565b60006040518083038186803b158015610bc057600080fd5b505afa158015610bd4573d6000803e3d6000fd5b505050600d9190915550565b600a5481565b60005460ff1690565b600054604051631c2d8fb360e31b81526101009091046001600160a01b03169063e16c7d9890610c43907f15fa0125f52e5705da1148bfcf00974823c4381bee4314203ede255f9477b73e90600401614080565b60206040518083038186803b158015610c5b57600080fd5b505afa158015610c6f573d6000803e3d6000fd5b505050506040513d601f19601f82011682018060405250810190610c939190613bda565b6001600160a01b031663d09a20c57fd0a4ad96d49edb1c33461cebc6fb2609190f32c904e3c3f5877edb4488dee91e336040518363ffffffff1660e01b8152600401610ce0929190614089565b60006040518083038186803b158015610cf857600080fd5b505afa158015610d0c573d6000803e3d6000fd5b50505050610d6c838383808060200260200160405190810160405280939291908181526020016000905b82821015610d6257610d5360408302860136819003810190613ecc565b81526020019060010190610d36565b5050505050612f7b565b505050565b7f000000000000000000000000000000000000000000000000000000000000000081565b600054604051631c2d8fb360e31b81526101009091046001600160a01b03169063e16c7d9890610de9907f15fa0125f52e5705da1148bfcf00974823c4381bee4314203ede255f9477b73e90600401614080565b60206040518083038186803b158015610e0157600080fd5b505afa158015610e15573d6000803e3d6000fd5b505050506040513d601f19601f82011682018060405250810190610e399190613bda565b6001600160a01b031663d09a20c57fd0a4ad96d49edb1c33461cebc6fb2609190f32c904e3c3f5877edb4488dee91e336040518363ffffffff1660e01b8152600401610e86929190614089565b60006040518083038186803b158015610e9e57600080fd5b505afa158015610eb2573d6000803e3d6000fd5b50505050610ebe613047565b565b610ec8610be6565b15610ee55760405162461bcd60e51b8152600401610423906143bb565b600054604051631c2d8fb360e31b81526101009091046001600160a01b03169063e16c7d9890610f39907f35ed2e1befd3b2dcf1ec7a6834437fa3212881ed81fd3a13dc97c3438896e1ba90600401614080565b60206040518083038186803b158015610f5157600080fd5b505afa158015610f65573d6000803e3d6000fd5b505050506040513d601f19601f82011682018060405250810190610f899190613bda565b6001600160a01b03166355b8efcc7f00000000000000000000000000000000000000000000000000000000000000006000336040518463ffffffff1660e01b8152600401610fd9939291906140a0565b600060405180830381600087803b158015610ff357600080fd5b505af1158015611007573d6000803e3d6000fd5b5050600b546000908152600760205260409020600d54600954919350915061102f9042614816565b1015806110425750600e54816004015410155b61105e5760405162461bcd60e51b815260040161042390614588565b600281015460ff16156110835760405162461bcd60e51b8152600401610423906146f6565b6004808201546002546040516370a0823160e01b815291926001600160a01b03909116916370a08231916110b991309101613f8e565b60206040518083038186803b1580156110d157600080fd5b505afa1580156110e5573d6000803e3d6000fd5b505050506040513d601f19601f820116820180604052508101906111099190613f2a565b10156111275760405162461bcd60e51b815260040161042390614429565b600354600154604051637a4ffd0360e01b815260009283926001600160a01b0391821692637a4ffd0392611169921690670de0b6b3a764000090600401613fe0565b60006040518083038186803b15801561118157600080fd5b505afa158015611195573d6000803e3d6000fd5b505050506040513d6000823e601f3d908101601f191682016040526111bd9190810190613ce6565b91509150600080825167ffffffffffffffff8111156111ec57634e487b7160e01b600052604160045260246000fd5b604051908082528060200260200182016040528015611215578160200160208202803683370190505b50905060005b84518110156114ef57600085828151811061124657634e487b7160e01b600052603260045260246000fd5b60200260200101516001600160a01b03166399530b066040518163ffffffff1660e01b815260040160206040518083038186803b15801561128657600080fd5b505afa15801561129a573d6000803e3d6000fd5b505050506040513d601f19601f820116820180604052508101906112be9190613f2a565b90506000600460008885815181106112e657634e487b7160e01b600052603260045260246000fd5b6020908102919091018101516001600160a01b0390811683529082019290925260409081016000205490517fcc2b27d700000000000000000000000000000000000000000000000000000000815291169063cc2b27d79061135690670de0b6b3a764000090600190600401614173565b60206040518083038186803b15801561136e57600080fd5b505afa158015611382573d6000803e3d6000fd5b505050506040513d601f19601f820116820180604052508101906113a69190613f2a565b6113b890671bc16d674ec80000614816565b90506000670de0b6b3a76400006113cf83856147f7565b6113d991906147d7565b90506000670de0b6b3a7640000828a878151811061140757634e487b7160e01b600052603260045260246000fd5b60200260200101516001600160a01b03166370a08231306040518263ffffffff1660e01b815260040161143a9190613f8e565b60206040518083038186803b15801561145257600080fd5b505afa158015611466573d6000803e3d6000fd5b505050506040513d601f19601f8201168201806040525081019061148a9190613f2a565b61149491906147f7565b61149e91906147d7565b9050808686815181106114c157634e487b7160e01b600052603260045260246000fd5b60209081029190910101526114d681886147bf565b96505050505080806114e790614859565b91505061121b565b50600082866004015461150291906147bf565b905060005b855181101561180857600083828151811061153257634e487b7160e01b600052603260045260246000fd5b602002602001015160048461154791906147d7565b6115519190614816565b90506115a881600460008a868151811061157b57634e487b7160e01b600052603260045260246000fd5b6020908102919091018101516001600160a01b0390811683529082019290925260400160002054166130b9565b506116ff600460008985815181106115d057634e487b7160e01b600052603260045260246000fd5b6020908102919091018101516001600160a01b0390811683529082019290925260409081016000206001015490516370a0823160e01b81529116906370a082319061161f903090600401613f8e565b60206040518083038186803b15801561163757600080fd5b505afa15801561164b573d6000803e3d6000fd5b505050506040513d601f19601f8201168201806040525081019061166f9190613f2a565b600460008a868151811061169357634e487b7160e01b600052603260045260246000fd5b60200260200101516001600160a01b03166001600160a01b0316815260200190815260200160002060010160009054906101000a90046001600160a01b03168985815181106116f257634e487b7160e01b600052603260045260246000fd5b6020026020010151613227565b60035487516117f5916001600160a01b03169089908590811061173257634e487b7160e01b600052603260045260246000fd5b60200260200101516001600160a01b03166370a08231306040518263ffffffff1660e01b81526004016117659190613f8e565b60206040518083038186803b15801561177d57600080fd5b505afa158015611791573d6000803e3d6000fd5b505050506040513d601f19601f820116820180604052508101906117b59190613f2a565b8985815181106117d557634e487b7160e01b600052603260045260246000fd5b60200260200101516001600160a01b03166133519092919063ffffffff16565b508061180081614859565b915050611507565b5060008460008151811061182c57634e487b7160e01b600052603260045260246000fd5b60200260200101518660008151811061185557634e487b7160e01b600052603260045260246000fd5b60200260200101516001600160a01b03166370a08231306040518263ffffffff1660e01b81526004016118889190613f8e565b60206040518083038186803b1580156118a057600080fd5b505afa1580156118b4573d6000803e3d6000fd5b505050506040513d601f19601f820116820180604052508101906118d89190613f2a565b6118ea90670de0b6b3a76400006147f7565b6118f491906147d7565b905060015b8651811015611a06576119f28287838151811061192657634e487b7160e01b600052603260045260246000fd5b602002602001015189848151811061194e57634e487b7160e01b600052603260045260246000fd5b60200260200101516001600160a01b03166370a08231306040518263ffffffff1660e01b81526004016119819190613f8e565b60206040518083038186803b15801561199957600080fd5b505afa1580156119ad573d6000803e3d6000fd5b505050506040513d601f19601f820116820180604052508101906119d19190613f2a565b6119e390670de0b6b3a76400006147f7565b6119ed91906147d7565b613403565b9150806119fe81614859565b9150506118f9565b5087811015611a275760405162461bcd60e51b81526004016104239061462b565b6003546001546040517f6d78f47a0000000000000000000000000000000000000000000000000000000081526001600160a01b0392831692636d78f47a92611a7892911690859030906004016140e1565b600060405180830381600087803b158015611a9257600080fd5b505af1158015611aa6573d6000803e3d6000fd5b505050506005870181905560028701805460ff1916600117905542600955600b5460048801546040517fa018ec75c77c2e90d17863c91c2f7440710e48d57f99510358116fb0e34bdf6d91611afc918590613f80565b60405180910390a2611b11600b54600061341b565b505050505050505050565b600c5481565b600f5481565b611b30610be6565b15611b4d5760405162461bcd60e51b8152600401610423906143bb565b600054604051631c2d8fb360e31b81526101009091046001600160a01b03169063e16c7d9890611ba1907f15fa0125f52e5705da1148bfcf00974823c4381bee4314203ede255f9477b73e90600401614080565b60206040518083038186803b158015611bb957600080fd5b505afa158015611bcd573d6000803e3d6000fd5b505050506040513d601f19601f82011682018060405250810190611bf19190613bda565b6001600160a01b03166391d148547f14f2de51145ee18a9cff210cb9e9b16746e8d3d4d64c9ef496f8fa7e83a998ec336040518363ffffffff1660e01b8152600401611c3e929190614089565b60206040518083038186803b158015611c5657600080fd5b505afa158015611c6a573d6000803e3d6000fd5b505050506040513d601f19601f82011682018060405250810190611c8e9190613e2d565b80611ca15750336001600160a01b038216145b611cbd5760405162461bcd60e51b815260040161042390614327565b6002546040516370a0823160e01b815283916001600160a01b0316906370a0823190611ced903390600401613f8e565b60206040518083038186803b158015611d0557600080fd5b505afa158015611d19573d6000803e3d6000fd5b505050506040513d601f19601f82011682018060405250810190611d3d9190613f2a565b1015611d5b5760405162461bcd60e51b8152600401610423906142b9565b6002546040516323b872dd60e01b81526001600160a01b03909116906323b872dd90611d8f90339030908790600401613fbc565b602060405180830381600087803b158015611da957600080fd5b505af1158015611dbd573d6000803e3d6000fd5b505050506040513d601f19601f82011682018060405250810190611de19190613e2d565b50611def82600b5483612ad1565b5050565b6000828152600760205260408120600281015460ff16611e255760405162461bcd60e51b8152600401610423906141ee565b6000611e3084612c37565b60008681526005602090815260408083206001600160a01b0389168452909152902054600384015491925090811115611e7b5760405162461bcd60e51b815260040161042390614486565b60008360030154828560050154611e9291906147f7565b611e9c91906147d7565b9050808460050154611eae9190614816565b60058501556003840154611ec3908390614816565b600385015560008781526005602090815260408083206001600160a01b038a1684529091528120819055845460ff166001811115611f1157634e487b7160e01b600052602160045260246000fd5b1415611f3357600154611f2e906001600160a01b03168483612ef8565b611f4a565b600254611f4a906001600160a01b03168483612ef8565b83546040516001600160a01b038816917f8d2dd554e7207f2edcec3f94a370536aa5b74554b28e814f77ec34780a18552491611f8d9160ff169086908690614154565b60405180910390a29695505050505050565b600460205260009081526040902080546001909101546001600160a01b03918216911682565b600e5481565b611fd3610be6565b15611ff05760405162461bcd60e51b8152600401610423906143bb565b600054604051631c2d8fb360e31b81526101009091046001600160a01b03169063e16c7d9890612044907f35ed2e1befd3b2dcf1ec7a6834437fa3212881ed81fd3a13dc97c3438896e1ba90600401614080565b60206040518083038186803b15801561205c57600080fd5b505afa158015612070573d6000803e3d6000fd5b505050506040513d601f19601f820116820180604052508101906120949190613bda565b6001600160a01b03166355b8efcc7f00000000000000000000000000000000000000000000000000000000000000006001336040518463ffffffff1660e01b81526004016120e4939291906140a0565b600060405180830381600087803b1580156120fe57600080fd5b505af1158015612112573d6000803e3d6000fd5b5050600c546000908152600760205260409020600d54600a54919350915061213a9042614816565b10158061214d5750600f54816004015410155b6121695760405162461bcd60e51b815260040161042390614588565b600281015460ff161561218e5760405162461bcd60e51b8152600401610423906145bd565b6004808201546001546040516370a0823160e01b815291926001600160a01b03909116916370a08231916121c491309101613f8e565b60206040518083038186803b1580156121dc57600080fd5b505afa1580156121f0573d6000803e3d6000fd5b505050506040513d601f19601f820116820180604052508101906122149190613f2a565b10156122325760405162461bcd60e51b8152600401610423906144bd565b600354600154604051637a4ffd0360e01b815260009283926001600160a01b0391821692637a4ffd0392612274921690670de0b6b3a764000090600401613fe0565b60006040518083038186803b15801561228c57600080fd5b505afa1580156122a0573d6000803e3d6000fd5b505050506040513d6000823e601f3d908101601f191682016040526122c89190810190613ce6565b60035460048601546001549395509193506122f1926001600160a01b0390811692911690613351565b6003546001546004808601546040517f5c833bfd0000000000000000000000000000000000000000000000000000000081526001600160a01b0394851694635c833bfd9461234594911692913091016140e1565b600060405180830381600087803b15801561235f57600080fd5b505af1158015612373573d6000803e3d6000fd5b50506002546040516370a0823160e01b8152600093506001600160a01b0390911691506370a08231906123aa903090600401613f8e565b60206040518083038186803b1580156123c257600080fd5b505afa1580156123d6573d6000803e3d6000fd5b505050506040513d601f19601f820116820180604052508101906123fa9190613f2a565b905060005b835181101561266f576124db84828151811061242b57634e487b7160e01b600052603260045260246000fd5b60200260200101516001600160a01b03166370a08231306040518263ffffffff1660e01b815260040161245e9190613f8e565b60206040518083038186803b15801561247657600080fd5b505afa15801561248a573d6000803e3d6000fd5b505050506040513d601f19601f820116820180604052508101906124ae9190613f2a565b8583815181106124ce57634e487b7160e01b600052603260045260246000fd5b6020026020010151613586565b60006004600086848151811061250157634e487b7160e01b600052603260045260246000fd5b6020908102919091018101516001600160a01b0390811683529082019290925260409081016000206001015490516370a0823160e01b81529116906370a0823190612550903090600401613f8e565b60206040518083038186803b15801561256857600080fd5b505afa15801561257c573d6000803e3d6000fd5b505050506040513d601f19601f820116820180604052508101906125a09190613f2a565b905061265a81600460008886815181106125ca57634e487b7160e01b600052603260045260246000fd5b60200260200101516001600160a01b03166001600160a01b0316815260200190815260200160002060010160009054906101000a90046001600160a01b03166004600089878151811061262d57634e487b7160e01b600052603260045260246000fd5b6020908102919091018101516001600160a01b0390811683529082019290925260400160002054166136af565b5050808061266790614859565b9150506123ff565b506002546040516370a0823160e01b815282916001600160a01b0316906370a08231906126a0903090600401613f8e565b60206040518083038186803b1580156126b857600080fd5b505afa1580156126cc573d6000803e3d6000fd5b505050506040513d601f19601f820116820180604052508101906126f09190613f2a565b6126fa9190614816565b600585018190558511156127205760405162461bcd60e51b81526004016104239061462b565b600c547ffe5f8735d3a150c5afdab27148da5543b04feb55f87613477a9a65621c910ddf8560040154866005015460405161275c929190613f80565b60405180910390a260028401805460ff1916600190811790915542600a55600c546127869161341b565b505050505050565b60005461010090046001600160a01b031681565b600881815481106127b257600080fd5b600091825260209091200154905081565b60076020819052600091825260409091208054600182015460028301546003840154600485015460058601546006870154969097015460ff95861697949693909516949193909290916001600160a01b03918216911688565b600054604051631c2d8fb360e31b81526101009091046001600160a01b03169063e16c7d9890612870907f15fa0125f52e5705da1148bfcf00974823c4381bee4314203ede255f9477b73e90600401614080565b60206040518083038186803b15801561288857600080fd5b505afa15801561289c573d6000803e3d6000fd5b505050506040513d601f19601f820116820180604052508101906128c09190613bda565b6001600160a01b031663d09a20c57fd0a4ad96d49edb1c33461cebc6fb2609190f32c904e3c3f5877edb4488dee91e336040518363ffffffff1660e01b815260040161290d929190614089565b60006040518083038186803b15801561292557600080fd5b505afa158015612939573d6000803e3d6000fd5b505050600e9190915550565b6006602052816000526040600020818154811061296157600080fd5b90600052602060002001600091509150505481565b600054604051631c2d8fb360e31b81526101009091046001600160a01b03169063e16c7d98906129ca907f15fa0125f52e5705da1148bfcf00974823c4381bee4314203ede255f9477b73e90600401614080565b60206040518083038186803b1580156129e257600080fd5b505afa1580156129f6573d6000803e3d6000fd5b505050506040513d601f19601f82011682018060405250810190612a1a9190613bda565b6001600160a01b031663d09a20c57fd0a4ad96d49edb1c33461cebc6fb2609190f32c904e3c3f5877edb4488dee91e336040518363ffffffff1660e01b8152600401612a67929190614089565b60006040518083038186803b158015612a7f57600080fd5b505afa158015612a93573d6000803e3d6000fd5b505050600f9190915550565b600560209081526000928352604080842090915290825290205481565b6001546001600160a01b031681565b600b5481565b60008281526007602052604090206004810154612aef9085906147bf565b60048201556003810154612b049085906147bf565b600382015560008381526005602090815260408083206001600160a01b0386168452909152902054612b379085906147bf565b60008481526005602090815260408083206001600160a01b03871684528252808320939093556006905220541580612bbf57506001600160a01b03821660009081526006602052604090208054849190612b9390600190614816565b81548110612bb157634e487b7160e01b600052603260045260246000fd5b906000526020600020015414155b15612bf0576001600160a01b0382166000908152600660209081526040822080546001810182559083529120018390555b816001600160a01b03167fe1fffcc4923d04b559f4d29a8bfc6cda04eb5b0d3c460751c2402c5c5cc9109c85604051612c299190614080565b60405180910390a250505050565b60008054604051631c2d8fb360e31b81526101009091046001600160a01b03169063e16c7d9890612c8c907f15fa0125f52e5705da1148bfcf00974823c4381bee4314203ede255f9477b73e90600401614080565b60206040518083038186803b158015612ca457600080fd5b505afa158015612cb8573d6000803e3d6000fd5b505050506040513d601f19601f82011682018060405250810190612cdc9190613bda565b6001600160a01b03166391d148547f14f2de51145ee18a9cff210cb9e9b16746e8d3d4d64c9ef496f8fa7e83a998ec336040518363ffffffff1660e01b8152600401612d29929190614089565b60206040518083038186803b158015612d4157600080fd5b505afa158015612d55573d6000803e3d6000fd5b505050506040513d601f19601f82011682018060405250810190612d799190613e2d565b80612d8c5750336001600160a01b038316145b612da85760405162461bcd60e51b815260040161042390614327565b600054604051631c2d8fb360e31b8152839161010090046001600160a01b03169063e16c7d9890612dfd907f15fa0125f52e5705da1148bfcf00974823c4381bee4314203ede255f9477b73e90600401614080565b60206040518083038186803b158015612e1557600080fd5b505afa158015612e29573d6000803e3d6000fd5b505050506040513d601f19601f82011682018060405250810190612e4d9190613bda565b6001600160a01b03166391d148547f14f2de51145ee18a9cff210cb9e9b16746e8d3d4d64c9ef496f8fa7e83a998ec336040518363ffffffff1660e01b8152600401612e9a929190614089565b60206040518083038186803b158015612eb257600080fd5b505afa158015612ec6573d6000803e3d6000fd5b505050506040513d601f19601f82011682018060405250810190612eea9190613e2d565b15612ef25750335b92915050565b610d6c8363a9059cbb60e01b8484604051602401612f17929190613fe0565b60408051601f198184030181529190526020810180517bffffffffffffffffffffffffffffffffffffffffffffffffffffffff167fffffffff0000000000000000000000000000000000000000000000000000000090931692909217909152613802565b60005b8251811015610d6c57818181518110612fa757634e487b7160e01b600052603260045260246000fd5b602002602001015160046000858481518110612fd357634e487b7160e01b600052603260045260246000fd5b6020908102919091018101516001600160a01b0390811683528282019390935260409091016000208351815473ffffffffffffffffffffffffffffffffffffffff1990811691851691909117825593909101516001909101805490931691161790558061303f81614859565b915050612f7e565b61304f610be6565b1561306c5760405162461bcd60e51b8152600401610423906143bb565b6000805460ff191660011790557f62e78cea01bee320cd4e420270b5ea74000d11b0c9f74754ebdbfc544b05a2586130a2613891565b6040516130af9190613f8e565b60405180910390a1565b600254604051636eb1769f60e11b815260009182916001600160a01b039091169063dd62ed3e906130f09030908790600401613fa2565b60206040518083038186803b15801561310857600080fd5b505afa15801561311c573d6000803e3d6000fd5b505050506040513d601f19601f820116820180604052508101906131409190613f2a565b60025490915061315a906001600160a01b03168483613895565b600254613173906001600160a01b031684600019613351565b60408051808201825260008082526020820187905291517f0b4c7e4d0000000000000000000000000000000000000000000000000000000081526001600160a01b03861692630b4c7e4d926131cd9290919060040161403d565b602060405180830381600087803b1580156131e757600080fd5b505af11580156131fb573d6000803e3d6000fd5b505050506040513d601f19601f8201168201806040525081019061321f9190613f2a565b505092915050565b604051636eb1769f60e11b81526000906001600160a01b0384169063dd62ed3e906132589030908690600401613fa2565b60206040518083038186803b15801561327057600080fd5b505afa158015613284573d6000803e3d6000fd5b505050506040513d601f19601f820116820180604052508101906132a89190613f2a565b90506132be6001600160a01b0384168383613895565b6132d46001600160a01b03841683600019613351565b6040517fb6b55f250000000000000000000000000000000000000000000000000000000081526001600160a01b0383169063b6b55f2590613319908790600401614080565b600060405180830381600087803b15801561333357600080fd5b505af1158015613347573d6000803e3d6000fd5b5050505050505050565b600081846001600160a01b031663dd62ed3e30866040518363ffffffff1660e01b8152600401613382929190613fa2565b60206040518083038186803b15801561339a57600080fd5b505afa1580156133ae573d6000803e3d6000fd5b505050506040513d601f19601f820116820180604052508101906133d29190613f2a565b6133dc91906147bf565b90506133fd8463095ea7b360e01b8584604051602401612f17929190613fe0565b50505050565b60008183106134125781613414565b825b9392505050565b6000806134278461397e565b6008805460018181019092557ff3f7a9fe364faab93b216da50a3214154f22a0a2b415b23a84c8169e8b636ee30182905560008281526007602052604090208054929350918591839160ff191690838181111561349457634e487b7160e01b600052602160045260246000fd5b0217905550600180820183905584908111156134c057634e487b7160e01b600052602160045260246000fd5b61350d57600b8290556002546006820180546001600160a01b0392831673ffffffffffffffffffffffffffffffffffffffff19918216179091556001546007840180549190931691161790555b83600181111561352d57634e487b7160e01b600052602160045260246000fd5b6001141561357e57600c8290556001546006820180546001600160a01b0392831673ffffffffffffffffffffffffffffffffffffffff19918216179091556002546007840180549190931691161790555b509392505050565b604051636eb1769f60e11b81526000906001600160a01b0383169063dd62ed3e906135b79030908690600401613fa2565b60206040518083038186803b1580156135cf57600080fd5b505afa1580156135e3573d6000803e3d6000fd5b505050506040513d601f19601f820116820180604052508101906136079190613f2a565b905061361d6001600160a01b0383168383613895565b6136336001600160a01b03831683600019613351565b6040517f2e1a7d4d0000000000000000000000000000000000000000000000000000000081526001600160a01b03831690632e1a7d4d90613678908690600401614080565b600060405180830381600087803b15801561369257600080fd5b505af11580156136a6573d6000803e3d6000fd5b50505050505050565b600080836001600160a01b031663dd62ed3e30856040518363ffffffff1660e01b81526004016136e0929190613fa2565b60206040518083038186803b1580156136f857600080fd5b505afa15801561370c573d6000803e3d6000fd5b505050506040513d601f19601f820116820180604052508101906137309190613f2a565b90506137466001600160a01b0385168483613895565b61375c6001600160a01b03851684600019613351565b6040517f1a4d01d20000000000000000000000000000000000000000000000000000000081526001600160a01b03841690631a4d01d2906137a7908890600190600090600401614758565b602060405180830381600087803b1580156137c157600080fd5b505af11580156137d5573d6000803e3d6000fd5b505050506040513d601f19601f820116820180604052508101906137f99190613f2a565b50509392505050565b6000613857826040518060400160405280602081526020017f5361666545524332303a206c6f772d6c6576656c2063616c6c206661696c6564815250856001600160a01b03166139b09092919063ffffffff16565b805190915015610d6c57808060200190518101906138759190613e2d565b610d6c5760405162461bcd60e51b815260040161042390614662565b3390565b604051636eb1769f60e11b81526000906001600160a01b0385169063dd62ed3e906138c69030908790600401613fa2565b60206040518083038186803b1580156138de57600080fd5b505afa1580156138f2573d6000803e3d6000fd5b505050506040513d601f19601f820116820180604052508101906139169190613f2a565b9050818110156139385760405162461bcd60e51b81526004016104239061425c565b604051828203906139779086907f095ea7b30000000000000000000000000000000000000000000000000000000090612f179088908690602401613fe0565b5050505050565b60004282604051602001613993929190613f80565b604051602081830303815290604052805190602001209050919050565b60606139bf84846000856139c7565b949350505050565b6060824710156139e95760405162461bcd60e51b81526004016104239061435e565b6139f285613a87565b613a0e5760405162461bcd60e51b8152600401610423906145f4565b600080866001600160a01b03168587604051613a2a9190613f64565b60006040518083038185875af1925050503d8060008114613a67576040519150601f19603f3d011682016040523d82523d6000602084013e613a6c565b606091505b5091509150613a7c828286613a8d565b979650505050505050565b3b151590565b60608315613a9c575081613414565b825115613aac5782518084602001fd5b8160405162461bcd60e51b81526004016104239190614184565b60008083601f840112613ad7578182fd5b50813567ffffffffffffffff811115613aee578182fd5b6020830191508360208083028501011115613b0857600080fd5b9250929050565b60008083601f840112613b20578182fd5b50813567ffffffffffffffff811115613b37578182fd5b602083019150836020604083028501011115613b0857600080fd5b600082601f830112613b62578081fd5b81516020613b77613b728361479b565b614771565b8281528181019085830183850287018401881015613b93578586fd5b855b85811015613bb157815184529284019290840190600101613b95565b5090979650505050505050565b600060208284031215613bcf578081fd5b8135613414816148a0565b600060208284031215613beb578081fd5b8151613414816148a0565b60008060408385031215613c08578081fd5b8235613c13816148a0565b946020939093013593505050565b600080600060408486031215613c35578081fd5b833567ffffffffffffffff80821115613c4c578283fd5b818601915086601f830112613c5f578283fd5b81356020613c6f613b728361479b565b82815281810190858301838502870184018c1015613c8b578788fd5b8796505b84871015613cb6578035613ca2816148a0565b835260019690960195918301918301613c8f565b5097505087013592505080821115613ccc578283fd5b50613cd986828701613b0f565b9497909650939450505050565b60008060408385031215613cf8578182fd5b825167ffffffffffffffff80821115613d0f578384fd5b818501915085601f830112613d22578384fd5b81516020613d32613b728361479b565b82815281810190858301838502870184018b1015613d4e578889fd5b8896505b84871015613d79578051613d65816148a0565b835260019690960195918301918301613d52565b5091880151919650909350505080821115613d92578283fd5b50613d9f85828601613b52565b9150509250929050565b600080600080600060608688031215613dc0578081fd5b853567ffffffffffffffff80821115613dd7578283fd5b613de389838a01613ac6565b90975095506020880135915080821115613dfb578283fd5b50613e0888828901613ac6565b909450925050604086013560028110613e1f578182fd5b809150509295509295909350565b600060208284031215613e3e578081fd5b81518015158114613414578182fd5b600060208284031215613e5e578081fd5b5035919050565b60008060408385031215613e77578182fd5b823591506020830135613e89816148a0565b809150509250929050565b600080600060608486031215613ea8578081fd5b83359250602084013591506040840135613ec1816148a0565b809150509250925092565b600060408284031215613edd578081fd5b6040516040810181811067ffffffffffffffff82111715613f0057613f0061488a565b6040528235613f0e816148a0565b81526020830135613f1e816148a0565b60208201529392505050565b600060208284031215613f3b578081fd5b5051919050565b60028110613f6057634e487b7160e01b600052602160045260246000fd5b9052565b60008251613f7681846020870161482d565b9190910192915050565b918252602082015260400190565b6001600160a01b0391909116815260200190565b6001600160a01b0392831681529116602082015260400190565b6001600160a01b039384168152919092166020820152604081019190915260600190565b6001600160a01b03929092168252602082015260400190565b6020808252825182820181905260009190848201906040850190845b8181101561403157835183529284019291840191600101614015565b50909695505050505050565b60608101818460005b6002811015614065578151835260209283019290910190600101614046565b5050508260408301529392505050565b901515815260200190565b90815260200190565b9182526001600160a01b0316602082015260400190565b92835260ff9190911660208301526001600160a01b0316604082015260600190565b92835260208301919091526001600160a01b0316604082015260600190565b6001600160a01b0393841681526020810192909252909116604082015260600190565b6101008101614113828b613f42565b602082019890985295151560408701526060860194909452608085019290925260a08401526001600160a01b0390811660c08401521660e090910152919050565b606081016141628286613f42565b602082019390935260400152919050565b918252600f0b602082015260400190565b60006020825282518060208401526141a381604085016020870161482d565b601f01601f19169190910160400192915050565b6020808252601c908201527f746f74616c416d6f756e74206d757374206265206c6172676572203000000000604082015260600190565b60208082526011908201527f6e6f742079657420636c61696d61626c65000000000000000000000000000000604082015260600190565b6020808252601a908201527f686173206e6f7420796574206265656e2070726f636573736564000000000000604082015260600190565b60208082526029908201527f5361666545524332303a2064656372656173656420616c6c6f77616e6365206260408201527f656c6f77207a65726f0000000000000000000000000000000000000000000000606082015260800190565b60208082526013908201527f696e737566666963656e742062616c616e636500000000000000000000000000604082015260600190565b60208082526018908201527f6172726179206c656e67746873206d757374206d617463680000000000000000604082015260600190565b6020808252601d908201527f796f752063616e74207472616e73666572206f746865722066756e6473000000604082015260600190565b60208082526026908201527f416464726573733a20696e73756666696369656e742062616c616e636520666f60408201527f722063616c6c0000000000000000000000000000000000000000000000000000606082015260800190565b60208082526010908201527f5061757361626c653a2070617573656400000000000000000000000000000000604082015260600190565b60208082526013908201527f696e636f72726563742062617463685479706500000000000000000000000000604082015260600190565b60208082526031908201527f6163636f756e742068617320696e73756666696369656e742062616c616e636560408201527f206f6620746f6b656e20746f206d696e74000000000000000000000000000000606082015260800190565b60208082526018908201527f636c61696d696e6720746f6f206d616e79207368617265730000000000000000604082015260600190565b60208082526034908201527f636f6e74726163742068617320696e73756666696369656e742062616c616e6360408201527f65206f6620746f6b656e20746f2072656465656d000000000000000000000000606082015260800190565b60208082526011908201527f616c72656164792070726f636573736564000000000000000000000000000000604082015260600190565b60208082526014908201527f696e73756666696369656e742062616c616e6365000000000000000000000000604082015260600190565b6020808252818101527f63616e206e6f74206578656375746520626174636820616374696f6e20796574604082015260600190565b60208082526010908201527f616c72656164792072656465656d656400000000000000000000000000000000604082015260600190565b6020808252601d908201527f416464726573733a2063616c6c20746f206e6f6e2d636f6e7472616374000000604082015260600190565b60208082526011908201527f736c69707061676520746f6f2068696768000000000000000000000000000000604082015260600190565b6020808252602a908201527f5361666545524332303a204552433230206f7065726174696f6e20646964206e60408201527f6f74207375636365656400000000000000000000000000000000000000000000606082015260800190565b6020808252601e908201527f6163636f756e742068617320696e73756666696369656e742066756e64730000604082015260600190565b6020808252600e908201527f616c7265616479206d696e746564000000000000000000000000000000000000604082015260600190565b838152606081016147416020830185613f42565b6001600160a01b0383166040830152949350505050565b928352600f9190910b6020830152604082015260600190565b60405181810167ffffffffffffffff811182821017156147935761479361488a565b604052919050565b600067ffffffffffffffff8211156147b5576147b561488a565b5060209081020190565b600082198211156147d2576147d2614874565b500190565b6000826147f257634e487b7160e01b81526012600452602481fd5b500490565b600081600019048311821515161561481157614811614874565b500290565b60008282101561482857614828614874565b500390565b60005b83811015614848578181015183820152602001614830565b838111156133fd5750506000910152565b600060001982141561486d5761486d614874565b5060010190565b634e487b7160e01b600052601160045260246000fd5b634e487b7160e01b600052604160045260246000fd5b6001600160a01b03811681146108bb57600080fdfea2646970667358221220b76f87f7dcda4ce1a5f422343862db5153810010bd3723947ceee70b6200e16064736f6c63430008000033",
  "devdoc": {
    "kind": "dev",
    "methods": {
      "batchMint(uint256)": {
        "details": "This function deposits 3CRV in the underlying Metapool and deposits these LP token to get yToken which in turn are used to mint HYSIThis process leaves some leftovers which are partially used in the next mint batches.In order to get 3CRV we can implement a zap to move stables into the curve tri-poolhandleKeeperIncentive checks if the msg.sender is a permissioned keeper and pays them a reward for calling this function (see KeeperIncentive.sol)",
        "params": {
          "_minAmountToMint": "The expected min amount of hysi to mint. If hysiAmount is lower than minAmountToMint_ the transaction will revert."
        }
      },
      "batchRedeem(uint256)": {
        "details": "This function reedeems HYSI for the underlying yToken and deposits these yToken in curve Metapools for 3CRVIn order to get stablecoins from 3CRV we can use a zap to redeem 3CRV for stables in the curve tri-poolhandleKeeperIncentive checks if the msg.sender is a permissioned keeper and pays them a reward for calling this function (see KeeperIncentive.sol)",
        "params": {
          "_min3crvToReceive": "sets minimum amount of 3crv to redeem HYSI for, otherwise the transaction will revert"
        }
      },
      "claim(bytes32,address)": {
        "params": {
          "_batchId": "Id of batch to claim from",
          "_claimFor": "User that gets the shares attributed to (for use in zapper contract)"
        }
      },
      "depositForMint(uint256,address)": {
        "details": "Should this be secured we nonReentrant?",
        "params": {
          "_amount": "Amount of 3cr3CRV to use for minting",
          "_depositFor": "User that gets the shares attributed to (for use in zapper contract)"
        }
      },
      "depositForRedeem(uint256)": {
        "details": "Should this be secured we nonReentrant?",
        "params": {
          "_amount": "amount of HYSI to be redeemed"
        }
      },
      "getAccountBatches(address)": {
        "params": {
          "_account": "The address for whom we want to retrieve batches"
        }
      },
      "moveUnclaimedDepositsIntoCurrentBatch(bytes32[],uint256[],uint8)": {
        "details": "the indices of batchIds must match the amountsInHysi to work properly (This will be done by the frontend)",
        "params": {
          "_batchIds": "the ids of each batch where hysi should be moved from",
          "_batchType": "the batchType where funds should be taken from (Mint -> Take Hysi and redeem then, Redeem -> Take 3Crv and Mint HYSI)",
          "_shares": "how many shares should redeemed in each of the batches"
        }
      },
      "pause()": {
        "details": "All function with the modifer `whenNotPaused` cant be called anymore. Namly deposits and mint/redeem"
      },
      "paused()": {
        "details": "Returns true if the contract is paused, and false otherwise."
      },
      "setBatchCooldown(uint256)": {
        "details": "The cooldown is the same for redeem and mint batches",
        "params": {
          "_cooldown": "Cooldown in seconds"
        }
      },
      "setCurvePoolTokenPairs(address[],(address,address)[])": {
        "params": {
          "_curvePoolTokenPairs": "An array structs describing underlying yToken, crvToken and curve metapool",
          "_yTokenAddresses": "An array of addresses for the yToken needed to mint HYSI"
        }
      },
      "setMintThreshold(uint256)": {
        "params": {
          "_threshold": "Amount of 3CRV necessary to mint immediately"
        }
      },
      "setRedeemThreshold(uint256)": {
        "params": {
          "_threshold": "Amount of HYSI necessary to mint immediately"
        }
      },
      "withdrawFromBatch(bytes32,uint256,address)": {
        "params": {
          "_amountToWithdraw": "Amount of HYSI or 3CRV to be withdrawn from the queue (depending on mintBatch / redeemBatch)",
          "_batchId": "From which batch should funds be withdrawn from",
          "_withdrawFor": "User that gets the shares attributed to (for use in zapper contract)"
        }
      }
    },
    "version": 1
  },
  "userdoc": {
    "kind": "user",
    "methods": {
      "accountBalances(bytes32,address)": {
        "notice": "This maps batch ids to addresses with share balances"
      },
      "batchMint(uint256)": {
        "notice": "Mint HYSI token with deposited 3CRV. This function goes through all the steps necessary to mint an optimal amount of HYSI"
      },
      "batchRedeem(uint256)": {
        "notice": "Redeems HYSI for 3CRV. This function goes through all the steps necessary to get 3CRV"
      },
      "claim(bytes32,address)": {
        "notice": "Claims funds after the batch has been processed (get HYSI from a mint batch and 3CRV from a redeem batch)"
      },
      "depositForMint(uint256,address)": {
        "notice": "Deposits funds in the current mint batch"
      },
      "depositForRedeem(uint256)": {
        "notice": "deposits funds in the current redeem batch"
      },
      "getAccountBatches(address)": {
        "notice": "Get ids for all batches that a user has interacted with"
      },
      "moveUnclaimedDepositsIntoCurrentBatch(bytes32[],uint256[],uint8)": {
        "notice": "Moves unclaimed token (3crv or Hysi) from their respective Batches into a new redeemBatch / mintBatch without needing to claim them first. This will typically be used when hysi has already been minted and a user has never claimed / transfered the token to their address and they would like to convert it to stablecoin."
      },
      "pause()": {
        "notice": "Pauses the contract."
      },
      "setBatchCooldown(uint256)": {
        "notice": "Changes the current batch cooldown"
      },
      "setCurvePoolTokenPairs(address[],(address,address)[])": {
        "notice": "This function allows the owner to change the composition of underlying token of the HYSI"
      },
      "setMintThreshold(uint256)": {
        "notice": "Changes the Threshold of 3CRV which need to be deposited to be able to mint immediately"
      },
      "setRedeemThreshold(uint256)": {
        "notice": "Changes the Threshold of HYSI which need to be deposited to be able to redeem immediately"
      },
      "withdrawFromBatch(bytes32,uint256,address)": {
        "notice": "This function allows a user to withdraw their funds from a batch before that batch has been processed"
      }
    },
    "version": 1
  },
  "storageLayout": {
    "storage": [
      {
        "astId": 122,
        "contract": "contracts/core/defi/butter/ButterBatchProcessing.sol:ButterBatchProcessing",
        "label": "_paused",
        "offset": 0,
        "slot": "0",
        "type": "t_bool"
      },
      {
        "astId": 5210,
        "contract": "contracts/core/defi/butter/ButterBatchProcessing.sol:ButterBatchProcessing",
        "label": "contractRegistry",
        "offset": 1,
        "slot": "0",
        "type": "t_contract(IContractRegistry)7742"
      },
      {
        "astId": 5213,
        "contract": "contracts/core/defi/butter/ButterBatchProcessing.sol:ButterBatchProcessing",
        "label": "setToken",
        "offset": 0,
        "slot": "1",
        "type": "t_contract(ISetToken)9740"
      },
      {
        "astId": 5216,
        "contract": "contracts/core/defi/butter/ButterBatchProcessing.sol:ButterBatchProcessing",
        "label": "threeCrv",
        "offset": 0,
        "slot": "2",
        "type": "t_contract(IERC20)860"
      },
      {
        "astId": 5219,
        "contract": "contracts/core/defi/butter/ButterBatchProcessing.sol:ButterBatchProcessing",
        "label": "setBasicIssuanceModule",
        "offset": 0,
        "slot": "3",
        "type": "t_contract(BasicIssuanceModule)9360"
      },
      {
        "astId": 5224,
        "contract": "contracts/core/defi/butter/ButterBatchProcessing.sol:ButterBatchProcessing",
        "label": "curvePoolTokenPairs",
        "offset": 0,
        "slot": "4",
        "type": "t_mapping(t_address,t_struct(CurvePoolTokenPair)5186_storage)"
      },
      {
        "astId": 5231,
        "contract": "contracts/core/defi/butter/ButterBatchProcessing.sol:ButterBatchProcessing",
        "label": "accountBalances",
        "offset": 0,
        "slot": "5",
        "type": "t_mapping(t_bytes32,t_mapping(t_address,t_uint256))"
      },
      {
        "astId": 5236,
        "contract": "contracts/core/defi/butter/ButterBatchProcessing.sol:ButterBatchProcessing",
        "label": "accountBatches",
        "offset": 0,
        "slot": "6",
        "type": "t_mapping(t_address,t_array(t_bytes32)dyn_storage)"
      },
      {
        "astId": 5241,
        "contract": "contracts/core/defi/butter/ButterBatchProcessing.sol:ButterBatchProcessing",
        "label": "batches",
        "offset": 0,
        "slot": "7",
        "type": "t_mapping(t_bytes32,t_struct(Batch)5204_storage)"
      },
      {
        "astId": 5244,
        "contract": "contracts/core/defi/butter/ButterBatchProcessing.sol:ButterBatchProcessing",
        "label": "batchIds",
        "offset": 0,
        "slot": "8",
        "type": "t_array(t_bytes32)dyn_storage"
      },
      {
        "astId": 5246,
        "contract": "contracts/core/defi/butter/ButterBatchProcessing.sol:ButterBatchProcessing",
        "label": "lastMintedAt",
        "offset": 0,
        "slot": "9",
        "type": "t_uint256"
      },
      {
        "astId": 5248,
        "contract": "contracts/core/defi/butter/ButterBatchProcessing.sol:ButterBatchProcessing",
        "label": "lastRedeemedAt",
        "offset": 0,
        "slot": "10",
        "type": "t_uint256"
      },
      {
        "astId": 5250,
        "contract": "contracts/core/defi/butter/ButterBatchProcessing.sol:ButterBatchProcessing",
        "label": "currentMintBatchId",
        "offset": 0,
        "slot": "11",
        "type": "t_bytes32"
      },
      {
        "astId": 5252,
        "contract": "contracts/core/defi/butter/ButterBatchProcessing.sol:ButterBatchProcessing",
        "label": "currentRedeemBatchId",
        "offset": 0,
        "slot": "12",
        "type": "t_bytes32"
      },
      {
        "astId": 5254,
        "contract": "contracts/core/defi/butter/ButterBatchProcessing.sol:ButterBatchProcessing",
        "label": "batchCooldown",
        "offset": 0,
        "slot": "13",
        "type": "t_uint256"
      },
      {
        "astId": 5256,
        "contract": "contracts/core/defi/butter/ButterBatchProcessing.sol:ButterBatchProcessing",
        "label": "mintThreshold",
        "offset": 0,
        "slot": "14",
        "type": "t_uint256"
      },
      {
        "astId": 5258,
        "contract": "contracts/core/defi/butter/ButterBatchProcessing.sol:ButterBatchProcessing",
        "label": "redeemThreshold",
        "offset": 0,
        "slot": "15",
        "type": "t_uint256"
      }
    ],
    "types": {
      "t_address": {
        "encoding": "inplace",
        "label": "address",
        "numberOfBytes": "20"
      },
      "t_array(t_bytes32)dyn_storage": {
        "base": "t_bytes32",
        "encoding": "dynamic_array",
        "label": "bytes32[]",
        "numberOfBytes": "32"
      },
      "t_bool": {
        "encoding": "inplace",
        "label": "bool",
        "numberOfBytes": "1"
      },
      "t_bytes32": {
        "encoding": "inplace",
        "label": "bytes32",
        "numberOfBytes": "32"
      },
      "t_contract(BasicIssuanceModule)9360": {
        "encoding": "inplace",
        "label": "contract BasicIssuanceModule",
        "numberOfBytes": "20"
      },
      "t_contract(CurveMetapool)9480": {
        "encoding": "inplace",
        "label": "contract CurveMetapool",
        "numberOfBytes": "20"
      },
      "t_contract(IContractRegistry)7742": {
        "encoding": "inplace",
        "label": "contract IContractRegistry",
        "numberOfBytes": "20"
      },
      "t_contract(IERC20)860": {
        "encoding": "inplace",
        "label": "contract IERC20",
        "numberOfBytes": "20"
      },
      "t_contract(ISetToken)9740": {
        "encoding": "inplace",
        "label": "contract ISetToken",
        "numberOfBytes": "20"
      },
      "t_enum(BatchType)5179": {
        "encoding": "inplace",
        "label": "enum ButterBatchProcessing.BatchType",
        "numberOfBytes": "1"
      },
      "t_mapping(t_address,t_array(t_bytes32)dyn_storage)": {
        "encoding": "mapping",
        "key": "t_address",
        "label": "mapping(address => bytes32[])",
        "numberOfBytes": "32",
        "value": "t_array(t_bytes32)dyn_storage"
      },
      "t_mapping(t_address,t_struct(CurvePoolTokenPair)5186_storage)": {
        "encoding": "mapping",
        "key": "t_address",
        "label": "mapping(address => struct ButterBatchProcessing.CurvePoolTokenPair)",
        "numberOfBytes": "32",
        "value": "t_struct(CurvePoolTokenPair)5186_storage"
      },
      "t_mapping(t_address,t_uint256)": {
        "encoding": "mapping",
        "key": "t_address",
        "label": "mapping(address => uint256)",
        "numberOfBytes": "32",
        "value": "t_uint256"
      },
      "t_mapping(t_bytes32,t_mapping(t_address,t_uint256))": {
        "encoding": "mapping",
        "key": "t_bytes32",
        "label": "mapping(bytes32 => mapping(address => uint256))",
        "numberOfBytes": "32",
        "value": "t_mapping(t_address,t_uint256)"
      },
      "t_mapping(t_bytes32,t_struct(Batch)5204_storage)": {
        "encoding": "mapping",
        "key": "t_bytes32",
        "label": "mapping(bytes32 => struct ButterBatchProcessing.Batch)",
        "numberOfBytes": "32",
        "value": "t_struct(Batch)5204_storage"
      },
      "t_struct(Batch)5204_storage": {
        "encoding": "inplace",
        "label": "struct ButterBatchProcessing.Batch",
        "members": [
          {
            "astId": 5189,
            "contract": "contracts/core/defi/butter/ButterBatchProcessing.sol:ButterBatchProcessing",
            "label": "batchType",
            "offset": 0,
            "slot": "0",
            "type": "t_enum(BatchType)5179"
          },
          {
            "astId": 5191,
            "contract": "contracts/core/defi/butter/ButterBatchProcessing.sol:ButterBatchProcessing",
            "label": "batchId",
            "offset": 0,
            "slot": "1",
            "type": "t_bytes32"
          },
          {
            "astId": 5193,
            "contract": "contracts/core/defi/butter/ButterBatchProcessing.sol:ButterBatchProcessing",
            "label": "claimable",
            "offset": 0,
            "slot": "2",
            "type": "t_bool"
          },
          {
            "astId": 5195,
            "contract": "contracts/core/defi/butter/ButterBatchProcessing.sol:ButterBatchProcessing",
            "label": "unclaimedShares",
            "offset": 0,
            "slot": "3",
            "type": "t_uint256"
          },
          {
            "astId": 5197,
            "contract": "contracts/core/defi/butter/ButterBatchProcessing.sol:ButterBatchProcessing",
            "label": "suppliedTokenBalance",
            "offset": 0,
            "slot": "4",
            "type": "t_uint256"
          },
          {
            "astId": 5199,
            "contract": "contracts/core/defi/butter/ButterBatchProcessing.sol:ButterBatchProcessing",
            "label": "claimableTokenBalance",
            "offset": 0,
            "slot": "5",
            "type": "t_uint256"
          },
          {
            "astId": 5201,
            "contract": "contracts/core/defi/butter/ButterBatchProcessing.sol:ButterBatchProcessing",
            "label": "suppliedTokenAddress",
            "offset": 0,
            "slot": "6",
            "type": "t_address"
          },
          {
            "astId": 5203,
            "contract": "contracts/core/defi/butter/ButterBatchProcessing.sol:ButterBatchProcessing",
            "label": "claimableTokenAddress",
            "offset": 0,
            "slot": "7",
            "type": "t_address"
          }
        ],
        "numberOfBytes": "256"
      },
      "t_struct(CurvePoolTokenPair)5186_storage": {
        "encoding": "inplace",
        "label": "struct ButterBatchProcessing.CurvePoolTokenPair",
        "members": [
          {
            "astId": 5182,
            "contract": "contracts/core/defi/butter/ButterBatchProcessing.sol:ButterBatchProcessing",
            "label": "curveMetaPool",
            "offset": 0,
            "slot": "0",
            "type": "t_contract(CurveMetapool)9480"
          },
          {
            "astId": 5185,
            "contract": "contracts/core/defi/butter/ButterBatchProcessing.sol:ButterBatchProcessing",
            "label": "crvLPToken",
            "offset": 0,
            "slot": "1",
            "type": "t_contract(IERC20)860"
          }
        ],
        "numberOfBytes": "64"
      },
      "t_uint256": {
        "encoding": "inplace",
        "label": "uint256",
        "numberOfBytes": "32"
      }
    }
  }
}