{
  "address": "0x49fd2BE640DB2910c2fAb69bB8531Ab6E76127ff",
  "abi": [
    {
      "inputs": [
        {
          "internalType": "contract IContractRegistry",
          "name": "_contractRegistry",
          "type": "address"
        },
        {
          "internalType": "contract Curve3Pool",
          "name": "_curve3Pool",
          "type": "address"
        },
        {
          "internalType": "contract IERC20",
          "name": "_threeCrv",
          "type": "address"
        }
      ],
      "stateMutability": "nonpayable",
      "type": "constructor"
    },
    {
      "anonymous": false,
      "inputs": [
        {
          "indexed": false,
          "internalType": "bytes32",
          "name": "batchId",
          "type": "bytes32"
        },
        {
          "indexed": false,
          "internalType": "uint8",
          "name": "stableCoinIndex",
          "type": "uint8"
        },
        {
          "indexed": false,
          "internalType": "uint256",
          "name": "threeCurveAmount",
          "type": "uint256"
        },
        {
          "indexed": false,
          "internalType": "uint256",
          "name": "stableCoinAmount",
          "type": "uint256"
        },
        {
          "indexed": false,
          "internalType": "address",
          "name": "account",
          "type": "address"
        }
      ],
      "name": "ClaimedIntoStable",
      "type": "event"
    },
    {
      "anonymous": false,
      "inputs": [
        {
          "indexed": false,
          "internalType": "uint256",
          "name": "threeCurveAmount",
          "type": "uint256"
        },
        {
          "indexed": false,
          "internalType": "address",
          "name": "account",
          "type": "address"
        }
      ],
      "name": "ZappedIntoBatch",
      "type": "event"
    },
    {
      "anonymous": false,
      "inputs": [
        {
          "indexed": false,
          "internalType": "bytes32",
          "name": "batchId",
          "type": "bytes32"
        },
        {
          "indexed": false,
          "internalType": "uint8",
          "name": "stableCoinIndex",
          "type": "uint8"
        },
        {
          "indexed": false,
          "internalType": "uint256",
          "name": "threeCurveAmount",
          "type": "uint256"
        },
        {
          "indexed": false,
          "internalType": "uint256",
          "name": "stableCoinAmount",
          "type": "uint256"
        },
        {
          "indexed": false,
          "internalType": "address",
          "name": "account",
          "type": "address"
        }
      ],
      "name": "ZappedOutOfBatch",
      "type": "event"
    },
    {
      "inputs": [
        {
          "internalType": "bytes32",
          "name": "_batchId",
          "type": "bytes32"
        },
        {
          "internalType": "uint8",
          "name": "_stableCoinIndex",
          "type": "uint8"
        },
        {
          "internalType": "uint256",
          "name": "_min_amount",
          "type": "uint256"
        }
      ],
      "name": "claimAndSwapToStable",
      "outputs": [],
      "stateMutability": "nonpayable",
      "type": "function"
    },
    {
      "inputs": [
        {
          "internalType": "uint256[3]",
          "name": "_amounts",
          "type": "uint256[3]"
        },
        {
          "internalType": "uint256",
          "name": "_min_mint_amounts",
          "type": "uint256"
        }
      ],
      "name": "zapIntoBatch",
      "outputs": [],
      "stateMutability": "nonpayable",
      "type": "function"
    },
    {
      "inputs": [
        {
          "internalType": "bytes32",
          "name": "_batchId",
          "type": "bytes32"
        },
        {
          "internalType": "uint256",
          "name": "_amountToWithdraw",
          "type": "uint256"
        },
        {
          "internalType": "uint8",
          "name": "_stableCoinIndex",
          "type": "uint8"
        },
        {
          "internalType": "uint256",
          "name": "_min_amount",
          "type": "uint256"
        }
      ],
      "name": "zapOutOfBatch",
      "outputs": [],
      "stateMutability": "nonpayable",
      "type": "function"
    }
  ],
  "transactionHash": "0x21c64dae5874eb0a444b1dcc6eced70c8e3f6ff6a8d9eee4b4ff19c80a7092a6",
  "args": [
    "0xB0D4afd8879eD9F52b28595d31B441D079B2Ca07",
    "0xbEbc44782C7dB0a1A60Cb6fe97d0b483032FF1C7",
    "0x6c3F90f043a72FA612cbac8115EE7e52BDe6E490"
  ],
  "solcInputHash": "435c7fae3c308f00ab9a88e61c0f3c7b",
  "bytecode": "0x608060405234801561001057600080fd5b50604051620013fc380380620013fc83398101604081905261003191610073565b600080546001600160a01b039485166001600160a01b0319918216179091556001805493851693821693909317909255600280549190931691161790556100d7565b600080600060608486031215610087578283fd5b8351610092816100bf565b60208501519093506100a3816100bf565b60408501519092506100b4816100bf565b809150509250925092565b6001600160a01b03811681146100d457600080fd5b50565b61131580620000e76000396000f3fe608060405234801561001057600080fd5b50600436106100415760003560e01c80636a1c241314610046578063bb03c5c21461005b578063ea2b15c51461006e575b600080fd5b610059610054366004610ecd565b610081565b005b610059610069366004610e2a565b6101d7565b61005961007c366004610f09565b61063d565b600054604051631c2d8fb360e31b81526001600160a01b039091169063e16c7d98906100d1907faa821177e27c4d8c5b6e0ea8808c02d26a94b8d2b70e222f4a392ed9113644bb906004016110bc565b60206040518083038186803b1580156100e957600080fd5b505afa1580156100fd573d6000803e3d6000fd5b505050506040513d601f19601f820116820180604052508101906101219190610e10565b6001600160a01b0316633af3bfb58585336040518463ffffffff1660e01b8152600401610150939291906110dc565b600060405180830381600087803b15801561016a57600080fd5b505af115801561017e573d6000803e3d6000fd5b50505050600061018f8484846108b1565b90507f488e809ec3972782422dc6e318706816f07653f88f15bfa0c345418d9892ad7e85848684336040516101c89594939291906110fb565b60405180910390a15050505050565b60008054604051631c2d8fb360e31b81526001600160a01b039091169063e16c7d9890610228907faa821177e27c4d8c5b6e0ea8808c02d26a94b8d2b70e222f4a392ed9113644bb906004016110bc565b60206040518083038186803b15801561024057600080fd5b505afa158015610254573d6000803e3d6000fd5b505050506040513d601f19601f820116820180604052508101906102789190610e10565b905060005b60038160ff161015610451576000848260ff16600381106102ae57634e487b7160e01b600052603260045260246000fd5b6020020151111561043f576103773330868460ff16600381106102e157634e487b7160e01b600052603260045260246000fd5b602002015160015460405163c661065760e01b81526001600160a01b039091169063c661065790610316908890600401611241565b60206040518083038186803b15801561032e57600080fd5b505afa158015610342573d6000803e3d6000fd5b505050506040513d601f19601f820116820180604052508101906103669190610e10565b6001600160a01b0316929190610af3565b60015461043f906001600160a01b03168560ff8416600381106103aa57634e487b7160e01b600052603260045260246000fd5b602002015160015460405163c661065760e01b81526001600160a01b039091169063c6610657906103df908790600401611241565b60206040518083038186803b1580156103f757600080fd5b505afa15801561040b573d6000803e3d6000fd5b505050506040513d601f19601f8201168201806040525081019061042f9190610e10565b6001600160a01b03169190610b7e565b8061044981611293565b91505061027d565b506001546040517f4515cef30000000000000000000000000000000000000000000000000000000081526001600160a01b0390911690634515cef39061049d9086908690600401611084565b600060405180830381600087803b1580156104b757600080fd5b505af11580156104cb573d6000803e3d6000fd5b50506002546040517f70a08231000000000000000000000000000000000000000000000000000000008152600093506001600160a01b0390911691506370a082319061051b903090600401611019565b60206040518083038186803b15801561053357600080fd5b505afa158015610547573d6000803e3d6000fd5b505050506040513d601f19601f8201168201806040525081019061056b9190610fe5565b600254909150610585906001600160a01b03168383610b7e565b6040517f961b7d860000000000000000000000000000000000000000000000000000000081526001600160a01b0383169063961b7d86906105cc90849033906004016110c5565b600060405180830381600087803b1580156105e657600080fd5b505af11580156105fa573d6000803e3d6000fd5b505050507fa59c8e0fff5360b5d65a99cba38825db122305108affae79287f0029d5b4b6e3813360405161062f9291906110c5565b60405180910390a150505050565b60008054604051631c2d8fb360e31b81526001600160a01b039091169063e16c7d989061068e907faa821177e27c4d8c5b6e0ea8808c02d26a94b8d2b70e222f4a392ed9113644bb906004016110bc565b60206040518083038186803b1580156106a657600080fd5b505afa1580156106ba573d6000803e3d6000fd5b505050506040513d601f19601f820116820180604052508101906106de9190610e10565b905060016040517fc81e25ab0000000000000000000000000000000000000000000000000000000081526001600160a01b0383169063c81e25ab906107279088906004016110bc565b6101006040518083038186803b15801561074057600080fd5b505afa158015610754573d6000803e3d6000fd5b505050506040513d601f19601f820116820180604052508101906107789190610f3d565b51600181111561079857634e487b7160e01b600052602160045260246000fd5b146107be5760405162461bcd60e51b81526004016107b59061115d565b60405180910390fd5b6040517f96c144f00000000000000000000000000000000000000000000000000000000081526000906001600160a01b038316906396c144f09061080890889033906004016110c5565b602060405180830381600087803b15801561082257600080fd5b505af1158015610836573d6000803e3d6000fd5b505050506040513d601f19601f8201168201806040525081019061085a9190610fe5565b905060006108698286866108b1565b90507e4f8bcfa3280478204e9c5d36884938428f1ab9462917d29faed37570b5978b86868484336040516108a19594939291906110fb565b60405180910390a1505050505050565b6001546002546000916108d1916001600160a01b03908116911686610b7e565b6001546040517f1a4d01d20000000000000000000000000000000000000000000000000000000081526001600160a01b0390911690631a4d01d29061091e90879087908790600401611228565b600060405180830381600087803b15801561093857600080fd5b505af115801561094c573d6000803e3d6000fd5b505060015460405163c661065760e01b8152600093506001600160a01b03909116915063c661065790610983908790600401611241565b60206040518083038186803b15801561099b57600080fd5b505afa1580156109af573d6000803e3d6000fd5b505050506040513d601f19601f820116820180604052508101906109d39190610e10565b6001600160a01b03166370a08231306040518263ffffffff1660e01b81526004016109fe9190611019565b60206040518083038186803b158015610a1657600080fd5b505afa158015610a2a573d6000803e3d6000fd5b505050506040513d601f19601f82011682018060405250810190610a4e9190610fe5565b60015460405163c661065760e01b8152919250610ae991339184916001600160a01b039091169063c661065790610a89908a90600401611241565b60206040518083038186803b158015610aa157600080fd5b505afa158015610ab5573d6000803e3d6000fd5b505050506040513d601f19601f82011682018060405250810190610ad99190610e10565b6001600160a01b03169190610c2a565b90505b9392505050565b610b78846323b872dd60e01b858585604051602401610b1493929190611047565b60408051601f198184030181529190526020810180517bffffffffffffffffffffffffffffffffffffffffffffffffffffffff167fffffffff0000000000000000000000000000000000000000000000000000000090931692909217909152610c4e565b50505050565b600081846001600160a01b031663dd62ed3e30866040518363ffffffff1660e01b8152600401610baf92919061102d565b60206040518083038186803b158015610bc757600080fd5b505afa158015610bdb573d6000803e3d6000fd5b505050506040513d601f19601f82011682018060405250810190610bff9190610fe5565b610c09919061124f565b9050610b788463095ea7b360e01b8584604051602401610b1492919061106b565b610c498363a9059cbb60e01b8484604051602401610b1492919061106b565b505050565b6000610ca3826040518060400160405280602081526020017f5361666545524332303a206c6f772d6c6576656c2063616c6c206661696c6564815250856001600160a01b0316610cdd9092919063ffffffff16565b805190915015610c495780806020019051810190610cc19190610eb3565b610c495760405162461bcd60e51b81526004016107b5906111cb565b6060610ae9848460008585610cf185610d86565b610d0d5760405162461bcd60e51b81526004016107b590611194565b600080866001600160a01b03168587604051610d299190610ffd565b60006040518083038185875af1925050503d8060008114610d66576040519150601f19603f3d011682016040523d82523d6000602084013e610d6b565b606091505b5091509150610d7b828286610d90565b979650505050505050565b803b15155b919050565b60608315610d9f575081610aec565b825115610daf5782518084602001fd5b8160405162461bcd60e51b81526004016107b5919061112a565b80516001600160a01b0381168114610d8b57600080fd5b80518015158114610d8b57600080fd5b805160028110610d8b57600080fd5b803560ff81168114610d8b57600080fd5b600060208284031215610e21578081fd5b610aec82610dc9565b60008060808385031215610e3c578081fd5b83601f840112610e4a578081fd5b6040516060810181811067ffffffffffffffff82111715610e6d57610e6d6112c9565b60405280846060810187811115610e82578485fd5b845b6003811015610ea3578235845260209384019390920191600101610e84565b5092979235965091945050505050565b600060208284031215610ec4578081fd5b610aec82610de0565b60008060008060808587031215610ee2578182fd5b8435935060208501359250610ef960408601610dff565b9396929550929360600135925050565b600080600060608486031215610f1d578283fd5b83359250610f2d60208501610dff565b9150604084013590509250925092565b6000610100808385031215610f50578182fd5b6040519081019067ffffffffffffffff82118183101715610f7357610f736112c9565b81604052610f8084610df0565b815260208401516020820152610f9860408501610de0565b6040820152606084015160608201526080840151608082015260a084015160a0820152610fc760c08501610dc9565b60c0820152610fd860e08501610dc9565b60e0820152949350505050565b600060208284031215610ff6578081fd5b5051919050565b6000825161100f818460208701611267565b9190910192915050565b6001600160a01b0391909116815260200190565b6001600160a01b0392831681529116602082015260400190565b6001600160a01b039384168152919092166020820152604081019190915260600190565b6001600160a01b03929092168252602082015260400190565b60808101818460005b60038110156110ac57815183526020928301929091019060010161108d565b5050508260608301529392505050565b90815260200190565b9182526001600160a01b0316602082015260400190565b92835260208301919091526001600160a01b0316604082015260600190565b94855260ff939093166020850152604084019190915260608301526001600160a01b0316608082015260a00190565b6000602082528251806020840152611149816040850160208701611267565b601f01601f19169190910160400192915050565b60208082526014908201527f6e6565647320746f2072657475726e2033637276000000000000000000000000604082015260600190565b6020808252601d908201527f416464726573733a2063616c6c20746f206e6f6e2d636f6e7472616374000000604082015260600190565b6020808252602a908201527f5361666545524332303a204552433230206f7065726174696f6e20646964206e60408201527f6f74207375636365656400000000000000000000000000000000000000000000606082015260800190565b92835260ff919091166020830152604082015260600190565b60ff91909116815260200190565b60008219821115611262576112626112b3565b500190565b60005b8381101561128257818101518382015260200161126a565b83811115610b785750506000910152565b600060ff821660ff8114156112aa576112aa6112b3565b60010192915050565b634e487b7160e01b600052601160045260246000fd5b634e487b7160e01b600052604160045260246000fdfea26469706673582212206e3ef31f9c919606384dfb488e1213a07c142cb513003209b87216e287eae21d64736f6c63430008000033",
  "devdoc": {
    "kind": "dev",
    "methods": {
      "claimAndSwapToStable(bytes32,uint8,uint256)": {
        "details": "The _stableCoinIndex must align with the index in the curve three-pool",
        "params": {
          "_batchId": "Defines which batch gets withdrawn from",
          "_min_amount": "The min amount of stables which should be returned by the curve three-pool (slippage control)",
          "_stableCoinIndex": "Defines which stablecoin the user wants to receive"
        }
      },
      "zapIntoBatch(uint256[3],uint256)": {
        "details": "The amounts in _amounts must align with their index in the curve three-pool",
        "params": {
          "_amounts": "An array of amounts in stablecoins the user wants to deposit",
          "_min_mint_amounts": "The min amount of 3CRV which should be minted by the curve three-pool (slippage control)"
        }
      },
      "zapOutOfBatch(bytes32,uint256,uint8,uint256)": {
        "details": "The _stableCoinIndex must align with the index in the curve three-pool",
        "params": {
          "_amountToWithdraw": "3CRV amount that shall be withdrawn",
          "_batchId": "Defines which batch gets withdrawn from",
          "_min_amount": "The min amount of stables which should be returned by the curve three-pool (slippage control)",
          "_stableCoinIndex": "Defines which stablecoin the user wants to receive"
        }
      }
    },
    "version": 1
  },
  "userdoc": {
    "kind": "user",
    "methods": {
      "claimAndSwapToStable(bytes32,uint8,uint256)": {
        "notice": "claimAndSwapToStable allows a user to claim their processed 3CRV from a redeemBatch and directly receive stablecoins"
      },
      "zapIntoBatch(uint256[3],uint256)": {
        "notice": "zapIntoBatch allows a user to deposit into a mintBatch directly with stablecoins"
      },
      "zapOutOfBatch(bytes32,uint256,uint8,uint256)": {
        "notice": "zapOutOfBatch allows a user to retrieve their not yet processed 3CRV and directly receive stablecoins"
      }
    },
    "version": 1
  },
  "storageLayout": {
    "storage": [
      {
        "astId": 4673,
        "contract": "contracts/core/defi/butter/HysiBatchZapper.sol:HysiBatchZapper",
        "label": "contractRegistry",
        "offset": 0,
        "slot": "0",
        "type": "t_contract(IContractRegistry)5152"
      },
      {
        "astId": 4676,
        "contract": "contracts/core/defi/butter/HysiBatchZapper.sol:HysiBatchZapper",
        "label": "curve3Pool",
        "offset": 0,
        "slot": "1",
        "type": "t_contract(Curve3Pool)7920"
      },
      {
        "astId": 4679,
        "contract": "contracts/core/defi/butter/HysiBatchZapper.sol:HysiBatchZapper",
        "label": "threeCrv",
        "offset": 0,
        "slot": "2",
        "type": "t_contract(IERC20)859"
      }
    ],
    "types": {
      "t_contract(Curve3Pool)7920": {
        "encoding": "inplace",
        "label": "contract Curve3Pool",
        "numberOfBytes": "20"
      },
      "t_contract(IContractRegistry)5152": {
        "encoding": "inplace",
        "label": "contract IContractRegistry",
        "numberOfBytes": "20"
      },
      "t_contract(IERC20)859": {
        "encoding": "inplace",
        "label": "contract IERC20",
        "numberOfBytes": "20"
      }
    }
  }
}