{
  "address": "0xCf7Ed3AccA5a467e9e704C703E8D87F634fB0Fc9",
  "abi": [
    {
      "inputs": [
        {
          "internalType": "contract IACLRegistry",
          "name": "_aclRegistry",
          "type": "address"
        }
      ],
      "stateMutability": "nonpayable",
      "type": "constructor"
    },
    {
      "anonymous": false,
      "inputs": [
        {
          "indexed": false,
          "internalType": "bytes32",
          "name": "_name",
          "type": "bytes32"
        },
        {
          "indexed": false,
          "internalType": "address",
          "name": "_address",
          "type": "address"
        },
        {
          "indexed": false,
          "internalType": "bytes32",
          "name": "_version",
          "type": "bytes32"
        }
      ],
      "name": "ContractAdded",
      "type": "event"
    },
    {
      "anonymous": false,
      "inputs": [
        {
          "indexed": false,
          "internalType": "bytes32",
          "name": "_name",
          "type": "bytes32"
        }
      ],
      "name": "ContractDeleted",
      "type": "event"
    },
    {
      "anonymous": false,
      "inputs": [
        {
          "indexed": false,
          "internalType": "bytes32",
          "name": "_name",
          "type": "bytes32"
        },
        {
          "indexed": false,
          "internalType": "address",
          "name": "_address",
          "type": "address"
        },
        {
          "indexed": false,
          "internalType": "bytes32",
          "name": "_version",
          "type": "bytes32"
        }
      ],
      "name": "ContractUpdated",
      "type": "event"
    },
    {
      "inputs": [],
      "name": "aclRegistry",
      "outputs": [
        {
          "internalType": "contract IACLRegistry",
          "name": "",
          "type": "address"
        }
      ],
      "stateMutability": "view",
      "type": "function"
    },
    {
      "inputs": [
        {
          "internalType": "bytes32",
          "name": "_name",
          "type": "bytes32"
        },
        {
          "internalType": "address",
          "name": "_address",
          "type": "address"
        },
        {
          "internalType": "bytes32",
          "name": "_version",
          "type": "bytes32"
        }
      ],
      "name": "addContract",
      "outputs": [],
      "stateMutability": "nonpayable",
      "type": "function"
    },
    {
      "inputs": [
        {
          "internalType": "uint256",
          "name": "",
          "type": "uint256"
        }
      ],
      "name": "contractNames",
      "outputs": [
        {
          "internalType": "bytes32",
          "name": "",
          "type": "bytes32"
        }
      ],
      "stateMutability": "view",
      "type": "function"
    },
    {
      "inputs": [
        {
          "internalType": "bytes32",
          "name": "",
          "type": "bytes32"
        }
      ],
      "name": "contracts",
      "outputs": [
        {
          "internalType": "address",
          "name": "contractAddress",
          "type": "address"
        },
        {
          "internalType": "bytes32",
          "name": "version",
          "type": "bytes32"
        }
      ],
      "stateMutability": "view",
      "type": "function"
    },
    {
      "inputs": [
        {
          "internalType": "bytes32",
          "name": "_name",
          "type": "bytes32"
        },
        {
          "internalType": "uint256",
          "name": "_contractIndex",
          "type": "uint256"
        }
      ],
      "name": "deleteContract",
      "outputs": [],
      "stateMutability": "nonpayable",
      "type": "function"
    },
    {
      "inputs": [
        {
          "internalType": "bytes32",
          "name": "_name",
          "type": "bytes32"
        }
      ],
      "name": "getContract",
      "outputs": [
        {
          "internalType": "address",
          "name": "",
          "type": "address"
        }
      ],
      "stateMutability": "view",
      "type": "function"
    },
    {
      "inputs": [],
      "name": "getContractNames",
      "outputs": [
        {
          "internalType": "bytes32[]",
          "name": "",
          "type": "bytes32[]"
        }
      ],
      "stateMutability": "view",
      "type": "function"
    },
    {
      "inputs": [
        {
          "internalType": "bytes32",
          "name": "_name",
          "type": "bytes32"
        },
        {
          "internalType": "address",
          "name": "_newAddress",
          "type": "address"
        },
        {
          "internalType": "bytes32",
          "name": "_version",
          "type": "bytes32"
        }
      ],
      "name": "updateContract",
      "outputs": [],
      "stateMutability": "nonpayable",
      "type": "function"
    }
  ],
  "transactionHash": "0x0cf235275701a89b20889fa341292656da42757621a6c45b961857804697819c",
  "args": [
    "0x5FbDB2315678afecb367f032d93F642f64180aa3"
  ],
  "solcInputHash": "cff9755d675a92b6241a8763a64b5de3",
  "bytecode": "0x608060405234801561001057600080fd5b50604051610a19380380610a1983398101604081905261002f91610138565b600080546001600160a01b039283166001600160a01b031991821681178355604080518082019091529081527fc89efdaa54c0f20c7adf612882df0950f5a951637e0307cdcb4c672f298b8bc660208083019182527f15fa0125f52e5705da1148bfcf00974823c4381bee4314203ede255f9477b73e80865260019182905292517f7361e8ccf7a27163a98e050d746a5c73d23616ea599eb9af9e4a86e96a9dfc0880549190971694169390931790945592517f7361e8ccf7a27163a98e050d746a5c73d23616ea599eb9af9e4a86e96a9dfc09556002805491820181559091527f405787fa12a823e0f2b7631cc41b3ba8828b3321ca811111fa75cd3aa3bb5ace0155610166565b600060208284031215610149578081fd5b81516001600160a01b038116811461015f578182fd5b9392505050565b6108a4806101756000396000f3fe608060405234801561001057600080fd5b50600436106100885760003560e01c8063d5a161091161005b578063d5a16109146100f5578063e16c7d9814610108578063ec56a3731461011b578063fe3c458e1461013c57610088565b806334d40a8f1461008d57806337df1e9d146100a25780633ca6bb92146100c05780639160380e146100e0575b600080fd5b6100a061009b366004610690565b61014f565b005b6100aa6102a4565b6040516100b79190610720565b60405180910390f35b6100d36100ce366004610678565b6102fc565b6040516100b79190610764565b6100e861031d565b6040516100b791906106f3565b6100a06101033660046106d2565b61032c565b6100e8610116366004610678565b6104c7565b61012e610129366004610678565b6104e2565b6040516100b7929190610707565b6100a061014a366004610690565b610507565b60005460405163d09a20c560e01b81526001600160a01b039091169063d09a20c5906101a1907fd0a4ad96d49edb1c33461cebc6fb2609190f32c904e3c3f5877edb4488dee91e90339060040161076d565b60006040518083038186803b1580156101b957600080fd5b505afa1580156101cd573d6000803e3d6000fd5b5050506000848152600160205260409020546001600160a01b0316151590506102115760405162461bcd60e51b8152600401610208906107da565b60405180910390fd5b6040805180820182526001600160a01b038481168252602080830185815260008881526001928390528590209351845473ffffffffffffffffffffffffffffffffffffffff191693169290921783559051910155517fb69768dcac5758cdbac4aa0c3113c765359474832ce059d53f5e799e0922db6f9061029790859085908590610784565b60405180910390a1505050565b606060028054806020026020016040519081016040528092919081815260200182805480156102f257602002820191906000526020600020905b8154815260200190600101908083116102de575b5050505050905090565b6002818154811061030c57600080fd5b600091825260209091200154905081565b6000546001600160a01b031681565b60005460405163d09a20c560e01b81526001600160a01b039091169063d09a20c59061037e907fd0a4ad96d49edb1c33461cebc6fb2609190f32c904e3c3f5877edb4488dee91e90339060040161076d565b60006040518083038186803b15801561039657600080fd5b505afa1580156103aa573d6000803e3d6000fd5b5050506000838152600160205260409020546001600160a01b0316151590506103e55760405162461bcd60e51b8152600401610208906107da565b816002828154811061040757634e487b7160e01b600052603260045260246000fd5b90600052602060002001541461042f5760405162461bcd60e51b815260040161020890610811565b60008281526001602081905260408220805473ffffffffffffffffffffffffffffffffffffffff191681550155600280548290811061047e57634e487b7160e01b600052603260045260246000fd5b90600052602060002001600090557ffcb9b89d9fdad6183290641024092e3a078212303eda7df8d64648902cd7600b826040516104bb9190610764565b60405180910390a15050565b6000908152600160205260409020546001600160a01b031690565b600160208190526000918252604090912080549101546001600160a01b039091169082565b60005460405163d09a20c560e01b81526001600160a01b039091169063d09a20c590610559907fd0a4ad96d49edb1c33461cebc6fb2609190f32c904e3c3f5877edb4488dee91e90339060040161076d565b60006040518083038186803b15801561057157600080fd5b505afa158015610585573d6000803e3d6000fd5b5050506000848152600160205260409020546001600160a01b03161590506105bf5760405162461bcd60e51b8152600401610208906107a3565b6040805180820182526001600160a01b038481168252602080830185815260008881526001928390528581209451855473ffffffffffffffffffffffffffffffffffffffff19169416939093178455519281019290925560028054928301815590527f405787fa12a823e0f2b7631cc41b3ba8828b3321ca811111fa75cd3aa3bb5ace01849055517f41f0868602f01af184ca25746dd5d2fff355679ad1861385cf8bd3f6d3da8a579061029790859085908590610784565b600060208284031215610689578081fd5b5035919050565b6000806000606084860312156106a4578182fd5b8335925060208401356001600160a01b03811681146106c1578283fd5b929592945050506040919091013590565b600080604083850312156106e4578182fd5b50508035926020909101359150565b6001600160a01b0391909116815260200190565b6001600160a01b03929092168252602082015260400190565b6020808252825182820181905260009190848201906040850190845b818110156107585783518352928401929184019160010161073c565b50909695505050505050565b90815260200190565b9182526001600160a01b0316602082015260400190565b9283526001600160a01b03919091166020830152604082015260600190565b60208082526017908201527f636f6e747261637420616c726561647920657869737473000000000000000000604082015260600190565b60208082526015908201527f636f6e747261637420646f65736e742065786973740000000000000000000000604082015260600190565b6020808252602c908201527f74686973206973206e6f742074686520636f6e747261637420796f752061726560408201527f206c6f6f6b696e6720666f72000000000000000000000000000000000000000060608201526080019056fea2646970667358221220f2460ad83bbe5bdf81ca7657053d185584ba1b8fd4f40295e0b72fe92af6843b64736f6c63430008000033",
  "devdoc": {
    "details": "This Contract holds reference to all our contracts. Every contract A that needs to interact with another contract B calls this contract to ask for the address of B. This allows us to update addresses in one central point and reduces constructing and management overhead.",
    "kind": "dev",
    "methods": {},
    "version": 1
  },
  "userdoc": {
    "kind": "user",
    "methods": {},
    "version": 1
  },
  "storageLayout": {
    "storage": [
      {
        "astId": 600,
        "contract": "contracts/core/utils/ContractRegistry.sol:ContractRegistry",
        "label": "aclRegistry",
        "offset": 0,
        "slot": "0",
        "type": "t_contract(IACLRegistry)127"
      },
      {
        "astId": 605,
        "contract": "contracts/core/utils/ContractRegistry.sol:ContractRegistry",
        "label": "contracts",
        "offset": 0,
        "slot": "1",
        "type": "t_mapping(t_bytes32,t_struct(Contract)597_storage)"
      },
      {
        "astId": 608,
        "contract": "contracts/core/utils/ContractRegistry.sol:ContractRegistry",
        "label": "contractNames",
        "offset": 0,
        "slot": "2",
        "type": "t_array(t_bytes32)dyn_storage"
      }
    ],
    "types": {
      "t_address": {
        "encoding": "inplace",
        "label": "address",
        "numberOfBytes": "20"
      },
      "t_array(t_bytes32)dyn_storage": {
        "base": "t_bytes32",
        "encoding": "dynamic_array",
        "label": "bytes32[]",
        "numberOfBytes": "32"
      },
      "t_bytes32": {
        "encoding": "inplace",
        "label": "bytes32",
        "numberOfBytes": "32"
      },
      "t_contract(IACLRegistry)127": {
        "encoding": "inplace",
        "label": "contract IACLRegistry",
        "numberOfBytes": "20"
      },
      "t_mapping(t_bytes32,t_struct(Contract)597_storage)": {
        "encoding": "mapping",
        "key": "t_bytes32",
        "label": "mapping(bytes32 => struct ContractRegistry.Contract)",
        "numberOfBytes": "32",
        "value": "t_struct(Contract)597_storage"
      },
      "t_struct(Contract)597_storage": {
        "encoding": "inplace",
        "label": "struct ContractRegistry.Contract",
        "members": [
          {
            "astId": 594,
            "contract": "contracts/core/utils/ContractRegistry.sol:ContractRegistry",
            "label": "contractAddress",
            "offset": 0,
            "slot": "0",
            "type": "t_address"
          },
          {
            "astId": 596,
            "contract": "contracts/core/utils/ContractRegistry.sol:ContractRegistry",
            "label": "version",
            "offset": 0,
            "slot": "1",
            "type": "t_bytes32"
          }
        ],
        "numberOfBytes": "64"
      }
    }
  }
}