{
  "address": "0x4631BCAbD6dF18D94796344963cB60d44a4136b6",
  "abi": [
    {
      "inputs": [
        {
          "internalType": "contract IContractRegistry",
          "name": "_contractRegistry",
          "type": "address"
        },
        {
          "internalType": "uint256",
          "name": "_burnRate",
          "type": "uint256"
        },
        {
          "internalType": "uint256",
          "name": "_requiredKeeperStake",
          "type": "uint256"
        }
      ],
      "stateMutability": "nonpayable",
      "type": "constructor"
    },
    {
      "anonymous": false,
      "inputs": [
        {
          "indexed": false,
          "internalType": "bytes32",
          "name": "contractName",
          "type": "bytes32"
        },
        {
          "indexed": false,
          "internalType": "bool",
          "name": "openToEveryone",
          "type": "bool"
        }
      ],
      "name": "ApprovalToggled",
      "type": "event"
    },
    {
      "anonymous": false,
      "inputs": [
        {
          "indexed": false,
          "internalType": "uint256",
          "name": "oldRate",
          "type": "uint256"
        },
        {
          "indexed": false,
          "internalType": "uint256",
          "name": "newRate",
          "type": "uint256"
        }
      ],
      "name": "BurnRateChanged",
      "type": "event"
    },
    {
      "anonymous": false,
      "inputs": [
        {
          "indexed": false,
          "internalType": "uint256",
          "name": "amount",
          "type": "uint256"
        }
      ],
      "name": "Burned",
      "type": "event"
    },
    {
      "anonymous": false,
      "inputs": [
        {
          "indexed": false,
          "internalType": "bytes32",
          "name": "contractName",
          "type": "bytes32"
        },
        {
          "indexed": false,
          "internalType": "address",
          "name": "contractAddress",
          "type": "address"
        }
      ],
      "name": "ControllerContractAdded",
      "type": "event"
    },
    {
      "anonymous": false,
      "inputs": [
        {
          "indexed": false,
          "internalType": "bytes32",
          "name": "contractName",
          "type": "bytes32"
        },
        {
          "indexed": false,
          "internalType": "uint256",
          "name": "oldReward",
          "type": "uint256"
        },
        {
          "indexed": false,
          "internalType": "uint256",
          "name": "newReward",
          "type": "uint256"
        },
        {
          "indexed": false,
          "internalType": "bool",
          "name": "oldOpenToEveryone",
          "type": "bool"
        },
        {
          "indexed": false,
          "internalType": "bool",
          "name": "newOpenToEveryone",
          "type": "bool"
        }
      ],
      "name": "IncentiveChanged",
      "type": "event"
    },
    {
      "anonymous": false,
      "inputs": [
        {
          "indexed": false,
          "internalType": "bytes32",
          "name": "contractName",
          "type": "bytes32"
        },
        {
          "indexed": false,
          "internalType": "uint256",
          "name": "reward",
          "type": "uint256"
        },
        {
          "indexed": false,
          "internalType": "bool",
          "name": "openToEveryone",
          "type": "bool"
        }
      ],
      "name": "IncentiveCreated",
      "type": "event"
    },
    {
      "anonymous": false,
      "inputs": [
        {
          "indexed": false,
          "internalType": "uint256",
          "name": "amount",
          "type": "uint256"
        }
      ],
      "name": "IncentiveFunded",
      "type": "event"
    },
    {
      "anonymous": false,
      "inputs": [
        {
          "indexed": false,
          "internalType": "bytes32",
          "name": "contractName",
          "type": "bytes32"
        },
        {
          "indexed": false,
          "internalType": "bool",
          "name": "enabled",
          "type": "bool"
        }
      ],
      "name": "IncentiveToggled",
      "type": "event"
    },
    {
      "anonymous": false,
      "inputs": [
        {
          "indexed": false,
          "internalType": "uint256",
          "name": "oldRequirement",
          "type": "uint256"
        },
        {
          "indexed": false,
          "internalType": "uint256",
          "name": "newRequirement",
          "type": "uint256"
        }
      ],
      "name": "RequiredKeeperStakeChanged",
      "type": "event"
    },
    {
      "inputs": [
        {
          "internalType": "bytes32",
          "name": "_contractName",
          "type": "bytes32"
        },
        {
          "internalType": "address",
          "name": "contract_",
          "type": "address"
        }
      ],
      "name": "addControllerContract",
      "outputs": [],
      "stateMutability": "nonpayable",
      "type": "function"
    },
    {
      "inputs": [],
      "name": "burnRate",
      "outputs": [
        {
          "internalType": "uint256",
          "name": "",
          "type": "uint256"
        }
      ],
      "stateMutability": "view",
      "type": "function"
    },
    {
      "inputs": [],
      "name": "contractRegistry",
      "outputs": [
        {
          "internalType": "contract IContractRegistry",
          "name": "",
          "type": "address"
        }
      ],
      "stateMutability": "view",
      "type": "function"
    },
    {
      "inputs": [
        {
          "internalType": "bytes32",
          "name": "",
          "type": "bytes32"
        }
      ],
      "name": "controllerContracts",
      "outputs": [
        {
          "internalType": "address",
          "name": "",
          "type": "address"
        }
      ],
      "stateMutability": "view",
      "type": "function"
    },
    {
      "inputs": [
        {
          "internalType": "bytes32",
          "name": "_contractName",
          "type": "bytes32"
        },
        {
          "internalType": "uint256",
          "name": "_reward",
          "type": "uint256"
        },
        {
          "internalType": "bool",
          "name": "_enabled",
          "type": "bool"
        },
        {
          "internalType": "bool",
          "name": "_openToEveryone",
          "type": "bool"
        }
      ],
      "name": "createIncentive",
      "outputs": [],
      "stateMutability": "nonpayable",
      "type": "function"
    },
    {
      "inputs": [
        {
          "internalType": "uint256",
          "name": "_amount",
          "type": "uint256"
        }
      ],
      "name": "fundIncentive",
      "outputs": [],
      "stateMutability": "nonpayable",
      "type": "function"
    },
    {
      "inputs": [
        {
          "internalType": "bytes32",
          "name": "_contractName",
          "type": "bytes32"
        },
        {
          "internalType": "uint8",
          "name": "_i",
          "type": "uint8"
        },
        {
          "internalType": "address",
          "name": "_keeper",
          "type": "address"
        }
      ],
      "name": "handleKeeperIncentive",
      "outputs": [],
      "stateMutability": "nonpayable",
      "type": "function"
    },
    {
      "inputs": [],
      "name": "incentiveBudget",
      "outputs": [
        {
          "internalType": "uint256",
          "name": "",
          "type": "uint256"
        }
      ],
      "stateMutability": "view",
      "type": "function"
    },
    {
      "inputs": [
        {
          "internalType": "bytes32",
          "name": "",
          "type": "bytes32"
        },
        {
          "internalType": "uint256",
          "name": "",
          "type": "uint256"
        }
      ],
      "name": "incentives",
      "outputs": [
        {
          "internalType": "uint256",
          "name": "reward",
          "type": "uint256"
        },
        {
          "internalType": "bool",
          "name": "enabled",
          "type": "bool"
        },
        {
          "internalType": "bool",
          "name": "openToEveryone",
          "type": "bool"
        }
      ],
      "stateMutability": "view",
      "type": "function"
    },
    {
      "inputs": [],
      "name": "requiredKeeperStake",
      "outputs": [
        {
          "internalType": "uint256",
          "name": "",
          "type": "uint256"
        }
      ],
      "stateMutability": "view",
      "type": "function"
    },
    {
      "inputs": [
        {
          "internalType": "bytes32",
          "name": "_contractName",
          "type": "bytes32"
        },
        {
          "internalType": "uint8",
          "name": "_i",
          "type": "uint8"
        }
      ],
      "name": "toggleApproval",
      "outputs": [],
      "stateMutability": "nonpayable",
      "type": "function"
    },
    {
      "inputs": [
        {
          "internalType": "bytes32",
          "name": "_contractName",
          "type": "bytes32"
        },
        {
          "internalType": "uint8",
          "name": "_i",
          "type": "uint8"
        }
      ],
      "name": "toggleIncentive",
      "outputs": [],
      "stateMutability": "nonpayable",
      "type": "function"
    },
    {
      "inputs": [
        {
          "internalType": "uint256",
          "name": "_burnRate",
          "type": "uint256"
        }
      ],
      "name": "updateBurnRate",
      "outputs": [],
      "stateMutability": "nonpayable",
      "type": "function"
    },
    {
      "inputs": [
        {
          "internalType": "bytes32",
          "name": "_contractName",
          "type": "bytes32"
        },
        {
          "internalType": "uint8",
          "name": "_i",
          "type": "uint8"
        },
        {
          "internalType": "uint256",
          "name": "_reward",
          "type": "uint256"
        },
        {
          "internalType": "bool",
          "name": "_enabled",
          "type": "bool"
        },
        {
          "internalType": "bool",
          "name": "_openToEveryone",
          "type": "bool"
        }
      ],
      "name": "updateIncentive",
      "outputs": [],
      "stateMutability": "nonpayable",
      "type": "function"
    },
    {
      "inputs": [
        {
          "internalType": "uint256",
          "name": "_amount",
          "type": "uint256"
        }
      ],
      "name": "updateRequiredKeeperStake",
      "outputs": [],
      "stateMutability": "nonpayable",
      "type": "function"
    }
  ],
  "transactionHash": "0x14c14b9450e84cc490b00c21b59bb8d21e841d3f9ed0e30920ae5836378ba3c1",
  "args": [
    "0x49fd2BE640DB2910c2fAb69bB8531Ab6E76127ff",
    "0",
    "0"
  ],
  "solcInputHash": "3f091cf8708e652c084fc8a920e3103f",
  "bytecode": "0x60a06040527b219ab540356cbb839cbe05303d7705fa00000000000000000000000060805234801561003057600080fd5b50604051611da3380380611da383398101604081905261004f9161007b565b600080546001600160a01b0319166001600160a01b0394909416939093179092556004556005556100bc565b60008060006060848603121561008f578283fd5b83516001600160a01b03811681146100a5578384fd5b602085015160409095015190969495509392505050565b60805160601c611cc96100da60003960006114c10152611cc96000f3fe608060405234801561001057600080fd5b50600436106100f55760003560e01c806344027e4611610097578063bcd0dbc911610066578063bcd0dbc9146101cf578063bed99850146101f1578063e96a262d146101f9578063f18086a51461020c576100f5565b806344027e461461019957806355b8efcc146101ac578063a8d58496146101bf578063abf410e5146101c7576100f5565b80632b788787116100d35780632b7887871461014b5780632e3ea85a1461015e5780633d9f49951461017157806341267de514610184576100f5565b806319e1f454146100fa5780631c5f82eb146101235780632b6f6f8d14610138575b600080fd5b61010d610108366004611774565b61021f565b60405161011a919061191f565b60405180910390f35b610136610131366004611774565b61023a565b005b610136610146366004611825565b610341565b610136610159366004611774565b6104fb565b61013661016c36600461178c565b610658565b61013661017f366004611825565b6107f2565b61018c6109af565b60405161011a9190611970565b6101366101a7366004611774565b6109b5565b6101366101ba366004611850565b610b12565b61018c610f56565b61010d610f5c565b6101e26101dd3660046117bb565b610f6b565b60405161011a93929190611b97565b61018c610fb3565b6101366102073660046117dc565b610fb9565b61013661021a36600461188f565b61118a565b6003602052600090815260409020546001600160a01b031681565b600054604051631c2d8fb360e31b81526102f5913391309185916001600160a01b039091169063e16c7d9890610294907f69e547947a4514871bf84679401f91758bd0fe92e4c005143f6d0e5213dab0cb90600401611970565b60206040518083038186803b1580156102ac57600080fd5b505afa1580156102c0573d6000803e3d6000fd5b505050506040513d601f19601f820116820180604052508101906102e4919061173c565b6001600160a01b0316929190611368565b806001546103039190611bbd565b6001556040517f9ad4c05cff4861564f4d1572799ac5d03d82f40ea702646c7b3bfd552f570cde90610336908390611970565b60405180910390a150565b600054604051631c2d8fb360e31b81526001600160a01b039091169063e16c7d9890610391907f15fa0125f52e5705da1148bfcf00974823c4381bee4314203ede255f9477b73e90600401611970565b60206040518083038186803b1580156103a957600080fd5b505afa1580156103bd573d6000803e3d6000fd5b505050506040513d601f19601f820116820180604052508101906103e1919061173c565b6001600160a01b031663d09a20c57fd0a4ad96d49edb1c33461cebc6fb2609190f32c904e3c3f5877edb4488dee91e336040518363ffffffff1660e01b815260040161042e929190611979565b60006040518083038186803b15801561044657600080fd5b505afa15801561045a573d6000803e3d6000fd5b505050600083815260026020526040812080549192509060ff841690811061049257634e487b7160e01b600052603260045260246000fd5b600091825260209091206001600290920201908101805460ff19811660ff9182161517918290556040519293507f12da359f5c0e3be0f99345920ec462d30c20b61db9290817368a28851439008b926104ee9287921690611990565b60405180910390a1505050565b600054604051631c2d8fb360e31b81526001600160a01b039091169063e16c7d989061054b907f15fa0125f52e5705da1148bfcf00974823c4381bee4314203ede255f9477b73e90600401611970565b60206040518083038186803b15801561056357600080fd5b505afa158015610577573d6000803e3d6000fd5b505050506040513d601f19601f8201168201806040525081019061059b919061173c565b6001600160a01b031663d09a20c57fd0a4ad96d49edb1c33461cebc6fb2609190f32c904e3c3f5877edb4488dee91e336040518363ffffffff1660e01b81526004016105e8929190611979565b60006040518083038186803b15801561060057600080fd5b505afa158015610614573d6000803e3d6000fd5b505050507f229952885149023c7b324c7187b4b260b1a8e44dfee2bf619ef6f1296d52706d6004548260405161064b929190611baf565b60405180910390a1600455565b600054604051631c2d8fb360e31b81526001600160a01b039091169063e16c7d98906106a8907f15fa0125f52e5705da1148bfcf00974823c4381bee4314203ede255f9477b73e90600401611970565b60206040518083038186803b1580156106c057600080fd5b505afa1580156106d4573d6000803e3d6000fd5b505050506040513d601f19601f820116820180604052508101906106f8919061173c565b6001600160a01b031663d09a20c57fd0a4ad96d49edb1c33461cebc6fb2609190f32c904e3c3f5877edb4488dee91e336040518363ffffffff1660e01b8152600401610745929190611979565b60006040518083038186803b15801561075d57600080fd5b505afa158015610771573d6000803e3d6000fd5b5050506000838152600360205260409081902080547fffffffffffffffffffffffff0000000000000000000000000000000000000000166001600160a01b038516179055517ff6c4dabf3ee4c924bd9069622cd7d390b44d0f38fe8742cf5fdf8f5c5a6be5f891506107e69084908490611979565b60405180910390a15050565b600054604051631c2d8fb360e31b81526001600160a01b039091169063e16c7d9890610842907f15fa0125f52e5705da1148bfcf00974823c4381bee4314203ede255f9477b73e90600401611970565b60206040518083038186803b15801561085a57600080fd5b505afa15801561086e573d6000803e3d6000fd5b505050506040513d601f19601f82011682018060405250810190610892919061173c565b6001600160a01b031663d09a20c57fd0a4ad96d49edb1c33461cebc6fb2609190f32c904e3c3f5877edb4488dee91e336040518363ffffffff1660e01b81526004016108df929190611979565b60006040518083038186803b1580156108f757600080fd5b505afa15801561090b573d6000803e3d6000fd5b505050600083815260026020526040812080549192509060ff841690811061094357634e487b7160e01b600052603260045260246000fd5b600091825260209091206001600290920201908101805460ff610100808304821615810261ff001990931692909217928390556040519394507f8e7eb7be6cb0d1a07f05197e6d857593753decc27b9d7294da4c6ee65c3191f6936104ee938893900490911690611990565b60015481565b600054604051631c2d8fb360e31b81526001600160a01b039091169063e16c7d9890610a05907f15fa0125f52e5705da1148bfcf00974823c4381bee4314203ede255f9477b73e90600401611970565b60206040518083038186803b158015610a1d57600080fd5b505afa158015610a31573d6000803e3d6000fd5b505050506040513d601f19601f82011682018060405250810190610a55919061173c565b6001600160a01b031663d09a20c57fd0a4ad96d49edb1c33461cebc6fb2609190f32c904e3c3f5877edb4488dee91e336040518363ffffffff1660e01b8152600401610aa2929190611979565b60006040518083038186803b158015610aba57600080fd5b505afa158015610ace573d6000803e3d6000fd5b505050507f7620b5c06aea6c6af1f14fed9558f4c9b0f13656c3041e8dc17a5f912af7652d60055482604051610b05929190611baf565b60405180910390a1600555565b6000838152600360205260409020546001600160a01b03163314610b515760405162461bcd60e51b8152600401610b4890611a6f565b60405180910390fd5b6000838152600260205260408120805460ff8516908110610b8257634e487b7160e01b600052603260045260246000fd5b6000918252602091829020604080516060810182526002909302909101805483526001015460ff808216151594840194909452610100900490921615159181018290529150610e2457600054604051631c2d8fb360e31b81526001600160a01b039091169063e16c7d9890610c1b907f15fa0125f52e5705da1148bfcf00974823c4381bee4314203ede255f9477b73e90600401611970565b60206040518083038186803b158015610c3357600080fd5b505afa158015610c47573d6000803e3d6000fd5b505050506040513d601f19601f82011682018060405250810190610c6b919061173c565b6001600160a01b031663d09a20c57f4f78afe9dfc9a0cb0441c27b9405070cd2a48b490636a7bdd09f355e33a5d7de846040518363ffffffff1660e01b8152600401610cb8929190611979565b60006040518083038186803b158015610cd057600080fd5b505afa158015610ce4573d6000803e3d6000fd5b5050600554600054604051631c2d8fb360e31b81529193506001600160a01b0316915063e16c7d9890610d3b907f1df41cd916959d1163dc8f0671a666ea8a3e434c13e40faef527133b5d16703490600401611970565b60206040518083038186803b158015610d5357600080fd5b505afa158015610d67573d6000803e3d6000fd5b505050506040513d601f19601f82011682018060405250810190610d8b919061173c565b6001600160a01b03166370a08231846040518263ffffffff1660e01b8152600401610db6919061191f565b60206040518083038186803b158015610dce57600080fd5b505afa158015610de2573d6000803e3d6000fd5b505050506040513d601f19601f82011682018060405250810190610e0691906118eb565b1015610e245760405162461bcd60e51b8152600401610b4890611b60565b80602001518015610e385750600154815111155b15610f50578051600154610e4c9190611c14565b6001556004548151600091670de0b6b3a764000091610e6b9190611bf5565b610e759190611bd5565b90506000818360000151610e899190611c14565b600054604051631c2d8fb360e31b8152919250610f4491869184916001600160a01b039091169063e16c7d9890610ee4907f69e547947a4514871bf84679401f91758bd0fe92e4c005143f6d0e5213dab0cb90600401611970565b60206040518083038186803b158015610efc57600080fd5b505afa158015610f10573d6000803e3d6000fd5b505050506040513d601f19601f82011682018060405250810190610f34919061173c565b6001600160a01b031691906113ed565b610f4d82611411565b50505b50505050565b60055481565b6000546001600160a01b031681565b60026020528160005260406000208181548110610f8757600080fd5b60009182526020909120600290910201805460019091015490925060ff80821692506101009091041683565b60045481565b600054604051631c2d8fb360e31b81526001600160a01b039091169063e16c7d9890611009907f15fa0125f52e5705da1148bfcf00974823c4381bee4314203ede255f9477b73e90600401611970565b60206040518083038186803b15801561102157600080fd5b505afa158015611035573d6000803e3d6000fd5b505050506040513d601f19601f82011682018060405250810190611059919061173c565b6001600160a01b031663d09a20c57fd0a4ad96d49edb1c33461cebc6fb2609190f32c904e3c3f5877edb4488dee91e336040518363ffffffff1660e01b81526004016110a6929190611979565b60006040518083038186803b1580156110be57600080fd5b505afa1580156110d2573d6000803e3d6000fd5b5050506000858152600260208181526040808420815160608101835289815288151581850190815288151582850190815283546001818101865594895295909720915194909502019283559251919092018054935115156101000261ff001992151560ff19909516949094179190911692909217909155517f880fd3397515485fabc2f3d44892d2dabbc45bc79a356562afe1b34f1301a870915061117c908690869085906119a0565b60405180910390a150505050565b600054604051631c2d8fb360e31b81526001600160a01b039091169063e16c7d98906111da907f15fa0125f52e5705da1148bfcf00974823c4381bee4314203ede255f9477b73e90600401611970565b60206040518083038186803b1580156111f257600080fd5b505afa158015611206573d6000803e3d6000fd5b505050506040513d601f19601f8201168201806040525081019061122a919061173c565b6001600160a01b031663d09a20c57fd0a4ad96d49edb1c33461cebc6fb2609190f32c904e3c3f5877edb4488dee91e336040518363ffffffff1660e01b8152600401611277929190611979565b60006040518083038186803b15801561128f57600080fd5b505afa1580156112a3573d6000803e3d6000fd5b505050600086815260026020526040812080549192509060ff87169081106112db57634e487b7160e01b600052603260045260246000fd5b60009182526020909120600290910201805460018201805487845585151561010090810261ff001989151560ff198516171617909255604051939450919260ff9190920416907f248e6a6ffe6039c6908db49d17064442179a7e2854e33d9f55c7eaacdde06b2390611356908a9085908a9086908a906119b8565b60405180910390a15050505050505050565b610f50846323b872dd60e01b85858560405160240161138993929190611933565b60408051601f198184030181529190526020810180517bffffffffffffffffffffffffffffffffffffffffffffffffffffffff167fffffffff0000000000000000000000000000000000000000000000000000000090931692909217909152611580565b61140c8363a9059cbb60e01b8484604051602401611389929190611957565b505050565b600054604051631c2d8fb360e31b81526001600160a01b039091169063e16c7d9890611461907f69e547947a4514871bf84679401f91758bd0fe92e4c005143f6d0e5213dab0cb90600401611970565b60206040518083038186803b15801561147957600080fd5b505afa15801561148d573d6000803e3d6000fd5b505050506040513d601f19601f820116820180604052508101906114b1919061173c565b6001600160a01b031663a9059cbb7f0000000000000000000000000000000000000000000000000000000000000000836040518363ffffffff1660e01b81526004016114fe929190611957565b602060405180830381600087803b15801561151857600080fd5b505af115801561152c573d6000803e3d6000fd5b505050506040513d601f19601f820116820180604052508101906115509190611758565b507fd83c63197e8e676d80ab0122beba9a9d20f3828839e9a1d6fe81d242e9cd7e6e816040516103369190611970565b60006115d5826040518060400160405280602081526020017f5361666545524332303a206c6f772d6c6576656c2063616c6c206661696c6564815250856001600160a01b031661160f9092919063ffffffff16565b80519091501561140c57808060200190518101906115f39190611758565b61140c5760405162461bcd60e51b8152600401610b4890611b03565b606061161e8484600085611628565b90505b9392505050565b60608247101561164a5760405162461bcd60e51b8152600401610b4890611a12565b611653856116e8565b61166f5760405162461bcd60e51b8152600401610b4890611acc565b600080866001600160a01b0316858760405161168b9190611903565b60006040518083038185875af1925050503d80600081146116c8576040519150601f19603f3d011682016040523d82523d6000602084013e6116cd565b606091505b50915091506116dd8282866116f2565b979650505050505050565b803b15155b919050565b60608315611701575081611621565b8251156117115782518084602001fd5b8160405162461bcd60e51b8152600401610b4891906119df565b803560ff811681146116ed57600080fd5b60006020828403121561174d578081fd5b815161162181611c6d565b600060208284031215611769578081fd5b815161162181611c85565b600060208284031215611785578081fd5b5035919050565b6000806040838503121561179e578081fd5b8235915060208301356117b081611c6d565b809150509250929050565b600080604083850312156117cd578182fd5b50508035926020909101359150565b600080600080608085870312156117f1578182fd5b8435935060208501359250604085013561180a81611c85565b9150606085013561181a81611c85565b939692955090935050565b60008060408385031215611837578182fd5b823591506118476020840161172b565b90509250929050565b600080600060608486031215611864578283fd5b833592506118746020850161172b565b9150604084013561188481611c6d565b809150509250925092565b600080600080600060a086880312156118a6578081fd5b853594506118b66020870161172b565b93506040860135925060608601356118cd81611c85565b915060808601356118dd81611c85565b809150509295509295909350565b6000602082840312156118fc578081fd5b5051919050565b60008251611915818460208701611c2b565b9190910192915050565b6001600160a01b0391909116815260200190565b6001600160a01b039384168152919092166020820152604081019190915260600190565b6001600160a01b03929092168252602082015260400190565b90815260200190565b9182526001600160a01b0316602082015260400190565b9182521515602082015260400190565b92835260208301919091521515604082015260600190565b94855260208501939093526040840191909152151560608301521515608082015260a00190565b60006020825282518060208401526119fe816040850160208701611c2b565b601f01601f19169190910160400192915050565b60208082526026908201527f416464726573733a20696e73756666696369656e742062616c616e636520666f60408201527f722063616c6c0000000000000000000000000000000000000000000000000000606082015260800190565b6020808252602e908201527f43616e206f6e6c792062652063616c6c65642062792074686520636f6e74726f60408201527f6c6c696e6720636f6e7472616374000000000000000000000000000000000000606082015260800190565b6020808252601d908201527f416464726573733a2063616c6c20746f206e6f6e2d636f6e7472616374000000604082015260600190565b6020808252602a908201527f5361666545524332303a204552433230206f7065726174696f6e20646964206e60408201527f6f74207375636365656400000000000000000000000000000000000000000000606082015260800190565b60208082526017908201527f6e6f7420656e6f75676820706f70206174207374616b65000000000000000000604082015260600190565b92835290151560208301521515604082015260600190565b918252602082015260400190565b60008219821115611bd057611bd0611c57565b500190565b600082611bf057634e487b7160e01b81526012600452602481fd5b500490565b6000816000190483118215151615611c0f57611c0f611c57565b500290565b600082821015611c2657611c26611c57565b500390565b60005b83811015611c46578181015183820152602001611c2e565b83811115610f505750506000910152565b634e487b7160e01b600052601160045260246000fd5b6001600160a01b0381168114611c8257600080fd5b50565b8015158114611c8257600080fdfea26469706673582212207acbfc4974841220f1a2aa2fcb9c9180ca8cc5a2382c4fc79ba1404c2436782264736f6c63430008000033",
  "devdoc": {
    "kind": "dev",
    "methods": {
      "addControllerContract(bytes32,address)": {
        "details": "all critical functions to init/open vaults and add shares to them can only be called by controller contracts",
        "params": {
          "_contractName": "the name of the controller contract in bytes32",
          "contract_": "the address of the controller contract"
        }
      },
      "createIncentive(bytes32,uint256,bool,bool)": {
        "details": "This function is only for creating unique incentives for future contractsMultiple functions can use the same incentive which can than be updated with one governance vote",
        "params": {
          "_contractName": "Name of contract that uses ParticipationRewards in bytes32",
          "_enabled": "Is this Incentive currently enabled?",
          "_openToEveryone": "Can anyone call the function for rewards or only keeper?",
          "_reward": "The amount in POP the Keeper receives for calling the function"
        }
      },
      "updateBurnRate(uint256)": {
        "params": {
          "_burnRate": "Percentage in Mantissa. (1e14 = 1 Basis Point)"
        }
      },
      "updateRequiredKeeperStake(uint256)": {
        "params": {
          "_amount": "Amount of POP a keeper needs to stake"
        }
      }
    },
    "version": 1
  },
  "userdoc": {
    "kind": "user",
    "methods": {
      "addControllerContract(bytes32,address)": {
        "notice": "In order to allow a contract to use ParticipationReward they need to be added as a controller contract"
      },
      "createIncentive(bytes32,uint256,bool,bool)": {
        "notice": "Create Incentives for keeper to call a function"
      },
      "updateBurnRate(uint256)": {
        "notice": "Sets the current burn rate as a percentage of the incentive reward."
      },
      "updateRequiredKeeperStake(uint256)": {
        "notice": "Sets the required amount of POP a keeper needs to have staked to handle incentivized functions."
      }
    },
    "version": 1
  },
  "storageLayout": {
    "storage": [
      {
        "astId": 6379,
        "contract": "contracts/core/utils/KeeperIncentive.sol:KeeperIncentive",
        "label": "contractRegistry",
        "offset": 0,
        "slot": "0",
        "type": "t_contract(IContractRegistry)5395"
      },
      {
        "astId": 6381,
        "contract": "contracts/core/utils/KeeperIncentive.sol:KeeperIncentive",
        "label": "incentiveBudget",
        "offset": 0,
        "slot": "1",
        "type": "t_uint256"
      },
      {
        "astId": 6387,
        "contract": "contracts/core/utils/KeeperIncentive.sol:KeeperIncentive",
        "label": "incentives",
        "offset": 0,
        "slot": "2",
        "type": "t_mapping(t_bytes32,t_array(t_struct(Incentive)6376_storage)dyn_storage)"
      },
      {
        "astId": 6391,
        "contract": "contracts/core/utils/KeeperIncentive.sol:KeeperIncentive",
        "label": "controllerContracts",
        "offset": 0,
        "slot": "3",
        "type": "t_mapping(t_bytes32,t_address)"
      },
      {
        "astId": 6393,
        "contract": "contracts/core/utils/KeeperIncentive.sol:KeeperIncentive",
        "label": "burnRate",
        "offset": 0,
        "slot": "4",
        "type": "t_uint256"
      },
      {
        "astId": 6398,
        "contract": "contracts/core/utils/KeeperIncentive.sol:KeeperIncentive",
        "label": "requiredKeeperStake",
        "offset": 0,
        "slot": "5",
        "type": "t_uint256"
      }
    ],
    "types": {
      "t_address": {
        "encoding": "inplace",
        "label": "address",
        "numberOfBytes": "20"
      },
      "t_array(t_struct(Incentive)6376_storage)dyn_storage": {
        "base": "t_struct(Incentive)6376_storage",
        "encoding": "dynamic_array",
        "label": "struct KeeperIncentive.Incentive[]",
        "numberOfBytes": "32"
      },
      "t_bool": {
        "encoding": "inplace",
        "label": "bool",
        "numberOfBytes": "1"
      },
      "t_bytes32": {
        "encoding": "inplace",
        "label": "bytes32",
        "numberOfBytes": "32"
      },
      "t_contract(IContractRegistry)5395": {
        "encoding": "inplace",
        "label": "contract IContractRegistry",
        "numberOfBytes": "20"
      },
      "t_mapping(t_bytes32,t_address)": {
        "encoding": "mapping",
        "key": "t_bytes32",
        "label": "mapping(bytes32 => address)",
        "numberOfBytes": "32",
        "value": "t_address"
      },
      "t_mapping(t_bytes32,t_array(t_struct(Incentive)6376_storage)dyn_storage)": {
        "encoding": "mapping",
        "key": "t_bytes32",
        "label": "mapping(bytes32 => struct KeeperIncentive.Incentive[])",
        "numberOfBytes": "32",
        "value": "t_array(t_struct(Incentive)6376_storage)dyn_storage"
      },
      "t_struct(Incentive)6376_storage": {
        "encoding": "inplace",
        "label": "struct KeeperIncentive.Incentive",
        "members": [
          {
            "astId": 6371,
            "contract": "contracts/core/utils/KeeperIncentive.sol:KeeperIncentive",
            "label": "reward",
            "offset": 0,
            "slot": "0",
            "type": "t_uint256"
          },
          {
            "astId": 6373,
            "contract": "contracts/core/utils/KeeperIncentive.sol:KeeperIncentive",
            "label": "enabled",
            "offset": 0,
            "slot": "1",
            "type": "t_bool"
          },
          {
            "astId": 6375,
            "contract": "contracts/core/utils/KeeperIncentive.sol:KeeperIncentive",
            "label": "openToEveryone",
            "offset": 1,
            "slot": "1",
            "type": "t_bool"
          }
        ],
        "numberOfBytes": "64"
      },
      "t_uint256": {
        "encoding": "inplace",
        "label": "uint256",
        "numberOfBytes": "32"
      }
    }
  }
}