{
  "address": "0x5081a39b8A5f0E35a8D959395a630b68B74Dd30f",
  "abi": [
    {
      "inputs": [
        {
          "components": [
            {
              "internalType": "contract ILBPFactory",
              "name": "lbpFactory",
              "type": "address"
            },
            {
              "internalType": "contract IVault",
              "name": "vault",
              "type": "address"
            }
          ],
          "internalType": "struct LBPManager.Balancer",
          "name": "_balancer",
          "type": "tuple"
        },
        {
          "internalType": "string",
          "name": "_name",
          "type": "string"
        },
        {
          "internalType": "string",
          "name": "_symbol",
          "type": "string"
        },
        {
          "internalType": "contract IERC20[]",
          "name": "_tokens",
          "type": "address[]"
        },
        {
          "internalType": "uint256[]",
          "name": "_tokenAmounts",
          "type": "uint256[]"
        },
        {
          "internalType": "uint256[]",
          "name": "_startWeights",
          "type": "uint256[]"
        },
        {
          "internalType": "uint256[]",
          "name": "_endWeights",
          "type": "uint256[]"
        },
        {
          "internalType": "uint256",
          "name": "_swapFee",
          "type": "uint256"
        },
        {
          "internalType": "uint256",
          "name": "_durationInSeconds",
          "type": "uint256"
        },
        {
          "internalType": "uint256",
          "name": "_startTime",
          "type": "uint256"
        },
        {
          "components": [
            {
              "internalType": "address",
              "name": "agent",
              "type": "address"
            },
            {
              "internalType": "address",
              "name": "treasury",
              "type": "address"
            }
          ],
          "internalType": "struct LBPManager.DAO",
          "name": "_dao",
          "type": "tuple"
        }
      ],
      "stateMutability": "nonpayable",
      "type": "constructor"
    },
    {
      "anonymous": false,
      "inputs": [
        {
          "indexed": false,
          "internalType": "address",
          "name": "poolAddress",
          "type": "address"
        }
      ],
      "name": "CreatedPool",
      "type": "event"
    },
    {
      "anonymous": false,
      "inputs": [
        {
          "indexed": false,
          "internalType": "bytes32",
          "name": "poolID",
          "type": "bytes32"
        }
      ],
      "name": "ExitedPool",
      "type": "event"
    },
    {
      "anonymous": false,
      "inputs": [
        {
          "indexed": false,
          "internalType": "bytes32",
          "name": "poolID",
          "type": "bytes32"
        }
      ],
      "name": "JoinedPool",
      "type": "event"
    },
    {
      "anonymous": false,
      "inputs": [
        {
          "indexed": false,
          "internalType": "bool",
          "name": "enabled",
          "type": "bool"
        }
      ],
      "name": "SwapEnabled",
      "type": "event"
    },
    {
      "inputs": [],
      "name": "balancer",
      "outputs": [
        {
          "internalType": "contract ILBPFactory",
          "name": "lbpFactory",
          "type": "address"
        },
        {
          "internalType": "contract IVault",
          "name": "vault",
          "type": "address"
        }
      ],
      "stateMutability": "view",
      "type": "function"
    },
    {
      "inputs": [],
      "name": "dao",
      "outputs": [
        {
          "internalType": "address",
          "name": "agent",
          "type": "address"
        },
        {
          "internalType": "address",
          "name": "treasury",
          "type": "address"
        }
      ],
      "stateMutability": "view",
      "type": "function"
    },
    {
      "inputs": [],
      "name": "deployLBP",
      "outputs": [],
      "stateMutability": "nonpayable",
      "type": "function"
    },
    {
      "inputs": [],
      "name": "enableTrading",
      "outputs": [],
      "stateMutability": "nonpayable",
      "type": "function"
    },
    {
      "inputs": [],
      "name": "lbp",
      "outputs": [
        {
          "internalType": "contract ILBP",
          "name": "",
          "type": "address"
        }
      ],
      "stateMutability": "view",
      "type": "function"
    },
    {
      "inputs": [],
      "name": "pause",
      "outputs": [],
      "stateMutability": "nonpayable",
      "type": "function"
    },
    {
      "inputs": [],
      "name": "poolConfig",
      "outputs": [
        {
          "internalType": "string",
          "name": "name",
          "type": "string"
        },
        {
          "internalType": "string",
          "name": "symbol",
          "type": "string"
        },
        {
          "internalType": "uint256",
          "name": "durationInSeconds",
          "type": "uint256"
        },
        {
          "internalType": "uint256",
          "name": "swapFee",
          "type": "uint256"
        },
        {
          "internalType": "address",
          "name": "owner",
          "type": "address"
        },
        {
          "internalType": "bool",
          "name": "swapEnabledOnStart",
          "type": "bool"
        },
        {
          "internalType": "uint256",
          "name": "startTime",
          "type": "uint256"
        },
        {
          "internalType": "bool",
          "name": "deployed",
          "type": "bool"
        },
        {
          "internalType": "address",
          "name": "pauser",
          "type": "address"
        }
      ],
      "stateMutability": "view",
      "type": "function"
    },
    {
      "inputs": [],
      "name": "unpause",
      "outputs": [],
      "stateMutability": "nonpayable",
      "type": "function"
    },
    {
      "inputs": [],
      "name": "withdrawFromPool",
      "outputs": [],
      "stateMutability": "nonpayable",
      "type": "function"
    }
  ],
  "transactionHash": "0x5fe2fc3c77e8cc361f06901d4ae3e7e26fb50b8b46b1bf36472ee8ec285dced6",
  "args": [
    {
      "lbpFactory": "0x751A0bC0e3f75b38e01Cf25bFCE7fF36DE1C87DE",
      "vault": "0xBA12222222228d8Ba445958a75a0704d566BF2C8"
    },
    "Popcorn.network (POP) Liquidity Bootstrapping Pool",
    "POP_LBP",
    [
      "0xA0b86991c6218b36c1d19D4a2e9Eb0cE3606eB48",
      "0xD0Cd466b34A24fcB2f87676278AF2005Ca8A78c4"
    ],
    [
      "500000000000",
      "100000000000000000000"
    ],
    [
      "10000000000000000",
      "990000000000000000"
    ],
    [
      "500000000000000000",
      "500000000000000000"
    ],
    "15000000000000000",
    259200,
    1638172800,
    {
      "agent": "0xf39Fd6e51aad88F6F4ce6aB8827279cffFb92266",
      "treasury": "0xf39Fd6e51aad88F6F4ce6aB8827279cffFb92266"
    }
  ],
  "solcInputHash": "0e2d243efd06c5832267e40ce916613e",
  "bytecode": "0x60806040523480156200001157600080fd5b50604051620024c6380380620024c68339810160408190526200003491620007b0565b8a51600180546001600160a01b039283166001600160a01b03199182161790915560208d015160028054919093169116179055610e10831180156200007b57506206978083105b620000a35760405162461bcd60e51b81526004016200009a9062000971565b60405180910390fd5b428211620000c55760405162461bcd60e51b81526004016200009a906200093a565b8051600e80546001600160a01b03199081166001600160a01b0393841617909155602080840151600f80549093169316929092179055604080516101a0810182528c81528083018c90529081018a9052606081018990526080810188905260a0810187905260c0810185905260e0810186905230610100820152600061012082018190526101408201859052610160820152336101808201528b51909160039162000176918391908f019062000470565b50602082810151805162000191926001850192019062000470565b5060408201518051620001af916002840191602090910190620004ff565b5060608201518051620001cd91600384019160209091019062000557565b5060808201518051620001eb91600484019160209091019062000557565b5060a082015180516200020991600584019160209091019062000557565b5060c0820151600682015560e08201516007820155610100808301516008830180546101208601516001600160a01b03199091166001600160a01b039384161760ff60a01b1916600160a01b911515919091021790556101408401516009840155610160840151600a90930180546101809095015160ff1990951693151593909317610100600160a81b031916931602919091179055620002a9620002ba565b505050505050505050505062000a66565b600080620002c7620003ed565b60025460405163095ea7b360e01b81529294509092506001600160a01b038085169263095ea7b392620003039216906000199060040162000921565b602060405180830381600087803b1580156200031e57600080fd5b505af115801562000333573d6000803e3d6000fd5b505050506040513d601f19601f8201168201806040525081019062000359919062000787565b5060025460405163095ea7b360e01b81526001600160a01b038381169263095ea7b3926200039292909116906000199060040162000921565b602060405180830381600087803b158015620003ad57600080fd5b505af1158015620003c2573d6000803e3d6000fd5b505050506040513d601f19601f82011682018060405250810190620003e8919062000787565b505050565b60008060036002016000815481106200041657634e487b7160e01b600052603260045260246000fd5b600091825260209091200154600580546001600160a01b039092169160019081106200045257634e487b7160e01b600052603260045260246000fd5b6000918252602090912001549092506001600160a01b031690509091565b8280546200047e90620009fa565b90600052602060002090601f016020900481019282620004a25760008555620004ed565b82601f10620004bd57805160ff1916838001178555620004ed565b82800160010185558215620004ed579182015b82811115620004ed578251825591602001919060010190620004d0565b50620004fb92915062000594565b5090565b828054828255906000526020600020908101928215620004ed579160200282015b82811115620004ed57825182546001600160a01b0319166001600160a01b0390911617825560209092019160019091019062000520565b828054828255906000526020600020908101928215620004ed5791602002820182811115620004ed578251825591602001919060010190620004d0565b5b80821115620004fb576000815560010162000595565b600082601f830112620005bc578081fd5b81516020620005d5620005cf83620009d4565b620009a8565b8281528181019085830183850287018401881015620005f2578586fd5b855b858110156200061d5781516200060a8162000a4d565b84529284019290840190600101620005f4565b5090979650505050505050565b600082601f8301126200063b578081fd5b815160206200064e620005cf83620009d4565b82815281810190858301838502870184018810156200066b578586fd5b855b858110156200061d578151845292840192908401906001016200066d565b600082601f8301126200069c578081fd5b81516001600160401b03811115620006b857620006b862000a37565b6020620006ce601f8301601f19168201620009a8565b8281528582848701011115620006e2578384fd5b835b8381101562000701578581018301518282018401528201620006e4565b838111156200071257848385840101525b5095945050505050565b6000604082840312156200072e578081fd5b604080519081016001600160401b038111828210171562000753576200075362000a37565b80604052508091508251620007688162000a4d565b815260208301516200077a8162000a4d565b6020919091015292915050565b60006020828403121562000799578081fd5b81518015158114620007a9578182fd5b9392505050565b60008060008060008060008060008060006101a08c8e031215620007d2578687fd5b620007de8d8d6200071c565b60408d0151909b506001600160401b03811115620007fa578788fd5b620008088e828f016200068b565b60608e0151909b5090506001600160401b0381111562000826578788fd5b620008348e828f016200068b565b60808e0151909a5090506001600160401b0381111562000852578788fd5b620008608e828f01620005ab565b60a08e015190995090506001600160401b038111156200087e578788fd5b6200088c8e828f016200062a565b60c08e015190985090506001600160401b03811115620008aa578687fd5b620008b88e828f016200062a565b60e08e015190975090506001600160401b03811115620008d6578586fd5b620008e48e828f016200062a565b9550506101008c015193506101208c015192506101408c015191506200090f8d6101608e016200071c565b90509295989b509295989b9093969950565b6001600160a01b03929092168252602082015260400190565b6020808252601c908201527f73746172742074696d65206d75737420626520696e2066757475726500000000604082015260600190565b60208082526019908201527f6475726174696f6e206973206f7574206f6620626f756e647300000000000000604082015260600190565b6040518181016001600160401b0381118282101715620009cc57620009cc62000a37565b604052919050565b60006001600160401b03821115620009f057620009f062000a37565b5060209081020190565b60028104600182168062000a0f57607f821691505b6020821081141562000a3157634e487b7160e01b600052602260045260246000fd5b50919050565b634e487b7160e01b600052604160045260246000fd5b6001600160a01b038116811462000a6357600080fd5b50565b611a508062000a766000396000f3fe608060405234801561001057600080fd5b50600436106100a35760003560e01c80638456cb59116100765780639695e1951161005b5780639695e195146100fe578063d8519dda1461011b578063e563037e14610123576100a3565b80638456cb59146100ee5780638a8c523c146100f6576100a3565b8063092f7de7146100a857806326c0e5c5146100c65780633f4ba83a146100d05780634162169f146100d8575b600080fd5b6100b061012b565b6040516100bd91906114bb565b60405180910390f35b6100ce61013a565b005b6100ce610498565b6100e06105ef565b6040516100bd9291906114cf565b6100ce610605565b6100ce61072b565b61010661080c565b6040516100bd99989796959493929190611539565b6100ce61096e565b6100e0610bbd565b6000546001600160a01b031681565b600d5460ff166101655760405162461bcd60e51b815260040161015c90611831565b60405180910390fd5b600e546001600160a01b0316331461018f5760405162461bcd60e51b815260040161015c906116e7565b60008060009054906101000a90046001600160a01b03166001600160a01b03166338fff2d06040518163ffffffff1660e01b815260040160206040518083038186803b1580156101de57600080fd5b505afa1580156101f2573d6000803e3d6000fd5b505050506040513d601f19601f8201168201806040525081019061021691906112a2565b60055490915060009067ffffffffffffffff81111561024557634e487b7160e01b600052604160045260246000fd5b60405190808252806020026020018201604052801561026e578160200160208202803683370190505b50905060005b6005548110156102bd5760008282815181106102a057634e487b7160e01b600052603260045260246000fd5b6020908102919091010152806102b5816119e9565b915050610274565b5060008054604051633806be4b60e21b81526001600160a01b039091169163e01af92c916102ee91906004016114e9565b600060405180830381600087803b15801561030857600080fd5b505af115801561031c573d6000803e3d6000fd5b5050604080516005805460a060208202840181019094526080830181815260009650929450849361038d9392919085018282801561038357602002820191906000526020600020905b81546001600160a01b03168152600190910190602001808311610365575b5050505050610bd3565b81526020810184905260400160016103a486610bd6565b6040516020016103b5929190611954565b60408051601f19818403018152918152908252600060209290920191909152600254600f5491517f8bdb39130000000000000000000000000000000000000000000000000000000081529293506001600160a01b0390811692638bdb39139261042a92889230929091169087906004016114fd565b600060405180830381600087803b15801561044457600080fd5b505af1158015610458573d6000803e3d6000fd5b505050507f0139ec377d0a521e725f8ccba653dd7cea5bbc10c1f284590ee683c86fb5397e8360405161048b91906114f4565b60405180910390a1505050565b600d5461010090046001600160a01b031633146104c75760405162461bcd60e51b815260040161015c90611868565b600d5460ff166104e95760405162461bcd60e51b815260040161015c90611755565b60008054906101000a90046001600160a01b03166001600160a01b03166347bc4d926040518163ffffffff1660e01b815260040160206040518083038186803b15801561053557600080fd5b505afa158015610549573d6000803e3d6000fd5b505050506040513d601f19601f8201168201806040525081019061056d9190611282565b1561058a5760405162461bcd60e51b815260040161015c9061189f565b600054604051633806be4b60e21b81526001600160a01b039091169063e01af92c906105bb906001906004016114e9565b600060405180830381600087803b1580156105d557600080fd5b505af11580156105e9573d6000803e3d6000fd5b50505050565b600e54600f546001600160a01b03918216911682565b600d5461010090046001600160a01b031633146106345760405162461bcd60e51b815260040161015c9061171e565b600d5460ff166106565760405162461bcd60e51b815260040161015c906117c3565b60008054906101000a90046001600160a01b03166001600160a01b03166347bc4d926040518163ffffffff1660e01b815260040160206040518083038186803b1580156106a257600080fd5b505afa1580156106b6573d6000803e3d6000fd5b505050506040513d601f19601f820116820180604052508101906106da9190611282565b15156001146106fb5760405162461bcd60e51b815260040161015c906117fa565b60008054604051633806be4b60e21b81526001600160a01b039091169163e01af92c916105bb91906004016114e9565b600d5460ff1661074d5760405162461bcd60e51b815260040161015c90611831565b600c5442101561076f5760405162461bcd60e51b815260040161015c9061178c565b600054604051633806be4b60e21b81526001600160a01b039091169063e01af92c906107a0906001906004016114e9565b600060405180830381600087803b1580156107ba57600080fd5b505af11580156107ce573d6000803e3d6000fd5b505050507fb9bbb15e341600c8d067a0cadeba219905d5ba6d422b193c9c32265d26fc51c8600160405161080291906114e9565b60405180910390a1565b60038054819061081b906119ae565b80601f0160208091040260200160405190810160405280929190818152602001828054610847906119ae565b80156108945780601f1061086957610100808354040283529160200191610894565b820191906000526020600020905b81548152906001019060200180831161087757829003601f168201915b5050505050908060010180546108a9906119ae565b80601f01602080910402602001604051908101604052809291908181526020018280546108d5906119ae565b80156109225780601f106108f757610100808354040283529160200191610922565b820191906000526020600020905b81548152906001019060200180831161090557829003601f168201915b5050506006840154600785015460088601546009870154600a90970154959692959194506001600160a01b03808216945060ff600160a01b909204821693929182169161010090041689565b600e546001600160a01b031633146109985760405162461bcd60e51b815260040161015c90611653565b600d5460ff161515600114156109c05760405162461bcd60e51b815260040161015c9061168a565b6109c8610d1a565b6109e45760405162461bcd60e51b815260040161015c906118d6565b600d805460ff1916600190811790915554600a54600b546040517f236797190000000000000000000000000000000000000000000000000000000081526001600160a01b0393841693632367971993610a5c93600393600493600593600793909291811691600160a01b90910460ff169086016115a8565b602060405180830381600087803b158015610a7657600080fd5b505af1158015610a8a573d6000803e3d6000fd5b505050506040513d601f19601f82011682018060405250810190610aae9190611228565b600080547fffffffffffffffffffffffff0000000000000000000000000000000000000000166001600160a01b0392831617908190556040517f862036d3286b6c0c3d81e0731e5523949a342fd1b5090ca0703aaba60f23869a92610b149216906114bb565b60405180910390a1600954600c54600091610b2e91611996565b600054600c546040517f3e5692050000000000000000000000000000000000000000000000000000000081529293506001600160a01b0390911691633e56920591610b80918590600890600401611962565b600060405180830381600087803b158015610b9a57600080fd5b505af1158015610bae573d6000803e3d6000fd5b50505050610bba610e93565b50565b6001546002546001600160a01b03918216911682565b90565b6002546040517ff6c0092700000000000000000000000000000000000000000000000000000000815260009182916001600160a01b039091169063f6c0092790610c249086906004016114f4565b6040805180830381600087803b158015610c3d57600080fd5b505af1158015610c51573d6000803e3d6000fd5b505050506040513d601f19601f82011682018060405250810190610c759190611249565b506040517f70a0823100000000000000000000000000000000000000000000000000000000815290915081906001600160a01b038216906370a0823190610cc09030906004016114bb565b60206040518083038186803b158015610cd857600080fd5b505afa158015610cec573d6000803e3d6000fd5b505050506040513d601f19601f82011682018060405250810190610d1091906112a2565b925050505b919050565b6000806000610d27611190565b9150915060038001600081548110610d4f57634e487b7160e01b600052603260045260246000fd5b9060005260206000200154826001600160a01b03166370a08231306040518263ffffffff1660e01b8152600401610d8691906114bb565b60206040518083038186803b158015610d9e57600080fd5b505afa158015610db2573d6000803e3d6000fd5b505050506040513d601f19601f82011682018060405250810190610dd691906112a2565b10158015610e8c5750600680546001908110610e0257634e487b7160e01b600052603260045260246000fd5b9060005260206000200154816001600160a01b03166370a08231306040518263ffffffff1660e01b8152600401610e3991906114bb565b60206040518083038186803b158015610e5157600080fd5b505afa158015610e65573d6000803e3d6000fd5b505050506040513d601f19601f82011682018060405250810190610e8991906112a2565b10155b9250505090565b60055460009067ffffffffffffffff811115610ebf57634e487b7160e01b600052604160045260246000fd5b604051908082528060200260200182016040528015610ee8578160200160208202803683370190505b50905060005b600554811015610f3857600019828281518110610f1b57634e487b7160e01b600052603260045260246000fd5b602090810291909101015280610f30816119e9565b915050610eee565b50604080516005805460a06020820284018101909452608083018181526000948493610fa1939091850182828015610383576020028201919060005260206000209081546001600160a01b03168152600190910190602001808311610365575050505050610bd3565b8152602081018490526040016000604051610fc29190600690602001611933565b60408051601f1981840301815291815290825260006020928301819052600254905482517f38fff2d000000000000000000000000000000000000000000000000000000000815292519495506001600160a01b039182169463b95cac289491909216926338fff2d09260048083019392829003018186803b15801561104657600080fd5b505afa15801561105a573d6000803e3d6000fd5b505050506040513d601f19601f8201168201806040525081019061107e91906112a2565b3030856040518563ffffffff1660e01b81526004016110a094939291906114fd565b600060405180830381600087803b1580156110ba57600080fd5b505af11580156110ce573d6000803e3d6000fd5b505050507f3ab359279172d20fb74f51c485585571b77bb1dc3b6b1430ecd2bf80543148bb60008054906101000a90046001600160a01b03166001600160a01b03166338fff2d06040518163ffffffff1660e01b815260040160206040518083038186803b15801561113f57600080fd5b505afa158015611153573d6000803e3d6000fd5b505050506040513d601f19601f8201168201806040525081019061117791906112a2565b60405161118491906114f4565b60405180910390a15050565b60008060036002016000815481106111b857634e487b7160e01b600052603260045260246000fd5b600091825260209091200154600580546001600160a01b039092169160019081106111f357634e487b7160e01b600052603260045260246000fd5b6000918252602090912001549092506001600160a01b031690509091565b80516001600160a01b0381168114610d1557600080fd5b600060208284031215611239578081fd5b61124282611211565b9392505050565b6000806040838503121561125b578081fd5b61126483611211565b9150602083015160038110611277578182fd5b809150509250929050565b600060208284031215611293578081fd5b81518015158114611242578182fd5b6000602082840312156112b3578081fd5b5051919050565b6001600160a01b03169052565b6000815180845260208085019450808401835b838110156112f6578151875295820195908201906001016112da565b509495945050505050565b6000815480845260208085019450838352808320835b838110156112f657815487529582019560019182019101611317565b15159052565b60008151808452815b8181101561135e57602081850181015186830182015201611342565b8181111561136f5782602083870101525b50601f01601f19169290920160200192915050565b80546000906002810460018083168061139e57607f831692505b60208084108214156113be57634e487b7160e01b86526022600452602486fd5b6113c884896114f4565b8280156113dc57600181146113ed57611418565b60ff19871682528282019750611418565b6113f68961198a565b60005b87811015611412578154848201529086019084016113f9565b83019850505b5050505050505092915050565b8051608080845281519084018190526000916020919082019060a0860190845b8181101561146a5783516001600160a01b031683529284019291840191600101611445565b50508285015191508581038387015261148381836112c7565b925050506040830151848203604086015261149e8282611339565b91505060608301516114b36060860182611333565b509392505050565b6001600160a01b0391909116815260200190565b6001600160a01b0392831681529116602082015260400190565b901515815260200190565b90815260200190565b60008582526001600160a01b0380861660208401528085166040840152506080606083015261152f6080830184611425565b9695505050505050565b600061012080835261154d8184018d611339565b90508281036020840152611561818c611339565b604084019a909a52505060608101969096526001600160a01b03948516608087015292151560a086015260c0850191909152151560e0840152166101009091015292915050565b600060e082526115bb60e083018a611384565b6020838203818501526115ce828b611384565b848103604086015289548082528a8552828520935090820190845b8181101561160e5784546001600160a01b0316835260019485019492840192016115e9565b50508481036060860152611622818a611301565b935050505084608083015261163a60a08301856112ba565b61164760c0830184611333565b98975050505050505050565b60208082526016908201527f4f6e6c792044414f2063616e2063616c6c207468697300000000000000000000604082015260600190565b60208082526022908201527f54686520706f6f6c2068617320616c7265616479206265656e206465706c6f7960408201527f6564000000000000000000000000000000000000000000000000000000000000606082015260800190565b60208082526010908201527f6e6f7420746f6461792c20627564647900000000000000000000000000000000604082015260600190565b6020808252601c908201527f6e6f7420616c6c6f77656420746f2070617573652074726164696e6700000000604082015260600190565b6020808252601d908201527f706f6f6c206861736e2774206265656e206465706c6f79656420796574000000604082015260600190565b6020808252601e908201527f54726164696e672063616e206e6f7420626520656e61626c6564207965740000604082015260600190565b60208082526015908201527f706f6f6c206e6f7420796574206465706c6f7965640000000000000000000000604082015260600190565b60208082526015908201527f706f6f6c206d75737420626520756e7061757365640000000000000000000000604082015260600190565b6020808252601e908201527f506f6f6c20686173206e6f74206265656e206465706c6f796564207965740000604082015260600190565b6020808252601e908201527f6e6f7420616c6c6f77656420746f20756e70617573652074726164696e670000604082015260600190565b60208082526018908201527f7377617020697320616c72656164792064697361626c65640000000000000000604082015260600190565b60208082526028908201527f4d616e6167657220646f6573206e6f74206861766520656e6f75676820706f6f60408201527f6c20746f6b656e73000000000000000000000000000000000000000000000000606082015260800190565b60008382526040602083015261194c6040830184611301565b949350505050565b918252602082015260400190565b6000848252836020830152606060408301526119816060830184611301565b95945050505050565b60009081526020902090565b600082198211156119a9576119a9611a04565b500190565b6002810460018216806119c257607f821691505b602082108114156119e357634e487b7160e01b600052602260045260246000fd5b50919050565b60006000198214156119fd576119fd611a04565b5060010190565b634e487b7160e01b600052601160045260246000fdfea26469706673582212203d0dc60ab59f7c72cae0c1b4a146abd2f92c1861a07eb688bd5f55d112049a6964736f6c63430008000033",
  "devdoc": {
    "kind": "dev",
    "methods": {
      "constructor": {
        "params": {
          "_balancer": "see struct Balancer - balancer contract addresses",
          "_dao": "see struct DAO - DAO addresses",
          "_durationInSeconds": "PoolConfiguration.durationInSeconds",
          "_endWeights": "PoolConfiguration.endWeights",
          "_name": "PoolConfiguration.name",
          "_startTime": "PoolConfiguration.startTime",
          "_startWeights": "PoolConfiguration.startWeights",
          "_swapFee": "PoolConfiguration.swapFee",
          "_symbol": "PoolConfiguration.symbol",
          "_tokenAmounts": "PoolConfiguration.tokenAmounts",
          "_tokens": "PoolConfiguration.tokens"
        }
      },
      "deployLBP()": {
        "details": "Will deploy a balancer LBP. Can only be called by DAO.agent address"
      }
    },
    "title": "LBP Manager",
    "version": 1
  },
  "userdoc": {
    "kind": "user",
    "methods": {
      "deployLBP()": {
        "notice": "This function requires that the DAO.agent has approved this address for spending pool tokens (e.g. POP & USDC). It will revert if the DAO.agent has not approved this contract for spending those tokens. The PoolConfiguration.tokenAmounts for the pool tokens will be transferred from the DAO.agent to this contract and forwarded to the LBP"
      },
      "enableTrading()": {
        "notice": "Anyone can enable trading after the LBP has been deployed and the start time has been reached. Trading must be enabled for the pool to work."
      },
      "lbp()": {
        "notice": "lbp deployed LBP address"
      },
      "pause()": {
        "notice": "allows pauser to pause pool"
      },
      "unpause()": {
        "notice": "allows pauser to unpause pool"
      },
      "withdrawFromPool()": {
        "notice": "The DAO.agent can call this function to shutdown and unwind the pool. The proceeds will be forwarded to the DAO.treasury"
      }
    },
    "notice": "This contract manages a Balancer Liquidity Bootstrapping Pool (LBP) so that only a DAO can deploy and shutdown an LBP. After the LBP is deployed, trading must be enabled. While only the DAO has permission to deploy, shutdown and unwind the LBP, anyone can permissionlessly enable trading after the configured start time. When the LBP is completed (via `withdrawFromPool()`), the total balance of the LBP tokens will be sent to the DAO treasury.",
    "version": 1
  },
  "storageLayout": {
    "storage": [
      {
        "astId": 8099,
        "contract": "contracts/lbp/LBPManager.sol:LBPManager",
        "label": "lbp",
        "offset": 0,
        "slot": "0",
        "type": "t_contract(ILBP)8770"
      },
      {
        "astId": 8102,
        "contract": "contracts/lbp/LBPManager.sol:LBPManager",
        "label": "balancer",
        "offset": 0,
        "slot": "1",
        "type": "t_struct(Balancer)8090_storage"
      },
      {
        "astId": 8105,
        "contract": "contracts/lbp/LBPManager.sol:LBPManager",
        "label": "poolConfig",
        "offset": 0,
        "slot": "3",
        "type": "t_struct(PoolConfiguration)8083_storage"
      },
      {
        "astId": 8108,
        "contract": "contracts/lbp/LBPManager.sol:LBPManager",
        "label": "dao",
        "offset": 0,
        "slot": "14",
        "type": "t_struct(DAO)8095_storage"
      }
    ],
    "types": {
      "t_address": {
        "encoding": "inplace",
        "label": "address",
        "numberOfBytes": "20"
      },
      "t_array(t_contract(IERC20)860)dyn_storage": {
        "base": "t_contract(IERC20)860",
        "encoding": "dynamic_array",
        "label": "contract IERC20[]",
        "numberOfBytes": "32"
      },
      "t_array(t_uint256)dyn_storage": {
        "base": "t_uint256",
        "encoding": "dynamic_array",
        "label": "uint256[]",
        "numberOfBytes": "32"
      },
      "t_bool": {
        "encoding": "inplace",
        "label": "bool",
        "numberOfBytes": "1"
      },
      "t_contract(IERC20)860": {
        "encoding": "inplace",
        "label": "contract IERC20",
        "numberOfBytes": "20"
      },
      "t_contract(ILBP)8770": {
        "encoding": "inplace",
        "label": "contract ILBP",
        "numberOfBytes": "20"
      },
      "t_contract(ILBPFactory)8797": {
        "encoding": "inplace",
        "label": "contract ILBPFactory",
        "numberOfBytes": "20"
      },
      "t_contract(IVault)8895": {
        "encoding": "inplace",
        "label": "contract IVault",
        "numberOfBytes": "20"
      },
      "t_string_storage": {
        "encoding": "bytes",
        "label": "string",
        "numberOfBytes": "32"
      },
      "t_struct(Balancer)8090_storage": {
        "encoding": "inplace",
        "label": "struct LBPManager.Balancer",
        "members": [
          {
            "astId": 8086,
            "contract": "contracts/lbp/LBPManager.sol:LBPManager",
            "label": "lbpFactory",
            "offset": 0,
            "slot": "0",
            "type": "t_contract(ILBPFactory)8797"
          },
          {
            "astId": 8089,
            "contract": "contracts/lbp/LBPManager.sol:LBPManager",
            "label": "vault",
            "offset": 0,
            "slot": "1",
            "type": "t_contract(IVault)8895"
          }
        ],
        "numberOfBytes": "64"
      },
      "t_struct(DAO)8095_storage": {
        "encoding": "inplace",
        "label": "struct LBPManager.DAO",
        "members": [
          {
            "astId": 8092,
            "contract": "contracts/lbp/LBPManager.sol:LBPManager",
            "label": "agent",
            "offset": 0,
            "slot": "0",
            "type": "t_address"
          },
          {
            "astId": 8094,
            "contract": "contracts/lbp/LBPManager.sol:LBPManager",
            "label": "treasury",
            "offset": 0,
            "slot": "1",
            "type": "t_address"
          }
        ],
        "numberOfBytes": "64"
      },
      "t_struct(PoolConfiguration)8083_storage": {
        "encoding": "inplace",
        "label": "struct LBPManager.PoolConfiguration",
        "members": [
          {
            "astId": 8053,
            "contract": "contracts/lbp/LBPManager.sol:LBPManager",
            "label": "name",
            "offset": 0,
            "slot": "0",
            "type": "t_string_storage"
          },
          {
            "astId": 8055,
            "contract": "contracts/lbp/LBPManager.sol:LBPManager",
            "label": "symbol",
            "offset": 0,
            "slot": "1",
            "type": "t_string_storage"
          },
          {
            "astId": 8059,
            "contract": "contracts/lbp/LBPManager.sol:LBPManager",
            "label": "tokens",
            "offset": 0,
            "slot": "2",
            "type": "t_array(t_contract(IERC20)860)dyn_storage"
          },
          {
            "astId": 8062,
            "contract": "contracts/lbp/LBPManager.sol:LBPManager",
            "label": "tokenAmounts",
            "offset": 0,
            "slot": "3",
            "type": "t_array(t_uint256)dyn_storage"
          },
          {
            "astId": 8065,
            "contract": "contracts/lbp/LBPManager.sol:LBPManager",
            "label": "startWeights",
            "offset": 0,
            "slot": "4",
            "type": "t_array(t_uint256)dyn_storage"
          },
          {
            "astId": 8068,
            "contract": "contracts/lbp/LBPManager.sol:LBPManager",
            "label": "endWeights",
            "offset": 0,
            "slot": "5",
            "type": "t_array(t_uint256)dyn_storage"
          },
          {
            "astId": 8070,
            "contract": "contracts/lbp/LBPManager.sol:LBPManager",
            "label": "durationInSeconds",
            "offset": 0,
            "slot": "6",
            "type": "t_uint256"
          },
          {
            "astId": 8072,
            "contract": "contracts/lbp/LBPManager.sol:LBPManager",
            "label": "swapFee",
            "offset": 0,
            "slot": "7",
            "type": "t_uint256"
          },
          {
            "astId": 8074,
            "contract": "contracts/lbp/LBPManager.sol:LBPManager",
            "label": "owner",
            "offset": 0,
            "slot": "8",
            "type": "t_address"
          },
          {
            "astId": 8076,
            "contract": "contracts/lbp/LBPManager.sol:LBPManager",
            "label": "swapEnabledOnStart",
            "offset": 20,
            "slot": "8",
            "type": "t_bool"
          },
          {
            "astId": 8078,
            "contract": "contracts/lbp/LBPManager.sol:LBPManager",
            "label": "startTime",
            "offset": 0,
            "slot": "9",
            "type": "t_uint256"
          },
          {
            "astId": 8080,
            "contract": "contracts/lbp/LBPManager.sol:LBPManager",
            "label": "deployed",
            "offset": 0,
            "slot": "10",
            "type": "t_bool"
          },
          {
            "astId": 8082,
            "contract": "contracts/lbp/LBPManager.sol:LBPManager",
            "label": "pauser",
            "offset": 1,
            "slot": "10",
            "type": "t_address"
          }
        ],
        "numberOfBytes": "352"
      },
      "t_uint256": {
        "encoding": "inplace",
        "label": "uint256",
        "numberOfBytes": "32"
      }
    }
  }
}