{
  "address": "0x162A433068F51e18b7d13932F27e66a3f99E6890",
  "abi": [
    {
      "inputs": [
        {
          "internalType": "string",
          "name": "_name",
          "type": "string"
        },
        {
          "internalType": "string",
          "name": "_symbol",
          "type": "string"
        },
        {
          "internalType": "uint8",
          "name": "_decimals",
          "type": "uint8"
        }
      ],
      "stateMutability": "nonpayable",
      "type": "constructor"
    },
    {
      "anonymous": false,
      "inputs": [
        {
          "indexed": true,
          "internalType": "address",
          "name": "owner",
          "type": "address"
        },
        {
          "indexed": true,
          "internalType": "address",
          "name": "spender",
          "type": "address"
        },
        {
          "indexed": false,
          "internalType": "uint256",
          "name": "value",
          "type": "uint256"
        }
      ],
      "name": "Approval",
      "type": "event"
    },
    {
      "anonymous": false,
      "inputs": [
        {
          "indexed": true,
          "internalType": "address",
          "name": "from",
          "type": "address"
        },
        {
          "indexed": true,
          "internalType": "address",
          "name": "to",
          "type": "address"
        },
        {
          "indexed": false,
          "internalType": "uint256",
          "name": "value",
          "type": "uint256"
        }
      ],
      "name": "Transfer",
      "type": "event"
    },
    {
      "inputs": [],
      "name": "__decimals",
      "outputs": [
        {
          "internalType": "uint8",
          "name": "",
          "type": "uint8"
        }
      ],
      "stateMutability": "view",
      "type": "function"
    },
    {
      "inputs": [
        {
          "internalType": "address",
          "name": "owner",
          "type": "address"
        },
        {
          "internalType": "address",
          "name": "spender",
          "type": "address"
        }
      ],
      "name": "allowance",
      "outputs": [
        {
          "internalType": "uint256",
          "name": "",
          "type": "uint256"
        }
      ],
      "stateMutability": "view",
      "type": "function"
    },
    {
      "inputs": [
        {
          "internalType": "address",
          "name": "spender",
          "type": "address"
        },
        {
          "internalType": "uint256",
          "name": "amount",
          "type": "uint256"
        }
      ],
      "name": "approve",
      "outputs": [
        {
          "internalType": "bool",
          "name": "",
          "type": "bool"
        }
      ],
      "stateMutability": "nonpayable",
      "type": "function"
    },
    {
      "inputs": [
        {
          "internalType": "address",
          "name": "account",
          "type": "address"
        }
      ],
      "name": "balanceOf",
      "outputs": [
        {
          "internalType": "uint256",
          "name": "",
          "type": "uint256"
        }
      ],
      "stateMutability": "view",
      "type": "function"
    },
    {
      "inputs": [
        {
          "internalType": "address",
          "name": "from_",
          "type": "address"
        },
        {
          "internalType": "uint256",
          "name": "amount_",
          "type": "uint256"
        }
      ],
      "name": "burn",
      "outputs": [],
      "stateMutability": "nonpayable",
      "type": "function"
    },
    {
      "inputs": [],
      "name": "decimals",
      "outputs": [
        {
          "internalType": "uint8",
          "name": "",
          "type": "uint8"
        }
      ],
      "stateMutability": "view",
      "type": "function"
    },
    {
      "inputs": [
        {
          "internalType": "address",
          "name": "spender",
          "type": "address"
        },
        {
          "internalType": "uint256",
          "name": "subtractedValue",
          "type": "uint256"
        }
      ],
      "name": "decreaseAllowance",
      "outputs": [
        {
          "internalType": "bool",
          "name": "",
          "type": "bool"
        }
      ],
      "stateMutability": "nonpayable",
      "type": "function"
    },
    {
      "inputs": [
        {
          "internalType": "address",
          "name": "spender",
          "type": "address"
        },
        {
          "internalType": "uint256",
          "name": "addedValue",
          "type": "uint256"
        }
      ],
      "name": "increaseAllowance",
      "outputs": [
        {
          "internalType": "bool",
          "name": "",
          "type": "bool"
        }
      ],
      "stateMutability": "nonpayable",
      "type": "function"
    },
    {
      "inputs": [
        {
          "internalType": "address",
          "name": "to_",
          "type": "address"
        },
        {
          "internalType": "uint256",
          "name": "amount_",
          "type": "uint256"
        }
      ],
      "name": "mint",
      "outputs": [],
      "stateMutability": "nonpayable",
      "type": "function"
    },
    {
      "inputs": [],
      "name": "name",
      "outputs": [
        {
          "internalType": "string",
          "name": "",
          "type": "string"
        }
      ],
      "stateMutability": "view",
      "type": "function"
    },
    {
      "inputs": [],
      "name": "symbol",
      "outputs": [
        {
          "internalType": "string",
          "name": "",
          "type": "string"
        }
      ],
      "stateMutability": "view",
      "type": "function"
    },
    {
      "inputs": [],
      "name": "totalSupply",
      "outputs": [
        {
          "internalType": "uint256",
          "name": "",
          "type": "uint256"
        }
      ],
      "stateMutability": "view",
      "type": "function"
    },
    {
      "inputs": [
        {
          "internalType": "address",
          "name": "recipient",
          "type": "address"
        },
        {
          "internalType": "uint256",
          "name": "amount",
          "type": "uint256"
        }
      ],
      "name": "transfer",
      "outputs": [
        {
          "internalType": "bool",
          "name": "",
          "type": "bool"
        }
      ],
      "stateMutability": "nonpayable",
      "type": "function"
    },
    {
      "inputs": [
        {
          "internalType": "address",
          "name": "sender",
          "type": "address"
        },
        {
          "internalType": "address",
          "name": "recipient",
          "type": "address"
        },
        {
          "internalType": "uint256",
          "name": "amount",
          "type": "uint256"
        }
      ],
      "name": "transferFrom",
      "outputs": [
        {
          "internalType": "bool",
          "name": "",
          "type": "bool"
        }
      ],
      "stateMutability": "nonpayable",
      "type": "function"
    }
  ],
  "transactionHash": "0x161f147c52ed2d6f6c84777644f99b5ad4657c6569a6f787a208d75a2940c1ce",
  "args": [
    "POP",
    "POP",
    18
  ],
  "solcInputHash": "435c7fae3c308f00ab9a88e61c0f3c7b",
  "bytecode": "0x60806040526005805461ff0019166112001790553480156200002057600080fd5b5060405162000fb838038062000fb88339810160408190526200004391620001f5565b8251839083906200005c906003906020850190620000a4565b50805162000072906004906020840190620000a4565b50506005805460ff939093166101000261ff001960ff19909416601217939093169290921790915550620002c9915050565b828054620000b29062000276565b90600052602060002090601f016020900481019282620000d6576000855562000121565b82601f10620000f157805160ff191683800117855562000121565b8280016001018555821562000121579182015b828111156200012157825182559160200191906001019062000104565b506200012f92915062000133565b5090565b5b808211156200012f576000815560010162000134565b600082601f8301126200015b578081fd5b81516001600160401b0380821115620001785762000178620002b3565b6040516020601f8401601f1916820181018381118382101715620001a057620001a0620002b3565b6040528382528584018101871015620001b7578485fd5b8492505b83831015620001da5785830181015182840182015291820191620001bb565b83831115620001eb57848185840101525b5095945050505050565b6000806000606084860312156200020a578283fd5b83516001600160401b038082111562000221578485fd5b6200022f878388016200014a565b9450602086015191508082111562000245578384fd5b5062000254868287016200014a565b925050604084015160ff811681146200026b578182fd5b809150509250925092565b6002810460018216806200028b57607f821691505b60208210811415620002ad57634e487b7160e01b600052602260045260246000fd5b50919050565b634e487b7160e01b600052604160045260246000fd5b610cdf80620002d96000396000f3fe608060405234801561001057600080fd5b50600436106100ea5760003560e01c806370a082311161008c5780639dc29fac116100665780639dc29fac146101b5578063a457c2d7146101c8578063a9059cbb146101db578063dd62ed3e146101ee576100ea565b806370a08231146101925780638ea2da7d146101a557806395d89b41146101ad576100ea565b806323b872dd116100c857806323b872dd14610142578063313ce56714610155578063395093511461016a57806340c10f191461017d576100ea565b806306fdde03146100ef578063095ea7b31461010d57806318160ddd1461012d575b600080fd5b6100f7610201565b6040516101049190610922565b60405180910390f35b61012061011b3660046108ee565b610293565b6040516101049190610917565b6101356102b0565b6040516101049190610b7d565b6101206101503660046108b3565b6102b6565b61015d61033d565b6040516101049190610b86565b6101206101783660046108ee565b61034b565b61019061018b3660046108ee565b610399565b005b6101356101a0366004610867565b6103a7565b61015d6103c6565b6100f76103d4565b6101906101c33660046108ee565b6103e3565b6101206101d63660046108ee565b6103ed565b6101206101e93660046108ee565b610455565b6101356101fc366004610881565b610469565b60606003805461021090610bc3565b80601f016020809104026020016040519081016040528092919081815260200182805461023c90610bc3565b80156102895780601f1061025e57610100808354040283529160200191610289565b820191906000526020600020905b81548152906001019060200180831161026c57829003601f168201915b5050505050905090565b60006102a76102a0610494565b8484610498565b50600192915050565b60025490565b60006102c3848484610555565b610333846102cf610494565b61032e85604051806060016040528060288152602001610c5d602891396001600160a01b038a1660009081526001602052604081209061030d610494565b6001600160a01b03168152602081019190915260400160002054919061066a565b610498565b5060019392505050565b600554610100900460ff1690565b60006102a7610358610494565b8461032e8560016000610369610494565b6001600160a01b03908116825260208083019390935260409182016000908120918c168152925290205490610696565b6103a382826106a9565b5050565b6001600160a01b0381166000908152602081905260409020545b919050565b600554610100900460ff1681565b60606004805461021090610bc3565b6103a38282610769565b60006102a76103fa610494565b8461032e85604051806060016040528060258152602001610c856025913960016000610424610494565b6001600160a01b03908116825260208083019390935260409182016000908120918d1681529252902054919061066a565b60006102a7610462610494565b8484610555565b6001600160a01b03918216600090815260016020908152604080832093909416825291909152205490565b3390565b6001600160a01b0383166104c75760405162461bcd60e51b81526004016104be90610ae9565b60405180910390fd5b6001600160a01b0382166104ed5760405162461bcd60e51b81526004016104be906109d2565b6001600160a01b0380841660008181526001602090815260408083209487168084529490915290819020849055517f8c5be1e5ebec7d5bd14f71427d1e84f3dd0314c0f7b2291e5b200ac8c7c3b92590610548908590610b7d565b60405180910390a3505050565b6001600160a01b03831661057b5760405162461bcd60e51b81526004016104be90610a8c565b6001600160a01b0382166105a15760405162461bcd60e51b81526004016104be90610975565b6105ac83838361083f565b6105e981604051806060016040528060268152602001610c37602691396001600160a01b038616600090815260208190526040902054919061066a565b6001600160a01b0380851660009081526020819052604080822093909355908416815220546106189082610696565b6001600160a01b0380841660008181526020819052604090819020939093559151908516907fddf252ad1be2c89b69c2b068fc378daa952ba7f163c4a11628f55a4df523b3ef90610548908590610b7d565b6000818484111561068e5760405162461bcd60e51b81526004016104be9190610922565b505050900390565b60006106a28284610b94565b9392505050565b6001600160a01b0382166106cf5760405162461bcd60e51b81526004016104be90610b46565b6106db6000838361083f565b6002546106e89082610696565b6002556001600160a01b03821660009081526020819052604090205461070e9082610696565b6001600160a01b0383166000818152602081905260408082209390935591519091907fddf252ad1be2c89b69c2b068fc378daa952ba7f163c4a11628f55a4df523b3ef9061075d908590610b7d565b60405180910390a35050565b6001600160a01b03821661078f5760405162461bcd60e51b81526004016104be90610a2f565b61079b8260008361083f565b6107d881604051806060016040528060228152602001610c15602291396001600160a01b038516600090815260208190526040902054919061066a565b6001600160a01b0383166000908152602081905260409020556002546107fe9082610844565b6002556040516000906001600160a01b038416907fddf252ad1be2c89b69c2b068fc378daa952ba7f163c4a11628f55a4df523b3ef9061075d908590610b7d565b505050565b60006106a28284610bac565b80356001600160a01b03811681146103c157600080fd5b600060208284031215610878578081fd5b6106a282610850565b60008060408385031215610893578081fd5b61089c83610850565b91506108aa60208401610850565b90509250929050565b6000806000606084860312156108c7578081fd5b6108d084610850565b92506108de60208501610850565b9150604084013590509250925092565b60008060408385031215610900578182fd5b61090983610850565b946020939093013593505050565b901515815260200190565b6000602080835283518082850152825b8181101561094e57858101830151858201604001528201610932565b8181111561095f5783604083870101525b50601f01601f1916929092016040019392505050565b60208082526023908201527f45524332303a207472616e7366657220746f20746865207a65726f206164647260408201527f6573730000000000000000000000000000000000000000000000000000000000606082015260800190565b60208082526022908201527f45524332303a20617070726f766520746f20746865207a65726f20616464726560408201527f7373000000000000000000000000000000000000000000000000000000000000606082015260800190565b60208082526021908201527f45524332303a206275726e2066726f6d20746865207a65726f2061646472657360408201527f7300000000000000000000000000000000000000000000000000000000000000606082015260800190565b60208082526025908201527f45524332303a207472616e736665722066726f6d20746865207a65726f20616460408201527f6472657373000000000000000000000000000000000000000000000000000000606082015260800190565b60208082526024908201527f45524332303a20617070726f76652066726f6d20746865207a65726f2061646460408201527f7265737300000000000000000000000000000000000000000000000000000000606082015260800190565b6020808252601f908201527f45524332303a206d696e7420746f20746865207a65726f206164647265737300604082015260600190565b90815260200190565b60ff91909116815260200190565b60008219821115610ba757610ba7610bfe565b500190565b600082821015610bbe57610bbe610bfe565b500390565b600281046001821680610bd757607f821691505b60208210811415610bf857634e487b7160e01b600052602260045260246000fd5b50919050565b634e487b7160e01b600052601160045260246000fdfe45524332303a206275726e20616d6f756e7420657863656564732062616c616e636545524332303a207472616e7366657220616d6f756e7420657863656564732062616c616e636545524332303a207472616e7366657220616d6f756e74206578636565647320616c6c6f77616e636545524332303a2064656372656173656420616c6c6f77616e63652062656c6f77207a65726fa26469706673582212204d2d49bd4c015681cef36944f99bf2d43d3acf5dcf538d5485e3b665f6418c9564736f6c63430008000033",
  "devdoc": {
    "kind": "dev",
    "methods": {
      "allowance(address,address)": {
        "details": "See {IERC20-allowance}."
      },
      "approve(address,uint256)": {
        "details": "See {IERC20-approve}. Requirements: - `spender` cannot be the zero address."
      },
      "balanceOf(address)": {
        "details": "See {IERC20-balanceOf}."
      },
      "decimals()": {
        "details": "Returns the number of decimals used to get its user representation. For example, if `decimals` equals `2`, a balance of `505` tokens should be displayed to a user as `5,05` (`505 / 10 ** 2`). Tokens usually opt for a value of 18, imitating the relationship between Ether and Wei. This is the value {ERC20} uses, unless {_setupDecimals} is called. NOTE: This information is only used for _display_ purposes: it in no way affects any of the arithmetic of the contract, including {IERC20-balanceOf} and {IERC20-transfer}."
      },
      "decreaseAllowance(address,uint256)": {
        "details": "Atomically decreases the allowance granted to `spender` by the caller. This is an alternative to {approve} that can be used as a mitigation for problems described in {IERC20-approve}. Emits an {Approval} event indicating the updated allowance. Requirements: - `spender` cannot be the zero address. - `spender` must have allowance for the caller of at least `subtractedValue`."
      },
      "increaseAllowance(address,uint256)": {
        "details": "Atomically increases the allowance granted to `spender` by the caller. This is an alternative to {approve} that can be used as a mitigation for problems described in {IERC20-approve}. Emits an {Approval} event indicating the updated allowance. Requirements: - `spender` cannot be the zero address."
      },
      "name()": {
        "details": "Returns the name of the token."
      },
      "symbol()": {
        "details": "Returns the symbol of the token, usually a shorter version of the name."
      },
      "totalSupply()": {
        "details": "See {IERC20-totalSupply}."
      },
      "transfer(address,uint256)": {
        "details": "See {IERC20-transfer}. Requirements: - `recipient` cannot be the zero address. - the caller must have a balance of at least `amount`."
      },
      "transferFrom(address,address,uint256)": {
        "details": "See {IERC20-transferFrom}. Emits an {Approval} event indicating the updated allowance. This is not required by the EIP. See the note at the beginning of {ERC20}. Requirements: - `sender` and `recipient` cannot be the zero address. - `sender` must have a balance of at least `amount`. - the caller must have allowance for ``sender``'s tokens of at least `amount`."
      }
    },
    "version": 1
  },
  "userdoc": {
    "kind": "user",
    "methods": {},
    "version": 1
  },
  "storageLayout": {
    "storage": [
      {
        "astId": 7343,
        "contract": "contracts/mocks/MockERC20.sol:MockERC20",
        "label": "_balances",
        "offset": 0,
        "slot": "0",
        "type": "t_mapping(t_address,t_uint256)"
      },
      {
        "astId": 7349,
        "contract": "contracts/mocks/MockERC20.sol:MockERC20",
        "label": "_allowances",
        "offset": 0,
        "slot": "1",
        "type": "t_mapping(t_address,t_mapping(t_address,t_uint256))"
      },
      {
        "astId": 7351,
        "contract": "contracts/mocks/MockERC20.sol:MockERC20",
        "label": "_totalSupply",
        "offset": 0,
        "slot": "2",
        "type": "t_uint256"
      },
      {
        "astId": 7353,
        "contract": "contracts/mocks/MockERC20.sol:MockERC20",
        "label": "_name",
        "offset": 0,
        "slot": "3",
        "type": "t_string_storage"
      },
      {
        "astId": 7355,
        "contract": "contracts/mocks/MockERC20.sol:MockERC20",
        "label": "_symbol",
        "offset": 0,
        "slot": "4",
        "type": "t_string_storage"
      },
      {
        "astId": 7357,
        "contract": "contracts/mocks/MockERC20.sol:MockERC20",
        "label": "_decimals",
        "offset": 0,
        "slot": "5",
        "type": "t_uint8"
      },
      {
        "astId": 8281,
        "contract": "contracts/mocks/MockERC20.sol:MockERC20",
        "label": "__decimals",
        "offset": 1,
        "slot": "5",
        "type": "t_uint8"
      }
    ],
    "types": {
      "t_address": {
        "encoding": "inplace",
        "label": "address",
        "numberOfBytes": "20"
      },
      "t_mapping(t_address,t_mapping(t_address,t_uint256))": {
        "encoding": "mapping",
        "key": "t_address",
        "label": "mapping(address => mapping(address => uint256))",
        "numberOfBytes": "32",
        "value": "t_mapping(t_address,t_uint256)"
      },
      "t_mapping(t_address,t_uint256)": {
        "encoding": "mapping",
        "key": "t_address",
        "label": "mapping(address => uint256)",
        "numberOfBytes": "32",
        "value": "t_uint256"
      },
      "t_string_storage": {
        "encoding": "bytes",
        "label": "string",
        "numberOfBytes": "32"
      },
      "t_uint256": {
        "encoding": "inplace",
        "label": "uint256",
        "numberOfBytes": "32"
      },
      "t_uint8": {
        "encoding": "inplace",
        "label": "uint8",
        "numberOfBytes": "1"
      }
    }
  }
}