{
  "address": "0x2B0d36FACD61B71CC05ab8F3D2355ec3631C0dd5",
  "abi": [
    {
      "inputs": [
        {
          "internalType": "uint256",
          "name": "mintCap_",
          "type": "uint256"
        }
      ],
      "stateMutability": "nonpayable",
      "type": "constructor"
    },
    {
      "anonymous": false,
      "inputs": [
        {
          "indexed": true,
          "internalType": "address",
          "name": "owner",
          "type": "address"
        },
        {
          "indexed": true,
          "internalType": "address",
          "name": "spender",
          "type": "address"
        },
        {
          "indexed": false,
          "internalType": "uint256",
          "name": "value",
          "type": "uint256"
        }
      ],
      "name": "Approval",
      "type": "event"
    },
    {
      "anonymous": false,
      "inputs": [
        {
          "indexed": true,
          "internalType": "address",
          "name": "previousOwner",
          "type": "address"
        },
        {
          "indexed": true,
          "internalType": "address",
          "name": "newOwner",
          "type": "address"
        }
      ],
      "name": "OwnershipTransferred",
      "type": "event"
    },
    {
      "anonymous": false,
      "inputs": [
        {
          "indexed": true,
          "internalType": "address",
          "name": "from",
          "type": "address"
        },
        {
          "indexed": true,
          "internalType": "address",
          "name": "to",
          "type": "address"
        },
        {
          "indexed": false,
          "internalType": "uint256",
          "name": "value",
          "type": "uint256"
        }
      ],
      "name": "Transfer",
      "type": "event"
    },
    {
      "inputs": [],
      "name": "DOMAIN_SEPARATOR",
      "outputs": [
        {
          "internalType": "bytes32",
          "name": "",
          "type": "bytes32"
        }
      ],
      "stateMutability": "view",
      "type": "function"
    },
    {
      "inputs": [
        {
          "internalType": "address",
          "name": "owner",
          "type": "address"
        },
        {
          "internalType": "address",
          "name": "spender",
          "type": "address"
        }
      ],
      "name": "allowance",
      "outputs": [
        {
          "internalType": "uint256",
          "name": "",
          "type": "uint256"
        }
      ],
      "stateMutability": "view",
      "type": "function"
    },
    {
      "inputs": [
        {
          "internalType": "address",
          "name": "spender",
          "type": "address"
        },
        {
          "internalType": "uint256",
          "name": "amount",
          "type": "uint256"
        }
      ],
      "name": "approve",
      "outputs": [
        {
          "internalType": "bool",
          "name": "",
          "type": "bool"
        }
      ],
      "stateMutability": "nonpayable",
      "type": "function"
    },
    {
      "inputs": [
        {
          "internalType": "address",
          "name": "account",
          "type": "address"
        }
      ],
      "name": "balanceOf",
      "outputs": [
        {
          "internalType": "uint256",
          "name": "",
          "type": "uint256"
        }
      ],
      "stateMutability": "view",
      "type": "function"
    },
    {
      "inputs": [
        {
          "internalType": "uint256",
          "name": "amount",
          "type": "uint256"
        }
      ],
      "name": "burn",
      "outputs": [],
      "stateMutability": "nonpayable",
      "type": "function"
    },
    {
      "inputs": [
        {
          "internalType": "address",
          "name": "account",
          "type": "address"
        },
        {
          "internalType": "uint256",
          "name": "amount",
          "type": "uint256"
        }
      ],
      "name": "burnFrom",
      "outputs": [],
      "stateMutability": "nonpayable",
      "type": "function"
    },
    {
      "inputs": [],
      "name": "decimals",
      "outputs": [
        {
          "internalType": "uint8",
          "name": "",
          "type": "uint8"
        }
      ],
      "stateMutability": "view",
      "type": "function"
    },
    {
      "inputs": [
        {
          "internalType": "address",
          "name": "spender",
          "type": "address"
        },
        {
          "internalType": "uint256",
          "name": "subtractedValue",
          "type": "uint256"
        }
      ],
      "name": "decreaseAllowance",
      "outputs": [
        {
          "internalType": "bool",
          "name": "",
          "type": "bool"
        }
      ],
      "stateMutability": "nonpayable",
      "type": "function"
    },
    {
      "inputs": [
        {
          "internalType": "address",
          "name": "spender",
          "type": "address"
        },
        {
          "internalType": "uint256",
          "name": "addedValue",
          "type": "uint256"
        }
      ],
      "name": "increaseAllowance",
      "outputs": [
        {
          "internalType": "bool",
          "name": "",
          "type": "bool"
        }
      ],
      "stateMutability": "nonpayable",
      "type": "function"
    },
    {
      "inputs": [
        {
          "internalType": "address",
          "name": "to",
          "type": "address"
        },
        {
          "internalType": "uint256",
          "name": "amount",
          "type": "uint256"
        }
      ],
      "name": "mint",
      "outputs": [],
      "stateMutability": "nonpayable",
      "type": "function"
    },
    {
      "inputs": [],
      "name": "mintCap",
      "outputs": [
        {
          "internalType": "uint256",
          "name": "",
          "type": "uint256"
        }
      ],
      "stateMutability": "view",
      "type": "function"
    },
    {
      "inputs": [],
      "name": "name",
      "outputs": [
        {
          "internalType": "string",
          "name": "",
          "type": "string"
        }
      ],
      "stateMutability": "view",
      "type": "function"
    },
    {
      "inputs": [
        {
          "internalType": "address",
          "name": "owner",
          "type": "address"
        }
      ],
      "name": "nonces",
      "outputs": [
        {
          "internalType": "uint256",
          "name": "",
          "type": "uint256"
        }
      ],
      "stateMutability": "view",
      "type": "function"
    },
    {
      "inputs": [],
      "name": "owner",
      "outputs": [
        {
          "internalType": "address",
          "name": "",
          "type": "address"
        }
      ],
      "stateMutability": "view",
      "type": "function"
    },
    {
      "inputs": [
        {
          "internalType": "address",
          "name": "owner",
          "type": "address"
        },
        {
          "internalType": "address",
          "name": "spender",
          "type": "address"
        },
        {
          "internalType": "uint256",
          "name": "value",
          "type": "uint256"
        },
        {
          "internalType": "uint256",
          "name": "deadline",
          "type": "uint256"
        },
        {
          "internalType": "uint8",
          "name": "v",
          "type": "uint8"
        },
        {
          "internalType": "bytes32",
          "name": "r",
          "type": "bytes32"
        },
        {
          "internalType": "bytes32",
          "name": "s",
          "type": "bytes32"
        }
      ],
      "name": "permit",
      "outputs": [],
      "stateMutability": "nonpayable",
      "type": "function"
    },
    {
      "inputs": [],
      "name": "renounceOwnership",
      "outputs": [],
      "stateMutability": "nonpayable",
      "type": "function"
    },
    {
      "inputs": [],
      "name": "symbol",
      "outputs": [
        {
          "internalType": "string",
          "name": "",
          "type": "string"
        }
      ],
      "stateMutability": "view",
      "type": "function"
    },
    {
      "inputs": [],
      "name": "totalMinted",
      "outputs": [
        {
          "internalType": "uint256",
          "name": "",
          "type": "uint256"
        }
      ],
      "stateMutability": "view",
      "type": "function"
    },
    {
      "inputs": [],
      "name": "totalSupply",
      "outputs": [
        {
          "internalType": "uint256",
          "name": "",
          "type": "uint256"
        }
      ],
      "stateMutability": "view",
      "type": "function"
    },
    {
      "inputs": [
        {
          "internalType": "address",
          "name": "recipient",
          "type": "address"
        },
        {
          "internalType": "uint256",
          "name": "amount",
          "type": "uint256"
        }
      ],
      "name": "transfer",
      "outputs": [
        {
          "internalType": "bool",
          "name": "",
          "type": "bool"
        }
      ],
      "stateMutability": "nonpayable",
      "type": "function"
    },
    {
      "inputs": [
        {
          "internalType": "address",
          "name": "sender",
          "type": "address"
        },
        {
          "internalType": "address",
          "name": "recipient",
          "type": "address"
        },
        {
          "internalType": "uint256",
          "name": "amount",
          "type": "uint256"
        }
      ],
      "name": "transferFrom",
      "outputs": [
        {
          "internalType": "bool",
          "name": "",
          "type": "bool"
        }
      ],
      "stateMutability": "nonpayable",
      "type": "function"
    },
    {
      "inputs": [
        {
          "internalType": "address",
          "name": "newOwner",
          "type": "address"
        }
      ],
      "name": "transferOwnership",
      "outputs": [],
      "stateMutability": "nonpayable",
      "type": "function"
    }
  ],
  "transactionHash": "0x09122c1a1c0f153455d06e16064904e81e8f503695a2e73edfa1dca1af215e05",
  "args": [
    "2000000000000000000000000"
  ],
  "solcInputHash": "0e2d243efd06c5832267e40ce916613e",
  "bytecode": "0x6101806040527f6e71edae12b1b97f4d1f60370fef10105fa2faae0126114a169c64845d6126c9610140523480156200003757600080fd5b5060405162001e1138038062001e118339810160408190526200005a91620002f7565b60405180604001604052806020815260200160008051602062001df183398151915281525080604051806040016040528060018152602001603160f81b81525060405180604001604052806020815260200160008051602062001df183398151915281525060405180604001604052806004815260200163078504f560e41b815250620000f6620000f0620001c160201b60201c565b620001c5565b81516200010b90600490602085019062000251565b5080516200012190600590602084019062000251565b5050825160208085019190912083519184019190912060e08290526101008190524660a0529091507f8b73c3c69bb8fe3d512ecc4cf759cc79239f7b179b0ffacaa9a75d522b39400f6200017781848462000215565b6080523060601b60c052610120525050508215159150620001b790505760405162461bcd60e51b8152600401620001ae906200033c565b60405180910390fd5b61016052620003a0565b3390565b600080546001600160a01b038381166001600160a01b0319831681178455604051919092169283917f8be0079c531659141344cd1fd0a4f28419497f9722a3daafe3b4186f6b6457e09190a35050565b600083838346306040516020016200023295949392919062000310565b6040516020818303038152906040528051906020012090509392505050565b8280546200025f9062000363565b90600052602060002090601f016020900481019282620002835760008555620002ce565b82601f106200029e57805160ff1916838001178555620002ce565b82800160010185558215620002ce579182015b82811115620002ce578251825591602001919060010190620002b1565b50620002dc929150620002e0565b5090565b5b80821115620002dc5760008155600101620002e1565b60006020828403121562000309578081fd5b5051919050565b9485526020850193909352604084019190915260608301526001600160a01b0316608082015260a00190565b6020808252600d908201526c04d696e7420636170206973203609c1b604082015260600190565b6002810460018216806200037857607f821691505b602082108114156200039a57634e487b7160e01b600052602260045260246000fd5b50919050565b60805160a05160c05160601c60e051610100516101205161014051610160516119e86200040960003960006105960152600061070701526000610aca01526000610b0c01526000610aeb01526000610a4d01526000610a7701526000610aa101526119e86000f3fe608060405234801561001057600080fd5b50600436106101825760003560e01c806376c71ca1116100d8578063a2309ff81161008c578063d505accf11610066578063d505accf146102d9578063dd62ed3e146102ec578063f2fde38b146102ff57610182565b8063a2309ff8146102ab578063a457c2d7146102b3578063a9059cbb146102c657610182565b80637ecebe00116100bd5780637ecebe001461027b5780638da5cb5b1461028e57806395d89b41146102a357610182565b806376c71ca11461026057806379cc67901461026857610182565b80633644e5151161013a57806342966c681161011457806342966c681461023257806370a0823114610245578063715018a61461025857610182565b80633644e51514610202578063395093511461020a57806340c10f191461021d57610182565b806318160ddd1161016b57806318160ddd146101c557806323b872dd146101da578063313ce567146101ed57610182565b806306fdde0314610187578063095ea7b3146101a5575b600080fd5b61018f610312565b60405161019c91906112d5565b60405180910390f35b6101b86101b33660046111b8565b6103a5565b60405161019c9190611243565b6101cd6103c2565b60405161019c919061124e565b6101b86101e836600461110c565b6103c8565b6101f5610461565b60405161019c919061192a565b6101cd610466565b6101b86102183660046111b8565b610475565b61023061022b3660046111b8565b6104c9565b005b6102306102403660046111e1565b610516565b6101cd6102533660046110b9565b61052a565b610230610549565b6101cd610594565b6102306102763660046111b8565b6105b8565b6101cd6102893660046110b9565b61060b565b610296610632565b60405161019c919061122f565b61018f610641565b6101cd610650565b6101b86102c13660046111b8565b610656565b6101b86102d43660046111b8565b6106cf565b6102306102e7366004611147565b6106e3565b6101cd6102fa3660046110da565b6107c5565b61023061030d3660046110b9565b6107f0565b60606004805461032190611967565b80601f016020809104026020016040519081016040528092919081815260200182805461034d90611967565b801561039a5780601f1061036f5761010080835404028352916020019161039a565b820191906000526020600020905b81548152906001019060200180831161037d57829003601f168201915b505050505090505b90565b60006103b96103b261085e565b8484610862565b50600192915050565b60035490565b60006103d5848484610916565b6001600160a01b0384166000908152600260205260408120816103f661085e565b6001600160a01b03166001600160a01b03168152602001908152602001600020549050828110156104425760405162461bcd60e51b815260040161043990611659565b60405180910390fd5b6104568561044e61085e565b858403610862565b506001949350505050565b601290565b6000610470610a40565b905090565b60006103b961048261085e565b84846002600061049061085e565b6001600160a01b03908116825260208083019390935260409182016000908120918b16815292529020546104c49190611938565b610862565b6104d161085e565b6001600160a01b03166104e2610632565b6001600160a01b0316146105085760405162461bcd60e51b8152600401610439906116b6565b6105128282610b37565b5050565b61052761052161085e565b82610b8d565b50565b6001600160a01b0381166000908152600160205260409020545b919050565b61055161085e565b6001600160a01b0316610562610632565b6001600160a01b0316146105885760405162461bcd60e51b8152600401610439906116b6565b6105926000610c7e565b565b7f000000000000000000000000000000000000000000000000000000000000000090565b60006105c6836102fa61085e565b9050818110156105e85760405162461bcd60e51b8152600401610439906116eb565b6105fc836105f461085e565b848403610862565b6106068383610b8d565b505050565b6001600160a01b038116600090815260066020526040812061062c90610ce6565b92915050565b6000546001600160a01b031690565b60606005805461032190611967565b60075490565b6000806002600061066561085e565b6001600160a01b03908116825260208083019390935260409182016000908120918816815292529020549050828110156106b15760405162461bcd60e51b815260040161043990611896565b6106c56106bc61085e565b85858403610862565b5060019392505050565b60006103b96106dc61085e565b8484610916565b834211156107035760405162461bcd60e51b81526004016104399061150a565b60007f00000000000000000000000000000000000000000000000000000000000000008888886107328c610cea565b8960405160200161074896959493929190611257565b604051602081830303815290604052805190602001209050600061076b82610d1c565b9050600061077b82878787610d2f565b9050896001600160a01b0316816001600160a01b0316146107ae5760405162461bcd60e51b815260040161043990611622565b6107b98a8a8a610862565b50505050505050505050565b6001600160a01b03918216600090815260026020908152604080832093909416825291909152205490565b6107f861085e565b6001600160a01b0316610809610632565b6001600160a01b03161461082f5760405162461bcd60e51b8152600401610439906116b6565b6001600160a01b0381166108555760405162461bcd60e51b815260040161043990611450565b61052781610c7e565b3390565b6001600160a01b0383166108885760405162461bcd60e51b815260040161043990611802565b6001600160a01b0382166108ae5760405162461bcd60e51b8152600401610439906114ad565b6001600160a01b0380841660008181526002602090815260408083209487168084529490915290819020849055517f8c5be1e5ebec7d5bd14f71427d1e84f3dd0314c0f7b2291e5b200ac8c7c3b9259061090990859061124e565b60405180910390a3505050565b6001600160a01b03831661093c5760405162461bcd60e51b8152600401610439906117a5565b6001600160a01b0382166109625760405162461bcd60e51b81526004016104399061135f565b61096d838383610606565b6001600160a01b038316600090815260016020526040902054818110156109a65760405162461bcd60e51b815260040161043990611541565b6001600160a01b038085166000908152600160205260408082208585039055918516815290812080548492906109dd908490611938565b92505081905550826001600160a01b0316846001600160a01b03167fddf252ad1be2c89b69c2b068fc378daa952ba7f163c4a11628f55a4df523b3ef84604051610a27919061124e565b60405180910390a3610a3a848484610606565b50505050565b6000306001600160a01b037f000000000000000000000000000000000000000000000000000000000000000016148015610a9957507f000000000000000000000000000000000000000000000000000000000000000046145b15610ac557507f00000000000000000000000000000000000000000000000000000000000000006103a2565b610b307f00000000000000000000000000000000000000000000000000000000000000007f00000000000000000000000000000000000000000000000000000000000000007f0000000000000000000000000000000000000000000000000000000000000000610d57565b90506103a2565b610b3f610594565b81600754610b4d9190611938565b1115610b6b5760405162461bcd60e51b81526004016104399061185f565b8060076000828254610b7d9190611938565b9091555061051290508282610d91565b6001600160a01b038216610bb35760405162461bcd60e51b815260040161043990611748565b610bbf82600083610606565b6001600160a01b03821660009081526001602052604090205481811015610bf85760405162461bcd60e51b8152600401610439906113bc565b6001600160a01b0383166000908152600160205260408120838303905560038054849290610c27908490611950565b90915550506040516000906001600160a01b038516907fddf252ad1be2c89b69c2b068fc378daa952ba7f163c4a11628f55a4df523b3ef90610c6a90869061124e565b60405180910390a361060683600084610606565b600080546001600160a01b038381167fffffffffffffffffffffffff0000000000000000000000000000000000000000831681178455604051919092169283917f8be0079c531659141344cd1fd0a4f28419497f9722a3daafe3b4186f6b6457e09190a35050565b5490565b6001600160a01b0381166000908152600660205260408120610d0b81610ce6565b9150610d1681610e59565b50919050565b600061062c610d29610a40565b83610e62565b6000806000610d4087878787610e95565b91509150610d4d81610f75565b5095945050505050565b60008383834630604051602001610d7295949392919061128b565b6040516020818303038152906040528051906020012090509392505050565b6001600160a01b038216610db75760405162461bcd60e51b8152600401610439906118f3565b610dc360008383610606565b8060036000828254610dd59190611938565b90915550506001600160a01b03821660009081526001602052604081208054839290610e02908490611938565b90915550506040516001600160a01b038316906000907fddf252ad1be2c89b69c2b068fc378daa952ba7f163c4a11628f55a4df523b3ef90610e4590859061124e565b60405180910390a361051260008383610606565b80546001019055565b60008282604051602001610e779291906111f9565b60405160208183030381529060405280519060200120905092915050565b6000807f7fffffffffffffffffffffffffffffff5d576e7357a4501ddfe92f46681b20a0831115610ecc5750600090506003610f6c565b8460ff16601b14158015610ee457508460ff16601c14155b15610ef55750600090506004610f6c565b600060018787878760405160008152602001604052604051610f1a94939291906112b7565b6020604051602081039080840390855afa158015610f3c573d6000803e3d6000fd5b5050604051601f1901519150506001600160a01b038116610f6557600060019250925050610f6c565b9150600090505b94509492505050565b6000816004811115610f9757634e487b7160e01b600052602160045260246000fd5b1415610fa257610527565b6001816004811115610fc457634e487b7160e01b600052602160045260246000fd5b1415610fe25760405162461bcd60e51b815260040161043990611328565b600281600481111561100457634e487b7160e01b600052602160045260246000fd5b14156110225760405162461bcd60e51b815260040161043990611419565b600381600481111561104457634e487b7160e01b600052602160045260246000fd5b14156110625760405162461bcd60e51b81526004016104399061159e565b600481600481111561108457634e487b7160e01b600052602160045260246000fd5b14156105275760405162461bcd60e51b8152600401610439906115e0565b80356001600160a01b038116811461054457600080fd5b6000602082840312156110ca578081fd5b6110d3826110a2565b9392505050565b600080604083850312156110ec578081fd5b6110f5836110a2565b9150611103602084016110a2565b90509250929050565b600080600060608486031215611120578081fd5b611129846110a2565b9250611137602085016110a2565b9150604084013590509250925092565b600080600080600080600060e0888a031215611161578283fd5b61116a886110a2565b9650611178602089016110a2565b95506040880135945060608801359350608088013560ff8116811461119b578384fd5b9699959850939692959460a0840135945060c09093013592915050565b600080604083850312156111ca578182fd5b6111d3836110a2565b946020939093013593505050565b6000602082840312156111f2578081fd5b5035919050565b7f190100000000000000000000000000000000000000000000000000000000000081526002810192909252602282015260420190565b6001600160a01b0391909116815260200190565b901515815260200190565b90815260200190565b9586526001600160a01b0394851660208701529290931660408501526060840152608083019190915260a082015260c00190565b9485526020850193909352604084019190915260608301526001600160a01b0316608082015260a00190565b93845260ff9290921660208401526040830152606082015260800190565b6000602080835283518082850152825b81811015611301578581018301518582016040015282016112e5565b818111156113125783604083870101525b50601f01601f1916929092016040019392505050565b60208082526018908201527f45434453413a20696e76616c6964207369676e61747572650000000000000000604082015260600190565b60208082526023908201527f45524332303a207472616e7366657220746f20746865207a65726f206164647260408201527f6573730000000000000000000000000000000000000000000000000000000000606082015260800190565b60208082526022908201527f45524332303a206275726e20616d6f756e7420657863656564732062616c616e60408201527f6365000000000000000000000000000000000000000000000000000000000000606082015260800190565b6020808252601f908201527f45434453413a20696e76616c6964207369676e6174757265206c656e67746800604082015260600190565b60208082526026908201527f4f776e61626c653a206e6577206f776e657220697320746865207a65726f206160408201527f6464726573730000000000000000000000000000000000000000000000000000606082015260800190565b60208082526022908201527f45524332303a20617070726f766520746f20746865207a65726f20616464726560408201527f7373000000000000000000000000000000000000000000000000000000000000606082015260800190565b6020808252601d908201527f45524332305065726d69743a206578706972656420646561646c696e65000000604082015260600190565b60208082526026908201527f45524332303a207472616e7366657220616d6f756e742065786365656473206260408201527f616c616e63650000000000000000000000000000000000000000000000000000606082015260800190565b60208082526022908201527f45434453413a20696e76616c6964207369676e6174757265202773272076616c604082015261756560f01b606082015260800190565b60208082526022908201527f45434453413a20696e76616c6964207369676e6174757265202776272076616c604082015261756560f01b606082015260800190565b6020808252601e908201527f45524332305065726d69743a20696e76616c6964207369676e61747572650000604082015260600190565b60208082526028908201527f45524332303a207472616e7366657220616d6f756e742065786365656473206160408201527f6c6c6f77616e6365000000000000000000000000000000000000000000000000606082015260800190565b6020808252818101527f4f776e61626c653a2063616c6c6572206973206e6f7420746865206f776e6572604082015260600190565b60208082526024908201527f45524332303a206275726e20616d6f756e74206578636565647320616c6c6f7760408201527f616e636500000000000000000000000000000000000000000000000000000000606082015260800190565b60208082526021908201527f45524332303a206275726e2066726f6d20746865207a65726f2061646472657360408201527f7300000000000000000000000000000000000000000000000000000000000000606082015260800190565b60208082526025908201527f45524332303a207472616e736665722066726f6d20746865207a65726f20616460408201527f6472657373000000000000000000000000000000000000000000000000000000606082015260800190565b60208082526024908201527f45524332303a20617070726f76652066726f6d20746865207a65726f2061646460408201527f7265737300000000000000000000000000000000000000000000000000000000606082015260800190565b60208082526011908201527f4d696e7420636170206578636565646564000000000000000000000000000000604082015260600190565b60208082526025908201527f45524332303a2064656372656173656420616c6c6f77616e63652062656c6f7760408201527f207a65726f000000000000000000000000000000000000000000000000000000606082015260800190565b6020808252601f908201527f45524332303a206d696e7420746f20746865207a65726f206164647265737300604082015260600190565b60ff91909116815260200190565b6000821982111561194b5761194b61199c565b500190565b6000828210156119625761196261199c565b500390565b60028104600182168061197b57607f821691505b60208210811415610d1657634e487b7160e01b600052602260045260246000fd5b634e487b7160e01b600052601160045260246000fdfea2646970667358221220ba1fabb23a223ac64a51bc205bafe30d9311863ec9dbea80eb6c7b260460ed9c64736f6c63430008000033506f70636f726e2e4e6574776f726b202852656465656d61626c6520504f5029",
  "devdoc": {
    "kind": "dev",
    "methods": {
      "DOMAIN_SEPARATOR()": {
        "details": "See {IERC20Permit-DOMAIN_SEPARATOR}."
      },
      "allowance(address,address)": {
        "details": "See {IERC20-allowance}."
      },
      "approve(address,uint256)": {
        "details": "See {IERC20-approve}. Requirements: - `spender` cannot be the zero address."
      },
      "balanceOf(address)": {
        "details": "See {IERC20-balanceOf}."
      },
      "burn(uint256)": {
        "details": "Destroys `amount` tokens from the caller. See {ERC20-_burn}."
      },
      "burnFrom(address,uint256)": {
        "details": "Destroys `amount` tokens from `account`, deducting from the caller's allowance. See {ERC20-_burn} and {ERC20-allowance}. Requirements: - the caller must have allowance for ``accounts``'s tokens of at least `amount`."
      },
      "decimals()": {
        "details": "Returns the number of decimals used to get its user representation. For example, if `decimals` equals `2`, a balance of `505` tokens should be displayed to a user as `5.05` (`505 / 10 ** 2`). Tokens usually opt for a value of 18, imitating the relationship between Ether and Wei. This is the value {ERC20} uses, unless this function is overridden; NOTE: This information is only used for _display_ purposes: it in no way affects any of the arithmetic of the contract, including {IERC20-balanceOf} and {IERC20-transfer}."
      },
      "decreaseAllowance(address,uint256)": {
        "details": "Atomically decreases the allowance granted to `spender` by the caller. This is an alternative to {approve} that can be used as a mitigation for problems described in {IERC20-approve}. Emits an {Approval} event indicating the updated allowance. Requirements: - `spender` cannot be the zero address. - `spender` must have allowance for the caller of at least `subtractedValue`."
      },
      "increaseAllowance(address,uint256)": {
        "details": "Atomically increases the allowance granted to `spender` by the caller. This is an alternative to {approve} that can be used as a mitigation for problems described in {IERC20-approve}. Emits an {Approval} event indicating the updated allowance. Requirements: - `spender` cannot be the zero address."
      },
      "name()": {
        "details": "Returns the name of the token."
      },
      "nonces(address)": {
        "details": "See {IERC20Permit-nonces}."
      },
      "owner()": {
        "details": "Returns the address of the current owner."
      },
      "permit(address,address,uint256,uint256,uint8,bytes32,bytes32)": {
        "details": "See {IERC20Permit-permit}."
      },
      "renounceOwnership()": {
        "details": "Leaves the contract without owner. It will not be possible to call `onlyOwner` functions anymore. Can only be called by the current owner. NOTE: Renouncing ownership will leave the contract without an owner, thereby removing any functionality that is only available to the owner."
      },
      "symbol()": {
        "details": "Returns the symbol of the token, usually a shorter version of the name."
      },
      "totalSupply()": {
        "details": "See {IERC20-totalSupply}."
      },
      "transfer(address,uint256)": {
        "details": "See {IERC20-transfer}. Requirements: - `recipient` cannot be the zero address. - the caller must have a balance of at least `amount`."
      },
      "transferFrom(address,address,uint256)": {
        "details": "See {IERC20-transferFrom}. Emits an {Approval} event indicating the updated allowance. This is not required by the EIP. See the note at the beginning of {ERC20}. Requirements: - `sender` and `recipient` cannot be the zero address. - `sender` must have a balance of at least `amount`. - the caller must have allowance for ``sender``'s tokens of at least `amount`."
      },
      "transferOwnership(address)": {
        "details": "Transfers ownership of the contract to a new account (`newOwner`). Can only be called by the current owner."
      }
    },
    "version": 1
  },
  "userdoc": {
    "kind": "user",
    "methods": {},
    "version": 1
  },
  "storageLayout": {
    "storage": [
      {
        "astId": 7,
        "contract": "contracts/core/tokens/XPop.sol:XPop",
        "label": "_owner",
        "offset": 0,
        "slot": "0",
        "type": "t_address"
      },
      {
        "astId": 252,
        "contract": "contracts/core/tokens/XPop.sol:XPop",
        "label": "_balances",
        "offset": 0,
        "slot": "1",
        "type": "t_mapping(t_address,t_uint256)"
      },
      {
        "astId": 258,
        "contract": "contracts/core/tokens/XPop.sol:XPop",
        "label": "_allowances",
        "offset": 0,
        "slot": "2",
        "type": "t_mapping(t_address,t_mapping(t_address,t_uint256))"
      },
      {
        "astId": 260,
        "contract": "contracts/core/tokens/XPop.sol:XPop",
        "label": "_totalSupply",
        "offset": 0,
        "slot": "3",
        "type": "t_uint256"
      },
      {
        "astId": 262,
        "contract": "contracts/core/tokens/XPop.sol:XPop",
        "label": "_name",
        "offset": 0,
        "slot": "4",
        "type": "t_string_storage"
      },
      {
        "astId": 264,
        "contract": "contracts/core/tokens/XPop.sol:XPop",
        "label": "_symbol",
        "offset": 0,
        "slot": "5",
        "type": "t_string_storage"
      },
      {
        "astId": 970,
        "contract": "contracts/core/tokens/XPop.sol:XPop",
        "label": "_nonces",
        "offset": 0,
        "slot": "6",
        "type": "t_mapping(t_address,t_struct(Counter)1701_storage)"
      },
      {
        "astId": 5574,
        "contract": "contracts/core/tokens/XPop.sol:XPop",
        "label": "_totalMinted",
        "offset": 0,
        "slot": "7",
        "type": "t_uint256"
      }
    ],
    "types": {
      "t_address": {
        "encoding": "inplace",
        "label": "address",
        "numberOfBytes": "20"
      },
      "t_mapping(t_address,t_mapping(t_address,t_uint256))": {
        "encoding": "mapping",
        "key": "t_address",
        "label": "mapping(address => mapping(address => uint256))",
        "numberOfBytes": "32",
        "value": "t_mapping(t_address,t_uint256)"
      },
      "t_mapping(t_address,t_struct(Counter)1701_storage)": {
        "encoding": "mapping",
        "key": "t_address",
        "label": "mapping(address => struct Counters.Counter)",
        "numberOfBytes": "32",
        "value": "t_struct(Counter)1701_storage"
      },
      "t_mapping(t_address,t_uint256)": {
        "encoding": "mapping",
        "key": "t_address",
        "label": "mapping(address => uint256)",
        "numberOfBytes": "32",
        "value": "t_uint256"
      },
      "t_string_storage": {
        "encoding": "bytes",
        "label": "string",
        "numberOfBytes": "32"
      },
      "t_struct(Counter)1701_storage": {
        "encoding": "inplace",
        "label": "struct Counters.Counter",
        "members": [
          {
            "astId": 1700,
            "contract": "contracts/core/tokens/XPop.sol:XPop",
            "label": "_value",
            "offset": 0,
            "slot": "0",
            "type": "t_uint256"
          }
        ],
        "numberOfBytes": "32"
      },
      "t_uint256": {
        "encoding": "inplace",
        "label": "uint256",
        "numberOfBytes": "32"
      }
    }
  }
}