{
  "address": "0xAF3252153f65439a2c0065e43968A2E989985067",
  "abi": [
    {
      "inputs": [
        {
          "components": [
            {
              "internalType": "contract ILBPFactory",
              "name": "lbpFactory",
              "type": "address"
            },
            {
              "internalType": "contract IVault",
              "name": "vault",
              "type": "address"
            }
          ],
          "internalType": "struct LBPManager.Balancer",
          "name": "_balancer",
          "type": "tuple"
        },
        {
          "internalType": "string",
          "name": "_name",
          "type": "string"
        },
        {
          "internalType": "string",
          "name": "_symbol",
          "type": "string"
        },
        {
          "internalType": "contract IERC20[]",
          "name": "_tokens",
          "type": "address[]"
        },
        {
          "internalType": "uint256[]",
          "name": "_tokenAmounts",
          "type": "uint256[]"
        },
        {
          "internalType": "uint256[]",
          "name": "_startWeights",
          "type": "uint256[]"
        },
        {
          "internalType": "uint256[]",
          "name": "_endWeights",
          "type": "uint256[]"
        },
        {
          "internalType": "uint256",
          "name": "_swapFee",
          "type": "uint256"
        },
        {
          "internalType": "uint256",
          "name": "_durationInSeconds",
          "type": "uint256"
        },
        {
          "internalType": "uint256",
          "name": "_startTime",
          "type": "uint256"
        },
        {
          "components": [
            {
              "internalType": "address",
              "name": "agent",
              "type": "address"
            },
            {
              "internalType": "address",
              "name": "treasury",
              "type": "address"
            }
          ],
          "internalType": "struct LBPManager.DAO",
          "name": "_dao",
          "type": "tuple"
        }
      ],
      "stateMutability": "nonpayable",
      "type": "constructor"
    },
    {
      "anonymous": false,
      "inputs": [
        {
          "indexed": false,
          "internalType": "address",
          "name": "poolAddress",
          "type": "address"
        }
      ],
      "name": "CreatedPool",
      "type": "event"
    },
    {
      "anonymous": false,
      "inputs": [
        {
          "indexed": false,
          "internalType": "bytes32",
          "name": "poolID",
          "type": "bytes32"
        }
      ],
      "name": "ExitedPool",
      "type": "event"
    },
    {
      "anonymous": false,
      "inputs": [
        {
          "indexed": false,
          "internalType": "bytes32",
          "name": "poolID",
          "type": "bytes32"
        }
      ],
      "name": "JoinedPool",
      "type": "event"
    },
    {
      "anonymous": false,
      "inputs": [
        {
          "indexed": false,
          "internalType": "bool",
          "name": "enabled",
          "type": "bool"
        }
      ],
      "name": "SwapEnabled",
      "type": "event"
    },
    {
      "inputs": [],
      "name": "balancer",
      "outputs": [
        {
          "internalType": "contract ILBPFactory",
          "name": "lbpFactory",
          "type": "address"
        },
        {
          "internalType": "contract IVault",
          "name": "vault",
          "type": "address"
        }
      ],
      "stateMutability": "view",
      "type": "function"
    },
    {
      "inputs": [],
      "name": "dao",
      "outputs": [
        {
          "internalType": "address",
          "name": "agent",
          "type": "address"
        },
        {
          "internalType": "address",
          "name": "treasury",
          "type": "address"
        }
      ],
      "stateMutability": "view",
      "type": "function"
    },
    {
      "inputs": [],
      "name": "deployLBP",
      "outputs": [],
      "stateMutability": "nonpayable",
      "type": "function"
    },
    {
      "inputs": [],
      "name": "enableTrading",
      "outputs": [],
      "stateMutability": "nonpayable",
      "type": "function"
    },
    {
      "inputs": [],
      "name": "lbp",
      "outputs": [
        {
          "internalType": "contract ILBP",
          "name": "",
          "type": "address"
        }
      ],
      "stateMutability": "view",
      "type": "function"
    },
    {
      "inputs": [],
      "name": "poolConfig",
      "outputs": [
        {
          "internalType": "string",
          "name": "name",
          "type": "string"
        },
        {
          "internalType": "string",
          "name": "symbol",
          "type": "string"
        },
        {
          "internalType": "uint256",
          "name": "durationInSeconds",
          "type": "uint256"
        },
        {
          "internalType": "uint256",
          "name": "swapFee",
          "type": "uint256"
        },
        {
          "internalType": "address",
          "name": "owner",
          "type": "address"
        },
        {
          "internalType": "bool",
          "name": "swapEnabledOnStart",
          "type": "bool"
        },
        {
          "internalType": "uint256",
          "name": "startTime",
          "type": "uint256"
        },
        {
          "internalType": "bool",
          "name": "deployed",
          "type": "bool"
        }
      ],
      "stateMutability": "view",
      "type": "function"
    },
    {
      "inputs": [],
      "name": "withdrawFromPool",
      "outputs": [],
      "stateMutability": "nonpayable",
      "type": "function"
    }
  ],
  "transactionHash": "0x822d0e1e4a0d6eb4325c663b9e990629d5f106972dd4604ada266de87143b886",
  "args": [
    {
      "lbpFactory": "0xdcdbf71A870cc60C6F9B621E28a7D3Ffd6Dd4965",
      "vault": "0xBA12222222228d8Ba445958a75a0704d566BF2C8"
    },
    "TPOP Liquidity Bootstrapping Pool",
    "TPOP_LBP",
    [
      "0xcc763df24b9b1d68194ba52e787b6760f04ffd72",
      "0x649D645d1Ee2CA89a798B52Bbf7B5a3C27093b94"
    ],
    [
      "13333330000000000000000",
      "5000000000"
    ],
    [
      "990000000000000000",
      "10000000000000000"
    ],
    [
      "500000000000000000",
      "500000000000000000"
    ],
    "15000000000000000",
    216000,
    1635981348,
    {
      "agent": "0x6d8bd5d37461788182131BaE19D03fF2B3c0687c",
      "treasury": "0x6d8bd5d37461788182131BaE19D03fF2B3c0687c"
    }
  ],
  "solcInputHash": "69bb44721f0394d6040365285be419e0",
  "bytecode": "0x60806040523480156200001157600080fd5b5060405162001e7038038062001e70833981016040819052620000349162000727565b8a51600180546001600160a01b03199081166001600160a01b03938416179091556020808e01516002805484169185169190911790558351600e8054841691851691909117905583810151600f8054909316931692909217905560408051610180810182528c81528083018c90529081018a9052606081018990526080810188905260a0810187905260c0810185905260e08101869052306101008201526000610120820181905261014082018590526101608201528b51909160039162000102918391908f0190620003e7565b5060208281015180516200011d9260018501920190620003e7565b50604082015180516200013b91600284019160209091019062000476565b506060820151805162000159916003840191602090910190620004ce565b506080820151805162000177916004840191602090910190620004ce565b5060a0820151805162000195916005840191602090910190620004ce565b5060c0820151600682015560e082015160078201556101008201516008820180546101208501516001600160a01b03199091166001600160a01b039093169290921760ff60a01b1916600160a01b92151592909202919091179055610140820151600982015561016090910151600a909101805460ff19169115159190911790556200022062000231565b50505050505050505050506200096f565b6000806200023e62000364565b60025460405163095ea7b360e01b81529294509092506001600160a01b038085169263095ea7b3926200027a9216906000199060040162000898565b602060405180830381600087803b1580156200029557600080fd5b505af1158015620002aa573d6000803e3d6000fd5b505050506040513d601f19601f82011682018060405250810190620002d09190620006fe565b5060025460405163095ea7b360e01b81526001600160a01b038381169263095ea7b3926200030992909116906000199060040162000898565b602060405180830381600087803b1580156200032457600080fd5b505af115801562000339573d6000803e3d6000fd5b505050506040513d601f19601f820116820180604052508101906200035f9190620006fe565b505050565b60008060036002016000815481106200038d57634e487b7160e01b600052603260045260246000fd5b600091825260209091200154600580546001600160a01b03909216916001908110620003c957634e487b7160e01b600052603260045260246000fd5b6000918252602090912001549092506001600160a01b031690509091565b828054620003f59062000903565b90600052602060002090601f01602090048101928262000419576000855562000464565b82601f106200043457805160ff191683800117855562000464565b8280016001018555821562000464579182015b828111156200046457825182559160200191906001019062000447565b50620004729291506200050b565b5090565b82805482825590600052602060002090810192821562000464579160200282015b828111156200046457825182546001600160a01b0319166001600160a01b0390911617825560209092019160019091019062000497565b8280548282559060005260206000209081019282156200046457916020028201828111156200046457825182559160200191906001019062000447565b5b808211156200047257600081556001016200050c565b600082601f83011262000533578081fd5b815160206200054c6200054683620008dd565b620008b1565b828152818101908583018385028701840188101562000569578586fd5b855b8581101562000594578151620005818162000956565b845292840192908401906001016200056b565b5090979650505050505050565b600082601f830112620005b2578081fd5b81516020620005c56200054683620008dd565b8281528181019085830183850287018401881015620005e2578586fd5b855b858110156200059457815184529284019290840190600101620005e4565b600082601f83011262000613578081fd5b81516001600160401b038111156200062f576200062f62000940565b602062000645601f8301601f19168201620008b1565b828152858284870101111562000659578384fd5b835b83811015620006785785810183015182820184015282016200065b565b838111156200068957848385840101525b5095945050505050565b600060408284031215620006a5578081fd5b604080519081016001600160401b0381118282101715620006ca57620006ca62000940565b80604052508091508251620006df8162000956565b81526020830151620006f18162000956565b6020919091015292915050565b60006020828403121562000710578081fd5b8151801515811462000720578182fd5b9392505050565b60008060008060008060008060008060006101a08c8e03121562000749578687fd5b620007558d8d62000693565b60408d0151909b506001600160401b0381111562000771578788fd5b6200077f8e828f0162000602565b60608e0151909b5090506001600160401b038111156200079d578788fd5b620007ab8e828f0162000602565b60808e0151909a5090506001600160401b03811115620007c9578788fd5b620007d78e828f0162000522565b60a08e015190995090506001600160401b03811115620007f5578788fd5b620008038e828f01620005a1565b60c08e015190985090506001600160401b0381111562000821578687fd5b6200082f8e828f01620005a1565b60e08e015190975090506001600160401b038111156200084d578586fd5b6200085b8e828f01620005a1565b9550506101008c015193506101208c015192506101408c01519150620008868d6101608e0162000693565b90509295989b509295989b9093969950565b6001600160a01b03929092168252602082015260400190565b6040518181016001600160401b0381118282101715620008d557620008d562000940565b604052919050565b60006001600160401b03821115620008f957620008f962000940565b5060209081020190565b6002810460018216806200091857607f821691505b602082108114156200093a57634e487b7160e01b600052602260045260246000fd5b50919050565b634e487b7160e01b600052604160045260246000fd5b6001600160a01b03811681146200096c57600080fd5b50565b6114f1806200097f6000396000f3fe608060405234801561001057600080fd5b506004361061007d5760003560e01c80638a8c523c1161005b5780638a8c523c146100c05780639695e195146100c8578063d8519dda146100e4578063e563037e146100ec5761007d565b8063092f7de71461008257806326c0e5c5146100a05780634162169f146100aa575b600080fd5b61008a6100f4565b604051610097919061117c565b60405180910390f35b6100a8610103565b005b6100b2610441565b604051610097929190611190565b6100a8610457565b6100d06105ca565b60405161009798979695949392919061121e565b6100a8610722565b6100b261086b565b6000546001600160a01b031681565b600e546001600160a01b031633146101365760405162461bcd60e51b815260040161012d9061132f565b60405180910390fd5b60008060009054906101000a90046001600160a01b03166001600160a01b03166338fff2d06040518163ffffffff1660e01b8152600401602060405180830381600087803b15801561018757600080fd5b505af115801561019b573d6000803e3d6000fd5b505050506040513d601f19601f820116820180604052508101906101bf9190610f63565b60055490915060009067ffffffffffffffff8111156101ee57634e487b7160e01b600052604160045260246000fd5b604051908082528060200260200182016040528015610217578160200160208202803683370190505b50905060005b60055481101561026657600082828151811061024957634e487b7160e01b600052603260045260246000fd5b60209081029190910101528061025e8161148a565b91505061021d565b5060008054604051633806be4b60e21b81526001600160a01b039091169163e01af92c9161029791906004016111ce565b600060405180830381600087803b1580156102b157600080fd5b505af11580156102c5573d6000803e3d6000fd5b5050604080516005805460a06020820284018101909452608083018181526000965092945084936103369392919085018282801561032c57602002820191906000526020600020905b81546001600160a01b0316815260019091019060200180831161030e575b5050505050610881565b815260208101849052604001600161034d86610884565b60405160200161035e9291906113f5565b60408051601f19818403018152918152908252600060209290920191909152600254600f5491517f8bdb39130000000000000000000000000000000000000000000000000000000081529293506001600160a01b0390811692638bdb3913926103d392889230929091169087906004016111e2565b600060405180830381600087803b1580156103ed57600080fd5b505af1158015610401573d6000803e3d6000fd5b505050507f0139ec377d0a521e725f8ccba653dd7cea5bbc10c1f284590ee683c86fb5397e8360405161043491906111d9565b60405180910390a1505050565b600e54600f546001600160a01b03918216911682565b600d5460ff166104795760405162461bcd60e51b815260040161012d9061139d565b600c5442101561049b5760405162461bcd60e51b815260040161012d90611366565b6009546000906104ab9042611437565b6000546040517f3e5692050000000000000000000000000000000000000000000000000000000081529192506001600160a01b031690633e569205906104fa9042908590600890600401611403565b600060405180830381600087803b15801561051457600080fd5b505af1158015610528573d6000803e3d6000fd5b5050600054604051633806be4b60e21b81526001600160a01b03909116925063e01af92c915061055d906001906004016111ce565b600060405180830381600087803b15801561057757600080fd5b505af115801561058b573d6000803e3d6000fd5b505050507fb9bbb15e341600c8d067a0cadeba219905d5ba6d422b193c9c32265d26fc51c860016040516105bf91906111ce565b60405180910390a150565b6003805481906105d99061144f565b80601f01602080910402602001604051908101604052809291908181526020018280546106059061144f565b80156106525780601f1061062757610100808354040283529160200191610652565b820191906000526020600020905b81548152906001019060200180831161063557829003601f168201915b5050505050908060010180546106679061144f565b80601f01602080910402602001604051908101604052809291908181526020018280546106939061144f565b80156106e05780601f106106b5576101008083540402835291602001916106e0565b820191906000526020600020905b8154815290600101906020018083116106c357829003601f168201915b5050506006840154600785015460088601546009870154600a90970154959692959194506001600160a01b038116935060ff600160a01b909104811692911688565b600154600a54600b546040517f236797190000000000000000000000000000000000000000000000000000000081526001600160a01b039384169363236797199361078c93600393600493600593600793909291811691600160a01b90910460ff16908601611284565b602060405180830381600087803b1580156107a657600080fd5b505af11580156107ba573d6000803e3d6000fd5b505050506040513d601f19601f820116820180604052508101906107de9190610ee9565b600080547fffffffffffffffffffffffff0000000000000000000000000000000000000000166001600160a01b039283161790819055600d805460ff191660011790556040517f862036d3286b6c0c3d81e0731e5523949a342fd1b5090ca0703aaba60f23869a9261085192169061117c565b60405180910390a16108616109c8565b610869610b50565b565b6001546002546001600160a01b03918216911682565b90565b6002546040517ff6c0092700000000000000000000000000000000000000000000000000000000815260009182916001600160a01b039091169063f6c00927906108d29086906004016111d9565b6040805180830381600087803b1580156108eb57600080fd5b505af11580156108ff573d6000803e3d6000fd5b505050506040513d601f19601f820116820180604052508101906109239190610f0a565b506040517f70a0823100000000000000000000000000000000000000000000000000000000815290915081906001600160a01b038216906370a082319061096e90309060040161117c565b60206040518083038186803b15801561098657600080fd5b505afa15801561099a573d6000803e3d6000fd5b505050506040513d601f19601f820116820180604052508101906109be9190610f63565b925050505b919050565b6000806109d3610e51565b600e54600680549395509193506001600160a01b03808616936323b872dd9392909116913091600090610a1657634e487b7160e01b600052603260045260246000fd5b90600052602060002001546040518463ffffffff1660e01b8152600401610a3f939291906111aa565b602060405180830381600087803b158015610a5957600080fd5b505af1158015610a6d573d6000803e3d6000fd5b505050506040513d601f19601f82011682018060405250810190610a919190610f43565b50600e54600680546001600160a01b03808516936323b872dd939116913091906001908110610ad057634e487b7160e01b600052603260045260246000fd5b90600052602060002001546040518463ffffffff1660e01b8152600401610af9939291906111aa565b602060405180830381600087803b158015610b1357600080fd5b505af1158015610b27573d6000803e3d6000fd5b505050506040513d601f19601f82011682018060405250810190610b4b9190610f43565b505050565b60055460009067ffffffffffffffff811115610b7c57634e487b7160e01b600052604160045260246000fd5b604051908082528060200260200182016040528015610ba5578160200160208202803683370190505b50905060005b600554811015610bf557600019828281518110610bd857634e487b7160e01b600052603260045260246000fd5b602090810291909101015280610bed8161148a565b915050610bab565b50604080516005805460a06020820284018101909452608083018181526000948493610c5e93909185018282801561032c576020028201919060005260206000209081546001600160a01b0316815260019091019060200180831161030e575050505050610881565b8152602081018490526040016000604051610c7f91906006906020016113d4565b60408051601f1981840301815291815290825260006020928301819052600254815483517f38fff2d000000000000000000000000000000000000000000000000000000000815293519596506001600160a01b039182169563b95cac289591909216936338fff2d093600480830194928390030190829087803b158015610d0557600080fd5b505af1158015610d19573d6000803e3d6000fd5b505050506040513d601f19601f82011682018060405250810190610d3d9190610f63565b3030856040518563ffffffff1660e01b8152600401610d5f94939291906111e2565b600060405180830381600087803b158015610d7957600080fd5b505af1158015610d8d573d6000803e3d6000fd5b505050507f3ab359279172d20fb74f51c485585571b77bb1dc3b6b1430ecd2bf80543148bb60008054906101000a90046001600160a01b03166001600160a01b03166338fff2d06040518163ffffffff1660e01b8152600401602060405180830381600087803b158015610e0057600080fd5b505af1158015610e14573d6000803e3d6000fd5b505050506040513d601f19601f82011682018060405250810190610e389190610f63565b604051610e4591906111d9565b60405180910390a15050565b6000806003600201600081548110610e7957634e487b7160e01b600052603260045260246000fd5b600091825260209091200154600580546001600160a01b03909216916001908110610eb457634e487b7160e01b600052603260045260246000fd5b6000918252602090912001549092506001600160a01b031690509091565b80516001600160a01b03811681146109c357600080fd5b600060208284031215610efa578081fd5b610f0382610ed2565b9392505050565b60008060408385031215610f1c578081fd5b610f2583610ed2565b9150602083015160038110610f38578182fd5b809150509250929050565b600060208284031215610f54578081fd5b81518015158114610f03578182fd5b600060208284031215610f74578081fd5b5051919050565b6001600160a01b03169052565b6000815180845260208085019450808401835b83811015610fb757815187529582019590820190600101610f9b565b509495945050505050565b6000815480845260208085019450838352808320835b83811015610fb757815487529582019560019182019101610fd8565b15159052565b60008151808452815b8181101561101f57602081850181015186830182015201611003565b818111156110305782602083870101525b50601f01601f19169290920160200192915050565b80546000906002810460018083168061105f57607f831692505b602080841082141561107f57634e487b7160e01b86526022600452602486fd5b61108984896111d9565b82801561109d57600181146110ae576110d9565b60ff198716825282820197506110d9565b6110b78961142b565b60005b878110156110d3578154848201529086019084016110ba565b83019850505b5050505050505092915050565b8051608080845281519084018190526000916020919082019060a0860190845b8181101561112b5783516001600160a01b031683529284019291840191600101611106565b5050828501519150858103838701526111448183610f88565b925050506040830151848203604086015261115f8282610ffa565b91505060608301516111746060860182610ff4565b509392505050565b6001600160a01b0391909116815260200190565b6001600160a01b0392831681529116602082015260400190565b6001600160a01b039384168152919092166020820152604081019190915260600190565b901515815260200190565b90815260200190565b60008582526001600160a01b0380861660208401528085166040840152506080606083015261121460808301846110e6565b9695505050505050565b60006101008083526112328184018c610ffa565b90508281036020840152611246818b610ffa565b6040840199909952505060608101959095526001600160a01b0393909316608085015290151560a084015260c0830152151560e09091015292915050565b600060e0825261129760e083018a611045565b6020838203818501526112aa828b611045565b848103604086015289548082528a8552828520935090820190845b818110156112ea5784546001600160a01b0316835260019485019492840192016112c5565b505084810360608601526112fe818a610fc2565b935050505084608083015261131660a0830185610f7b565b61132360c0830184610ff4565b98975050505050505050565b60208082526010908201527f6e6f7420746f6461792c20627564647900000000000000000000000000000000604082015260600190565b6020808252601e908201527f54726164696e672063616e206e6f7420626520656e61626c6564207965740000604082015260600190565b6020808252601e908201527f506f6f6c20686173206e6f74206265656e206465706c6f796564207965740000604082015260600190565b6000838252604060208301526113ed6040830184610fc2565b949350505050565b918252602082015260400190565b6000848252836020830152606060408301526114226060830184610fc2565b95945050505050565b60009081526020902090565b6000821982111561144a5761144a6114a5565b500190565b60028104600182168061146357607f821691505b6020821081141561148457634e487b7160e01b600052602260045260246000fd5b50919050565b600060001982141561149e5761149e6114a5565b5060010190565b634e487b7160e01b600052601160045260246000fdfea2646970667358221220dc8c10bff3ed13203824846cb19ea8778edfdec59109d47e0792e4ef43e70dde64736f6c63430008000033",
  "devdoc": {
    "kind": "dev",
    "methods": {
      "constructor": {
        "params": {
          "_balancer": "see struct Balancer - balancer contract addresses",
          "_dao": "see struct DAO - DAO addresses",
          "_durationInSeconds": "PoolConfiguration.durationInSeconds",
          "_endWeights": "PoolConfiguration.endWeights",
          "_name": "PoolConfiguration.name",
          "_startTime": "PoolConfiguration.startTime",
          "_startWeights": "PoolConfiguration.startWeights",
          "_swapFee": "PoolConfiguration.swapFee",
          "_symbol": "PoolConfiguration.symbol",
          "_tokenAmounts": "PoolConfiguration.tokenAmounts",
          "_tokens": "PoolConfiguration.tokens"
        }
      },
      "deployLBP()": {
        "details": "Will deploy a balancer LBP. Can only be called by DAO.agent address"
      }
    },
    "title": "LBP Manager",
    "version": 1
  },
  "userdoc": {
    "kind": "user",
    "methods": {
      "deployLBP()": {
        "notice": "This function requires that the DAO.agent has approved this address for spending pool tokens (e.g. POP & USDC). It will revert if the DAO.agent has not approved this contract for spending those tokens. The PoolConfiguration.tokenAmounts for the pool tokens will be transferred from the DAO.agent to this contract and forwarded to the LBP"
      },
      "enableTrading()": {
        "notice": "Anyone can enable trading after the LBP has been deployed and the start time has been reached. Trading must be enabled for the pool to work."
      },
      "lbp()": {
        "notice": "lbp deployed LBP address"
      },
      "withdrawFromPool()": {
        "notice": "The DAO.agent can call this function to shutdown and unwind the pool. The proceeds will be forwarded to the DAO.treasury"
      }
    },
    "notice": "This contract manages a Balancer Liquidity Bootstrapping Pool (LBP) so that only a DAO can deploy and shutdown an LBP. After the LBP is deployed, trading must be enabled. While only the DAO has permission to deploy, shutdown and unwind the LBP, anyone can permissionlessly enable trading after the configured start time. When the LBP is completed (via `withdrawFromPool()`), the total balance of the LBP tokens will be sent to the DAO treasury.",
    "version": 1
  },
  "storageLayout": {
    "storage": [
      {
        "astId": 753,
        "contract": "contracts/lbp/LBPManager.sol:LBPManager",
        "label": "lbp",
        "offset": 0,
        "slot": "0",
        "type": "t_contract(ILBP)1304"
      },
      {
        "astId": 756,
        "contract": "contracts/lbp/LBPManager.sol:LBPManager",
        "label": "balancer",
        "offset": 0,
        "slot": "1",
        "type": "t_struct(Balancer)744_storage"
      },
      {
        "astId": 759,
        "contract": "contracts/lbp/LBPManager.sol:LBPManager",
        "label": "poolConfig",
        "offset": 0,
        "slot": "3",
        "type": "t_struct(PoolConfiguration)737_storage"
      },
      {
        "astId": 762,
        "contract": "contracts/lbp/LBPManager.sol:LBPManager",
        "label": "dao",
        "offset": 0,
        "slot": "14",
        "type": "t_struct(DAO)749_storage"
      }
    ],
    "types": {
      "t_address": {
        "encoding": "inplace",
        "label": "address",
        "numberOfBytes": "20"
      },
      "t_array(t_contract(IERC20)623)dyn_storage": {
        "base": "t_contract(IERC20)623",
        "encoding": "dynamic_array",
        "label": "contract IERC20[]",
        "numberOfBytes": "32"
      },
      "t_array(t_uint256)dyn_storage": {
        "base": "t_uint256",
        "encoding": "dynamic_array",
        "label": "uint256[]",
        "numberOfBytes": "32"
      },
      "t_bool": {
        "encoding": "inplace",
        "label": "bool",
        "numberOfBytes": "1"
      },
      "t_contract(IERC20)623": {
        "encoding": "inplace",
        "label": "contract IERC20",
        "numberOfBytes": "20"
      },
      "t_contract(ILBP)1304": {
        "encoding": "inplace",
        "label": "contract ILBP",
        "numberOfBytes": "20"
      },
      "t_contract(ILBPFactory)1331": {
        "encoding": "inplace",
        "label": "contract ILBPFactory",
        "numberOfBytes": "20"
      },
      "t_contract(IVault)1429": {
        "encoding": "inplace",
        "label": "contract IVault",
        "numberOfBytes": "20"
      },
      "t_string_storage": {
        "encoding": "bytes",
        "label": "string",
        "numberOfBytes": "32"
      },
      "t_struct(Balancer)744_storage": {
        "encoding": "inplace",
        "label": "struct LBPManager.Balancer",
        "members": [
          {
            "astId": 740,
            "contract": "contracts/lbp/LBPManager.sol:LBPManager",
            "label": "lbpFactory",
            "offset": 0,
            "slot": "0",
            "type": "t_contract(ILBPFactory)1331"
          },
          {
            "astId": 743,
            "contract": "contracts/lbp/LBPManager.sol:LBPManager",
            "label": "vault",
            "offset": 0,
            "slot": "1",
            "type": "t_contract(IVault)1429"
          }
        ],
        "numberOfBytes": "64"
      },
      "t_struct(DAO)749_storage": {
        "encoding": "inplace",
        "label": "struct LBPManager.DAO",
        "members": [
          {
            "astId": 746,
            "contract": "contracts/lbp/LBPManager.sol:LBPManager",
            "label": "agent",
            "offset": 0,
            "slot": "0",
            "type": "t_address"
          },
          {
            "astId": 748,
            "contract": "contracts/lbp/LBPManager.sol:LBPManager",
            "label": "treasury",
            "offset": 0,
            "slot": "1",
            "type": "t_address"
          }
        ],
        "numberOfBytes": "64"
      },
      "t_struct(PoolConfiguration)737_storage": {
        "encoding": "inplace",
        "label": "struct LBPManager.PoolConfiguration",
        "members": [
          {
            "astId": 709,
            "contract": "contracts/lbp/LBPManager.sol:LBPManager",
            "label": "name",
            "offset": 0,
            "slot": "0",
            "type": "t_string_storage"
          },
          {
            "astId": 711,
            "contract": "contracts/lbp/LBPManager.sol:LBPManager",
            "label": "symbol",
            "offset": 0,
            "slot": "1",
            "type": "t_string_storage"
          },
          {
            "astId": 715,
            "contract": "contracts/lbp/LBPManager.sol:LBPManager",
            "label": "tokens",
            "offset": 0,
            "slot": "2",
            "type": "t_array(t_contract(IERC20)623)dyn_storage"
          },
          {
            "astId": 718,
            "contract": "contracts/lbp/LBPManager.sol:LBPManager",
            "label": "tokenAmounts",
            "offset": 0,
            "slot": "3",
            "type": "t_array(t_uint256)dyn_storage"
          },
          {
            "astId": 721,
            "contract": "contracts/lbp/LBPManager.sol:LBPManager",
            "label": "startWeights",
            "offset": 0,
            "slot": "4",
            "type": "t_array(t_uint256)dyn_storage"
          },
          {
            "astId": 724,
            "contract": "contracts/lbp/LBPManager.sol:LBPManager",
            "label": "endWeights",
            "offset": 0,
            "slot": "5",
            "type": "t_array(t_uint256)dyn_storage"
          },
          {
            "astId": 726,
            "contract": "contracts/lbp/LBPManager.sol:LBPManager",
            "label": "durationInSeconds",
            "offset": 0,
            "slot": "6",
            "type": "t_uint256"
          },
          {
            "astId": 728,
            "contract": "contracts/lbp/LBPManager.sol:LBPManager",
            "label": "swapFee",
            "offset": 0,
            "slot": "7",
            "type": "t_uint256"
          },
          {
            "astId": 730,
            "contract": "contracts/lbp/LBPManager.sol:LBPManager",
            "label": "owner",
            "offset": 0,
            "slot": "8",
            "type": "t_address"
          },
          {
            "astId": 732,
            "contract": "contracts/lbp/LBPManager.sol:LBPManager",
            "label": "swapEnabledOnStart",
            "offset": 20,
            "slot": "8",
            "type": "t_bool"
          },
          {
            "astId": 734,
            "contract": "contracts/lbp/LBPManager.sol:LBPManager",
            "label": "startTime",
            "offset": 0,
            "slot": "9",
            "type": "t_uint256"
          },
          {
            "astId": 736,
            "contract": "contracts/lbp/LBPManager.sol:LBPManager",
            "label": "deployed",
            "offset": 0,
            "slot": "10",
            "type": "t_bool"
          }
        ],
        "numberOfBytes": "352"
      },
      "t_uint256": {
        "encoding": "inplace",
        "label": "uint256",
        "numberOfBytes": "32"
      }
    }
  }
}