{
  "address": "0x4d46DA8510a7dFFa68C5514AD973Fdc60932Ec52",
  "abi": [
    {
      "inputs": [
        {
          "components": [
            {
              "internalType": "contract ILBPFactory",
              "name": "lbpFactory",
              "type": "address"
            },
            {
              "internalType": "contract IVault",
              "name": "vault",
              "type": "address"
            }
          ],
          "internalType": "struct LBPManager.Balancer",
          "name": "_balancer",
          "type": "tuple"
        },
        {
          "internalType": "string",
          "name": "_name",
          "type": "string"
        },
        {
          "internalType": "string",
          "name": "_symbol",
          "type": "string"
        },
        {
          "internalType": "contract IERC20[]",
          "name": "_tokens",
          "type": "address[]"
        },
        {
          "internalType": "uint256[]",
          "name": "_tokenAmounts",
          "type": "uint256[]"
        },
        {
          "internalType": "uint256[]",
          "name": "_startWeights",
          "type": "uint256[]"
        },
        {
          "internalType": "uint256[]",
          "name": "_endWeights",
          "type": "uint256[]"
        },
        {
          "internalType": "uint256",
          "name": "_swapFee",
          "type": "uint256"
        },
        {
          "internalType": "uint256",
          "name": "_durationInSeconds",
          "type": "uint256"
        },
        {
          "internalType": "uint256",
          "name": "_startTime",
          "type": "uint256"
        },
        {
          "components": [
            {
              "internalType": "address",
              "name": "agent",
              "type": "address"
            },
            {
              "internalType": "address",
              "name": "treasury",
              "type": "address"
            }
          ],
          "internalType": "struct LBPManager.DAO",
          "name": "_dao",
          "type": "tuple"
        }
      ],
      "stateMutability": "nonpayable",
      "type": "constructor"
    },
    {
      "anonymous": false,
      "inputs": [
        {
          "indexed": false,
          "internalType": "address",
          "name": "poolAddress",
          "type": "address"
        }
      ],
      "name": "CreatedPool",
      "type": "event"
    },
    {
      "anonymous": false,
      "inputs": [
        {
          "indexed": false,
          "internalType": "bytes32",
          "name": "poolID",
          "type": "bytes32"
        }
      ],
      "name": "ExitedPool",
      "type": "event"
    },
    {
      "anonymous": false,
      "inputs": [
        {
          "indexed": false,
          "internalType": "bytes32",
          "name": "poolID",
          "type": "bytes32"
        }
      ],
      "name": "JoinedPool",
      "type": "event"
    },
    {
      "anonymous": false,
      "inputs": [
        {
          "indexed": false,
          "internalType": "bool",
          "name": "enabled",
          "type": "bool"
        }
      ],
      "name": "SwapEnabled",
      "type": "event"
    },
    {
      "inputs": [],
      "name": "balancer",
      "outputs": [
        {
          "internalType": "contract ILBPFactory",
          "name": "lbpFactory",
          "type": "address"
        },
        {
          "internalType": "contract IVault",
          "name": "vault",
          "type": "address"
        }
      ],
      "stateMutability": "view",
      "type": "function"
    },
    {
      "inputs": [],
      "name": "dao",
      "outputs": [
        {
          "internalType": "address",
          "name": "agent",
          "type": "address"
        },
        {
          "internalType": "address",
          "name": "treasury",
          "type": "address"
        }
      ],
      "stateMutability": "view",
      "type": "function"
    },
    {
      "inputs": [],
      "name": "deployLBP",
      "outputs": [],
      "stateMutability": "nonpayable",
      "type": "function"
    },
    {
      "inputs": [],
      "name": "enableTrading",
      "outputs": [],
      "stateMutability": "nonpayable",
      "type": "function"
    },
    {
      "inputs": [],
      "name": "lbp",
      "outputs": [
        {
          "internalType": "contract ILBP",
          "name": "",
          "type": "address"
        }
      ],
      "stateMutability": "view",
      "type": "function"
    },
    {
      "inputs": [],
      "name": "pause",
      "outputs": [],
      "stateMutability": "nonpayable",
      "type": "function"
    },
    {
      "inputs": [],
      "name": "poolConfig",
      "outputs": [
        {
          "internalType": "string",
          "name": "name",
          "type": "string"
        },
        {
          "internalType": "string",
          "name": "symbol",
          "type": "string"
        },
        {
          "internalType": "uint256",
          "name": "durationInSeconds",
          "type": "uint256"
        },
        {
          "internalType": "uint256",
          "name": "swapFee",
          "type": "uint256"
        },
        {
          "internalType": "address",
          "name": "owner",
          "type": "address"
        },
        {
          "internalType": "bool",
          "name": "swapEnabledOnStart",
          "type": "bool"
        },
        {
          "internalType": "uint256",
          "name": "startTime",
          "type": "uint256"
        },
        {
          "internalType": "bool",
          "name": "deployed",
          "type": "bool"
        },
        {
          "internalType": "address",
          "name": "pauser",
          "type": "address"
        }
      ],
      "stateMutability": "view",
      "type": "function"
    },
    {
      "inputs": [],
      "name": "unpause",
      "outputs": [],
      "stateMutability": "nonpayable",
      "type": "function"
    },
    {
      "inputs": [],
      "name": "withdrawFromPool",
      "outputs": [],
      "stateMutability": "nonpayable",
      "type": "function"
    }
  ],
  "transactionHash": "0x87f580728aee188896c256c9c0e3bf1c67dfb8b38ef0fea46a1f43b1f13d0ae2",
  "args": [
    {
      "lbpFactory": "0xdcdbf71A870cc60C6F9B621E28a7D3Ffd6Dd4965",
      "vault": "0xBA12222222228d8Ba445958a75a0704d566BF2C8"
    },
    "TPOP Liquidity Bootstrapping Pool",
    "TPOP_LBP",
    [
      "0xD44C7E52ab4a52F0f64A388a102F9474884ab743",
      "0xe3fF0b64025b6Db3751d6AC9294C626448E5ca14"
    ],
    [
      "100000000",
      "100000000000000000000"
    ],
    [
      "10000000000000000",
      "990000000000000000"
    ],
    [
      "500000000000000000",
      "500000000000000000"
    ],
    "15000000000000000",
    216000,
    1637775534,
    {
      "agent": "0x6d8bd5d37461788182131BaE19D03fF2B3c0687c",
      "treasury": "0x6d8bd5d37461788182131BaE19D03fF2B3c0687c"
    }
  ],
  "solcInputHash": "35009f316f0c067bdc78c5c6e3ff2d8e",
  "bytecode": "0x60806040523480156200001157600080fd5b50604051620024d0380380620024d08339810160408190526200003491620007b0565b8a51600180546001600160a01b039283166001600160a01b03199182161790915560208d015160028054919093169116179055610e10831180156200007b57506206978083105b620000a35760405162461bcd60e51b81526004016200009a9062000971565b60405180910390fd5b428211620000c55760405162461bcd60e51b81526004016200009a906200093a565b8051600e80546001600160a01b03199081166001600160a01b0393841617909155602080840151600f80549093169316929092179055604080516101a0810182528c81528083018c90529081018a9052606081018990526080810188905260a0810187905260c0810185905260e0810186905230610100820152600061012082018190526101408201859052610160820152336101808201528b51909160039162000176918391908f019062000470565b50602082810151805162000191926001850192019062000470565b5060408201518051620001af916002840191602090910190620004ff565b5060608201518051620001cd91600384019160209091019062000557565b5060808201518051620001eb91600484019160209091019062000557565b5060a082015180516200020991600584019160209091019062000557565b5060c0820151600682015560e08201516007820155610100808301516008830180546101208601516001600160a01b03199091166001600160a01b039384161760ff60a01b1916600160a01b911515919091021790556101408401516009840155610160840151600a90930180546101809095015160ff1990951693151593909317610100600160a81b031916931602919091179055620002a9620002ba565b505050505050505050505062000a66565b600080620002c7620003ed565b60025460405163095ea7b360e01b81529294509092506001600160a01b038085169263095ea7b392620003039216906000199060040162000921565b602060405180830381600087803b1580156200031e57600080fd5b505af115801562000333573d6000803e3d6000fd5b505050506040513d601f19601f8201168201806040525081019062000359919062000787565b5060025460405163095ea7b360e01b81526001600160a01b038381169263095ea7b3926200039292909116906000199060040162000921565b602060405180830381600087803b158015620003ad57600080fd5b505af1158015620003c2573d6000803e3d6000fd5b505050506040513d601f19601f82011682018060405250810190620003e8919062000787565b505050565b60008060036002016000815481106200041657634e487b7160e01b600052603260045260246000fd5b600091825260209091200154600580546001600160a01b039092169160019081106200045257634e487b7160e01b600052603260045260246000fd5b6000918252602090912001549092506001600160a01b031690509091565b8280546200047e90620009fa565b90600052602060002090601f016020900481019282620004a25760008555620004ed565b82601f10620004bd57805160ff1916838001178555620004ed565b82800160010185558215620004ed579182015b82811115620004ed578251825591602001919060010190620004d0565b50620004fb92915062000594565b5090565b828054828255906000526020600020908101928215620004ed579160200282015b82811115620004ed57825182546001600160a01b0319166001600160a01b0390911617825560209092019160019091019062000520565b828054828255906000526020600020908101928215620004ed5791602002820182811115620004ed578251825591602001919060010190620004d0565b5b80821115620004fb576000815560010162000595565b600082601f830112620005bc578081fd5b81516020620005d5620005cf83620009d4565b620009a8565b8281528181019085830183850287018401881015620005f2578586fd5b855b858110156200061d5781516200060a8162000a4d565b84529284019290840190600101620005f4565b5090979650505050505050565b600082601f8301126200063b578081fd5b815160206200064e620005cf83620009d4565b82815281810190858301838502870184018810156200066b578586fd5b855b858110156200061d578151845292840192908401906001016200066d565b600082601f8301126200069c578081fd5b81516001600160401b03811115620006b857620006b862000a37565b6020620006ce601f8301601f19168201620009a8565b8281528582848701011115620006e2578384fd5b835b8381101562000701578581018301518282018401528201620006e4565b838111156200071257848385840101525b5095945050505050565b6000604082840312156200072e578081fd5b604080519081016001600160401b038111828210171562000753576200075362000a37565b80604052508091508251620007688162000a4d565b815260208301516200077a8162000a4d565b6020919091015292915050565b60006020828403121562000799578081fd5b81518015158114620007a9578182fd5b9392505050565b60008060008060008060008060008060006101a08c8e031215620007d2578687fd5b620007de8d8d6200071c565b60408d0151909b506001600160401b03811115620007fa578788fd5b620008088e828f016200068b565b60608e0151909b5090506001600160401b0381111562000826578788fd5b620008348e828f016200068b565b60808e0151909a5090506001600160401b0381111562000852578788fd5b620008608e828f01620005ab565b60a08e015190995090506001600160401b038111156200087e578788fd5b6200088c8e828f016200062a565b60c08e015190985090506001600160401b03811115620008aa578687fd5b620008b88e828f016200062a565b60e08e015190975090506001600160401b03811115620008d6578586fd5b620008e48e828f016200062a565b9550506101008c015193506101208c015192506101408c015191506200090f8d6101608e016200071c565b90509295989b509295989b9093969950565b6001600160a01b03929092168252602082015260400190565b6020808252601c908201527f73746172742074696d65206d75737420626520696e2066757475726500000000604082015260600190565b60208082526019908201527f6475726174696f6e206973206f7574206f6620626f756e647300000000000000604082015260600190565b6040518181016001600160401b0381118282101715620009cc57620009cc62000a37565b604052919050565b60006001600160401b03821115620009f057620009f062000a37565b5060209081020190565b60028104600182168062000a0f57607f821691505b6020821081141562000a3157634e487b7160e01b600052602260045260246000fd5b50919050565b634e487b7160e01b600052604160045260246000fd5b6001600160a01b038116811462000a6357600080fd5b50565b611a5a8062000a766000396000f3fe608060405234801561001057600080fd5b50600436106100a35760003560e01c80638456cb59116100765780639695e1951161005b5780639695e195146100fe578063d8519dda1461011b578063e563037e14610123576100a3565b80638456cb59146100ee5780638a8c523c146100f6576100a3565b8063092f7de7146100a857806326c0e5c5146100c65780633f4ba83a146100d05780634162169f146100d8575b600080fd5b6100b061012b565b6040516100bd91906114c5565b60405180910390f35b6100ce61013a565b005b6100ce61049a565b6100e06105f3565b6040516100bd9291906114d9565b6100ce610609565b6100ce610731565b610106610812565b6040516100bd99989796959493929190611543565b6100ce610974565b6100e0610bc3565b6000546001600160a01b031681565b600d5460ff166101655760405162461bcd60e51b815260040161015c9061183b565b60405180910390fd5b600e546001600160a01b0316331461018f5760405162461bcd60e51b815260040161015c906116f1565b60008060009054906101000a90046001600160a01b03166001600160a01b03166338fff2d06040518163ffffffff1660e01b8152600401602060405180830381600087803b1580156101e057600080fd5b505af11580156101f4573d6000803e3d6000fd5b505050506040513d601f19601f8201168201806040525081019061021891906112ac565b60055490915060009067ffffffffffffffff81111561024757634e487b7160e01b600052604160045260246000fd5b604051908082528060200260200182016040528015610270578160200160208202803683370190505b50905060005b6005548110156102bf5760008282815181106102a257634e487b7160e01b600052603260045260246000fd5b6020908102919091010152806102b7816119f3565b915050610276565b5060008054604051633806be4b60e21b81526001600160a01b039091169163e01af92c916102f091906004016114f3565b600060405180830381600087803b15801561030a57600080fd5b505af115801561031e573d6000803e3d6000fd5b5050604080516005805460a060208202840181019094526080830181815260009650929450849361038f9392919085018282801561038557602002820191906000526020600020905b81546001600160a01b03168152600190910190602001808311610367575b5050505050610bd9565b81526020810184905260400160016103a686610bdc565b6040516020016103b792919061195e565b60408051601f19818403018152918152908252600060209290920191909152600254600f5491517f8bdb39130000000000000000000000000000000000000000000000000000000081529293506001600160a01b0390811692638bdb39139261042c9288923092909116908790600401611507565b600060405180830381600087803b15801561044657600080fd5b505af115801561045a573d6000803e3d6000fd5b505050507f0139ec377d0a521e725f8ccba653dd7cea5bbc10c1f284590ee683c86fb5397e8360405161048d91906114fe565b60405180910390a1505050565b600d5461010090046001600160a01b031633146104c95760405162461bcd60e51b815260040161015c90611872565b600d5460ff166104eb5760405162461bcd60e51b815260040161015c9061175f565b60008054906101000a90046001600160a01b03166001600160a01b03166347bc4d926040518163ffffffff1660e01b8152600401602060405180830381600087803b15801561053957600080fd5b505af115801561054d573d6000803e3d6000fd5b505050506040513d601f19601f82011682018060405250810190610571919061128c565b1561058e5760405162461bcd60e51b815260040161015c906118a9565b600054604051633806be4b60e21b81526001600160a01b039091169063e01af92c906105bf906001906004016114f3565b600060405180830381600087803b1580156105d957600080fd5b505af11580156105ed573d6000803e3d6000fd5b50505050565b600e54600f546001600160a01b03918216911682565b600d5461010090046001600160a01b031633146106385760405162461bcd60e51b815260040161015c90611728565b600d5460ff1661065a5760405162461bcd60e51b815260040161015c906117cd565b60008054906101000a90046001600160a01b03166001600160a01b03166347bc4d926040518163ffffffff1660e01b8152600401602060405180830381600087803b1580156106a857600080fd5b505af11580156106bc573d6000803e3d6000fd5b505050506040513d601f19601f820116820180604052508101906106e0919061128c565b15156001146107015760405162461bcd60e51b815260040161015c90611804565b60008054604051633806be4b60e21b81526001600160a01b039091169163e01af92c916105bf91906004016114f3565b600d5460ff166107535760405162461bcd60e51b815260040161015c9061183b565b600c544210156107755760405162461bcd60e51b815260040161015c90611796565b600054604051633806be4b60e21b81526001600160a01b039091169063e01af92c906107a6906001906004016114f3565b600060405180830381600087803b1580156107c057600080fd5b505af11580156107d4573d6000803e3d6000fd5b505050507fb9bbb15e341600c8d067a0cadeba219905d5ba6d422b193c9c32265d26fc51c8600160405161080891906114f3565b60405180910390a1565b600380548190610821906119b8565b80601f016020809104026020016040519081016040528092919081815260200182805461084d906119b8565b801561089a5780601f1061086f5761010080835404028352916020019161089a565b820191906000526020600020905b81548152906001019060200180831161087d57829003601f168201915b5050505050908060010180546108af906119b8565b80601f01602080910402602001604051908101604052809291908181526020018280546108db906119b8565b80156109285780601f106108fd57610100808354040283529160200191610928565b820191906000526020600020905b81548152906001019060200180831161090b57829003601f168201915b5050506006840154600785015460088601546009870154600a90970154959692959194506001600160a01b03808216945060ff600160a01b909204821693929182169161010090041689565b600e546001600160a01b0316331461099e5760405162461bcd60e51b815260040161015c9061165d565b600d5460ff161515600114156109c65760405162461bcd60e51b815260040161015c90611694565b6109ce610d20565b6109ea5760405162461bcd60e51b815260040161015c906118e0565b600d805460ff1916600190811790915554600a54600b546040517f236797190000000000000000000000000000000000000000000000000000000081526001600160a01b0393841693632367971993610a6293600393600493600593600793909291811691600160a01b90910460ff169086016115b2565b602060405180830381600087803b158015610a7c57600080fd5b505af1158015610a90573d6000803e3d6000fd5b505050506040513d601f19601f82011682018060405250810190610ab49190611232565b600080547fffffffffffffffffffffffff0000000000000000000000000000000000000000166001600160a01b0392831617908190556040517f862036d3286b6c0c3d81e0731e5523949a342fd1b5090ca0703aaba60f23869a92610b1a9216906114c5565b60405180910390a1600954600c54600091610b34916119a0565b600054600c546040517f3e5692050000000000000000000000000000000000000000000000000000000081529293506001600160a01b0390911691633e56920591610b8691859060089060040161196c565b600060405180830381600087803b158015610ba057600080fd5b505af1158015610bb4573d6000803e3d6000fd5b50505050610bc0610e99565b50565b6001546002546001600160a01b03918216911682565b90565b6002546040517ff6c0092700000000000000000000000000000000000000000000000000000000815260009182916001600160a01b039091169063f6c0092790610c2a9086906004016114fe565b6040805180830381600087803b158015610c4357600080fd5b505af1158015610c57573d6000803e3d6000fd5b505050506040513d601f19601f82011682018060405250810190610c7b9190611253565b506040517f70a0823100000000000000000000000000000000000000000000000000000000815290915081906001600160a01b038216906370a0823190610cc69030906004016114c5565b60206040518083038186803b158015610cde57600080fd5b505afa158015610cf2573d6000803e3d6000fd5b505050506040513d601f19601f82011682018060405250810190610d1691906112ac565b925050505b919050565b6000806000610d2d61119a565b9150915060038001600081548110610d5557634e487b7160e01b600052603260045260246000fd5b9060005260206000200154826001600160a01b03166370a08231306040518263ffffffff1660e01b8152600401610d8c91906114c5565b60206040518083038186803b158015610da457600080fd5b505afa158015610db8573d6000803e3d6000fd5b505050506040513d601f19601f82011682018060405250810190610ddc91906112ac565b10158015610e925750600680546001908110610e0857634e487b7160e01b600052603260045260246000fd5b9060005260206000200154816001600160a01b03166370a08231306040518263ffffffff1660e01b8152600401610e3f91906114c5565b60206040518083038186803b158015610e5757600080fd5b505afa158015610e6b573d6000803e3d6000fd5b505050506040513d601f19601f82011682018060405250810190610e8f91906112ac565b10155b9250505090565b60055460009067ffffffffffffffff811115610ec557634e487b7160e01b600052604160045260246000fd5b604051908082528060200260200182016040528015610eee578160200160208202803683370190505b50905060005b600554811015610f3e57600019828281518110610f2157634e487b7160e01b600052603260045260246000fd5b602090810291909101015280610f36816119f3565b915050610ef4565b50604080516005805460a06020820284018101909452608083018181526000948493610fa7939091850182828015610385576020028201919060005260206000209081546001600160a01b03168152600190910190602001808311610367575050505050610bd9565b8152602081018490526040016000604051610fc8919060069060200161193d565b60408051601f1981840301815291815290825260006020928301819052600254815483517f38fff2d000000000000000000000000000000000000000000000000000000000815293519596506001600160a01b039182169563b95cac289591909216936338fff2d093600480830194928390030190829087803b15801561104e57600080fd5b505af1158015611062573d6000803e3d6000fd5b505050506040513d601f19601f8201168201806040525081019061108691906112ac565b3030856040518563ffffffff1660e01b81526004016110a89493929190611507565b600060405180830381600087803b1580156110c257600080fd5b505af11580156110d6573d6000803e3d6000fd5b505050507f3ab359279172d20fb74f51c485585571b77bb1dc3b6b1430ecd2bf80543148bb60008054906101000a90046001600160a01b03166001600160a01b03166338fff2d06040518163ffffffff1660e01b8152600401602060405180830381600087803b15801561114957600080fd5b505af115801561115d573d6000803e3d6000fd5b505050506040513d601f19601f8201168201806040525081019061118191906112ac565b60405161118e91906114fe565b60405180910390a15050565b60008060036002016000815481106111c257634e487b7160e01b600052603260045260246000fd5b600091825260209091200154600580546001600160a01b039092169160019081106111fd57634e487b7160e01b600052603260045260246000fd5b6000918252602090912001549092506001600160a01b031690509091565b80516001600160a01b0381168114610d1b57600080fd5b600060208284031215611243578081fd5b61124c8261121b565b9392505050565b60008060408385031215611265578081fd5b61126e8361121b565b9150602083015160038110611281578182fd5b809150509250929050565b60006020828403121561129d578081fd5b8151801515811461124c578182fd5b6000602082840312156112bd578081fd5b5051919050565b6001600160a01b03169052565b6000815180845260208085019450808401835b83811015611300578151875295820195908201906001016112e4565b509495945050505050565b6000815480845260208085019450838352808320835b8381101561130057815487529582019560019182019101611321565b15159052565b60008151808452815b818110156113685760208185018101518683018201520161134c565b818111156113795782602083870101525b50601f01601f19169290920160200192915050565b8054600090600281046001808316806113a857607f831692505b60208084108214156113c857634e487b7160e01b86526022600452602486fd5b6113d284896114fe565b8280156113e657600181146113f757611422565b60ff19871682528282019750611422565b61140089611994565b60005b8781101561141c57815484820152908601908401611403565b83019850505b5050505050505092915050565b8051608080845281519084018190526000916020919082019060a0860190845b818110156114745783516001600160a01b03168352928401929184019160010161144f565b50508285015191508581038387015261148d81836112d1565b92505050604083015184820360408601526114a88282611343565b91505060608301516114bd606086018261133d565b509392505050565b6001600160a01b0391909116815260200190565b6001600160a01b0392831681529116602082015260400190565b901515815260200190565b90815260200190565b60008582526001600160a01b03808616602084015280851660408401525060806060830152611539608083018461142f565b9695505050505050565b60006101208083526115578184018d611343565b9050828103602084015261156b818c611343565b604084019a909a52505060608101969096526001600160a01b03948516608087015292151560a086015260c0850191909152151560e0840152166101009091015292915050565b600060e082526115c560e083018a61138e565b6020838203818501526115d8828b61138e565b848103604086015289548082528a8552828520935090820190845b818110156116185784546001600160a01b0316835260019485019492840192016115f3565b5050848103606086015261162c818a61130b565b935050505084608083015261164460a08301856112c4565b61165160c083018461133d565b98975050505050505050565b60208082526016908201527f4f6e6c792044414f2063616e2063616c6c207468697300000000000000000000604082015260600190565b60208082526022908201527f54686520706f6f6c2068617320616c7265616479206265656e206465706c6f7960408201527f6564000000000000000000000000000000000000000000000000000000000000606082015260800190565b60208082526010908201527f6e6f7420746f6461792c20627564647900000000000000000000000000000000604082015260600190565b6020808252601c908201527f6e6f7420616c6c6f77656420746f2070617573652074726164696e6700000000604082015260600190565b6020808252601d908201527f706f6f6c206861736e2774206265656e206465706c6f79656420796574000000604082015260600190565b6020808252601e908201527f54726164696e672063616e206e6f7420626520656e61626c6564207965740000604082015260600190565b60208082526015908201527f706f6f6c206e6f7420796574206465706c6f7965640000000000000000000000604082015260600190565b60208082526015908201527f706f6f6c206d75737420626520756e7061757365640000000000000000000000604082015260600190565b6020808252601e908201527f506f6f6c20686173206e6f74206265656e206465706c6f796564207965740000604082015260600190565b6020808252601e908201527f6e6f7420616c6c6f77656420746f20756e70617573652074726164696e670000604082015260600190565b60208082526018908201527f7377617020697320616c72656164792064697361626c65640000000000000000604082015260600190565b60208082526028908201527f4d616e6167657220646f6573206e6f74206861766520656e6f75676820706f6f60408201527f6c20746f6b656e73000000000000000000000000000000000000000000000000606082015260800190565b600083825260406020830152611956604083018461130b565b949350505050565b918252602082015260400190565b60008482528360208301526060604083015261198b606083018461130b565b95945050505050565b60009081526020902090565b600082198211156119b3576119b3611a0e565b500190565b6002810460018216806119cc57607f821691505b602082108114156119ed57634e487b7160e01b600052602260045260246000fd5b50919050565b6000600019821415611a0757611a07611a0e565b5060010190565b634e487b7160e01b600052601160045260246000fdfea26469706673582212200e7102294b5115a40bf3a65540e34f37ca891d1e4f84ee5fdcbce5308eeb70fd64736f6c63430008000033",
  "devdoc": {
    "kind": "dev",
    "methods": {
      "constructor": {
        "params": {
          "_balancer": "see struct Balancer - balancer contract addresses",
          "_dao": "see struct DAO - DAO addresses",
          "_durationInSeconds": "PoolConfiguration.durationInSeconds",
          "_endWeights": "PoolConfiguration.endWeights",
          "_name": "PoolConfiguration.name",
          "_startTime": "PoolConfiguration.startTime",
          "_startWeights": "PoolConfiguration.startWeights",
          "_swapFee": "PoolConfiguration.swapFee",
          "_symbol": "PoolConfiguration.symbol",
          "_tokenAmounts": "PoolConfiguration.tokenAmounts",
          "_tokens": "PoolConfiguration.tokens"
        }
      },
      "deployLBP()": {
        "details": "Will deploy a balancer LBP. Can only be called by DAO.agent address"
      }
    },
    "title": "LBP Manager",
    "version": 1
  },
  "userdoc": {
    "kind": "user",
    "methods": {
      "deployLBP()": {
        "notice": "This function requires that the DAO.agent has approved this address for spending pool tokens (e.g. POP & USDC). It will revert if the DAO.agent has not approved this contract for spending those tokens. The PoolConfiguration.tokenAmounts for the pool tokens will be transferred from the DAO.agent to this contract and forwarded to the LBP"
      },
      "enableTrading()": {
        "notice": "Anyone can enable trading after the LBP has been deployed and the start time has been reached. Trading must be enabled for the pool to work."
      },
      "lbp()": {
        "notice": "lbp deployed LBP address"
      },
      "pause()": {
        "notice": "allows pauser to pause pool"
      },
      "unpause()": {
        "notice": "allows pauser to unpause pool"
      },
      "withdrawFromPool()": {
        "notice": "The DAO.agent can call this function to shutdown and unwind the pool. The proceeds will be forwarded to the DAO.treasury"
      }
    },
    "notice": "This contract manages a Balancer Liquidity Bootstrapping Pool (LBP) so that only a DAO can deploy and shutdown an LBP. After the LBP is deployed, trading must be enabled. While only the DAO has permission to deploy, shutdown and unwind the LBP, anyone can permissionlessly enable trading after the configured start time. When the LBP is completed (via `withdrawFromPool()`), the total balance of the LBP tokens will be sent to the DAO treasury.",
    "version": 1
  },
  "storageLayout": {
    "storage": [
      {
        "astId": 3409,
        "contract": "contracts/lbp/LBPManager.sol:LBPManager",
        "label": "lbp",
        "offset": 0,
        "slot": "0",
        "type": "t_contract(ILBP)4080"
      },
      {
        "astId": 3412,
        "contract": "contracts/lbp/LBPManager.sol:LBPManager",
        "label": "balancer",
        "offset": 0,
        "slot": "1",
        "type": "t_struct(Balancer)3400_storage"
      },
      {
        "astId": 3415,
        "contract": "contracts/lbp/LBPManager.sol:LBPManager",
        "label": "poolConfig",
        "offset": 0,
        "slot": "3",
        "type": "t_struct(PoolConfiguration)3393_storage"
      },
      {
        "astId": 3418,
        "contract": "contracts/lbp/LBPManager.sol:LBPManager",
        "label": "dao",
        "offset": 0,
        "slot": "14",
        "type": "t_struct(DAO)3405_storage"
      }
    ],
    "types": {
      "t_address": {
        "encoding": "inplace",
        "label": "address",
        "numberOfBytes": "20"
      },
      "t_array(t_contract(IERC20)859)dyn_storage": {
        "base": "t_contract(IERC20)859",
        "encoding": "dynamic_array",
        "label": "contract IERC20[]",
        "numberOfBytes": "32"
      },
      "t_array(t_uint256)dyn_storage": {
        "base": "t_uint256",
        "encoding": "dynamic_array",
        "label": "uint256[]",
        "numberOfBytes": "32"
      },
      "t_bool": {
        "encoding": "inplace",
        "label": "bool",
        "numberOfBytes": "1"
      },
      "t_contract(IERC20)859": {
        "encoding": "inplace",
        "label": "contract IERC20",
        "numberOfBytes": "20"
      },
      "t_contract(ILBP)4080": {
        "encoding": "inplace",
        "label": "contract ILBP",
        "numberOfBytes": "20"
      },
      "t_contract(ILBPFactory)4107": {
        "encoding": "inplace",
        "label": "contract ILBPFactory",
        "numberOfBytes": "20"
      },
      "t_contract(IVault)4205": {
        "encoding": "inplace",
        "label": "contract IVault",
        "numberOfBytes": "20"
      },
      "t_string_storage": {
        "encoding": "bytes",
        "label": "string",
        "numberOfBytes": "32"
      },
      "t_struct(Balancer)3400_storage": {
        "encoding": "inplace",
        "label": "struct LBPManager.Balancer",
        "members": [
          {
            "astId": 3396,
            "contract": "contracts/lbp/LBPManager.sol:LBPManager",
            "label": "lbpFactory",
            "offset": 0,
            "slot": "0",
            "type": "t_contract(ILBPFactory)4107"
          },
          {
            "astId": 3399,
            "contract": "contracts/lbp/LBPManager.sol:LBPManager",
            "label": "vault",
            "offset": 0,
            "slot": "1",
            "type": "t_contract(IVault)4205"
          }
        ],
        "numberOfBytes": "64"
      },
      "t_struct(DAO)3405_storage": {
        "encoding": "inplace",
        "label": "struct LBPManager.DAO",
        "members": [
          {
            "astId": 3402,
            "contract": "contracts/lbp/LBPManager.sol:LBPManager",
            "label": "agent",
            "offset": 0,
            "slot": "0",
            "type": "t_address"
          },
          {
            "astId": 3404,
            "contract": "contracts/lbp/LBPManager.sol:LBPManager",
            "label": "treasury",
            "offset": 0,
            "slot": "1",
            "type": "t_address"
          }
        ],
        "numberOfBytes": "64"
      },
      "t_struct(PoolConfiguration)3393_storage": {
        "encoding": "inplace",
        "label": "struct LBPManager.PoolConfiguration",
        "members": [
          {
            "astId": 3363,
            "contract": "contracts/lbp/LBPManager.sol:LBPManager",
            "label": "name",
            "offset": 0,
            "slot": "0",
            "type": "t_string_storage"
          },
          {
            "astId": 3365,
            "contract": "contracts/lbp/LBPManager.sol:LBPManager",
            "label": "symbol",
            "offset": 0,
            "slot": "1",
            "type": "t_string_storage"
          },
          {
            "astId": 3369,
            "contract": "contracts/lbp/LBPManager.sol:LBPManager",
            "label": "tokens",
            "offset": 0,
            "slot": "2",
            "type": "t_array(t_contract(IERC20)859)dyn_storage"
          },
          {
            "astId": 3372,
            "contract": "contracts/lbp/LBPManager.sol:LBPManager",
            "label": "tokenAmounts",
            "offset": 0,
            "slot": "3",
            "type": "t_array(t_uint256)dyn_storage"
          },
          {
            "astId": 3375,
            "contract": "contracts/lbp/LBPManager.sol:LBPManager",
            "label": "startWeights",
            "offset": 0,
            "slot": "4",
            "type": "t_array(t_uint256)dyn_storage"
          },
          {
            "astId": 3378,
            "contract": "contracts/lbp/LBPManager.sol:LBPManager",
            "label": "endWeights",
            "offset": 0,
            "slot": "5",
            "type": "t_array(t_uint256)dyn_storage"
          },
          {
            "astId": 3380,
            "contract": "contracts/lbp/LBPManager.sol:LBPManager",
            "label": "durationInSeconds",
            "offset": 0,
            "slot": "6",
            "type": "t_uint256"
          },
          {
            "astId": 3382,
            "contract": "contracts/lbp/LBPManager.sol:LBPManager",
            "label": "swapFee",
            "offset": 0,
            "slot": "7",
            "type": "t_uint256"
          },
          {
            "astId": 3384,
            "contract": "contracts/lbp/LBPManager.sol:LBPManager",
            "label": "owner",
            "offset": 0,
            "slot": "8",
            "type": "t_address"
          },
          {
            "astId": 3386,
            "contract": "contracts/lbp/LBPManager.sol:LBPManager",
            "label": "swapEnabledOnStart",
            "offset": 20,
            "slot": "8",
            "type": "t_bool"
          },
          {
            "astId": 3388,
            "contract": "contracts/lbp/LBPManager.sol:LBPManager",
            "label": "startTime",
            "offset": 0,
            "slot": "9",
            "type": "t_uint256"
          },
          {
            "astId": 3390,
            "contract": "contracts/lbp/LBPManager.sol:LBPManager",
            "label": "deployed",
            "offset": 0,
            "slot": "10",
            "type": "t_bool"
          },
          {
            "astId": 3392,
            "contract": "contracts/lbp/LBPManager.sol:LBPManager",
            "label": "pauser",
            "offset": 1,
            "slot": "10",
            "type": "t_address"
          }
        ],
        "numberOfBytes": "352"
      },
      "t_uint256": {
        "encoding": "inplace",
        "label": "uint256",
        "numberOfBytes": "32"
      }
    }
  }
}