{
  "address": "0xC6c7e45658617238e8D2D2Bb16c08847Eb178639",
  "abi": [
    {
      "inputs": [
        {
          "internalType": "contract ERC20",
          "name": "erc20",
          "type": "address"
        },
        {
          "internalType": "address[]",
          "name": "receivers",
          "type": "address[]"
        },
        {
          "internalType": "uint256[]",
          "name": "amounts",
          "type": "uint256[]"
        }
      ],
      "name": "seed",
      "outputs": [],
      "stateMutability": "nonpayable",
      "type": "function"
    }
  ],
  "transactionHash": "0xa3cd1a48d98c49b0e212cf3dc2e92244ea7a3c079ab3226dc9382798a024eb6c",
  "args": [],
  "solcInputHash": "86261f34211b681ac2f76a43e1824af4",
  "bytecode": "0x608060405234801561001057600080fd5b50610313806100206000396000f3fe608060405234801561001057600080fd5b506004361061002b5760003560e01c80634833f1b214610030575b600080fd5b61004361003e3660046101e0565b610045565b005b60005b8381101561014c578573ffffffffffffffffffffffffffffffffffffffff166323b872dd3387878581811061008d57634e487b7160e01b600052603260045260246000fd5b90506020020160208101906100a2919061019d565b8686868181106100c257634e487b7160e01b600052603260045260246000fd5b905060200201356040518463ffffffff1660e01b81526004016100e793929190610260565b602060405180830381600087803b15801561010157600080fd5b505af1158015610115573d6000803e3d6000fd5b505050506040513d601f19601f8201168201806040525081019061013991906101c0565b508061014481610291565b915050610048565b505050505050565b60008083601f840112610165578182fd5b50813567ffffffffffffffff81111561017c578182fd5b602083019150836020808302850101111561019657600080fd5b9250929050565b6000602082840312156101ae578081fd5b81356101b9816102b8565b9392505050565b6000602082840312156101d1578081fd5b815180151581146101b9578182fd5b6000806000806000606086880312156101f7578081fd5b8535610202816102b8565b9450602086013567ffffffffffffffff8082111561021e578283fd5b61022a89838a01610154565b90965094506040880135915080821115610242578283fd5b5061024f88828901610154565b969995985093965092949392505050565b73ffffffffffffffffffffffffffffffffffffffff9384168152919092166020820152604081019190915260600190565b60006000198214156102b157634e487b7160e01b81526011600452602481fd5b5060010190565b73ffffffffffffffffffffffffffffffffffffffff811681146102da57600080fd5b5056fea2646970667358221220e1ba4b3aaf5a13aa2a5d0626be8a2ce75fd30b385858e4648b505fca651f24c764736f6c63430008000033",
  "devdoc": {
    "kind": "dev",
    "methods": {},
    "version": 1
  },
  "userdoc": {
    "kind": "user",
    "methods": {},
    "version": 1
  },
  "storageLayout": {
    "storage": [],
    "types": null
  }
}