{
  "address": "0xdcf445c2E1F0D6F50b4C03EcbBE22a0E1b9a095a",
  "abi": [
    {
      "inputs": [
        {
          "components": [
            {
              "internalType": "contract ILBPFactory",
              "name": "lbpFactory",
              "type": "address"
            },
            {
              "internalType": "contract IVault",
              "name": "vault",
              "type": "address"
            }
          ],
          "internalType": "struct LBPManager.Balancer",
          "name": "_balancer",
          "type": "tuple"
        },
        {
          "internalType": "string",
          "name": "_name",
          "type": "string"
        },
        {
          "internalType": "string",
          "name": "_symbol",
          "type": "string"
        },
        {
          "internalType": "contract IERC20[]",
          "name": "_tokens",
          "type": "address[]"
        },
        {
          "internalType": "uint256[]",
          "name": "_tokenAmounts",
          "type": "uint256[]"
        },
        {
          "internalType": "uint256[]",
          "name": "_startWeights",
          "type": "uint256[]"
        },
        {
          "internalType": "uint256[]",
          "name": "_endWeights",
          "type": "uint256[]"
        },
        {
          "internalType": "uint256",
          "name": "_swapFee",
          "type": "uint256"
        },
        {
          "internalType": "uint256",
          "name": "_durationInSeconds",
          "type": "uint256"
        },
        {
          "internalType": "uint256",
          "name": "_startTime",
          "type": "uint256"
        },
        {
          "components": [
            {
              "internalType": "address",
              "name": "agent",
              "type": "address"
            },
            {
              "internalType": "address",
              "name": "treasury",
              "type": "address"
            }
          ],
          "internalType": "struct LBPManager.DAO",
          "name": "_dao",
          "type": "tuple"
        }
      ],
      "stateMutability": "nonpayable",
      "type": "constructor"
    },
    {
      "anonymous": false,
      "inputs": [
        {
          "indexed": false,
          "internalType": "address",
          "name": "poolAddress",
          "type": "address"
        }
      ],
      "name": "CreatedPool",
      "type": "event"
    },
    {
      "anonymous": false,
      "inputs": [
        {
          "indexed": false,
          "internalType": "bytes32",
          "name": "poolID",
          "type": "bytes32"
        }
      ],
      "name": "ExitedPool",
      "type": "event"
    },
    {
      "anonymous": false,
      "inputs": [
        {
          "indexed": false,
          "internalType": "bytes32",
          "name": "poolID",
          "type": "bytes32"
        }
      ],
      "name": "JoinedPool",
      "type": "event"
    },
    {
      "anonymous": false,
      "inputs": [
        {
          "indexed": false,
          "internalType": "bool",
          "name": "enabled",
          "type": "bool"
        }
      ],
      "name": "SwapEnabled",
      "type": "event"
    },
    {
      "inputs": [],
      "name": "balancer",
      "outputs": [
        {
          "internalType": "contract ILBPFactory",
          "name": "lbpFactory",
          "type": "address"
        },
        {
          "internalType": "contract IVault",
          "name": "vault",
          "type": "address"
        }
      ],
      "stateMutability": "view",
      "type": "function"
    },
    {
      "inputs": [],
      "name": "dao",
      "outputs": [
        {
          "internalType": "address",
          "name": "agent",
          "type": "address"
        },
        {
          "internalType": "address",
          "name": "treasury",
          "type": "address"
        }
      ],
      "stateMutability": "view",
      "type": "function"
    },
    {
      "inputs": [],
      "name": "deployLBP",
      "outputs": [],
      "stateMutability": "nonpayable",
      "type": "function"
    },
    {
      "inputs": [],
      "name": "enableTrading",
      "outputs": [],
      "stateMutability": "nonpayable",
      "type": "function"
    },
    {
      "inputs": [],
      "name": "lbp",
      "outputs": [
        {
          "internalType": "contract ILBP",
          "name": "",
          "type": "address"
        }
      ],
      "stateMutability": "view",
      "type": "function"
    },
    {
      "inputs": [],
      "name": "poolConfig",
      "outputs": [
        {
          "internalType": "string",
          "name": "name",
          "type": "string"
        },
        {
          "internalType": "string",
          "name": "symbol",
          "type": "string"
        },
        {
          "internalType": "uint256",
          "name": "durationInSeconds",
          "type": "uint256"
        },
        {
          "internalType": "uint256",
          "name": "swapFee",
          "type": "uint256"
        },
        {
          "internalType": "address",
          "name": "owner",
          "type": "address"
        },
        {
          "internalType": "bool",
          "name": "swapEnabledOnStart",
          "type": "bool"
        },
        {
          "internalType": "uint256",
          "name": "startTime",
          "type": "uint256"
        },
        {
          "internalType": "bool",
          "name": "deployed",
          "type": "bool"
        }
      ],
      "stateMutability": "view",
      "type": "function"
    },
    {
      "inputs": [],
      "name": "withdrawFromPool",
      "outputs": [],
      "stateMutability": "nonpayable",
      "type": "function"
    }
  ],
  "transactionHash": "0xd345665a9d5ad2cdb928d5c28bb40707f0e0f2074e1f9f301332d1a90e49409f",
  "args": [
    {
      "lbpFactory": "0x751A0bC0e3f75b38e01Cf25bFCE7fF36DE1C87DE",
      "vault": "0xBA12222222228d8Ba445958a75a0704d566BF2C8"
    },
    "Foobar Liquidity Bootstrapping Pool",
    "FOO_LBP",
    [
      "0x2A954B298984c0d0cE38B6e4cDd47DDC16210208",
      "0xA0b4bf7DFB44Cf66e8f3704c4f433Fcf8d7881ab"
    ],
    [
      "1250000000000000000000000",
      "375000000000"
    ],
    [
      "990000000000000000",
      "10000000000000000"
    ],
    [
      "500000000000000000",
      "500000000000000000"
    ],
    "15000000000000000",
    216000,
    1637164812,
    {
      "agent": "0x196CF485b98fB95e27b13f40A43b59FA2570a16E",
      "treasury": "0x196CF485b98fB95e27b13f40A43b59FA2570a16E"
    }
  ],
  "solcInputHash": "c8481360863df91567032c4d32cfa44e",
  "bytecode": "0x60806040523480156200001157600080fd5b506040516200207b3803806200207b833981016040819052620000349162000795565b8a51600180546001600160a01b039283166001600160a01b03199182161790915560208d01516002805491909316911617905562015180831180156200007c57506206978083105b620000a45760405162461bcd60e51b81526004016200009b9062000956565b60405180910390fd5b428211620000c65760405162461bcd60e51b81526004016200009b906200091f565b8051600e80546001600160a01b03199081166001600160a01b0393841617909155602080840151600f8054909316931692909217905560408051610180810182528c81528083018c90529081018a9052606081018990526080810188905260a0810187905260c0810185905260e08101869052306101008201526000610120820181905261014082018590526101608201528b51909160039162000170918391908f019062000455565b5060208281015180516200018b926001850192019062000455565b5060408201518051620001a9916002840191602090910190620004e4565b5060608201518051620001c79160038401916020909101906200053c565b5060808201518051620001e59160048401916020909101906200053c565b5060a08201518051620002039160058401916020909101906200053c565b5060c0820151600682015560e082015160078201556101008201516008820180546101208501516001600160a01b03199091166001600160a01b039093169290921760ff60a01b1916600160a01b92151592909202919091179055610140820151600982015561016090910151600a909101805460ff19169115159190911790556200028e6200029f565b505050505050505050505062000a4b565b600080620002ac620003d2565b60025460405163095ea7b360e01b81529294509092506001600160a01b038085169263095ea7b392620002e89216906000199060040162000906565b602060405180830381600087803b1580156200030357600080fd5b505af115801562000318573d6000803e3d6000fd5b505050506040513d601f19601f820116820180604052508101906200033e91906200076c565b5060025460405163095ea7b360e01b81526001600160a01b038381169263095ea7b3926200037792909116906000199060040162000906565b602060405180830381600087803b1580156200039257600080fd5b505af1158015620003a7573d6000803e3d6000fd5b505050506040513d601f19601f82011682018060405250810190620003cd91906200076c565b505050565b6000806003600201600081548110620003fb57634e487b7160e01b600052603260045260246000fd5b600091825260209091200154600580546001600160a01b039092169160019081106200043757634e487b7160e01b600052603260045260246000fd5b6000918252602090912001549092506001600160a01b031690509091565b8280546200046390620009df565b90600052602060002090601f016020900481019282620004875760008555620004d2565b82601f10620004a257805160ff1916838001178555620004d2565b82800160010185558215620004d2579182015b82811115620004d2578251825591602001919060010190620004b5565b50620004e092915062000579565b5090565b828054828255906000526020600020908101928215620004d2579160200282015b82811115620004d257825182546001600160a01b0319166001600160a01b0390911617825560209092019160019091019062000505565b828054828255906000526020600020908101928215620004d25791602002820182811115620004d2578251825591602001919060010190620004b5565b5b80821115620004e057600081556001016200057a565b600082601f830112620005a1578081fd5b81516020620005ba620005b483620009b9565b6200098d565b8281528181019085830183850287018401881015620005d7578586fd5b855b8581101562000602578151620005ef8162000a32565b84529284019290840190600101620005d9565b5090979650505050505050565b600082601f83011262000620578081fd5b8151602062000633620005b483620009b9565b828152818101908583018385028701840188101562000650578586fd5b855b85811015620006025781518452928401929084019060010162000652565b600082601f83011262000681578081fd5b81516001600160401b038111156200069d576200069d62000a1c565b6020620006b3601f8301601f191682016200098d565b8281528582848701011115620006c7578384fd5b835b83811015620006e6578581018301518282018401528201620006c9565b83811115620006f757848385840101525b5095945050505050565b60006040828403121562000713578081fd5b604080519081016001600160401b038111828210171562000738576200073862000a1c565b806040525080915082516200074d8162000a32565b815260208301516200075f8162000a32565b6020919091015292915050565b6000602082840312156200077e578081fd5b815180151581146200078e578182fd5b9392505050565b60008060008060008060008060008060006101a08c8e031215620007b7578687fd5b620007c38d8d62000701565b60408d0151909b506001600160401b03811115620007df578788fd5b620007ed8e828f0162000670565b60608e0151909b5090506001600160401b038111156200080b578788fd5b620008198e828f0162000670565b60808e0151909a5090506001600160401b0381111562000837578788fd5b620008458e828f0162000590565b60a08e015190995090506001600160401b0381111562000863578788fd5b620008718e828f016200060f565b60c08e015190985090506001600160401b038111156200088f578687fd5b6200089d8e828f016200060f565b60e08e015190975090506001600160401b03811115620008bb578586fd5b620008c98e828f016200060f565b9550506101008c015193506101208c015192506101408c01519150620008f48d6101608e0162000701565b90509295989b509295989b9093969950565b6001600160a01b03929092168252602082015260400190565b6020808252601c908201527f73746172742074696d65206d75737420626520696e2066757475726500000000604082015260600190565b60208082526019908201527f6475726174696f6e206973206f7574206f6620626f756e647300000000000000604082015260600190565b6040518181016001600160401b0381118282101715620009b157620009b162000a1c565b604052919050565b60006001600160401b03821115620009d557620009d562000a1c565b5060209081020190565b600281046001821680620009f457607f821691505b6020821081141562000a1657634e487b7160e01b600052602260045260246000fd5b50919050565b634e487b7160e01b600052604160045260246000fd5b6001600160a01b038116811462000a4857600080fd5b50565b6116208062000a5b6000396000f3fe608060405234801561001057600080fd5b506004361061007d5760003560e01c80638a8c523c1161005b5780638a8c523c146100c05780639695e195146100c8578063d8519dda146100e4578063e563037e146100ec5761007d565b8063092f7de71461008257806326c0e5c5146100a05780634162169f146100aa575b600080fd5b61008a6100f4565b60405161009791906111de565b60405180910390f35b6100a8610103565b005b6100b2610463565b6040516100979291906111f2565b6100a8610479565b6100d06105ec565b60405161009798979695949392919061125c565b6100a8610744565b6100b26108fc565b6000546001600160a01b031681565b600d5460ff1661012e5760405162461bcd60e51b81526004016101259061146f565b60405180910390fd5b600e546001600160a01b031633146101585760405162461bcd60e51b815260040161012590611401565b60008060009054906101000a90046001600160a01b03166001600160a01b03166338fff2d06040518163ffffffff1660e01b8152600401602060405180830381600087803b1580156101a957600080fd5b505af11580156101bd573d6000803e3d6000fd5b505050506040513d601f19601f820116820180604052508101906101e19190610fc5565b60055490915060009067ffffffffffffffff81111561021057634e487b7160e01b600052604160045260246000fd5b604051908082528060200260200182016040528015610239578160200160208202803683370190505b50905060005b60055481101561028857600082828151811061026b57634e487b7160e01b600052603260045260246000fd5b602090810291909101015280610280816115b9565b91505061023f565b5060008054604051633806be4b60e21b81526001600160a01b039091169163e01af92c916102b9919060040161120c565b600060405180830381600087803b1580156102d357600080fd5b505af11580156102e7573d6000803e3d6000fd5b5050604080516005805460a06020820284018101909452608083018181526000965092945084936103589392919085018282801561034e57602002820191906000526020600020905b81546001600160a01b03168152600190910190602001808311610330575b5050505050610912565b815260208101849052604001600161036f86610915565b604051602001610380929190611524565b60408051601f19818403018152918152908252600060209290920191909152600254600f5491517f8bdb39130000000000000000000000000000000000000000000000000000000081529293506001600160a01b0390811692638bdb3913926103f59288923092909116908790600401611220565b600060405180830381600087803b15801561040f57600080fd5b505af1158015610423573d6000803e3d6000fd5b505050507f0139ec377d0a521e725f8ccba653dd7cea5bbc10c1f284590ee683c86fb5397e836040516104569190611217565b60405180910390a1505050565b600e54600f546001600160a01b03918216911682565b600d5460ff1661049b5760405162461bcd60e51b81526004016101259061146f565b600c544210156104bd5760405162461bcd60e51b815260040161012590611438565b6009546000906104cd9042611566565b6000546040517f3e5692050000000000000000000000000000000000000000000000000000000081529192506001600160a01b031690633e5692059061051c9042908590600890600401611532565b600060405180830381600087803b15801561053657600080fd5b505af115801561054a573d6000803e3d6000fd5b5050600054604051633806be4b60e21b81526001600160a01b03909116925063e01af92c915061057f9060019060040161120c565b600060405180830381600087803b15801561059957600080fd5b505af11580156105ad573d6000803e3d6000fd5b505050507fb9bbb15e341600c8d067a0cadeba219905d5ba6d422b193c9c32265d26fc51c860016040516105e1919061120c565b60405180910390a150565b6003805481906105fb9061157e565b80601f01602080910402602001604051908101604052809291908181526020018280546106279061157e565b80156106745780601f1061064957610100808354040283529160200191610674565b820191906000526020600020905b81548152906001019060200180831161065757829003601f168201915b5050505050908060010180546106899061157e565b80601f01602080910402602001604051908101604052809291908181526020018280546106b59061157e565b80156107025780601f106106d757610100808354040283529160200191610702565b820191906000526020600020905b8154815290600101906020018083116106e557829003601f168201915b5050506006840154600785015460088601546009870154600a90970154959692959194506001600160a01b038116935060ff600160a01b909104811692911688565b600e546001600160a01b0316331461076e5760405162461bcd60e51b81526004016101259061136d565b600d5460ff161515600114156107965760405162461bcd60e51b8152600401610125906113a4565b61079e610a59565b6107ba5760405162461bcd60e51b8152600401610125906114a6565b600d805460ff1916600190811790915554600a54600b546040517f236797190000000000000000000000000000000000000000000000000000000081526001600160a01b039384169363236797199361083293600393600493600593600793909291811691600160a01b90910460ff169086016112c2565b602060405180830381600087803b15801561084c57600080fd5b505af1158015610860573d6000803e3d6000fd5b505050506040513d601f19601f820116820180604052508101906108849190610f6b565b600080547fffffffffffffffffffffffff0000000000000000000000000000000000000000166001600160a01b0392831617908190556040517f862036d3286b6c0c3d81e0731e5523949a342fd1b5090ca0703aaba60f23869a926108ea9216906111de565b60405180910390a16108fa610bd2565b565b6001546002546001600160a01b03918216911682565b90565b6002546040517ff6c0092700000000000000000000000000000000000000000000000000000000815260009182916001600160a01b039091169063f6c0092790610963908690600401611217565b6040805180830381600087803b15801561097c57600080fd5b505af1158015610990573d6000803e3d6000fd5b505050506040513d601f19601f820116820180604052508101906109b49190610f8c565b506040517f70a0823100000000000000000000000000000000000000000000000000000000815290915081906001600160a01b038216906370a08231906109ff9030906004016111de565b60206040518083038186803b158015610a1757600080fd5b505afa158015610a2b573d6000803e3d6000fd5b505050506040513d601f19601f82011682018060405250810190610a4f9190610fc5565b925050505b919050565b6000806000610a66610ed3565b9150915060038001600081548110610a8e57634e487b7160e01b600052603260045260246000fd5b9060005260206000200154826001600160a01b03166370a08231306040518263ffffffff1660e01b8152600401610ac591906111de565b60206040518083038186803b158015610add57600080fd5b505afa158015610af1573d6000803e3d6000fd5b505050506040513d601f19601f82011682018060405250810190610b159190610fc5565b10158015610bcb5750600680546001908110610b4157634e487b7160e01b600052603260045260246000fd5b9060005260206000200154816001600160a01b03166370a08231306040518263ffffffff1660e01b8152600401610b7891906111de565b60206040518083038186803b158015610b9057600080fd5b505afa158015610ba4573d6000803e3d6000fd5b505050506040513d601f19601f82011682018060405250810190610bc89190610fc5565b10155b9250505090565b60055460009067ffffffffffffffff811115610bfe57634e487b7160e01b600052604160045260246000fd5b604051908082528060200260200182016040528015610c27578160200160208202803683370190505b50905060005b600554811015610c7757600019828281518110610c5a57634e487b7160e01b600052603260045260246000fd5b602090810291909101015280610c6f816115b9565b915050610c2d565b50604080516005805460a06020820284018101909452608083018181526000948493610ce093909185018282801561034e576020028201919060005260206000209081546001600160a01b03168152600190910190602001808311610330575050505050610912565b8152602081018490526040016000604051610d019190600690602001611503565b60408051601f1981840301815291815290825260006020928301819052600254815483517f38fff2d000000000000000000000000000000000000000000000000000000000815293519596506001600160a01b039182169563b95cac289591909216936338fff2d093600480830194928390030190829087803b158015610d8757600080fd5b505af1158015610d9b573d6000803e3d6000fd5b505050506040513d601f19601f82011682018060405250810190610dbf9190610fc5565b3030856040518563ffffffff1660e01b8152600401610de19493929190611220565b600060405180830381600087803b158015610dfb57600080fd5b505af1158015610e0f573d6000803e3d6000fd5b505050507f3ab359279172d20fb74f51c485585571b77bb1dc3b6b1430ecd2bf80543148bb60008054906101000a90046001600160a01b03166001600160a01b03166338fff2d06040518163ffffffff1660e01b8152600401602060405180830381600087803b158015610e8257600080fd5b505af1158015610e96573d6000803e3d6000fd5b505050506040513d601f19601f82011682018060405250810190610eba9190610fc5565b604051610ec79190611217565b60405180910390a15050565b6000806003600201600081548110610efb57634e487b7160e01b600052603260045260246000fd5b600091825260209091200154600580546001600160a01b03909216916001908110610f3657634e487b7160e01b600052603260045260246000fd5b6000918252602090912001549092506001600160a01b031690509091565b80516001600160a01b0381168114610a5457600080fd5b600060208284031215610f7c578081fd5b610f8582610f54565b9392505050565b60008060408385031215610f9e578081fd5b610fa783610f54565b9150602083015160038110610fba578182fd5b809150509250929050565b600060208284031215610fd6578081fd5b5051919050565b6001600160a01b03169052565b6000815180845260208085019450808401835b8381101561101957815187529582019590820190600101610ffd565b509495945050505050565b6000815480845260208085019450838352808320835b838110156110195781548752958201956001918201910161103a565b15159052565b60008151808452815b8181101561108157602081850181015186830182015201611065565b818111156110925782602083870101525b50601f01601f19169290920160200192915050565b8054600090600281046001808316806110c157607f831692505b60208084108214156110e157634e487b7160e01b86526022600452602486fd5b6110eb8489611217565b8280156110ff57600181146111105761113b565b60ff1987168252828201975061113b565b6111198961155a565b60005b878110156111355781548482015290860190840161111c565b83019850505b5050505050505092915050565b8051608080845281519084018190526000916020919082019060a0860190845b8181101561118d5783516001600160a01b031683529284019291840191600101611168565b5050828501519150858103838701526111a68183610fea565b92505050604083015184820360408601526111c1828261105c565b91505060608301516111d66060860182611056565b509392505050565b6001600160a01b0391909116815260200190565b6001600160a01b0392831681529116602082015260400190565b901515815260200190565b90815260200190565b60008582526001600160a01b038086166020840152808516604084015250608060608301526112526080830184611148565b9695505050505050565b60006101008083526112708184018c61105c565b90508281036020840152611284818b61105c565b6040840199909952505060608101959095526001600160a01b0393909316608085015290151560a084015260c0830152151560e09091015292915050565b600060e082526112d560e083018a6110a7565b6020838203818501526112e8828b6110a7565b848103604086015289548082528a8552828520935090820190845b818110156113285784546001600160a01b031683526001948501949284019201611303565b5050848103606086015261133c818a611024565b935050505084608083015261135460a0830185610fdd565b61136160c0830184611056565b98975050505050505050565b60208082526016908201527f4f6e6c792044414f2063616e2063616c6c207468697300000000000000000000604082015260600190565b60208082526022908201527f54686520706f6f6c2068617320616c7265616479206265656e206465706c6f7960408201527f6564000000000000000000000000000000000000000000000000000000000000606082015260800190565b60208082526010908201527f6e6f7420746f6461792c20627564647900000000000000000000000000000000604082015260600190565b6020808252601e908201527f54726164696e672063616e206e6f7420626520656e61626c6564207965740000604082015260600190565b6020808252601e908201527f506f6f6c20686173206e6f74206265656e206465706c6f796564207965740000604082015260600190565b60208082526028908201527f4d616e6167657220646f6573206e6f74206861766520656e6f75676820706f6f60408201527f6c20746f6b656e73000000000000000000000000000000000000000000000000606082015260800190565b60008382526040602083015261151c6040830184611024565b949350505050565b918252602082015260400190565b6000848252836020830152606060408301526115516060830184611024565b95945050505050565b60009081526020902090565b60008219821115611579576115796115d4565b500190565b60028104600182168061159257607f821691505b602082108114156115b357634e487b7160e01b600052602260045260246000fd5b50919050565b60006000198214156115cd576115cd6115d4565b5060010190565b634e487b7160e01b600052601160045260246000fdfea26469706673582212207e518c10c4cc1169d65b589533a0ed9d4881bd60d36a195e0816a1022a26f68064736f6c63430008000033",
  "devdoc": {
    "kind": "dev",
    "methods": {
      "constructor": {
        "params": {
          "_balancer": "see struct Balancer - balancer contract addresses",
          "_dao": "see struct DAO - DAO addresses",
          "_durationInSeconds": "PoolConfiguration.durationInSeconds",
          "_endWeights": "PoolConfiguration.endWeights",
          "_name": "PoolConfiguration.name",
          "_startTime": "PoolConfiguration.startTime",
          "_startWeights": "PoolConfiguration.startWeights",
          "_swapFee": "PoolConfiguration.swapFee",
          "_symbol": "PoolConfiguration.symbol",
          "_tokenAmounts": "PoolConfiguration.tokenAmounts",
          "_tokens": "PoolConfiguration.tokens"
        }
      },
      "deployLBP()": {
        "details": "Will deploy a balancer LBP. Can only be called by DAO.agent address"
      }
    },
    "title": "LBP Manager",
    "version": 1
  },
  "userdoc": {
    "kind": "user",
    "methods": {
      "deployLBP()": {
        "notice": "This function requires that the DAO.agent has approved this address for spending pool tokens (e.g. POP & USDC). It will revert if the DAO.agent has not approved this contract for spending those tokens. The PoolConfiguration.tokenAmounts for the pool tokens will be transferred from the DAO.agent to this contract and forwarded to the LBP"
      },
      "enableTrading()": {
        "notice": "Anyone can enable trading after the LBP has been deployed and the start time has been reached. Trading must be enabled for the pool to work."
      },
      "lbp()": {
        "notice": "lbp deployed LBP address"
      },
      "withdrawFromPool()": {
        "notice": "The DAO.agent can call this function to shutdown and unwind the pool. The proceeds will be forwarded to the DAO.treasury"
      }
    },
    "notice": "This contract manages a Balancer Liquidity Bootstrapping Pool (LBP) so that only a DAO can deploy and shutdown an LBP. After the LBP is deployed, trading must be enabled. While only the DAO has permission to deploy, shutdown and unwind the LBP, anyone can permissionlessly enable trading after the configured start time. When the LBP is completed (via `withdrawFromPool()`), the total balance of the LBP tokens will be sent to the DAO treasury.",
    "version": 1
  },
  "storageLayout": {
    "storage": [
      {
        "astId": 3407,
        "contract": "contracts/lbp/LBPManager.sol:LBPManager",
        "label": "lbp",
        "offset": 0,
        "slot": "0",
        "type": "t_contract(ILBP)4001"
      },
      {
        "astId": 3410,
        "contract": "contracts/lbp/LBPManager.sol:LBPManager",
        "label": "balancer",
        "offset": 0,
        "slot": "1",
        "type": "t_struct(Balancer)3398_storage"
      },
      {
        "astId": 3413,
        "contract": "contracts/lbp/LBPManager.sol:LBPManager",
        "label": "poolConfig",
        "offset": 0,
        "slot": "3",
        "type": "t_struct(PoolConfiguration)3391_storage"
      },
      {
        "astId": 3416,
        "contract": "contracts/lbp/LBPManager.sol:LBPManager",
        "label": "dao",
        "offset": 0,
        "slot": "14",
        "type": "t_struct(DAO)3403_storage"
      }
    ],
    "types": {
      "t_address": {
        "encoding": "inplace",
        "label": "address",
        "numberOfBytes": "20"
      },
      "t_array(t_contract(IERC20)859)dyn_storage": {
        "base": "t_contract(IERC20)859",
        "encoding": "dynamic_array",
        "label": "contract IERC20[]",
        "numberOfBytes": "32"
      },
      "t_array(t_uint256)dyn_storage": {
        "base": "t_uint256",
        "encoding": "dynamic_array",
        "label": "uint256[]",
        "numberOfBytes": "32"
      },
      "t_bool": {
        "encoding": "inplace",
        "label": "bool",
        "numberOfBytes": "1"
      },
      "t_contract(IERC20)859": {
        "encoding": "inplace",
        "label": "contract IERC20",
        "numberOfBytes": "20"
      },
      "t_contract(ILBP)4001": {
        "encoding": "inplace",
        "label": "contract ILBP",
        "numberOfBytes": "20"
      },
      "t_contract(ILBPFactory)4028": {
        "encoding": "inplace",
        "label": "contract ILBPFactory",
        "numberOfBytes": "20"
      },
      "t_contract(IVault)4126": {
        "encoding": "inplace",
        "label": "contract IVault",
        "numberOfBytes": "20"
      },
      "t_string_storage": {
        "encoding": "bytes",
        "label": "string",
        "numberOfBytes": "32"
      },
      "t_struct(Balancer)3398_storage": {
        "encoding": "inplace",
        "label": "struct LBPManager.Balancer",
        "members": [
          {
            "astId": 3394,
            "contract": "contracts/lbp/LBPManager.sol:LBPManager",
            "label": "lbpFactory",
            "offset": 0,
            "slot": "0",
            "type": "t_contract(ILBPFactory)4028"
          },
          {
            "astId": 3397,
            "contract": "contracts/lbp/LBPManager.sol:LBPManager",
            "label": "vault",
            "offset": 0,
            "slot": "1",
            "type": "t_contract(IVault)4126"
          }
        ],
        "numberOfBytes": "64"
      },
      "t_struct(DAO)3403_storage": {
        "encoding": "inplace",
        "label": "struct LBPManager.DAO",
        "members": [
          {
            "astId": 3400,
            "contract": "contracts/lbp/LBPManager.sol:LBPManager",
            "label": "agent",
            "offset": 0,
            "slot": "0",
            "type": "t_address"
          },
          {
            "astId": 3402,
            "contract": "contracts/lbp/LBPManager.sol:LBPManager",
            "label": "treasury",
            "offset": 0,
            "slot": "1",
            "type": "t_address"
          }
        ],
        "numberOfBytes": "64"
      },
      "t_struct(PoolConfiguration)3391_storage": {
        "encoding": "inplace",
        "label": "struct LBPManager.PoolConfiguration",
        "members": [
          {
            "astId": 3363,
            "contract": "contracts/lbp/LBPManager.sol:LBPManager",
            "label": "name",
            "offset": 0,
            "slot": "0",
            "type": "t_string_storage"
          },
          {
            "astId": 3365,
            "contract": "contracts/lbp/LBPManager.sol:LBPManager",
            "label": "symbol",
            "offset": 0,
            "slot": "1",
            "type": "t_string_storage"
          },
          {
            "astId": 3369,
            "contract": "contracts/lbp/LBPManager.sol:LBPManager",
            "label": "tokens",
            "offset": 0,
            "slot": "2",
            "type": "t_array(t_contract(IERC20)859)dyn_storage"
          },
          {
            "astId": 3372,
            "contract": "contracts/lbp/LBPManager.sol:LBPManager",
            "label": "tokenAmounts",
            "offset": 0,
            "slot": "3",
            "type": "t_array(t_uint256)dyn_storage"
          },
          {
            "astId": 3375,
            "contract": "contracts/lbp/LBPManager.sol:LBPManager",
            "label": "startWeights",
            "offset": 0,
            "slot": "4",
            "type": "t_array(t_uint256)dyn_storage"
          },
          {
            "astId": 3378,
            "contract": "contracts/lbp/LBPManager.sol:LBPManager",
            "label": "endWeights",
            "offset": 0,
            "slot": "5",
            "type": "t_array(t_uint256)dyn_storage"
          },
          {
            "astId": 3380,
            "contract": "contracts/lbp/LBPManager.sol:LBPManager",
            "label": "durationInSeconds",
            "offset": 0,
            "slot": "6",
            "type": "t_uint256"
          },
          {
            "astId": 3382,
            "contract": "contracts/lbp/LBPManager.sol:LBPManager",
            "label": "swapFee",
            "offset": 0,
            "slot": "7",
            "type": "t_uint256"
          },
          {
            "astId": 3384,
            "contract": "contracts/lbp/LBPManager.sol:LBPManager",
            "label": "owner",
            "offset": 0,
            "slot": "8",
            "type": "t_address"
          },
          {
            "astId": 3386,
            "contract": "contracts/lbp/LBPManager.sol:LBPManager",
            "label": "swapEnabledOnStart",
            "offset": 20,
            "slot": "8",
            "type": "t_bool"
          },
          {
            "astId": 3388,
            "contract": "contracts/lbp/LBPManager.sol:LBPManager",
            "label": "startTime",
            "offset": 0,
            "slot": "9",
            "type": "t_uint256"
          },
          {
            "astId": 3390,
            "contract": "contracts/lbp/LBPManager.sol:LBPManager",
            "label": "deployed",
            "offset": 0,
            "slot": "10",
            "type": "t_bool"
          }
        ],
        "numberOfBytes": "352"
      },
      "t_uint256": {
        "encoding": "inplace",
        "label": "uint256",
        "numberOfBytes": "32"
      }
    }
  }
}